{
	"_format": "sphinx-sol-ct-artifact-1",
	"merkleRoot": "0xb58a2f2034161eabedae3db5fbb8ade5ae1706ae7d419aa15368675b69d3bc6f",
	"contractName": "JBBuybackHook",
	"address": "0x89Fb9d64EBD4113caA01ef9e7f3a8F39Ff81f3c6",
	"abi": [
		{
			"type": "constructor",
			"inputs": [
				{
					"name": "directory",
					"type": "address",
					"internalType": "contract IJBDirectory"
				},
				{
					"name": "controller",
					"type": "address",
					"internalType": "contract IJBController"
				},
				{
					"name": "prices",
					"type": "address",
					"internalType": "contract IJBPrices"
				},
				{
					"name": "weth",
					"type": "address",
					"internalType": "contract IWETH9"
				},
				{
					"name": "factory",
					"type": "address",
					"internalType": "address"
				}
			],
			"stateMutability": "nonpayable"
		},
		{
			"type": "function",
			"name": "CONTROLLER",
			"inputs": [],
			"outputs": [
				{
					"name": "",
					"type": "address",
					"internalType": "contract IJBController"
				}
			],
			"stateMutability": "view"
		},
		{
			"type": "function",
			"name": "DIRECTORY",
			"inputs": [],
			"outputs": [
				{
					"name": "",
					"type": "address",
					"internalType": "contract IJBDirectory"
				}
			],
			"stateMutability": "view"
		},
		{
			"type": "function",
			"name": "MAX_TWAP_SLIPPAGE_TOLERANCE",
			"inputs": [],
			"outputs": [
				{
					"name": "",
					"type": "uint256",
					"internalType": "uint256"
				}
			],
			"stateMutability": "view"
		},
		{
			"type": "function",
			"name": "MAX_TWAP_WINDOW",
			"inputs": [],
			"outputs": [
				{
					"name": "",
					"type": "uint256",
					"internalType": "uint256"
				}
			],
			"stateMutability": "view"
		},
		{
			"type": "function",
			"name": "MIN_TWAP_SLIPPAGE_TOLERANCE",
			"inputs": [],
			"outputs": [
				{
					"name": "",
					"type": "uint256",
					"internalType": "uint256"
				}
			],
			"stateMutability": "view"
		},
		{
			"type": "function",
			"name": "MIN_TWAP_WINDOW",
			"inputs": [],
			"outputs": [
				{
					"name": "",
					"type": "uint256",
					"internalType": "uint256"
				}
			],
			"stateMutability": "view"
		},
		{
			"type": "function",
			"name": "PERMISSIONS",
			"inputs": [],
			"outputs": [
				{
					"name": "",
					"type": "address",
					"internalType": "contract IJBPermissions"
				}
			],
			"stateMutability": "view"
		},
		{
			"type": "function",
			"name": "PRICES",
			"inputs": [],
			"outputs": [
				{
					"name": "",
					"type": "address",
					"internalType": "contract IJBPrices"
				}
			],
			"stateMutability": "view"
		},
		{
			"type": "function",
			"name": "PROJECTS",
			"inputs": [],
			"outputs": [
				{
					"name": "",
					"type": "address",
					"internalType": "contract IJBProjects"
				}
			],
			"stateMutability": "view"
		},
		{
			"type": "function",
			"name": "TWAP_SLIPPAGE_DENOMINATOR",
			"inputs": [],
			"outputs": [
				{
					"name": "",
					"type": "uint256",
					"internalType": "uint256"
				}
			],
			"stateMutability": "view"
		},
		{
			"type": "function",
			"name": "UNISWAP_V3_FACTORY",
			"inputs": [],
			"outputs": [
				{
					"name": "",
					"type": "address",
					"internalType": "address"
				}
			],
			"stateMutability": "view"
		},
		{
			"type": "function",
			"name": "WETH",
			"inputs": [],
			"outputs": [
				{
					"name": "",
					"type": "address",
					"internalType": "contract IWETH9"
				}
			],
			"stateMutability": "view"
		},
		{
			"type": "function",
			"name": "afterPayRecordedWith",
			"inputs": [
				{
					"name": "context",
					"type": "tuple",
					"internalType": "struct JBAfterPayRecordedContext",
					"components": [
						{
							"name": "payer",
							"type": "address",
							"internalType": "address"
						},
						{
							"name": "projectId",
							"type": "uint256",
							"internalType": "uint256"
						},
						{
							"name": "rulesetId",
							"type": "uint256",
							"internalType": "uint256"
						},
						{
							"name": "amount",
							"type": "tuple",
							"internalType": "struct JBTokenAmount",
							"components": [
								{
									"name": "token",
									"type": "address",
									"internalType": "address"
								},
								{
									"name": "decimals",
									"type": "uint8",
									"internalType": "uint8"
								},
								{
									"name": "currency",
									"type": "uint32",
									"internalType": "uint32"
								},
								{
									"name": "value",
									"type": "uint256",
									"internalType": "uint256"
								}
							]
						},
						{
							"name": "forwardedAmount",
							"type": "tuple",
							"internalType": "struct JBTokenAmount",
							"components": [
								{
									"name": "token",
									"type": "address",
									"internalType": "address"
								},
								{
									"name": "decimals",
									"type": "uint8",
									"internalType": "uint8"
								},
								{
									"name": "currency",
									"type": "uint32",
									"internalType": "uint32"
								},
								{
									"name": "value",
									"type": "uint256",
									"internalType": "uint256"
								}
							]
						},
						{
							"name": "weight",
							"type": "uint256",
							"internalType": "uint256"
						},
						{
							"name": "newlyIssuedTokenCount",
							"type": "uint256",
							"internalType": "uint256"
						},
						{
							"name": "beneficiary",
							"type": "address",
							"internalType": "address"
						},
						{
							"name": "hookMetadata",
							"type": "bytes",
							"internalType": "bytes"
						},
						{
							"name": "payerMetadata",
							"type": "bytes",
							"internalType": "bytes"
						}
					]
				}
			],
			"outputs": [],
			"stateMutability": "payable"
		},
		{
			"type": "function",
			"name": "beforeCashOutRecordedWith",
			"inputs": [
				{
					"name": "context",
					"type": "tuple",
					"internalType": "struct JBBeforeCashOutRecordedContext",
					"components": [
						{
							"name": "terminal",
							"type": "address",
							"internalType": "address"
						},
						{
							"name": "holder",
							"type": "address",
							"internalType": "address"
						},
						{
							"name": "projectId",
							"type": "uint256",
							"internalType": "uint256"
						},
						{
							"name": "rulesetId",
							"type": "uint256",
							"internalType": "uint256"
						},
						{
							"name": "cashOutCount",
							"type": "uint256",
							"internalType": "uint256"
						},
						{
							"name": "totalSupply",
							"type": "uint256",
							"internalType": "uint256"
						},
						{
							"name": "surplus",
							"type": "tuple",
							"internalType": "struct JBTokenAmount",
							"components": [
								{
									"name": "token",
									"type": "address",
									"internalType": "address"
								},
								{
									"name": "decimals",
									"type": "uint8",
									"internalType": "uint8"
								},
								{
									"name": "currency",
									"type": "uint32",
									"internalType": "uint32"
								},
								{
									"name": "value",
									"type": "uint256",
									"internalType": "uint256"
								}
							]
						},
						{
							"name": "useTotalSurplus",
							"type": "bool",
							"internalType": "bool"
						},
						{
							"name": "cashOutTaxRate",
							"type": "uint256",
							"internalType": "uint256"
						},
						{
							"name": "metadata",
							"type": "bytes",
							"internalType": "bytes"
						}
					]
				}
			],
			"outputs": [
				{
					"name": "",
					"type": "uint256",
					"internalType": "uint256"
				},
				{
					"name": "",
					"type": "uint256",
					"internalType": "uint256"
				},
				{
					"name": "",
					"type": "uint256",
					"internalType": "uint256"
				},
				{
					"name": "hookSpecifications",
					"type": "tuple[]",
					"internalType": "struct JBCashOutHookSpecification[]",
					"components": [
						{
							"name": "hook",
							"type": "address",
							"internalType": "contract IJBCashOutHook"
						},
						{
							"name": "amount",
							"type": "uint256",
							"internalType": "uint256"
						},
						{
							"name": "metadata",
							"type": "bytes",
							"internalType": "bytes"
						}
					]
				}
			],
			"stateMutability": "pure"
		},
		{
			"type": "function",
			"name": "beforePayRecordedWith",
			"inputs": [
				{
					"name": "context",
					"type": "tuple",
					"internalType": "struct JBBeforePayRecordedContext",
					"components": [
						{
							"name": "terminal",
							"type": "address",
							"internalType": "address"
						},
						{
							"name": "payer",
							"type": "address",
							"internalType": "address"
						},
						{
							"name": "amount",
							"type": "tuple",
							"internalType": "struct JBTokenAmount",
							"components": [
								{
									"name": "token",
									"type": "address",
									"internalType": "address"
								},
								{
									"name": "decimals",
									"type": "uint8",
									"internalType": "uint8"
								},
								{
									"name": "currency",
									"type": "uint32",
									"internalType": "uint32"
								},
								{
									"name": "value",
									"type": "uint256",
									"internalType": "uint256"
								}
							]
						},
						{
							"name": "projectId",
							"type": "uint256",
							"internalType": "uint256"
						},
						{
							"name": "rulesetId",
							"type": "uint256",
							"internalType": "uint256"
						},
						{
							"name": "beneficiary",
							"type": "address",
							"internalType": "address"
						},
						{
							"name": "weight",
							"type": "uint256",
							"internalType": "uint256"
						},
						{
							"name": "reservedPercent",
							"type": "uint256",
							"internalType": "uint256"
						},
						{
							"name": "metadata",
							"type": "bytes",
							"internalType": "bytes"
						}
					]
				}
			],
			"outputs": [
				{
					"name": "weight",
					"type": "uint256",
					"internalType": "uint256"
				},
				{
					"name": "hookSpecifications",
					"type": "tuple[]",
					"internalType": "struct JBPayHookSpecification[]",
					"components": [
						{
							"name": "hook",
							"type": "address",
							"internalType": "contract IJBPayHook"
						},
						{
							"name": "amount",
							"type": "uint256",
							"internalType": "uint256"
						},
						{
							"name": "metadata",
							"type": "bytes",
							"internalType": "bytes"
						}
					]
				}
			],
			"stateMutability": "view"
		},
		{
			"type": "function",
			"name": "hasMintPermissionFor",
			"inputs": [
				{
					"name": "",
					"type": "uint256",
					"internalType": "uint256"
				},
				{
					"name": "",
					"type": "address",
					"internalType": "address"
				}
			],
			"outputs": [
				{
					"name": "",
					"type": "bool",
					"internalType": "bool"
				}
			],
			"stateMutability": "pure"
		},
		{
			"type": "function",
			"name": "poolOf",
			"inputs": [
				{
					"name": "projectId",
					"type": "uint256",
					"internalType": "uint256"
				},
				{
					"name": "terminalToken",
					"type": "address",
					"internalType": "address"
				}
			],
			"outputs": [
				{
					"name": "",
					"type": "address",
					"internalType": "contract IUniswapV3Pool"
				}
			],
			"stateMutability": "view"
		},
		{
			"type": "function",
			"name": "projectTokenOf",
			"inputs": [
				{
					"name": "projectId",
					"type": "uint256",
					"internalType": "uint256"
				}
			],
			"outputs": [
				{
					"name": "",
					"type": "address",
					"internalType": "address"
				}
			],
			"stateMutability": "view"
		},
		{
			"type": "function",
			"name": "setPoolFor",
			"inputs": [
				{
					"name": "projectId",
					"type": "uint256",
					"internalType": "uint256"
				},
				{
					"name": "fee",
					"type": "uint24",
					"internalType": "uint24"
				},
				{
					"name": "twapWindow",
					"type": "uint32",
					"internalType": "uint32"
				},
				{
					"name": "twapSlippageTolerance",
					"type": "uint256",
					"internalType": "uint256"
				},
				{
					"name": "terminalToken",
					"type": "address",
					"internalType": "address"
				}
			],
			"outputs": [
				{
					"name": "newPool",
					"type": "address",
					"internalType": "contract IUniswapV3Pool"
				}
			],
			"stateMutability": "nonpayable"
		},
		{
			"type": "function",
			"name": "setTwapSlippageToleranceOf",
			"inputs": [
				{
					"name": "projectId",
					"type": "uint256",
					"internalType": "uint256"
				},
				{
					"name": "newSlippageTolerance",
					"type": "uint256",
					"internalType": "uint256"
				}
			],
			"outputs": [],
			"stateMutability": "nonpayable"
		},
		{
			"type": "function",
			"name": "setTwapWindowOf",
			"inputs": [
				{
					"name": "projectId",
					"type": "uint256",
					"internalType": "uint256"
				},
				{
					"name": "newWindow",
					"type": "uint32",
					"internalType": "uint32"
				}
			],
			"outputs": [],
			"stateMutability": "nonpayable"
		},
		{
			"type": "function",
			"name": "supportsInterface",
			"inputs": [
				{
					"name": "interfaceId",
					"type": "bytes4",
					"internalType": "bytes4"
				}
			],
			"outputs": [
				{
					"name": "",
					"type": "bool",
					"internalType": "bool"
				}
			],
			"stateMutability": "pure"
		},
		{
			"type": "function",
			"name": "twapSlippageToleranceOf",
			"inputs": [
				{
					"name": "projectId",
					"type": "uint256",
					"internalType": "uint256"
				}
			],
			"outputs": [
				{
					"name": "",
					"type": "uint256",
					"internalType": "uint256"
				}
			],
			"stateMutability": "view"
		},
		{
			"type": "function",
			"name": "twapWindowOf",
			"inputs": [
				{
					"name": "projectId",
					"type": "uint256",
					"internalType": "uint256"
				}
			],
			"outputs": [
				{
					"name": "",
					"type": "uint32",
					"internalType": "uint32"
				}
			],
			"stateMutability": "view"
		},
		{
			"type": "function",
			"name": "uniswapV3SwapCallback",
			"inputs": [
				{
					"name": "amount0Delta",
					"type": "int256",
					"internalType": "int256"
				},
				{
					"name": "amount1Delta",
					"type": "int256",
					"internalType": "int256"
				},
				{
					"name": "data",
					"type": "bytes",
					"internalType": "bytes"
				}
			],
			"outputs": [],
			"stateMutability": "nonpayable"
		},
		{
			"type": "event",
			"name": "Mint",
			"inputs": [
				{
					"name": "projectId",
					"type": "uint256",
					"indexed": true,
					"internalType": "uint256"
				},
				{
					"name": "leftoverAmount",
					"type": "uint256",
					"indexed": false,
					"internalType": "uint256"
				},
				{
					"name": "tokenCount",
					"type": "uint256",
					"indexed": false,
					"internalType": "uint256"
				},
				{
					"name": "caller",
					"type": "address",
					"indexed": false,
					"internalType": "address"
				}
			],
			"anonymous": false
		},
		{
			"type": "event",
			"name": "PoolAdded",
			"inputs": [
				{
					"name": "projectId",
					"type": "uint256",
					"indexed": true,
					"internalType": "uint256"
				},
				{
					"name": "terminalToken",
					"type": "address",
					"indexed": true,
					"internalType": "address"
				},
				{
					"name": "pool",
					"type": "address",
					"indexed": false,
					"internalType": "address"
				},
				{
					"name": "caller",
					"type": "address",
					"indexed": false,
					"internalType": "address"
				}
			],
			"anonymous": false
		},
		{
			"type": "event",
			"name": "Swap",
			"inputs": [
				{
					"name": "projectId",
					"type": "uint256",
					"indexed": true,
					"internalType": "uint256"
				},
				{
					"name": "amountToSwapWith",
					"type": "uint256",
					"indexed": false,
					"internalType": "uint256"
				},
				{
					"name": "pool",
					"type": "address",
					"indexed": false,
					"internalType": "contract IUniswapV3Pool"
				},
				{
					"name": "amountReceived",
					"type": "uint256",
					"indexed": false,
					"internalType": "uint256"
				},
				{
					"name": "caller",
					"type": "address",
					"indexed": false,
					"internalType": "address"
				}
			],
			"anonymous": false
		},
		{
			"type": "event",
			"name": "TwapSlippageToleranceChanged",
			"inputs": [
				{
					"name": "projectId",
					"type": "uint256",
					"indexed": true,
					"internalType": "uint256"
				},
				{
					"name": "oldTolerance",
					"type": "uint256",
					"indexed": false,
					"internalType": "uint256"
				},
				{
					"name": "newTolerance",
					"type": "uint256",
					"indexed": false,
					"internalType": "uint256"
				},
				{
					"name": "caller",
					"type": "address",
					"indexed": false,
					"internalType": "address"
				}
			],
			"anonymous": false
		},
		{
			"type": "event",
			"name": "TwapWindowChanged",
			"inputs": [
				{
					"name": "projectId",
					"type": "uint256",
					"indexed": true,
					"internalType": "uint256"
				},
				{
					"name": "oldWindow",
					"type": "uint256",
					"indexed": false,
					"internalType": "uint256"
				},
				{
					"name": "newWindow",
					"type": "uint256",
					"indexed": false,
					"internalType": "uint256"
				},
				{
					"name": "caller",
					"type": "address",
					"indexed": false,
					"internalType": "address"
				}
			],
			"anonymous": false
		},
		{
			"type": "error",
			"name": "JBBuybackHook_CallerNotPool",
			"inputs": [
				{
					"name": "caller",
					"type": "address",
					"internalType": "address"
				}
			]
		},
		{
			"type": "error",
			"name": "JBBuybackHook_InsufficientPayAmount",
			"inputs": [
				{
					"name": "swapAmount",
					"type": "uint256",
					"internalType": "uint256"
				},
				{
					"name": "totalPaid",
					"type": "uint256",
					"internalType": "uint256"
				}
			]
		},
		{
			"type": "error",
			"name": "JBBuybackHook_InvalidTwapSlippageTolerance",
			"inputs": [
				{
					"name": "value",
					"type": "uint256",
					"internalType": "uint256"
				},
				{
					"name": "min",
					"type": "uint256",
					"internalType": "uint256"
				},
				{
					"name": "max",
					"type": "uint256",
					"internalType": "uint256"
				}
			]
		},
		{
			"type": "error",
			"name": "JBBuybackHook_InvalidTwapWindow",
			"inputs": [
				{
					"name": "value",
					"type": "uint256",
					"internalType": "uint256"
				},
				{
					"name": "min",
					"type": "uint256",
					"internalType": "uint256"
				},
				{
					"name": "max",
					"type": "uint256",
					"internalType": "uint256"
				}
			]
		},
		{
			"type": "error",
			"name": "JBBuybackHook_PoolAlreadySet",
			"inputs": [
				{
					"name": "pool",
					"type": "address",
					"internalType": "contract IUniswapV3Pool"
				}
			]
		},
		{
			"type": "error",
			"name": "JBBuybackHook_SpecifiedSlippageExceeded",
			"inputs": [
				{
					"name": "amount",
					"type": "uint256",
					"internalType": "uint256"
				},
				{
					"name": "minimum",
					"type": "uint256",
					"internalType": "uint256"
				}
			]
		},
		{
			"type": "error",
			"name": "JBBuybackHook_Unauthorized",
			"inputs": [
				{
					"name": "caller",
					"type": "address",
					"internalType": "address"
				}
			]
		},
		{
			"type": "error",
			"name": "JBBuybackHook_ZeroProjectToken",
			"inputs": []
		},
		{
			"type": "error",
			"name": "JBPermissioned_Unauthorized",
			"inputs": [
				{
					"name": "account",
					"type": "address",
					"internalType": "address"
				},
				{
					"name": "sender",
					"type": "address",
					"internalType": "address"
				},
				{
					"name": "projectId",
					"type": "uint256",
					"internalType": "uint256"
				},
				{
					"name": "permissionId",
					"type": "uint256",
					"internalType": "uint256"
				}
			]
		},
		{
			"type": "error",
			"name": "PRBMath_MulDiv_Overflow",
			"inputs": [
				{
					"name": "x",
					"type": "uint256",
					"internalType": "uint256"
				},
				{
					"name": "y",
					"type": "uint256",
					"internalType": "uint256"
				},
				{
					"name": "denominator",
					"type": "uint256",
					"internalType": "uint256"
				}
			]
		},
		{
			"type": "error",
			"name": "SafeERC20FailedOperation",
			"inputs": [
				{
					"name": "token",
					"type": "address",
					"internalType": "address"
				}
			]
		},
		{
			"type": "error",
			"name": "T",
			"inputs": []
		}
	],
	"solcInputHash": "189b86c2d8733db2e7d968a643c72e1c",
	"args": [
		"0x5ADb234602D074064C216C1fDB23c6c2031F0C75",
		"0x74fc0e2cB3Eb5A2742f8B9F0D6F1263dD3664b5D",
		"0x8c88469cA3aA9dE6Ab22c5113Ae2A8E20329fd8c",
		"0x4200000000000000000000000000000000000006",
		"0x4752ba5DBc23f44D87826276BF6Fd6b1C372aD24"
	],
	"bytecode": "0x6101606040523480156200001257600080fd5b5060405162004b5f38038062004b5f833981016040819052620000359162000159565b836001600160a01b031663f434c9146040518163ffffffff1660e01b8152600401602060405180830381865afa15801562000074573d6000803e3d6000fd5b505050506040513d601f19601f820116820180604052508101906200009a9190620001d9565b6001600160a01b0390811660805285811660c052841660a08190526040805163293c499960e01b8152905163293c4999916004808201926020929091908290030181865afa158015620000f1573d6000803e3d6000fd5b505050506040513d601f19601f82011682018060405250810190620001179190620001d9565b6001600160a01b039081166101005292831660e052821661012052166101405250620002009050565b6001600160a01b03811681146200015657600080fd5b50565b600080600080600060a086880312156200017257600080fd5b85516200017f8162000140565b6020870151909550620001928162000140565b6040870151909450620001a58162000140565b6060870151909350620001b88162000140565b6080870151909250620001cb8162000140565b809150509295509295909350565b600060208284031215620001ec57600080fd5b8151620001f98162000140565b9392505050565b60805160a05160c05160e051610100516101205161014051614886620002d9600039600081816104a2015281816114ee01528181611c4801528181611dc401528181611ea3015261218a015260008181610580015261152e0152600081816102d601528181610768015281816110c1015261121c01526000818161023a01528181610cb10152611abb015260008181610410015261093a01526000818161051801528181610bf901528181610f8a01528181611358015281816119ee01526123d201526000818161054c0152611fd901526148866000f3fe6080604052600436106101965760003560e01c8063889eedb4116100e1578063b88a92b41161008a578063f434c91411610064578063f434c9141461053a578063f73e5aab1461056e578063fa461e33146105a2578063fb82b1b0146105c257600080fd5b8063b88a92b4146104d9578063db312fae146104f0578063ee0fc1211461050657600080fd5b80639c9d4361116100bb5780639c9d436114610460578063ad5c464814610490578063af471880146104c457600080fd5b8063889eedb4146103b357806388bc2ef3146103fe5780638cc358461461043257600080fd5b8063293c499911610143578063677ce0881161011d578063677ce0881461035a578063754baf961461037d5780637b621d3a1461039357600080fd5b8063293c4999146102c45780633717fba7146102f857806355135de01461033a57600080fd5b80631a65893b116101745780631a65893b146102055780631eabcd341461022857806327e514111461028157600080fd5b806301ffc9a71461019b578063132893eb146101d05780631337f986146101f2575b600080fd5b3480156101a757600080fd5b506101bb6101b63660046136e5565b610604565b60405190151581526020015b60405180910390f35b3480156101dc57600080fd5b506101f06101eb36600461373c565b610735565b005b6101f061020036600461376c565b610902565b34801561021157600080fd5b5061021a607881565b6040519081526020016101c7565b34801561023457600080fd5b5061025c7f000000000000000000000000000000000000000000000000000000000000000081565b60405173ffffffffffffffffffffffffffffffffffffffff90911681526020016101c7565b34801561028d57600080fd5b5061025c61029c3660046137a8565b60016020526000908152604090205473ffffffffffffffffffffffffffffffffffffffff1681565b3480156102d057600080fd5b5061025c7f000000000000000000000000000000000000000000000000000000000000000081565b34801561030457600080fd5b506103256103133660046137a8565b60009081526002602052604090205490565b60405163ffffffff90911681526020016101c7565b34801561034657600080fd5b506101f06103553660046137c1565b61108e565b34801561036657600080fd5b506101bb610375366004613805565b600092915050565b34801561038957600080fd5b5061021a61232881565b34801561039f57600080fd5b5061025c6103ae36600461382a565b6111d1565b3480156103bf57600080fd5b5061025c6103ce366004613805565b600060208181529281526040808220909352908152205473ffffffffffffffffffffffffffffffffffffffff1681565b34801561040a57600080fd5b5061025c7f000000000000000000000000000000000000000000000000000000000000000081565b34801561043e57600080fd5b5061045261044d366004613891565b61189f565b6040516101c7929190613931565b34801561046c57600080fd5b5061021a61047b3660046137a8565b60009081526002602052604090205460801c90565b34801561049c57600080fd5b5061025c7f000000000000000000000000000000000000000000000000000000000000000081565b3480156104d057600080fd5b5061021a606481565b3480156104e557600080fd5b5061021a6202a30081565b3480156104fc57600080fd5b5061021a61271081565b34801561051257600080fd5b5061025c7f000000000000000000000000000000000000000000000000000000000000000081565b34801561054657600080fd5b5061025c7f000000000000000000000000000000000000000000000000000000000000000081565b34801561057a57600080fd5b5061025c7f000000000000000000000000000000000000000000000000000000000000000081565b3480156105ae57600080fd5b506101f06105bd3660046139ed565b611d87565b3480156105ce57600080fd5b506105f46105dd366004613a6d565b6101608101359160808201359160a0013590606090565b6040516101c79493929190613aa9565b60007fffffffff0000000000000000000000000000000000000000000000000000000082167f103d097e00000000000000000000000000000000000000000000000000000000148061069757507fffffffff0000000000000000000000000000000000000000000000000000000082167f1337f98600000000000000000000000000000000000000000000000000000000145b806106e357507fffffffff0000000000000000000000000000000000000000000000000000000082167f913c66f900000000000000000000000000000000000000000000000000000000145b8061072f57507fffffffff0000000000000000000000000000000000000000000000000000000082167f01ffc9a700000000000000000000000000000000000000000000000000000000145b92915050565b6040517f6352211e000000000000000000000000000000000000000000000000000000008152600481018390526107f1907f000000000000000000000000000000000000000000000000000000000000000073ffffffffffffffffffffffffffffffffffffffff1690636352211e906024015b602060405180830381865afa1580156107c5573d6000803e3d6000fd5b505050506040513d601f19601f820116820180604052508101906107e99190613b84565b836018611f4e565b60788163ffffffff16108061080e57506202a3008163ffffffff16115b15610862576040517f904c370000000000000000000000000000000000000000000000000000000000815263ffffffff82166004820152607860248201526202a30060448201526064015b60405180910390fd5b600082815260026020908152604091829020805463ffffffff85167fffffffffffffffffffffffffffffffff000000000000000000000000000000008216811790925583516fffffffffffffffffffffffffffffffff821680825293810192909252339382019390935284907fa8d6b20cd05f07d50e9855ce0fc6de3517f3df2e890a5ec6357892b3808a53ce906060015b60405180910390a250505050565b6040517f6e49181f000000000000000000000000000000000000000000000000000000008152602082013560048201523360248201527f000000000000000000000000000000000000000000000000000000000000000073ffffffffffffffffffffffffffffffffffffffff1690636e49181f90604401602060405180830381865afa158015610996573d6000803e3d6000fd5b505050506040513d601f19601f820116820180604052508101906109ba9190613bba565b6109f2576040517f4758af1b000000000000000000000000000000000000000000000000000000008152336004820152602401610859565b60008080610a046101c0850185613bd7565b810190610a119190613c3c565b9194509250905061eeee610a2c610100860160e08701613c71565b73ffffffffffffffffffffffffffffffffffffffff1614610a8157610a813330610140870135610a63610100890160e08a01613c71565b73ffffffffffffffffffffffffffffffffffffffff169291906120b1565b6000610a8d858561213a565b905081811015610ad3576040517fe2d708a90000000000000000000000000000000000000000000000000000000081526004810182905260248101839052604401610859565b600061eeee610ae9610100880160e08901613c71565b73ffffffffffffffffffffffffffffffffffffffff1614610baa57610b15610100870160e08801613c71565b6040517f70a0823100000000000000000000000000000000000000000000000000000000815230600482015273ffffffffffffffffffffffffffffffffffffffff91909116906370a0823190602401602060405180830381865afa158015610b81573d6000803e3d6000fd5b505050506040513d601f19601f82011682018060405250810190610ba59190613c8e565b610bac565b475b6040517f419296260000000000000000000000000000000000000000000000000000000081526020880135600482015290915060009073ffffffffffffffffffffffffffffffffffffffff7f0000000000000000000000000000000000000000000000000000000000000000169063419296269060240161038060405180830381865afa158015610c41573d6000803e3d6000fd5b505050506040513d601f19601f82011682018060405250810190610c659190613f2f565b5090506000610c7982610100015160241c90565b63ffffffff16610c8f60c08a0160a08b01614006565b63ffffffff1614610d9d5773ffffffffffffffffffffffffffffffffffffffff7f000000000000000000000000000000000000000000000000000000000000000016633be273fa60208a0135610ceb60c08c0160a08d01614006565b61010086015160241c610d0460a08e0160808f01614032565b6040517fffffffff0000000000000000000000000000000000000000000000000000000060e087901b168152600481019490945263ffffffff92831660248501529116604483015260ff166064820152608401602060405180830381865afa158015610d74573d6000803e3d6000fd5b505050506040513d601f19601f82011682018060405250810190610d989190613c8e565b610db8565b610dad60a0890160808a01614032565b610db890600a61419e565b905060008315610f5757610dd2848a61016001358461244d565b905061eeee610de86101008b0160e08c01613c71565b73ffffffffffffffffffffffffffffffffffffffff1614610e3657610e363385610e196101008d0160e08e01613c71565b73ffffffffffffffffffffffffffffffffffffffff16919061255e565b600061eeee610e4c6101008c0160e08d01613c71565b73ffffffffffffffffffffffffffffffffffffffff1614610e6e576000610e70565b845b60408051878152602080820186905233828401529151929350908c0135917faacef1bbb194eac329f8f247fbe8cce3eca2ed1f2e0a45a0488c2dd8afe6e5169181900360600190a23373ffffffffffffffffffffffffffffffffffffffff16639e6eec05828c602001358d60e0016000016020810190610ef09190613c71565b896000604051806020016040528060008152506040518763ffffffff1660e01b8152600401610f239594939291906141ad565b6000604051808303818588803b158015610f3c57600080fd5b505af1158015610f50573d6000803e3d6000fd5b5050505050505b610f67878a61016001358461244d565b610f719082614209565b905073ffffffffffffffffffffffffffffffffffffffff7f00000000000000000000000000000000000000000000000000000000000000001663c7fb92de60208b0135610fbe8489614209565b610fd06101c08e016101a08f01613c71565b6040517fffffffff0000000000000000000000000000000000000000000000000000000060e086901b1681526004810193909352602483019190915273ffffffffffffffffffffffffffffffffffffffff16604482015260a06064820152600060a48201526001608482015260c4016020604051808303816000875af115801561105e573d6000803e3d6000fd5b505050506040513d601f19601f820116820180604052508101906110829190613c8e565b50505050505050505050565b6040517f6352211e00000000000000000000000000000000000000000000000000000000815260048101839052611105907f000000000000000000000000000000000000000000000000000000000000000073ffffffffffffffffffffffffffffffffffffffff1690636352211e906024016107a8565b6064811080611115575061232881115b1561115e576040517f8b9cb55300000000000000000000000000000000000000000000000000000000815260048101829052606460248201819052612328604483015201610859565b6000828152600260209081526040918290208054608085811b6fffffffffffffffffffffffffffffffff83161790925583519181901c808352928201859052339382019390935284907faafe2470cbfb11a09f9b45d6a795226e93cc251e30fdcabddbabb157a1db5353906060016108f4565b6040517f6352211e0000000000000000000000000000000000000000000000000000000081526004810186905260009061128f9073ffffffffffffffffffffffffffffffffffffffff7f00000000000000000000000000000000000000000000000000000000000000001690636352211e90602401602060405180830381865afa158015611263573d6000803e3d6000fd5b505050506040513d601f19601f820116820180604052508101906112879190613b84565b876019611f4e565b606483108061129f575061232883115b156112e8576040517f8b9cb55300000000000000000000000000000000000000000000000000000000815260048101849052606460248201819052612328604483015201610859565b60788463ffffffff16108061130557506202a3008463ffffffff16115b15611354576040517f904c370000000000000000000000000000000000000000000000000000000000815263ffffffff85166004820152607860248201526202a3006044820152606401610859565b60007f000000000000000000000000000000000000000000000000000000000000000073ffffffffffffffffffffffffffffffffffffffff16631d831d5c6040518163ffffffff1660e01b8152600401602060405180830381865afa1580156113c1573d6000803e3d6000fd5b505050506040513d601f19601f820116820180604052508101906113e59190613b84565b73ffffffffffffffffffffffffffffffffffffffff1663ea78803f886040518263ffffffff1660e01b815260040161141f91815260200190565b602060405180830381865afa15801561143c573d6000803e3d6000fd5b505050506040513d601f19601f820116820180604052508101906114609190613b84565b905073ffffffffffffffffffffffffffffffffffffffff81166114af576040517f8637f5b700000000000000000000000000000000000000000000000000000000815260040160405180910390fd5b7fffffffffffffffffffffffffffffffffffffffffffffffffffffffffffff111273ffffffffffffffffffffffffffffffffffffffff841601611510577f000000000000000000000000000000000000000000000000000000000000000092505b73ffffffffffffffffffffffffffffffffffffffff808416908216107f000000000000000000000000000000000000000000000000000000000000000081611558578461155a565b825b826115655783611567565b855b6040805173ffffffffffffffffffffffffffffffffffffffff9384166020820152929091169082015262ffffff89166060820152608001604080517fffffffffffffffffffffffffffffffffffffffffffffffffffffffffffffffe0818403018152908290528051602091820120611662939290917fe34f199b19b2b4f47f68442619d555527d244f78a3297ea89325f843f87b8b5491017fff00000000000000000000000000000000000000000000000000000000000000815260609390931b7fffffffffffffffffffffffffffffffffffffffff0000000000000000000000001660018401526015830191909152603582015260550190565b604080517fffffffffffffffffffffffffffffffffffffffffffffffffffffffffffffffe0818403018152918152815160209283012060008b815280845282812073ffffffffffffffffffffffffffffffffffffffff89811683529452919091205490945016156117315760008881526020818152604080832073ffffffffffffffffffffffffffffffffffffffff88811685529252918290205491517f14f04e4700000000000000000000000000000000000000000000000000000000815291166004820152602401610859565b60008881526020818152604080832073ffffffffffffffffffffffffffffffffffffffff888116855290835281842080547fffffffffffffffffffffffff0000000000000000000000000000000000000000908116898416179091558c85526002845282852063ffffffff8c1660808c901b8117909155600185528386208054909216928816929092179055815193845291830191909152339082015288907fa8d6b20cd05f07d50e9855ce0fc6de3517f3df2e890a5ec6357892b3808a53ce9060600160405180910390a26040805160008152602081018790523381830152905189917faafe2470cbfb11a09f9b45d6a795226e93cc251e30fdcabddbabb157a1db5353919081900360600190a26040805173ffffffffffffffffffffffffffffffffffffffff85811682523360208301528616918a917fe694de883385e30d535f625d68df4b2b5e866e8e86fe9d15554480c8d1812e60910160405180910390a3505095945050505050565b60408051808201909152600581527f71756f746500000000000000000000000000000000000000000000000000000060208201526101208201359060609060a084013590600090819081906118f390612636565b90506000806119448361190a6101608c018c613bd7565b8080601f01602080910402602001604051908101604052809392919081815260200183838082843760009201919091525061264a92505050565b9150915081156119675780806020019051810190611962919061421c565b955093505b505050828111156119ae576040517fcc8704dd0000000000000000000000000000000000000000000000000000000081526004810182905260248101849052604401610859565b806000036119b95750815b6040517f4192962600000000000000000000000000000000000000000000000000000000815260c087013560048201526000907f000000000000000000000000000000000000000000000000000000000000000073ffffffffffffffffffffffffffffffffffffffff169063419296269060240161038060405180830381865afa158015611a4b573d6000803e3d6000fd5b505050506040513d601f19601f82011682018060405250810190611a6f9190613f2f565b5090506000611a8382610100015160241c90565b63ffffffff16611a9960a08a0160808b01614006565b63ffffffff1614611ba75773ffffffffffffffffffffffffffffffffffffffff7f000000000000000000000000000000000000000000000000000000000000000016633be273fa60c08a0135611af560a08c0160808d01614006565b61010086015160241c611b0e60808e0160608f01614032565b6040517fffffffff0000000000000000000000000000000000000000000000000000000060e087901b168152600481019490945263ffffffff92831660248501529116604483015260ff166064820152608401602060405180830381865afa158015611b7e573d6000803e3d6000fd5b505050506040513d601f19601f82011682018060405250810190611ba29190613c8e565b611bc2565b611bb76080890160608a01614032565b611bc290600a61419e565b90506000611bd184898461244d565b60c08a01356000908152600160205260408082205492935073ffffffffffffffffffffffffffffffffffffffff9092169161eeee90611c169060608e01908e01613c71565b73ffffffffffffffffffffffffffffffffffffffff1614611c4657611c4160608c0160408d01613c71565b611c68565b7f00000000000000000000000000000000000000000000000000000000000000005b905086600003611c8557611c828b60c00135838884612838565b96505b86831015611d7a5760408051600180825281830190925273ffffffffffffffffffffffffffffffffffffffff8381169085161091816020015b60408051606080820183526000808352602083015291810191909152815260200190600190039081611cbe57505060408051606081018252308152602081018a9052919b508101828b8a14611d1c57611d178a8d614240565b611d1f565b60005b604080519215156020840152820152606081018b90526080016040516020818303038152906040528152508a600081518110611d5d57611d5d614253565b602002602001018190525060009a50505050505050505050915091565b5050505050505050915091565b600080611d9683850185613805565b9092509050600073ffffffffffffffffffffffffffffffffffffffff821661eeee14611dc25781611de4565b7f00000000000000000000000000000000000000000000000000000000000000005b60008481526020818152604080832073ffffffffffffffffffffffffffffffffffffffff8581168552925290912054919250163314611e51576040517f7da0526e000000000000000000000000000000000000000000000000000000008152336004820152602401610859565b6000808812611e605787611e62565b865b90507fffffffffffffffffffffffffffffffffffffffffffffffffffffffffffff111273ffffffffffffffffffffffffffffffffffffffff841601611f23577f000000000000000000000000000000000000000000000000000000000000000073ffffffffffffffffffffffffffffffffffffffff1663d0e30db0826040518263ffffffff1660e01b81526004016000604051808303818588803b158015611f0957600080fd5b505af1158015611f1d573d6000803e3d6000fd5b50505050505b611f4473ffffffffffffffffffffffffffffffffffffffff83163383612a40565b5050505050505050565b3373ffffffffffffffffffffffffffffffffffffffff8416811480159061204657506040517f348b684e00000000000000000000000000000000000000000000000000000000815273ffffffffffffffffffffffffffffffffffffffff82811660048301528581166024830152604482018590526064820184905260016084830181905260a48301527f0000000000000000000000000000000000000000000000000000000000000000169063348b684e9060c401602060405180830381865afa158015612020573d6000803e3d6000fd5b505050506040513d601f19601f820116820180604052508101906120449190613bba565b155b156120ab576040517f264deeaa00000000000000000000000000000000000000000000000000000000815273ffffffffffffffffffffffffffffffffffffffff8086166004830152821660248201526044810184905260648101839052608401610859565b50505050565b60405173ffffffffffffffffffffffffffffffffffffffff84811660248301528381166044830152606482018390526120ab9186918216906323b872dd906084015b604051602081830303815290604052915060e01b6020820180517bffffffffffffffffffffffffffffffffffffffffffffffffffffffff8381831617835250505050612a83565b60006101408301358161eeee612157610100870160e08801613c71565b73ffffffffffffffffffffffffffffffffffffffff161461218857612183610100860160e08701613c71565b6121aa565b7f00000000000000000000000000000000000000000000000000000000000000005b6020808701356000908152808252604080822073ffffffffffffffffffffffffffffffffffffffff80861684529352902054919250168063128acb083087158689612204576121ff6401000276a36001614282565b612223565b612223600173fffd8963efd1fc6a506488495d951d5263988d266142b6565b60208c01356122396101008e0160e08f01613c71565b60405160200161226992919091825273ffffffffffffffffffffffffffffffffffffffff16602082015260400190565b6040516020818303038152906040526040518663ffffffff1660e01b81526004016122989594939291906142e3565b60408051808303816000875af19250505080156122f0575060408051601f3d9081017fffffffffffffffffffffffffffffffffffffffffffffffffffffffffffffffe01682019092526122ed9181019061421c565b60015b612300576000935050505061072f565b8661230b578061230d565b815b6123169061432a565b6040805187815273ffffffffffffffffffffffffffffffffffffffff861660208281019190915291810183905233606082015291975089013592507f6a212efdcd471836edcfe424121fc9048d3a7cd0458b1218a71aa915300e0e57915060800160405180910390a28315612444576040517fa2d532e6000000000000000000000000000000000000000000000000000000008152306004820152602087013560248201526044810185905260806064820152600060848201527f000000000000000000000000000000000000000000000000000000000000000073ffffffffffffffffffffffffffffffffffffffff169063a2d532e69060a401600060405180830381600087803b15801561242b57600080fd5b505af115801561243f573d6000803e3d6000fd5b505050505b50505092915050565b600080807fffffffffffffffffffffffffffffffffffffffffffffffffffffffffffffffff858709858702925082811083820303915050806000036124a55783828161249b5761249b614362565b0492505050612557565b8381106124ef576040517f63a05778000000000000000000000000000000000000000000000000000000008152600481018790526024810186905260448101859052606401610859565b600084868809851960019081018716968790049682860381900495909211909303600082900391909104909201919091029190911760038402600290811880860282030280860282030280860282030280860282030280860282030280860290910302029150505b9392505050565b6040805173ffffffffffffffffffffffffffffffffffffffff8416602482015260448082018490528251808303909101815260649091019091526020810180517bffffffffffffffffffffffffffffffffffffffffffffffffffffffff167f095ea7b3000000000000000000000000000000000000000000000000000000001790526125ea8482612b27565b6120ab5760405173ffffffffffffffffffffffffffffffffffffffff84811660248301526000604483015261262c91869182169063095ea7b3906064016120f3565b6120ab8482612a83565b805160208201206000903060601b1861072f565b60006060602583511161266f5750506040805160208101909152600080825290612831565b60008361267e60046020614209565b8151811061268e5761268e614253565b0160209081015160f81c91505b6000856126a9600484614209565b815181106126b9576126b9614253565b01602001517fff0000000000000000000000000000000000000000000000000000000000000016148015906126f757506126f4602083614391565b81105b1561282e5760008561270a600484614209565b8151811061271a5761271a614253565b016020908101518784019091015160f89190911c91507fffffffff0000000000000000000000000000000000000000000000000000000080891690821603612824576000612769602086614391565b612774600986614209565b1015806127c1575087612788600986614209565b8151811061279857612798614253565b01602001517fff0000000000000000000000000000000000000000000000000000000000000016155b6127fa576020886127d3600987614209565b815181106127e3576127e3614253565b01602001516127f5919060f81c614391565b6127fd565b87515b9050600161281689612810602087614391565b84612b83565b965096505050505050612831565b505060050161269b565b50505b9250929050565b60008481526020818152604080832073ffffffffffffffffffffffffffffffffffffffff8086168552925282205416803b8203612879576000915050612a38565b8073ffffffffffffffffffffffffffffffffffffffff16633850c7bd6040518163ffffffff1660e01b815260040160e060405180830381865afa9250505080156128fe575060408051601f3d9081017fffffffffffffffffffffffffffffffffffffffffffffffffffffffffffffffe01682019092526128fb918101906143a8565b60015b61290c576000915050612a38565b8061292257600098505050505050505050612a38565b50505050505050600086815260026020526040812054908190608082901c9061294a85612bc9565b90508263ffffffff168163ffffffff161015612964578092505b60008163ffffffff166000036129f2578573ffffffffffffffffffffffffffffffffffffffff16633850c7bd6040518163ffffffff1660e01b815260040160e060405180830381865afa1580156129bf573d6000803e3d6000fd5b505050506040513d601f19601f820116820180604052508101906129e391906143a8565b50939550612a00945050505050565b6129fc8685612e10565b5090505b612a0c818a8a8d6130d4565b9650612710612a1b8489614391565b612a259190614441565b612a2f9088614240565b96505050505050505b949350505050565b60405173ffffffffffffffffffffffffffffffffffffffff838116602483015260448201839052612a7e91859182169063a9059cbb906064016120f3565b505050565b600080602060008451602086016000885af180612aa6576040513d6000823e3d81fd5b50506000513d91508115612abe578060011415612ad8565b73ffffffffffffffffffffffffffffffffffffffff84163b155b156120ab576040517f5274afe700000000000000000000000000000000000000000000000000000000815273ffffffffffffffffffffffffffffffffffffffff85166004820152602401610859565b6000806000806020600086516020880160008a5af192503d91506000519050828015612b7957508115612b5d5780600114612b79565b60008673ffffffffffffffffffffffffffffffffffffffff163b115b9695505050505050565b60608282036040519150602081830101604052808252508260208501016020820160005b84811015612bbf578281015182820152602001612ba7565b5050509392505050565b60008060008373ffffffffffffffffffffffffffffffffffffffff16633850c7bd6040518163ffffffff1660e01b815260040160e060405180830381865afa158015612c19573d6000803e3d6000fd5b505050506040513d601f19601f82011682018060405250810190612c3d91906143a8565b50505093509350505060008161ffff1611612cb4576040517f08c379a000000000000000000000000000000000000000000000000000000000815260206004820152600260248201527f4e490000000000000000000000000000000000000000000000000000000000006044820152606401610859565b60008073ffffffffffffffffffffffffffffffffffffffff861663252c09d784612cdf876001614455565b612ce99190614470565b6040517fffffffff0000000000000000000000000000000000000000000000000000000060e084901b16815261ffff9091166004820152602401608060405180830381865afa158015612d40573d6000803e3d6000fd5b505050506040513d601f19601f82011682018060405250810190612d6491906144a3565b93505050915080612e05576040517f252c09d70000000000000000000000000000000000000000000000000000000081526000600482015273ffffffffffffffffffffffffffffffffffffffff87169063252c09d790602401608060405180830381865afa158015612dda573d6000803e3d6000fd5b505050506040513d601f19601f82011682018060405250810190612dfe91906144a3565b5091935050505b504203949350505050565b6000808263ffffffff16600003612e83576040517f08c379a000000000000000000000000000000000000000000000000000000000815260206004820152600260248201527f42500000000000000000000000000000000000000000000000000000000000006044820152606401610859565b6040805160028082526060820183526000926020830190803683370190505090508381600081518110612eb857612eb8614253565b602002602001019063ffffffff16908163ffffffff1681525050600081600181518110612ee757612ee7614253565b602002602001019063ffffffff16908163ffffffff16815250506000808673ffffffffffffffffffffffffffffffffffffffff1663883bdbfd846040518263ffffffff1660e01b8152600401612f3d91906144fe565b600060405180830381865afa158015612f5a573d6000803e3d6000fd5b505050506040513d6000823e601f3d9081017fffffffffffffffffffffffffffffffffffffffffffffffffffffffffffffffe0168201604052612fa091908101906145e4565b91509150600082600081518110612fb957612fb9614253565b602002602001015183600181518110612fd457612fd4614253565b6020026020010151612fe691906146a7565b9050600082600081518110612ffd57612ffd614253565b60200260200101518360018151811061301857613018614253565b602002602001015161302a91906142b6565b905061303c63ffffffff8916836146ec565b965060008260060b128015613062575061305c63ffffffff891683614760565b60060b15155b15613075578661307181614782565b9750505b600061309b73ffffffffffffffffffffffffffffffffffffffff63ffffffff8b166147df565b90506130c577ffffffffffffffffffffffffffffffffffffffff00000000602084901b1682614819565b96505050505050509250929050565b6000806130e0866132ae565b90506fffffffffffffffffffffffffffffffff73ffffffffffffffffffffffffffffffffffffffff8216116131df57600061313173ffffffffffffffffffffffffffffffffffffffff831680614391565b90508373ffffffffffffffffffffffffffffffffffffffff168573ffffffffffffffffffffffffffffffffffffffff16106131a15761319c7801000000000000000000000000000000000000000000000000876fffffffffffffffffffffffffffffffff1683613615565b6131d7565b6131d781876fffffffffffffffffffffffffffffffff167801000000000000000000000000000000000000000000000000613615565b9250506132a5565b600061320b73ffffffffffffffffffffffffffffffffffffffff83168068010000000000000000613615565b90508373ffffffffffffffffffffffffffffffffffffffff168573ffffffffffffffffffffffffffffffffffffffff16106132735761326e700100000000000000000000000000000000876fffffffffffffffffffffffffffffffff1683613615565b6132a1565b6132a181876fffffffffffffffffffffffffffffffff16700100000000000000000000000000000000613615565b9250505b50949350505050565b60008060008360020b126132c5578260020b6132cd565b8260020b6000035b9050620d89e881111561330c576040517f2bc80f3a00000000000000000000000000000000000000000000000000000000815260040160405180910390fd5b60008160011660000361333057700100000000000000000000000000000000613342565b6ffffcb933bd6fad37aa2d162d1a5940015b70ffffffffffffffffffffffffffffffffff1690506002821615613376576ffff97272373d413259a46990580e213a0260801c5b6004821615613395576ffff2e50f5f656932ef12357cf3c7fdcc0260801c5b60088216156133b4576fffe5caca7e10e4e61c3624eaa0941cd00260801c5b60108216156133d3576fffcb9843d60f6159c9db58835c9266440260801c5b60208216156133f2576fff973b41fa98c081472e6896dfb254c00260801c5b6040821615613411576fff2ea16466c96a3843ec78b326b528610260801c5b6080821615613430576ffe5dee046a99a2a811c461f1969c30530260801c5b610100821615613450576ffcbe86c7900a88aedcffc83b479aa3a40260801c5b610200821615613470576ff987a7253ac413176f2b074cf7815e540260801c5b610400821615613490576ff3392b0822b70005940c7a398e4b70f30260801c5b6108008216156134b0576fe7159475a2c29b7443b29c7fa6e889d90260801c5b6110008216156134d0576fd097f3bdfd2022b8845ad8f792aa58250260801c5b6120008216156134f0576fa9f746462d870fdf8a65dc1f90e061e50260801c5b614000821615613510576f70d869a156d2a1b890bb3df62baf32f70260801c5b618000821615613530576f31be135f97d08fd981231505542fcfa60260801c5b62010000821615613551576f09aa508b5b7a84e1c677de54f3e99bc90260801c5b62020000821615613571576e5d6af8dedb81196699c329225ee6040260801c5b62040000821615613590576d2216e584f5fa1ea926041bedfe980260801c5b620800008216156135ad576b048a170391f7dc42444e8fa20260801c5b60008460020b13156135ec57807fffffffffffffffffffffffffffffffffffffffffffffffffffffffffffffffff816135e8576135e8614362565b0490505b640100000000810615613600576001613603565b60005b60ff16602082901c0192505050919050565b600080807fffffffffffffffffffffffffffffffffffffffffffffffffffffffffffffffff8587098587029250828110838203039150508060000361366c576000841161366157600080fd5b508290049050612557565b80841161367857600080fd5b6000848688096000868103871696879004966002600389028118808a02820302808a02820302808a02820302808a02820302808a02820302808a02909103029181900381900460010186841190950394909402919094039290920491909117919091029150509392505050565b6000602082840312156136f757600080fd5b81357fffffffff000000000000000000000000000000000000000000000000000000008116811461255757600080fd5b63ffffffff8116811461373957600080fd5b50565b6000806040838503121561374f57600080fd5b82359150602083013561376181613727565b809150509250929050565b60006020828403121561377e57600080fd5b813567ffffffffffffffff81111561379557600080fd5b8201610200818503121561255757600080fd5b6000602082840312156137ba57600080fd5b5035919050565b600080604083850312156137d457600080fd5b50508035926020909101359150565b73ffffffffffffffffffffffffffffffffffffffff8116811461373957600080fd5b6000806040838503121561381857600080fd5b823591506020830135613761816137e3565b600080600080600060a0868803121561384257600080fd5b85359450602086013562ffffff8116811461385c57600080fd5b9350604086013561386c81613727565b9250606086013591506080860135613883816137e3565b809150509295509295909350565b6000602082840312156138a357600080fd5b813567ffffffffffffffff8111156138ba57600080fd5b8201610180818503121561255757600080fd5b6000815180845260005b818110156138f3576020818501810151868301820152016138d7565b5060006020828601015260207fffffffffffffffffffffffffffffffffffffffffffffffffffffffffffffffe0601f83011685010191505092915050565b6000604080830185845260206040818601528186518084526060935060608701915060608160051b88010183890160005b838110156139dd578983037fffffffffffffffffffffffffffffffffffffffffffffffffffffffffffffffa00185528151805173ffffffffffffffffffffffffffffffffffffffff16845286810151878501528801518884018890526139ca888501826138cd565b9587019593505090850190600101613962565b50909a9950505050505050505050565b60008060008060608587031215613a0357600080fd5b8435935060208501359250604085013567ffffffffffffffff80821115613a2957600080fd5b818701915087601f830112613a3d57600080fd5b813581811115613a4c57600080fd5b886020828501011115613a5e57600080fd5b95989497505060200194505050565b600060208284031215613a7f57600080fd5b813567ffffffffffffffff811115613a9657600080fd5b82016101a0818503121561255757600080fd5b60006080820186835260208681850152604086604086015260606080606087015283875180865260a08801915060a08160051b890101955084890160005b82811015613b62578988037fffffffffffffffffffffffffffffffffffffffffffffffffffffffffffffff600184528151805173ffffffffffffffffffffffffffffffffffffffff16895287810151888a0152860151868901869052613b4f868a01826138cd565b9850509286019290860190600101613ae7565b50959c9b505050505050505050505050565b8051613b7f816137e3565b919050565b600060208284031215613b9657600080fd5b8151612557816137e3565b801515811461373957600080fd5b8051613b7f81613ba1565b600060208284031215613bcc57600080fd5b815161255781613ba1565b60008083357fffffffffffffffffffffffffffffffffffffffffffffffffffffffffffffffe1843603018112613c0c57600080fd5b83018035915067ffffffffffffffff821115613c2757600080fd5b60200191503681900382131561283157600080fd5b600080600060608486031215613c5157600080fd5b8335613c5c81613ba1565b95602085013595506040909401359392505050565b600060208284031215613c8357600080fd5b8135612557816137e3565b600060208284031215613ca057600080fd5b5051919050565b7f4e487b7100000000000000000000000000000000000000000000000000000000600052604160045260246000fd5b604051610260810167ffffffffffffffff81118282101715613cfa57613cfa613ca7565b60405290565b604051610120810167ffffffffffffffff81118282101715613cfa57613cfa613ca7565b604051601f82017fffffffffffffffffffffffffffffffffffffffffffffffffffffffffffffffe016810167ffffffffffffffff81118282101715613d6b57613d6b613ca7565b604052919050565b805165ffffffffffff81168114613b7f57600080fd5b8051613b7f81613727565b80516dffffffffffffffffffffffffffff81168114613b7f57600080fd5b805161ffff81168114613b7f57600080fd5b60006102608284031215613dd757600080fd5b613ddf613cd6565b9050613dea82613db2565b8152613df860208301613db2565b6020820152613e0960408301613d89565b6040820152613e1a60608301613baf565b6060820152613e2b60808301613baf565b6080820152613e3c60a08301613baf565b60a0820152613e4d60c08301613baf565b60c0820152613e5e60e08301613baf565b60e0820152610100613e71818401613baf565b90820152610120613e83838201613baf565b90820152610140613e95838201613baf565b90820152610160613ea7838201613baf565b90820152610180613eb9838201613baf565b908201526101a0613ecb838201613baf565b908201526101c0613edd838201613baf565b908201526101e0613eef838201613baf565b90820152610200613f01838201613baf565b90820152610220613f13838201613b74565b90820152610240613f25838201613db2565b9082015292915050565b600080828403610380811215613f4457600080fd5b61012080821215613f5457600080fd5b613f5c613d00565b9150613f6785613d73565b8252613f7560208601613d73565b6020830152613f8660408601613d73565b6040830152613f9760608601613d73565b6060830152613fa860808601613d89565b6080830152613fb960a08601613d94565b60a0830152613fca60c08601613d89565b60c0830152613fdb60e08601613b74565b60e0830152610100808601518184015250819350613ffb86828701613dc4565b925050509250929050565b60006020828403121561401857600080fd5b813561255781613727565b60ff8116811461373957600080fd5b60006020828403121561404457600080fd5b813561255781614023565b7f4e487b7100000000000000000000000000000000000000000000000000000000600052601160045260246000fd5b600181815b808511156140d757817fffffffffffffffffffffffffffffffffffffffffffffffffffffffffffffffff048211156140bd576140bd61404f565b808516156140ca57918102915b93841c9390800290614083565b509250929050565b6000826140ee5750600161072f565b816140fb5750600061072f565b8160018114614111576002811461411b57614137565b600191505061072f565b60ff84111561412c5761412c61404f565b50506001821b61072f565b5060208310610133831016604e8410600b841016171561415a575081810a61072f565b614164838361407e565b807fffffffffffffffffffffffffffffffffffffffffffffffffffffffffffffffff048211156141965761419661404f565b029392505050565b600061255760ff8416836140df565b85815273ffffffffffffffffffffffffffffffffffffffff85166020820152836040820152821515606082015260c06080820152600060c082015260e060a082015260006141fe60e08301846138cd565b979650505050505050565b8082018082111561072f5761072f61404f565b6000806040838503121561422f57600080fd5b505080516020909101519092909150565b8181038181111561072f5761072f61404f565b7f4e487b7100000000000000000000000000000000000000000000000000000000600052603260045260246000fd5b73ffffffffffffffffffffffffffffffffffffffff8181168382160190808211156142af576142af61404f565b5092915050565b73ffffffffffffffffffffffffffffffffffffffff8281168282160390808211156142af576142af61404f565b600073ffffffffffffffffffffffffffffffffffffffff8088168352861515602084015285604084015280851660608401525060a060808301526141fe60a08301846138cd565b60007f8000000000000000000000000000000000000000000000000000000000000000820361435b5761435b61404f565b5060000390565b7f4e487b7100000000000000000000000000000000000000000000000000000000600052601260045260246000fd5b808202811582820484141761072f5761072f61404f565b600080600080600080600060e0888a0312156143c357600080fd5b87516143ce816137e3565b8097505060208801518060020b81146143e657600080fd5b95506143f460408901613db2565b945061440260608901613db2565b935061441060808901613db2565b925060a088015161442081614023565b60c089015190925061443181613ba1565b8091505092959891949750929550565b60008261445057614450614362565b500490565b61ffff8181168382160190808211156142af576142af61404f565b600061ffff8084168061448557614485614362565b92169190910692915050565b8051600681900b8114613b7f57600080fd5b600080600080608085870312156144b957600080fd5b84516144c481613727565b93506144d260208601614491565b925060408501516144e2816137e3565b60608601519092506144f381613ba1565b939692955090935050565b6020808252825182820181905260009190848201906040850190845b8181101561453c57835163ffffffff168352928401929184019160010161451a565b50909695505050505050565b600067ffffffffffffffff82111561456257614562613ca7565b5060051b60200190565b600082601f83011261457d57600080fd5b8151602061459261458d83614548565b613d24565b8083825260208201915060208460051b8701019350868411156145b457600080fd5b602086015b848110156145d95780516145cc816137e3565b83529183019183016145b9565b509695505050505050565b600080604083850312156145f757600080fd5b825167ffffffffffffffff8082111561460f57600080fd5b818501915085601f83011261462357600080fd5b8151602061463361458d83614548565b82815260059290921b8401810191818101908984111561465257600080fd5b948201945b838610156146775761466886614491565b82529482019490820190614657565b9188015191965090935050508082111561469057600080fd5b5061469d8582860161456c565b9150509250929050565b600682810b9082900b037fffffffffffffffffffffffffffffffffffffffffffffffffff800000000000008112667fffffffffffff8213171561072f5761072f61404f565b60008160060b8360060b8061470357614703614362565b7fffffffffffffffffffffffffffffffffffffffffffffffffffffffffffffffff81147fffffffffffffffffffffffffffffffffffffffffffffffffff80000000000000831416156147575761475761404f565b90059392505050565b60008260060b8061477357614773614362565b808360060b0791505092915050565b60008160020b7fffffffffffffffffffffffffffffffffffffffffffffffffffffffffff80000081036147b7576147b761404f565b7fffffffffffffffffffffffffffffffffffffffffffffffffffffffffffffffff0192915050565b77ffffffffffffffffffffffffffffffffffffffffffffffff8281168282168181028316929181158285048214176124445761244461404f565b600077ffffffffffffffffffffffffffffffffffffffffffffffff8084168061484457614844614362565b9216919091049291505056fea2646970667358221220d77c556a57555fcc3150a26b87d6e22836e25f14edbd79ff44b787498528aedb64736f6c63430008170033",
	"deployedBytecode": "0x6080604052600436106101965760003560e01c8063889eedb4116100e1578063b88a92b41161008a578063f434c91411610064578063f434c9141461053a578063f73e5aab1461056e578063fa461e33146105a2578063fb82b1b0146105c257600080fd5b8063b88a92b4146104d9578063db312fae146104f0578063ee0fc1211461050657600080fd5b80639c9d4361116100bb5780639c9d436114610460578063ad5c464814610490578063af471880146104c457600080fd5b8063889eedb4146103b357806388bc2ef3146103fe5780638cc358461461043257600080fd5b8063293c499911610143578063677ce0881161011d578063677ce0881461035a578063754baf961461037d5780637b621d3a1461039357600080fd5b8063293c4999146102c45780633717fba7146102f857806355135de01461033a57600080fd5b80631a65893b116101745780631a65893b146102055780631eabcd341461022857806327e514111461028157600080fd5b806301ffc9a71461019b578063132893eb146101d05780631337f986146101f2575b600080fd5b3480156101a757600080fd5b506101bb6101b63660046136e5565b610604565b60405190151581526020015b60405180910390f35b3480156101dc57600080fd5b506101f06101eb36600461373c565b610735565b005b6101f061020036600461376c565b610902565b34801561021157600080fd5b5061021a607881565b6040519081526020016101c7565b34801561023457600080fd5b5061025c7f0000000000000000000000008c88469ca3aa9de6ab22c5113ae2a8e20329fd8c81565b60405173ffffffffffffffffffffffffffffffffffffffff90911681526020016101c7565b34801561028d57600080fd5b5061025c61029c3660046137a8565b60016020526000908152604090205473ffffffffffffffffffffffffffffffffffffffff1681565b3480156102d057600080fd5b5061025c7f0000000000000000000000009b52a59f108e36ce0a8eba595eca22dbadbe655f81565b34801561030457600080fd5b506103256103133660046137a8565b60009081526002602052604090205490565b60405163ffffffff90911681526020016101c7565b34801561034657600080fd5b506101f06103553660046137c1565b61108e565b34801561036657600080fd5b506101bb610375366004613805565b600092915050565b34801561038957600080fd5b5061021a61232881565b34801561039f57600080fd5b5061025c6103ae36600461382a565b6111d1565b3480156103bf57600080fd5b5061025c6103ce366004613805565b600060208181529281526040808220909352908152205473ffffffffffffffffffffffffffffffffffffffff1681565b34801561040a57600080fd5b5061025c7f0000000000000000000000005adb234602d074064c216c1fdb23c6c2031f0c7581565b34801561043e57600080fd5b5061045261044d366004613891565b61189f565b6040516101c7929190613931565b34801561046c57600080fd5b5061021a61047b3660046137a8565b60009081526002602052604090205460801c90565b34801561049c57600080fd5b5061025c7f000000000000000000000000420000000000000000000000000000000000000681565b3480156104d057600080fd5b5061021a606481565b3480156104e557600080fd5b5061021a6202a30081565b3480156104fc57600080fd5b5061021a61271081565b34801561051257600080fd5b5061025c7f00000000000000000000000074fc0e2cb3eb5a2742f8b9f0d6f1263dd3664b5d81565b34801561054657600080fd5b5061025c7f0000000000000000000000004886c30c81a17a3a1084fd1812008fa0f71a20b981565b34801561057a57600080fd5b5061025c7f0000000000000000000000004752ba5dbc23f44d87826276bf6fd6b1c372ad2481565b3480156105ae57600080fd5b506101f06105bd3660046139ed565b611d87565b3480156105ce57600080fd5b506105f46105dd366004613a6d565b6101608101359160808201359160a0013590606090565b6040516101c79493929190613aa9565b60007fffffffff0000000000000000000000000000000000000000000000000000000082167f103d097e00000000000000000000000000000000000000000000000000000000148061069757507fffffffff0000000000000000000000000000000000000000000000000000000082167f1337f98600000000000000000000000000000000000000000000000000000000145b806106e357507fffffffff0000000000000000000000000000000000000000000000000000000082167f913c66f900000000000000000000000000000000000000000000000000000000145b8061072f57507fffffffff0000000000000000000000000000000000000000000000000000000082167f01ffc9a700000000000000000000000000000000000000000000000000000000145b92915050565b6040517f6352211e000000000000000000000000000000000000000000000000000000008152600481018390526107f1907f0000000000000000000000009b52a59f108e36ce0a8eba595eca22dbadbe655f73ffffffffffffffffffffffffffffffffffffffff1690636352211e906024015b602060405180830381865afa1580156107c5573d6000803e3d6000fd5b505050506040513d601f19601f820116820180604052508101906107e99190613b84565b836018611f4e565b60788163ffffffff16108061080e57506202a3008163ffffffff16115b15610862576040517f904c370000000000000000000000000000000000000000000000000000000000815263ffffffff82166004820152607860248201526202a30060448201526064015b60405180910390fd5b600082815260026020908152604091829020805463ffffffff85167fffffffffffffffffffffffffffffffff000000000000000000000000000000008216811790925583516fffffffffffffffffffffffffffffffff821680825293810192909252339382019390935284907fa8d6b20cd05f07d50e9855ce0fc6de3517f3df2e890a5ec6357892b3808a53ce906060015b60405180910390a250505050565b6040517f6e49181f000000000000000000000000000000000000000000000000000000008152602082013560048201523360248201527f0000000000000000000000005adb234602d074064c216c1fdb23c6c2031f0c7573ffffffffffffffffffffffffffffffffffffffff1690636e49181f90604401602060405180830381865afa158015610996573d6000803e3d6000fd5b505050506040513d601f19601f820116820180604052508101906109ba9190613bba565b6109f2576040517f4758af1b000000000000000000000000000000000000000000000000000000008152336004820152602401610859565b60008080610a046101c0850185613bd7565b810190610a119190613c3c565b9194509250905061eeee610a2c610100860160e08701613c71565b73ffffffffffffffffffffffffffffffffffffffff1614610a8157610a813330610140870135610a63610100890160e08a01613c71565b73ffffffffffffffffffffffffffffffffffffffff169291906120b1565b6000610a8d858561213a565b905081811015610ad3576040517fe2d708a90000000000000000000000000000000000000000000000000000000081526004810182905260248101839052604401610859565b600061eeee610ae9610100880160e08901613c71565b73ffffffffffffffffffffffffffffffffffffffff1614610baa57610b15610100870160e08801613c71565b6040517f70a0823100000000000000000000000000000000000000000000000000000000815230600482015273ffffffffffffffffffffffffffffffffffffffff91909116906370a0823190602401602060405180830381865afa158015610b81573d6000803e3d6000fd5b505050506040513d601f19601f82011682018060405250810190610ba59190613c8e565b610bac565b475b6040517f419296260000000000000000000000000000000000000000000000000000000081526020880135600482015290915060009073ffffffffffffffffffffffffffffffffffffffff7f00000000000000000000000074fc0e2cb3eb5a2742f8b9f0d6f1263dd3664b5d169063419296269060240161038060405180830381865afa158015610c41573d6000803e3d6000fd5b505050506040513d601f19601f82011682018060405250810190610c659190613f2f565b5090506000610c7982610100015160241c90565b63ffffffff16610c8f60c08a0160a08b01614006565b63ffffffff1614610d9d5773ffffffffffffffffffffffffffffffffffffffff7f0000000000000000000000008c88469ca3aa9de6ab22c5113ae2a8e20329fd8c16633be273fa60208a0135610ceb60c08c0160a08d01614006565b61010086015160241c610d0460a08e0160808f01614032565b6040517fffffffff0000000000000000000000000000000000000000000000000000000060e087901b168152600481019490945263ffffffff92831660248501529116604483015260ff166064820152608401602060405180830381865afa158015610d74573d6000803e3d6000fd5b505050506040513d601f19601f82011682018060405250810190610d989190613c8e565b610db8565b610dad60a0890160808a01614032565b610db890600a61419e565b905060008315610f5757610dd2848a61016001358461244d565b905061eeee610de86101008b0160e08c01613c71565b73ffffffffffffffffffffffffffffffffffffffff1614610e3657610e363385610e196101008d0160e08e01613c71565b73ffffffffffffffffffffffffffffffffffffffff16919061255e565b600061eeee610e4c6101008c0160e08d01613c71565b73ffffffffffffffffffffffffffffffffffffffff1614610e6e576000610e70565b845b60408051878152602080820186905233828401529151929350908c0135917faacef1bbb194eac329f8f247fbe8cce3eca2ed1f2e0a45a0488c2dd8afe6e5169181900360600190a23373ffffffffffffffffffffffffffffffffffffffff16639e6eec05828c602001358d60e0016000016020810190610ef09190613c71565b896000604051806020016040528060008152506040518763ffffffff1660e01b8152600401610f239594939291906141ad565b6000604051808303818588803b158015610f3c57600080fd5b505af1158015610f50573d6000803e3d6000fd5b5050505050505b610f67878a61016001358461244d565b610f719082614209565b905073ffffffffffffffffffffffffffffffffffffffff7f00000000000000000000000074fc0e2cb3eb5a2742f8b9f0d6f1263dd3664b5d1663c7fb92de60208b0135610fbe8489614209565b610fd06101c08e016101a08f01613c71565b6040517fffffffff0000000000000000000000000000000000000000000000000000000060e086901b1681526004810193909352602483019190915273ffffffffffffffffffffffffffffffffffffffff16604482015260a06064820152600060a48201526001608482015260c4016020604051808303816000875af115801561105e573d6000803e3d6000fd5b505050506040513d601f19601f820116820180604052508101906110829190613c8e565b50505050505050505050565b6040517f6352211e00000000000000000000000000000000000000000000000000000000815260048101839052611105907f0000000000000000000000009b52a59f108e36ce0a8eba595eca22dbadbe655f73ffffffffffffffffffffffffffffffffffffffff1690636352211e906024016107a8565b6064811080611115575061232881115b1561115e576040517f8b9cb55300000000000000000000000000000000000000000000000000000000815260048101829052606460248201819052612328604483015201610859565b6000828152600260209081526040918290208054608085811b6fffffffffffffffffffffffffffffffff83161790925583519181901c808352928201859052339382019390935284907faafe2470cbfb11a09f9b45d6a795226e93cc251e30fdcabddbabb157a1db5353906060016108f4565b6040517f6352211e0000000000000000000000000000000000000000000000000000000081526004810186905260009061128f9073ffffffffffffffffffffffffffffffffffffffff7f0000000000000000000000009b52a59f108e36ce0a8eba595eca22dbadbe655f1690636352211e90602401602060405180830381865afa158015611263573d6000803e3d6000fd5b505050506040513d601f19601f820116820180604052508101906112879190613b84565b876019611f4e565b606483108061129f575061232883115b156112e8576040517f8b9cb55300000000000000000000000000000000000000000000000000000000815260048101849052606460248201819052612328604483015201610859565b60788463ffffffff16108061130557506202a3008463ffffffff16115b15611354576040517f904c370000000000000000000000000000000000000000000000000000000000815263ffffffff85166004820152607860248201526202a3006044820152606401610859565b60007f00000000000000000000000074fc0e2cb3eb5a2742f8b9f0d6f1263dd3664b5d73ffffffffffffffffffffffffffffffffffffffff16631d831d5c6040518163ffffffff1660e01b8152600401602060405180830381865afa1580156113c1573d6000803e3d6000fd5b505050506040513d601f19601f820116820180604052508101906113e59190613b84565b73ffffffffffffffffffffffffffffffffffffffff1663ea78803f886040518263ffffffff1660e01b815260040161141f91815260200190565b602060405180830381865afa15801561143c573d6000803e3d6000fd5b505050506040513d601f19601f820116820180604052508101906114609190613b84565b905073ffffffffffffffffffffffffffffffffffffffff81166114af576040517f8637f5b700000000000000000000000000000000000000000000000000000000815260040160405180910390fd5b7fffffffffffffffffffffffffffffffffffffffffffffffffffffffffffff111273ffffffffffffffffffffffffffffffffffffffff841601611510577f000000000000000000000000420000000000000000000000000000000000000692505b73ffffffffffffffffffffffffffffffffffffffff808416908216107f0000000000000000000000004752ba5dbc23f44d87826276bf6fd6b1c372ad2481611558578461155a565b825b826115655783611567565b855b6040805173ffffffffffffffffffffffffffffffffffffffff9384166020820152929091169082015262ffffff89166060820152608001604080517fffffffffffffffffffffffffffffffffffffffffffffffffffffffffffffffe0818403018152908290528051602091820120611662939290917fe34f199b19b2b4f47f68442619d555527d244f78a3297ea89325f843f87b8b5491017fff00000000000000000000000000000000000000000000000000000000000000815260609390931b7fffffffffffffffffffffffffffffffffffffffff0000000000000000000000001660018401526015830191909152603582015260550190565b604080517fffffffffffffffffffffffffffffffffffffffffffffffffffffffffffffffe0818403018152918152815160209283012060008b815280845282812073ffffffffffffffffffffffffffffffffffffffff89811683529452919091205490945016156117315760008881526020818152604080832073ffffffffffffffffffffffffffffffffffffffff88811685529252918290205491517f14f04e4700000000000000000000000000000000000000000000000000000000815291166004820152602401610859565b60008881526020818152604080832073ffffffffffffffffffffffffffffffffffffffff888116855290835281842080547fffffffffffffffffffffffff0000000000000000000000000000000000000000908116898416179091558c85526002845282852063ffffffff8c1660808c901b8117909155600185528386208054909216928816929092179055815193845291830191909152339082015288907fa8d6b20cd05f07d50e9855ce0fc6de3517f3df2e890a5ec6357892b3808a53ce9060600160405180910390a26040805160008152602081018790523381830152905189917faafe2470cbfb11a09f9b45d6a795226e93cc251e30fdcabddbabb157a1db5353919081900360600190a26040805173ffffffffffffffffffffffffffffffffffffffff85811682523360208301528616918a917fe694de883385e30d535f625d68df4b2b5e866e8e86fe9d15554480c8d1812e60910160405180910390a3505095945050505050565b60408051808201909152600581527f71756f746500000000000000000000000000000000000000000000000000000060208201526101208201359060609060a084013590600090819081906118f390612636565b90506000806119448361190a6101608c018c613bd7565b8080601f01602080910402602001604051908101604052809392919081815260200183838082843760009201919091525061264a92505050565b9150915081156119675780806020019051810190611962919061421c565b955093505b505050828111156119ae576040517fcc8704dd0000000000000000000000000000000000000000000000000000000081526004810182905260248101849052604401610859565b806000036119b95750815b6040517f4192962600000000000000000000000000000000000000000000000000000000815260c087013560048201526000907f00000000000000000000000074fc0e2cb3eb5a2742f8b9f0d6f1263dd3664b5d73ffffffffffffffffffffffffffffffffffffffff169063419296269060240161038060405180830381865afa158015611a4b573d6000803e3d6000fd5b505050506040513d601f19601f82011682018060405250810190611a6f9190613f2f565b5090506000611a8382610100015160241c90565b63ffffffff16611a9960a08a0160808b01614006565b63ffffffff1614611ba75773ffffffffffffffffffffffffffffffffffffffff7f0000000000000000000000008c88469ca3aa9de6ab22c5113ae2a8e20329fd8c16633be273fa60c08a0135611af560a08c0160808d01614006565b61010086015160241c611b0e60808e0160608f01614032565b6040517fffffffff0000000000000000000000000000000000000000000000000000000060e087901b168152600481019490945263ffffffff92831660248501529116604483015260ff166064820152608401602060405180830381865afa158015611b7e573d6000803e3d6000fd5b505050506040513d601f19601f82011682018060405250810190611ba29190613c8e565b611bc2565b611bb76080890160608a01614032565b611bc290600a61419e565b90506000611bd184898461244d565b60c08a01356000908152600160205260408082205492935073ffffffffffffffffffffffffffffffffffffffff9092169161eeee90611c169060608e01908e01613c71565b73ffffffffffffffffffffffffffffffffffffffff1614611c4657611c4160608c0160408d01613c71565b611c68565b7f00000000000000000000000042000000000000000000000000000000000000065b905086600003611c8557611c828b60c00135838884612838565b96505b86831015611d7a5760408051600180825281830190925273ffffffffffffffffffffffffffffffffffffffff8381169085161091816020015b60408051606080820183526000808352602083015291810191909152815260200190600190039081611cbe57505060408051606081018252308152602081018a9052919b508101828b8a14611d1c57611d178a8d614240565b611d1f565b60005b604080519215156020840152820152606081018b90526080016040516020818303038152906040528152508a600081518110611d5d57611d5d614253565b602002602001018190525060009a50505050505050505050915091565b5050505050505050915091565b600080611d9683850185613805565b9092509050600073ffffffffffffffffffffffffffffffffffffffff821661eeee14611dc25781611de4565b7f00000000000000000000000042000000000000000000000000000000000000065b60008481526020818152604080832073ffffffffffffffffffffffffffffffffffffffff8581168552925290912054919250163314611e51576040517f7da0526e000000000000000000000000000000000000000000000000000000008152336004820152602401610859565b6000808812611e605787611e62565b865b90507fffffffffffffffffffffffffffffffffffffffffffffffffffffffffffff111273ffffffffffffffffffffffffffffffffffffffff841601611f23577f000000000000000000000000420000000000000000000000000000000000000673ffffffffffffffffffffffffffffffffffffffff1663d0e30db0826040518263ffffffff1660e01b81526004016000604051808303818588803b158015611f0957600080fd5b505af1158015611f1d573d6000803e3d6000fd5b50505050505b611f4473ffffffffffffffffffffffffffffffffffffffff83163383612a40565b5050505050505050565b3373ffffffffffffffffffffffffffffffffffffffff8416811480159061204657506040517f348b684e00000000000000000000000000000000000000000000000000000000815273ffffffffffffffffffffffffffffffffffffffff82811660048301528581166024830152604482018590526064820184905260016084830181905260a48301527f0000000000000000000000004886c30c81a17a3a1084fd1812008fa0f71a20b9169063348b684e9060c401602060405180830381865afa158015612020573d6000803e3d6000fd5b505050506040513d601f19601f820116820180604052508101906120449190613bba565b155b156120ab576040517f264deeaa00000000000000000000000000000000000000000000000000000000815273ffffffffffffffffffffffffffffffffffffffff8086166004830152821660248201526044810184905260648101839052608401610859565b50505050565b60405173ffffffffffffffffffffffffffffffffffffffff84811660248301528381166044830152606482018390526120ab9186918216906323b872dd906084015b604051602081830303815290604052915060e01b6020820180517bffffffffffffffffffffffffffffffffffffffffffffffffffffffff8381831617835250505050612a83565b60006101408301358161eeee612157610100870160e08801613c71565b73ffffffffffffffffffffffffffffffffffffffff161461218857612183610100860160e08701613c71565b6121aa565b7f00000000000000000000000042000000000000000000000000000000000000065b6020808701356000908152808252604080822073ffffffffffffffffffffffffffffffffffffffff80861684529352902054919250168063128acb083087158689612204576121ff6401000276a36001614282565b612223565b612223600173fffd8963efd1fc6a506488495d951d5263988d266142b6565b60208c01356122396101008e0160e08f01613c71565b60405160200161226992919091825273ffffffffffffffffffffffffffffffffffffffff16602082015260400190565b6040516020818303038152906040526040518663ffffffff1660e01b81526004016122989594939291906142e3565b60408051808303816000875af19250505080156122f0575060408051601f3d9081017fffffffffffffffffffffffffffffffffffffffffffffffffffffffffffffffe01682019092526122ed9181019061421c565b60015b612300576000935050505061072f565b8661230b578061230d565b815b6123169061432a565b6040805187815273ffffffffffffffffffffffffffffffffffffffff861660208281019190915291810183905233606082015291975089013592507f6a212efdcd471836edcfe424121fc9048d3a7cd0458b1218a71aa915300e0e57915060800160405180910390a28315612444576040517fa2d532e6000000000000000000000000000000000000000000000000000000008152306004820152602087013560248201526044810185905260806064820152600060848201527f00000000000000000000000074fc0e2cb3eb5a2742f8b9f0d6f1263dd3664b5d73ffffffffffffffffffffffffffffffffffffffff169063a2d532e69060a401600060405180830381600087803b15801561242b57600080fd5b505af115801561243f573d6000803e3d6000fd5b505050505b50505092915050565b600080807fffffffffffffffffffffffffffffffffffffffffffffffffffffffffffffffff858709858702925082811083820303915050806000036124a55783828161249b5761249b614362565b0492505050612557565b8381106124ef576040517f63a05778000000000000000000000000000000000000000000000000000000008152600481018790526024810186905260448101859052606401610859565b600084868809851960019081018716968790049682860381900495909211909303600082900391909104909201919091029190911760038402600290811880860282030280860282030280860282030280860282030280860282030280860290910302029150505b9392505050565b6040805173ffffffffffffffffffffffffffffffffffffffff8416602482015260448082018490528251808303909101815260649091019091526020810180517bffffffffffffffffffffffffffffffffffffffffffffffffffffffff167f095ea7b3000000000000000000000000000000000000000000000000000000001790526125ea8482612b27565b6120ab5760405173ffffffffffffffffffffffffffffffffffffffff84811660248301526000604483015261262c91869182169063095ea7b3906064016120f3565b6120ab8482612a83565b805160208201206000903060601b1861072f565b60006060602583511161266f5750506040805160208101909152600080825290612831565b60008361267e60046020614209565b8151811061268e5761268e614253565b0160209081015160f81c91505b6000856126a9600484614209565b815181106126b9576126b9614253565b01602001517fff0000000000000000000000000000000000000000000000000000000000000016148015906126f757506126f4602083614391565b81105b1561282e5760008561270a600484614209565b8151811061271a5761271a614253565b016020908101518784019091015160f89190911c91507fffffffff0000000000000000000000000000000000000000000000000000000080891690821603612824576000612769602086614391565b612774600986614209565b1015806127c1575087612788600986614209565b8151811061279857612798614253565b01602001517fff0000000000000000000000000000000000000000000000000000000000000016155b6127fa576020886127d3600987614209565b815181106127e3576127e3614253565b01602001516127f5919060f81c614391565b6127fd565b87515b9050600161281689612810602087614391565b84612b83565b965096505050505050612831565b505060050161269b565b50505b9250929050565b60008481526020818152604080832073ffffffffffffffffffffffffffffffffffffffff8086168552925282205416803b8203612879576000915050612a38565b8073ffffffffffffffffffffffffffffffffffffffff16633850c7bd6040518163ffffffff1660e01b815260040160e060405180830381865afa9250505080156128fe575060408051601f3d9081017fffffffffffffffffffffffffffffffffffffffffffffffffffffffffffffffe01682019092526128fb918101906143a8565b60015b61290c576000915050612a38565b8061292257600098505050505050505050612a38565b50505050505050600086815260026020526040812054908190608082901c9061294a85612bc9565b90508263ffffffff168163ffffffff161015612964578092505b60008163ffffffff166000036129f2578573ffffffffffffffffffffffffffffffffffffffff16633850c7bd6040518163ffffffff1660e01b815260040160e060405180830381865afa1580156129bf573d6000803e3d6000fd5b505050506040513d601f19601f820116820180604052508101906129e391906143a8565b50939550612a00945050505050565b6129fc8685612e10565b5090505b612a0c818a8a8d6130d4565b9650612710612a1b8489614391565b612a259190614441565b612a2f9088614240565b96505050505050505b949350505050565b60405173ffffffffffffffffffffffffffffffffffffffff838116602483015260448201839052612a7e91859182169063a9059cbb906064016120f3565b505050565b600080602060008451602086016000885af180612aa6576040513d6000823e3d81fd5b50506000513d91508115612abe578060011415612ad8565b73ffffffffffffffffffffffffffffffffffffffff84163b155b156120ab576040517f5274afe700000000000000000000000000000000000000000000000000000000815273ffffffffffffffffffffffffffffffffffffffff85166004820152602401610859565b6000806000806020600086516020880160008a5af192503d91506000519050828015612b7957508115612b5d5780600114612b79565b60008673ffffffffffffffffffffffffffffffffffffffff163b115b9695505050505050565b60608282036040519150602081830101604052808252508260208501016020820160005b84811015612bbf578281015182820152602001612ba7565b5050509392505050565b60008060008373ffffffffffffffffffffffffffffffffffffffff16633850c7bd6040518163ffffffff1660e01b815260040160e060405180830381865afa158015612c19573d6000803e3d6000fd5b505050506040513d601f19601f82011682018060405250810190612c3d91906143a8565b50505093509350505060008161ffff1611612cb4576040517f08c379a000000000000000000000000000000000000000000000000000000000815260206004820152600260248201527f4e490000000000000000000000000000000000000000000000000000000000006044820152606401610859565b60008073ffffffffffffffffffffffffffffffffffffffff861663252c09d784612cdf876001614455565b612ce99190614470565b6040517fffffffff0000000000000000000000000000000000000000000000000000000060e084901b16815261ffff9091166004820152602401608060405180830381865afa158015612d40573d6000803e3d6000fd5b505050506040513d601f19601f82011682018060405250810190612d6491906144a3565b93505050915080612e05576040517f252c09d70000000000000000000000000000000000000000000000000000000081526000600482015273ffffffffffffffffffffffffffffffffffffffff87169063252c09d790602401608060405180830381865afa158015612dda573d6000803e3d6000fd5b505050506040513d601f19601f82011682018060405250810190612dfe91906144a3565b5091935050505b504203949350505050565b6000808263ffffffff16600003612e83576040517f08c379a000000000000000000000000000000000000000000000000000000000815260206004820152600260248201527f42500000000000000000000000000000000000000000000000000000000000006044820152606401610859565b6040805160028082526060820183526000926020830190803683370190505090508381600081518110612eb857612eb8614253565b602002602001019063ffffffff16908163ffffffff1681525050600081600181518110612ee757612ee7614253565b602002602001019063ffffffff16908163ffffffff16815250506000808673ffffffffffffffffffffffffffffffffffffffff1663883bdbfd846040518263ffffffff1660e01b8152600401612f3d91906144fe565b600060405180830381865afa158015612f5a573d6000803e3d6000fd5b505050506040513d6000823e601f3d9081017fffffffffffffffffffffffffffffffffffffffffffffffffffffffffffffffe0168201604052612fa091908101906145e4565b91509150600082600081518110612fb957612fb9614253565b602002602001015183600181518110612fd457612fd4614253565b6020026020010151612fe691906146a7565b9050600082600081518110612ffd57612ffd614253565b60200260200101518360018151811061301857613018614253565b602002602001015161302a91906142b6565b905061303c63ffffffff8916836146ec565b965060008260060b128015613062575061305c63ffffffff891683614760565b60060b15155b15613075578661307181614782565b9750505b600061309b73ffffffffffffffffffffffffffffffffffffffff63ffffffff8b166147df565b90506130c577ffffffffffffffffffffffffffffffffffffffff00000000602084901b1682614819565b96505050505050509250929050565b6000806130e0866132ae565b90506fffffffffffffffffffffffffffffffff73ffffffffffffffffffffffffffffffffffffffff8216116131df57600061313173ffffffffffffffffffffffffffffffffffffffff831680614391565b90508373ffffffffffffffffffffffffffffffffffffffff168573ffffffffffffffffffffffffffffffffffffffff16106131a15761319c7801000000000000000000000000000000000000000000000000876fffffffffffffffffffffffffffffffff1683613615565b6131d7565b6131d781876fffffffffffffffffffffffffffffffff167801000000000000000000000000000000000000000000000000613615565b9250506132a5565b600061320b73ffffffffffffffffffffffffffffffffffffffff83168068010000000000000000613615565b90508373ffffffffffffffffffffffffffffffffffffffff168573ffffffffffffffffffffffffffffffffffffffff16106132735761326e700100000000000000000000000000000000876fffffffffffffffffffffffffffffffff1683613615565b6132a1565b6132a181876fffffffffffffffffffffffffffffffff16700100000000000000000000000000000000613615565b9250505b50949350505050565b60008060008360020b126132c5578260020b6132cd565b8260020b6000035b9050620d89e881111561330c576040517f2bc80f3a00000000000000000000000000000000000000000000000000000000815260040160405180910390fd5b60008160011660000361333057700100000000000000000000000000000000613342565b6ffffcb933bd6fad37aa2d162d1a5940015b70ffffffffffffffffffffffffffffffffff1690506002821615613376576ffff97272373d413259a46990580e213a0260801c5b6004821615613395576ffff2e50f5f656932ef12357cf3c7fdcc0260801c5b60088216156133b4576fffe5caca7e10e4e61c3624eaa0941cd00260801c5b60108216156133d3576fffcb9843d60f6159c9db58835c9266440260801c5b60208216156133f2576fff973b41fa98c081472e6896dfb254c00260801c5b6040821615613411576fff2ea16466c96a3843ec78b326b528610260801c5b6080821615613430576ffe5dee046a99a2a811c461f1969c30530260801c5b610100821615613450576ffcbe86c7900a88aedcffc83b479aa3a40260801c5b610200821615613470576ff987a7253ac413176f2b074cf7815e540260801c5b610400821615613490576ff3392b0822b70005940c7a398e4b70f30260801c5b6108008216156134b0576fe7159475a2c29b7443b29c7fa6e889d90260801c5b6110008216156134d0576fd097f3bdfd2022b8845ad8f792aa58250260801c5b6120008216156134f0576fa9f746462d870fdf8a65dc1f90e061e50260801c5b614000821615613510576f70d869a156d2a1b890bb3df62baf32f70260801c5b618000821615613530576f31be135f97d08fd981231505542fcfa60260801c5b62010000821615613551576f09aa508b5b7a84e1c677de54f3e99bc90260801c5b62020000821615613571576e5d6af8dedb81196699c329225ee6040260801c5b62040000821615613590576d2216e584f5fa1ea926041bedfe980260801c5b620800008216156135ad576b048a170391f7dc42444e8fa20260801c5b60008460020b13156135ec57807fffffffffffffffffffffffffffffffffffffffffffffffffffffffffffffffff816135e8576135e8614362565b0490505b640100000000810615613600576001613603565b60005b60ff16602082901c0192505050919050565b600080807fffffffffffffffffffffffffffffffffffffffffffffffffffffffffffffffff8587098587029250828110838203039150508060000361366c576000841161366157600080fd5b508290049050612557565b80841161367857600080fd5b6000848688096000868103871696879004966002600389028118808a02820302808a02820302808a02820302808a02820302808a02820302808a02909103029181900381900460010186841190950394909402919094039290920491909117919091029150509392505050565b6000602082840312156136f757600080fd5b81357fffffffff000000000000000000000000000000000000000000000000000000008116811461255757600080fd5b63ffffffff8116811461373957600080fd5b50565b6000806040838503121561374f57600080fd5b82359150602083013561376181613727565b809150509250929050565b60006020828403121561377e57600080fd5b813567ffffffffffffffff81111561379557600080fd5b8201610200818503121561255757600080fd5b6000602082840312156137ba57600080fd5b5035919050565b600080604083850312156137d457600080fd5b50508035926020909101359150565b73ffffffffffffffffffffffffffffffffffffffff8116811461373957600080fd5b6000806040838503121561381857600080fd5b823591506020830135613761816137e3565b600080600080600060a0868803121561384257600080fd5b85359450602086013562ffffff8116811461385c57600080fd5b9350604086013561386c81613727565b9250606086013591506080860135613883816137e3565b809150509295509295909350565b6000602082840312156138a357600080fd5b813567ffffffffffffffff8111156138ba57600080fd5b8201610180818503121561255757600080fd5b6000815180845260005b818110156138f3576020818501810151868301820152016138d7565b5060006020828601015260207fffffffffffffffffffffffffffffffffffffffffffffffffffffffffffffffe0601f83011685010191505092915050565b6000604080830185845260206040818601528186518084526060935060608701915060608160051b88010183890160005b838110156139dd578983037fffffffffffffffffffffffffffffffffffffffffffffffffffffffffffffffa00185528151805173ffffffffffffffffffffffffffffffffffffffff16845286810151878501528801518884018890526139ca888501826138cd565b9587019593505090850190600101613962565b50909a9950505050505050505050565b60008060008060608587031215613a0357600080fd5b8435935060208501359250604085013567ffffffffffffffff80821115613a2957600080fd5b818701915087601f830112613a3d57600080fd5b813581811115613a4c57600080fd5b886020828501011115613a5e57600080fd5b95989497505060200194505050565b600060208284031215613a7f57600080fd5b813567ffffffffffffffff811115613a9657600080fd5b82016101a0818503121561255757600080fd5b60006080820186835260208681850152604086604086015260606080606087015283875180865260a08801915060a08160051b890101955084890160005b82811015613b62578988037fffffffffffffffffffffffffffffffffffffffffffffffffffffffffffffff600184528151805173ffffffffffffffffffffffffffffffffffffffff16895287810151888a0152860151868901869052613b4f868a01826138cd565b9850509286019290860190600101613ae7565b50959c9b505050505050505050505050565b8051613b7f816137e3565b919050565b600060208284031215613b9657600080fd5b8151612557816137e3565b801515811461373957600080fd5b8051613b7f81613ba1565b600060208284031215613bcc57600080fd5b815161255781613ba1565b60008083357fffffffffffffffffffffffffffffffffffffffffffffffffffffffffffffffe1843603018112613c0c57600080fd5b83018035915067ffffffffffffffff821115613c2757600080fd5b60200191503681900382131561283157600080fd5b600080600060608486031215613c5157600080fd5b8335613c5c81613ba1565b95602085013595506040909401359392505050565b600060208284031215613c8357600080fd5b8135612557816137e3565b600060208284031215613ca057600080fd5b5051919050565b7f4e487b7100000000000000000000000000000000000000000000000000000000600052604160045260246000fd5b604051610260810167ffffffffffffffff81118282101715613cfa57613cfa613ca7565b60405290565b604051610120810167ffffffffffffffff81118282101715613cfa57613cfa613ca7565b604051601f82017fffffffffffffffffffffffffffffffffffffffffffffffffffffffffffffffe016810167ffffffffffffffff81118282101715613d6b57613d6b613ca7565b604052919050565b805165ffffffffffff81168114613b7f57600080fd5b8051613b7f81613727565b80516dffffffffffffffffffffffffffff81168114613b7f57600080fd5b805161ffff81168114613b7f57600080fd5b60006102608284031215613dd757600080fd5b613ddf613cd6565b9050613dea82613db2565b8152613df860208301613db2565b6020820152613e0960408301613d89565b6040820152613e1a60608301613baf565b6060820152613e2b60808301613baf565b6080820152613e3c60a08301613baf565b60a0820152613e4d60c08301613baf565b60c0820152613e5e60e08301613baf565b60e0820152610100613e71818401613baf565b90820152610120613e83838201613baf565b90820152610140613e95838201613baf565b90820152610160613ea7838201613baf565b90820152610180613eb9838201613baf565b908201526101a0613ecb838201613baf565b908201526101c0613edd838201613baf565b908201526101e0613eef838201613baf565b90820152610200613f01838201613baf565b90820152610220613f13838201613b74565b90820152610240613f25838201613db2565b9082015292915050565b600080828403610380811215613f4457600080fd5b61012080821215613f5457600080fd5b613f5c613d00565b9150613f6785613d73565b8252613f7560208601613d73565b6020830152613f8660408601613d73565b6040830152613f9760608601613d73565b6060830152613fa860808601613d89565b6080830152613fb960a08601613d94565b60a0830152613fca60c08601613d89565b60c0830152613fdb60e08601613b74565b60e0830152610100808601518184015250819350613ffb86828701613dc4565b925050509250929050565b60006020828403121561401857600080fd5b813561255781613727565b60ff8116811461373957600080fd5b60006020828403121561404457600080fd5b813561255781614023565b7f4e487b7100000000000000000000000000000000000000000000000000000000600052601160045260246000fd5b600181815b808511156140d757817fffffffffffffffffffffffffffffffffffffffffffffffffffffffffffffffff048211156140bd576140bd61404f565b808516156140ca57918102915b93841c9390800290614083565b509250929050565b6000826140ee5750600161072f565b816140fb5750600061072f565b8160018114614111576002811461411b57614137565b600191505061072f565b60ff84111561412c5761412c61404f565b50506001821b61072f565b5060208310610133831016604e8410600b841016171561415a575081810a61072f565b614164838361407e565b807fffffffffffffffffffffffffffffffffffffffffffffffffffffffffffffffff048211156141965761419661404f565b029392505050565b600061255760ff8416836140df565b85815273ffffffffffffffffffffffffffffffffffffffff85166020820152836040820152821515606082015260c06080820152600060c082015260e060a082015260006141fe60e08301846138cd565b979650505050505050565b8082018082111561072f5761072f61404f565b6000806040838503121561422f57600080fd5b505080516020909101519092909150565b8181038181111561072f5761072f61404f565b7f4e487b7100000000000000000000000000000000000000000000000000000000600052603260045260246000fd5b73ffffffffffffffffffffffffffffffffffffffff8181168382160190808211156142af576142af61404f565b5092915050565b73ffffffffffffffffffffffffffffffffffffffff8281168282160390808211156142af576142af61404f565b600073ffffffffffffffffffffffffffffffffffffffff8088168352861515602084015285604084015280851660608401525060a060808301526141fe60a08301846138cd565b60007f8000000000000000000000000000000000000000000000000000000000000000820361435b5761435b61404f565b5060000390565b7f4e487b7100000000000000000000000000000000000000000000000000000000600052601260045260246000fd5b808202811582820484141761072f5761072f61404f565b600080600080600080600060e0888a0312156143c357600080fd5b87516143ce816137e3565b8097505060208801518060020b81146143e657600080fd5b95506143f460408901613db2565b945061440260608901613db2565b935061441060808901613db2565b925060a088015161442081614023565b60c089015190925061443181613ba1565b8091505092959891949750929550565b60008261445057614450614362565b500490565b61ffff8181168382160190808211156142af576142af61404f565b600061ffff8084168061448557614485614362565b92169190910692915050565b8051600681900b8114613b7f57600080fd5b600080600080608085870312156144b957600080fd5b84516144c481613727565b93506144d260208601614491565b925060408501516144e2816137e3565b60608601519092506144f381613ba1565b939692955090935050565b6020808252825182820181905260009190848201906040850190845b8181101561453c57835163ffffffff168352928401929184019160010161451a565b50909695505050505050565b600067ffffffffffffffff82111561456257614562613ca7565b5060051b60200190565b600082601f83011261457d57600080fd5b8151602061459261458d83614548565b613d24565b8083825260208201915060208460051b8701019350868411156145b457600080fd5b602086015b848110156145d95780516145cc816137e3565b83529183019183016145b9565b509695505050505050565b600080604083850312156145f757600080fd5b825167ffffffffffffffff8082111561460f57600080fd5b818501915085601f83011261462357600080fd5b8151602061463361458d83614548565b82815260059290921b8401810191818101908984111561465257600080fd5b948201945b838610156146775761466886614491565b82529482019490820190614657565b9188015191965090935050508082111561469057600080fd5b5061469d8582860161456c565b9150509250929050565b600682810b9082900b037fffffffffffffffffffffffffffffffffffffffffffffffffff800000000000008112667fffffffffffff8213171561072f5761072f61404f565b60008160060b8360060b8061470357614703614362565b7fffffffffffffffffffffffffffffffffffffffffffffffffffffffffffffffff81147fffffffffffffffffffffffffffffffffffffffffffffffffff80000000000000831416156147575761475761404f565b90059392505050565b60008260060b8061477357614773614362565b808360060b0791505092915050565b60008160020b7fffffffffffffffffffffffffffffffffffffffffffffffffffffffffff80000081036147b7576147b761404f565b7fffffffffffffffffffffffffffffffffffffffffffffffffffffffffffffffff0192915050565b77ffffffffffffffffffffffffffffffffffffffffffffffff8281168282168181028316929181158285048214176124445761244461404f565b600077ffffffffffffffffffffffffffffffffffffffffffffffff8084168061484457614844614362565b9216919091049291505056fea2646970667358221220d77c556a57555fcc3150a26b87d6e22836e25f14edbd79ff44b787498528aedb64736f6c63430008170033",
	"devdoc": {
		"kind": "dev",
		"methods": {
			"afterPayRecordedWith((address,uint256,uint256,(address,uint8,uint32,uint256),(address,uint8,uint32,uint256),uint256,uint256,address,bytes,bytes))": {
				"details": "This function is only called if the minimum return from the swap exceeds the return from minting by paying the project. If the swap reverts (due to slippage, insufficient liquidity, or something else), then the hook mints the number of tokens which a payment to the project would have minted.",
				"params": {
					"context": "The pay context passed in by the terminal."
				}
			},
			"beforeCashOutRecordedWith((address,address,uint256,uint256,uint256,uint256,(address,uint8,uint32,uint256),bool,uint256,bytes))": {
				"details": "Pass cash out context back to the terminal without changes.",
				"params": {
					"context": "The cash out context passed in by the terminal."
				}
			},
			"beforePayRecordedWith((address,address,(address,uint8,uint32,uint256),uint256,uint256,address,uint256,uint256,bytes))": {
				"params": {
					"context": "Payment context passed to the data hook by `terminalStore.recordPaymentFrom(...)`. `context.metadata` can specify a Uniswap quote and specify how much of the payment should be used to swap. If `context.metadata` does not specify a quote, one will be calculated based on the TWAP. If `context.metadata` does not specify how much of the payment should be used, the hook uses the full amount paid in."
				},
				"returns": {
					"hookSpecifications": "Specifications containing pay hooks, as well as the amount and metadata to send to them. Fulfilled by the terminal. If tokens are only being minted, `hookSpecifications` will be empty.",
					"weight": "The weight to use. If tokens are being minted from the project, this is the original weight. If tokens are being bought from the pool, the weight is 0. If tokens are being minted AND bought from the pool, this weight is adjusted to take both into account."
				}
			},
			"constructor": {
				"params": {
					"controller": "The controller used to mint and burn tokens.",
					"directory": "The directory of terminals and controllers.",
					"factory": "The address of the Uniswap v3 factory. Used to calculate pool addresses.",
					"prices": "The contract that exposes price feeds.",
					"weth": "The WETH contract."
				}
			},
			"setPoolFor(uint256,uint24,uint32,uint256,address)": {
				"details": "Uses create2 for callback auth and to allow adding pools which haven't been deployed yet. This can be called by the project's owner or an address which has the `JBPermissionIds.SET_BUYBACK_POOL` permission from the owner.",
				"params": {
					"fee": "The fee used in the pool being set, as a fixed-point number of basis points with 2 decimals. A 0.01% fee is `100`, a 0.05% fee is `500`, a 0.3% fee is `3000`, and a 1% fee is `10000`.",
					"projectId": "The ID of the project to set the pool for.",
					"terminalToken": "The address of the terminal token that payments to the project are made in.",
					"twapSlippageTolerance": "The maximum spread allowed between the amount received and the TWAP.",
					"twapWindow": "The period of time over which the TWAP is computed."
				},
				"returns": {
					"newPool": "The pool that was set for the project and terminal token."
				}
			},
			"setTwapSlippageToleranceOf(uint256,uint256)": {
				"details": "This can be called by the project's owner or an address with `JBPermissionIds.SET_BUYBACK_TWAP` permission from the owner.",
				"params": {
					"newSlippageTolerance": "The new TWAP slippage tolerance, out of `TWAP_SLIPPAGE_DENOMINATOR`.",
					"projectId": "The ID of the project to set the TWAP slippage tolerance of."
				}
			},
			"setTwapWindowOf(uint256,uint32)": {
				"details": "This can be called by the project's owner or an address with `JBPermissionIds.SET_BUYBACK_TWAP` permission from the owner.",
				"params": {
					"newWindow": "The new TWAP window.",
					"projectId": "The ID of the project to set the TWAP window of."
				}
			},
			"supportsInterface(bytes4)": {
				"details": "Returns true if this contract implements the interface defined by `interfaceId`. See the corresponding https://eips.ethereum.org/EIPS/eip-165#how-interfaces-are-identified[ERC section] to learn more about how these ids are created. This function call must use less than 30 000 gas."
			},
			"twapSlippageToleranceOf(uint256)": {
				"details": "The \"TWAP slippage tolerance\" is the maximum negative spread between the TWAP and the expected return from a swap. If the expected return unfavourably exceeds the TWAP slippage tolerance, the swap will revert.",
				"params": {
					"projectId": "The ID of the project which the TWAP slippage tolerance applies to."
				},
				"returns": {
					"_0": "tolerance The maximum slippage allowed relative to the TWAP, as a percent out of `TWAP_SLIPPAGE_DENOMINATOR`."
				}
			},
			"twapWindowOf(uint256)": {
				"details": "The \"TWAP window\" is the period over which the TWAP is computed.",
				"params": {
					"projectId": "The ID of the project which the TWAP window applies to."
				},
				"returns": {
					"_0": "secondsAgo The TWAP window in seconds."
				}
			},
			"uniswapV3SwapCallback(int256,int256,bytes)": {
				"params": {
					"amount0Delta": "The amount of token 0 being used for the swap.",
					"amount1Delta": "The amount of token 1 being used for the swap.",
					"data": "Data passed in by the swap operation."
				}
			}
		},
		"version": 1
	},
	"userdoc": {
		"kind": "user",
		"methods": {
			"CONTROLLER()": {
				"notice": "The controller used to mint and burn tokens."
			},
			"DIRECTORY()": {
				"notice": "The directory of terminals and controllers."
			},
			"MAX_TWAP_SLIPPAGE_TOLERANCE()": {
				"notice": "Projects cannot specify a TWAP slippage tolerance larger than this constant (out of `MAX_SLIPPAGE`)."
			},
			"MAX_TWAP_WINDOW()": {
				"notice": "Projects cannot specify a TWAP window longer than this constant."
			},
			"MIN_TWAP_SLIPPAGE_TOLERANCE()": {
				"notice": "Projects cannot specify a TWAP slippage tolerance smaller than this constant (out of `MAX_SLIPPAGE`)."
			},
			"MIN_TWAP_WINDOW()": {
				"notice": "Projects cannot specify a TWAP window shorter than this constant."
			},
			"PERMISSIONS()": {
				"notice": "A contract storing permissions."
			},
			"PRICES()": {
				"notice": "The contract that exposes price feeds."
			},
			"PROJECTS()": {
				"notice": "The project registry."
			},
			"TWAP_SLIPPAGE_DENOMINATOR()": {
				"notice": "The denominator used when calculating TWAP slippage percent values."
			},
			"UNISWAP_V3_FACTORY()": {
				"notice": "The address of the Uniswap v3 factory. Used to calculate pool addresses."
			},
			"WETH()": {
				"notice": "The wETH contract."
			},
			"afterPayRecordedWith((address,uint256,uint256,(address,uint8,uint32,uint256),(address,uint8,uint32,uint256),uint256,uint256,address,bytes,bytes))": {
				"notice": "Swap the specified amount of terminal tokens for project tokens, using any leftover terminal tokens to mint from the project."
			},
			"beforeCashOutRecordedWith((address,address,uint256,uint256,uint256,uint256,(address,uint8,uint32,uint256),bool,uint256,bytes))": {
				"notice": "To fulfill the `IJBRulesetDataHook` interface."
			},
			"beforePayRecordedWith((address,address,(address,uint8,uint32,uint256),uint256,uint256,address,uint256,uint256,bytes))": {
				"notice": "The `IJBRulesetDataHook` implementation which determines whether tokens should be minted from the project or bought from the pool."
			},
			"hasMintPermissionFor(uint256,address)": {
				"notice": "Required by the `IJBRulesetDataHook` interfaces. Return false to not leak any permissions."
			},
			"poolOf(uint256,address)": {
				"notice": "The Uniswap pool where a given project's token and terminal token pair are traded."
			},
			"projectTokenOf(uint256)": {
				"notice": "The address of each project's token."
			},
			"setPoolFor(uint256,uint24,uint32,uint256,address)": {
				"notice": "Set the pool to use for a given project and terminal token (the default for the project's token <-> terminal token pair)."
			},
			"setTwapSlippageToleranceOf(uint256,uint256)": {
				"notice": "Set the TWAP slippage tolerance for a project. The TWAP slippage tolerance is the maximum spread allowed between the amount received and the TWAP."
			},
			"setTwapWindowOf(uint256,uint32)": {
				"notice": "Change the TWAP window for a project. The TWAP window is the period of time over which the TWAP is computed."
			},
			"twapSlippageToleranceOf(uint256)": {
				"notice": "Get the TWAP slippage tolerance for a given project ID."
			},
			"twapWindowOf(uint256)": {
				"notice": "Get the TWAP window for a given project ID."
			},
			"uniswapV3SwapCallback(int256,int256,bytes)": {
				"notice": "The Uniswap v3 pool callback where the token transfer is expected to happen."
			}
		},
		"version": 1
	},
	"gitCommit": "9358af4eb2902bbe7e30426f114539f55c1a4b50",
	"sourceName": "src/JBBuybackHook.sol",
	"chainId": "84532",
	"linkReferences": {},
	"deployedLinkReferences": {},
	"history": []
}