{
	"format": "sphinx-sol-ct-artifact-1",
	"merkleRoot": "0x21b81ccc8b8bc949aa9f2b526d7f73d0ba8a8adf25d09c0cb65adab1bea1757c",
	"address": "0x09d97e2b8b2f143335c2344947a79d1a3a4c2946",
	"sourceName": "src/JBBuybackHook.sol",
	"contractName": "JBBuybackHook",
	"chainId": "0xa",
	"abi": [
		{
			"inputs": [
				{
					"internalType": "contract IJBDirectory",
					"name": "directory",
					"type": "address"
				},
				{
					"internalType": "contract IJBController",
					"name": "controller",
					"type": "address"
				},
				{
					"internalType": "contract IJBPrices",
					"name": "prices",
					"type": "address"
				},
				{
					"internalType": "contract IWETH9",
					"name": "weth",
					"type": "address"
				},
				{
					"internalType": "address",
					"name": "factory",
					"type": "address"
				}
			],
			"stateMutability": "nonpayable",
			"type": "constructor"
		},
		{
			"inputs": [],
			"name": "CONTROLLER",
			"outputs": [
				{
					"internalType": "contract IJBController",
					"name": "",
					"type": "address"
				}
			],
			"stateMutability": "view",
			"type": "function"
		},
		{
			"inputs": [],
			"name": "DIRECTORY",
			"outputs": [
				{
					"internalType": "contract IJBDirectory",
					"name": "",
					"type": "address"
				}
			],
			"stateMutability": "view",
			"type": "function"
		},
		{
			"inputs": [],
			"name": "MAX_TWAP_SLIPPAGE_TOLERANCE",
			"outputs": [
				{
					"internalType": "uint256",
					"name": "",
					"type": "uint256"
				}
			],
			"stateMutability": "view",
			"type": "function"
		},
		{
			"inputs": [],
			"name": "MAX_TWAP_WINDOW",
			"outputs": [
				{
					"internalType": "uint256",
					"name": "",
					"type": "uint256"
				}
			],
			"stateMutability": "view",
			"type": "function"
		},
		{
			"inputs": [],
			"name": "MIN_TWAP_SLIPPAGE_TOLERANCE",
			"outputs": [
				{
					"internalType": "uint256",
					"name": "",
					"type": "uint256"
				}
			],
			"stateMutability": "view",
			"type": "function"
		},
		{
			"inputs": [],
			"name": "MIN_TWAP_WINDOW",
			"outputs": [
				{
					"internalType": "uint256",
					"name": "",
					"type": "uint256"
				}
			],
			"stateMutability": "view",
			"type": "function"
		},
		{
			"inputs": [],
			"name": "PERMISSIONS",
			"outputs": [
				{
					"internalType": "contract IJBPermissions",
					"name": "",
					"type": "address"
				}
			],
			"stateMutability": "view",
			"type": "function"
		},
		{
			"inputs": [],
			"name": "PRICES",
			"outputs": [
				{
					"internalType": "contract IJBPrices",
					"name": "",
					"type": "address"
				}
			],
			"stateMutability": "view",
			"type": "function"
		},
		{
			"inputs": [],
			"name": "PROJECTS",
			"outputs": [
				{
					"internalType": "contract IJBProjects",
					"name": "",
					"type": "address"
				}
			],
			"stateMutability": "view",
			"type": "function"
		},
		{
			"inputs": [],
			"name": "TWAP_SLIPPAGE_DENOMINATOR",
			"outputs": [
				{
					"internalType": "uint256",
					"name": "",
					"type": "uint256"
				}
			],
			"stateMutability": "view",
			"type": "function"
		},
		{
			"inputs": [],
			"name": "UNISWAP_V3_FACTORY",
			"outputs": [
				{
					"internalType": "address",
					"name": "",
					"type": "address"
				}
			],
			"stateMutability": "view",
			"type": "function"
		},
		{
			"inputs": [],
			"name": "WETH",
			"outputs": [
				{
					"internalType": "contract IWETH9",
					"name": "",
					"type": "address"
				}
			],
			"stateMutability": "view",
			"type": "function"
		},
		{
			"inputs": [
				{
					"components": [
						{
							"internalType": "address",
							"name": "payer",
							"type": "address"
						},
						{
							"internalType": "uint256",
							"name": "projectId",
							"type": "uint256"
						},
						{
							"internalType": "uint256",
							"name": "rulesetId",
							"type": "uint256"
						},
						{
							"components": [
								{
									"internalType": "address",
									"name": "token",
									"type": "address"
								},
								{
									"internalType": "uint8",
									"name": "decimals",
									"type": "uint8"
								},
								{
									"internalType": "uint32",
									"name": "currency",
									"type": "uint32"
								},
								{
									"internalType": "uint256",
									"name": "value",
									"type": "uint256"
								}
							],
							"internalType": "struct JBTokenAmount",
							"name": "amount",
							"type": "tuple"
						},
						{
							"components": [
								{
									"internalType": "address",
									"name": "token",
									"type": "address"
								},
								{
									"internalType": "uint8",
									"name": "decimals",
									"type": "uint8"
								},
								{
									"internalType": "uint32",
									"name": "currency",
									"type": "uint32"
								},
								{
									"internalType": "uint256",
									"name": "value",
									"type": "uint256"
								}
							],
							"internalType": "struct JBTokenAmount",
							"name": "forwardedAmount",
							"type": "tuple"
						},
						{
							"internalType": "uint256",
							"name": "weight",
							"type": "uint256"
						},
						{
							"internalType": "uint256",
							"name": "newlyIssuedTokenCount",
							"type": "uint256"
						},
						{
							"internalType": "address",
							"name": "beneficiary",
							"type": "address"
						},
						{
							"internalType": "bytes",
							"name": "hookMetadata",
							"type": "bytes"
						},
						{
							"internalType": "bytes",
							"name": "payerMetadata",
							"type": "bytes"
						}
					],
					"internalType": "struct JBAfterPayRecordedContext",
					"name": "context",
					"type": "tuple"
				}
			],
			"name": "afterPayRecordedWith",
			"outputs": [],
			"stateMutability": "payable",
			"type": "function"
		},
		{
			"inputs": [
				{
					"components": [
						{
							"internalType": "address",
							"name": "terminal",
							"type": "address"
						},
						{
							"internalType": "address",
							"name": "holder",
							"type": "address"
						},
						{
							"internalType": "uint256",
							"name": "projectId",
							"type": "uint256"
						},
						{
							"internalType": "uint256",
							"name": "rulesetId",
							"type": "uint256"
						},
						{
							"internalType": "uint256",
							"name": "cashOutCount",
							"type": "uint256"
						},
						{
							"internalType": "uint256",
							"name": "totalSupply",
							"type": "uint256"
						},
						{
							"components": [
								{
									"internalType": "address",
									"name": "token",
									"type": "address"
								},
								{
									"internalType": "uint8",
									"name": "decimals",
									"type": "uint8"
								},
								{
									"internalType": "uint32",
									"name": "currency",
									"type": "uint32"
								},
								{
									"internalType": "uint256",
									"name": "value",
									"type": "uint256"
								}
							],
							"internalType": "struct JBTokenAmount",
							"name": "surplus",
							"type": "tuple"
						},
						{
							"internalType": "bool",
							"name": "useTotalSurplus",
							"type": "bool"
						},
						{
							"internalType": "uint256",
							"name": "cashOutTaxRate",
							"type": "uint256"
						},
						{
							"internalType": "bytes",
							"name": "metadata",
							"type": "bytes"
						}
					],
					"internalType": "struct JBBeforeCashOutRecordedContext",
					"name": "context",
					"type": "tuple"
				}
			],
			"name": "beforeCashOutRecordedWith",
			"outputs": [
				{
					"internalType": "uint256",
					"name": "",
					"type": "uint256"
				},
				{
					"internalType": "uint256",
					"name": "",
					"type": "uint256"
				},
				{
					"internalType": "uint256",
					"name": "",
					"type": "uint256"
				},
				{
					"components": [
						{
							"internalType": "contract IJBCashOutHook",
							"name": "hook",
							"type": "address"
						},
						{
							"internalType": "uint256",
							"name": "amount",
							"type": "uint256"
						},
						{
							"internalType": "bytes",
							"name": "metadata",
							"type": "bytes"
						}
					],
					"internalType": "struct JBCashOutHookSpecification[]",
					"name": "hookSpecifications",
					"type": "tuple[]"
				}
			],
			"stateMutability": "pure",
			"type": "function"
		},
		{
			"inputs": [
				{
					"components": [
						{
							"internalType": "address",
							"name": "terminal",
							"type": "address"
						},
						{
							"internalType": "address",
							"name": "payer",
							"type": "address"
						},
						{
							"components": [
								{
									"internalType": "address",
									"name": "token",
									"type": "address"
								},
								{
									"internalType": "uint8",
									"name": "decimals",
									"type": "uint8"
								},
								{
									"internalType": "uint32",
									"name": "currency",
									"type": "uint32"
								},
								{
									"internalType": "uint256",
									"name": "value",
									"type": "uint256"
								}
							],
							"internalType": "struct JBTokenAmount",
							"name": "amount",
							"type": "tuple"
						},
						{
							"internalType": "uint256",
							"name": "projectId",
							"type": "uint256"
						},
						{
							"internalType": "uint256",
							"name": "rulesetId",
							"type": "uint256"
						},
						{
							"internalType": "address",
							"name": "beneficiary",
							"type": "address"
						},
						{
							"internalType": "uint256",
							"name": "weight",
							"type": "uint256"
						},
						{
							"internalType": "uint256",
							"name": "reservedPercent",
							"type": "uint256"
						},
						{
							"internalType": "bytes",
							"name": "metadata",
							"type": "bytes"
						}
					],
					"internalType": "struct JBBeforePayRecordedContext",
					"name": "context",
					"type": "tuple"
				}
			],
			"name": "beforePayRecordedWith",
			"outputs": [
				{
					"internalType": "uint256",
					"name": "weight",
					"type": "uint256"
				},
				{
					"components": [
						{
							"internalType": "contract IJBPayHook",
							"name": "hook",
							"type": "address"
						},
						{
							"internalType": "uint256",
							"name": "amount",
							"type": "uint256"
						},
						{
							"internalType": "bytes",
							"name": "metadata",
							"type": "bytes"
						}
					],
					"internalType": "struct JBPayHookSpecification[]",
					"name": "hookSpecifications",
					"type": "tuple[]"
				}
			],
			"stateMutability": "view",
			"type": "function"
		},
		{
			"inputs": [
				{
					"internalType": "uint256",
					"name": "",
					"type": "uint256"
				},
				{
					"internalType": "address",
					"name": "",
					"type": "address"
				}
			],
			"name": "hasMintPermissionFor",
			"outputs": [
				{
					"internalType": "bool",
					"name": "",
					"type": "bool"
				}
			],
			"stateMutability": "pure",
			"type": "function"
		},
		{
			"inputs": [
				{
					"internalType": "uint256",
					"name": "projectId",
					"type": "uint256"
				},
				{
					"internalType": "address",
					"name": "terminalToken",
					"type": "address"
				}
			],
			"name": "poolOf",
			"outputs": [
				{
					"internalType": "contract IUniswapV3Pool",
					"name": "",
					"type": "address"
				}
			],
			"stateMutability": "view",
			"type": "function"
		},
		{
			"inputs": [
				{
					"internalType": "uint256",
					"name": "projectId",
					"type": "uint256"
				}
			],
			"name": "projectTokenOf",
			"outputs": [
				{
					"internalType": "address",
					"name": "",
					"type": "address"
				}
			],
			"stateMutability": "view",
			"type": "function"
		},
		{
			"inputs": [
				{
					"internalType": "uint256",
					"name": "projectId",
					"type": "uint256"
				},
				{
					"internalType": "uint24",
					"name": "fee",
					"type": "uint24"
				},
				{
					"internalType": "uint32",
					"name": "twapWindow",
					"type": "uint32"
				},
				{
					"internalType": "uint256",
					"name": "twapSlippageTolerance",
					"type": "uint256"
				},
				{
					"internalType": "address",
					"name": "terminalToken",
					"type": "address"
				}
			],
			"name": "setPoolFor",
			"outputs": [
				{
					"internalType": "contract IUniswapV3Pool",
					"name": "newPool",
					"type": "address"
				}
			],
			"stateMutability": "nonpayable",
			"type": "function"
		},
		{
			"inputs": [
				{
					"internalType": "uint256",
					"name": "projectId",
					"type": "uint256"
				},
				{
					"internalType": "uint256",
					"name": "newSlippageTolerance",
					"type": "uint256"
				}
			],
			"name": "setTwapSlippageToleranceOf",
			"outputs": [],
			"stateMutability": "nonpayable",
			"type": "function"
		},
		{
			"inputs": [
				{
					"internalType": "uint256",
					"name": "projectId",
					"type": "uint256"
				},
				{
					"internalType": "uint32",
					"name": "newWindow",
					"type": "uint32"
				}
			],
			"name": "setTwapWindowOf",
			"outputs": [],
			"stateMutability": "nonpayable",
			"type": "function"
		},
		{
			"inputs": [
				{
					"internalType": "bytes4",
					"name": "interfaceId",
					"type": "bytes4"
				}
			],
			"name": "supportsInterface",
			"outputs": [
				{
					"internalType": "bool",
					"name": "",
					"type": "bool"
				}
			],
			"stateMutability": "pure",
			"type": "function"
		},
		{
			"inputs": [
				{
					"internalType": "uint256",
					"name": "projectId",
					"type": "uint256"
				}
			],
			"name": "twapSlippageToleranceOf",
			"outputs": [
				{
					"internalType": "uint256",
					"name": "",
					"type": "uint256"
				}
			],
			"stateMutability": "view",
			"type": "function"
		},
		{
			"inputs": [
				{
					"internalType": "uint256",
					"name": "projectId",
					"type": "uint256"
				}
			],
			"name": "twapWindowOf",
			"outputs": [
				{
					"internalType": "uint32",
					"name": "",
					"type": "uint32"
				}
			],
			"stateMutability": "view",
			"type": "function"
		},
		{
			"inputs": [
				{
					"internalType": "int256",
					"name": "amount0Delta",
					"type": "int256"
				},
				{
					"internalType": "int256",
					"name": "amount1Delta",
					"type": "int256"
				},
				{
					"internalType": "bytes",
					"name": "data",
					"type": "bytes"
				}
			],
			"name": "uniswapV3SwapCallback",
			"outputs": [],
			"stateMutability": "nonpayable",
			"type": "function"
		},
		{
			"anonymous": false,
			"inputs": [
				{
					"indexed": true,
					"internalType": "uint256",
					"name": "projectId",
					"type": "uint256"
				},
				{
					"indexed": false,
					"internalType": "uint256",
					"name": "leftoverAmount",
					"type": "uint256"
				},
				{
					"indexed": false,
					"internalType": "uint256",
					"name": "tokenCount",
					"type": "uint256"
				},
				{
					"indexed": false,
					"internalType": "address",
					"name": "caller",
					"type": "address"
				}
			],
			"name": "Mint",
			"type": "event"
		},
		{
			"anonymous": false,
			"inputs": [
				{
					"indexed": true,
					"internalType": "uint256",
					"name": "projectId",
					"type": "uint256"
				},
				{
					"indexed": true,
					"internalType": "address",
					"name": "terminalToken",
					"type": "address"
				},
				{
					"indexed": false,
					"internalType": "address",
					"name": "pool",
					"type": "address"
				},
				{
					"indexed": false,
					"internalType": "address",
					"name": "caller",
					"type": "address"
				}
			],
			"name": "PoolAdded",
			"type": "event"
		},
		{
			"anonymous": false,
			"inputs": [
				{
					"indexed": true,
					"internalType": "uint256",
					"name": "projectId",
					"type": "uint256"
				},
				{
					"indexed": false,
					"internalType": "uint256",
					"name": "amountToSwapWith",
					"type": "uint256"
				},
				{
					"indexed": false,
					"internalType": "contract IUniswapV3Pool",
					"name": "pool",
					"type": "address"
				},
				{
					"indexed": false,
					"internalType": "uint256",
					"name": "amountReceived",
					"type": "uint256"
				},
				{
					"indexed": false,
					"internalType": "address",
					"name": "caller",
					"type": "address"
				}
			],
			"name": "Swap",
			"type": "event"
		},
		{
			"anonymous": false,
			"inputs": [
				{
					"indexed": true,
					"internalType": "uint256",
					"name": "projectId",
					"type": "uint256"
				},
				{
					"indexed": false,
					"internalType": "uint256",
					"name": "oldTolerance",
					"type": "uint256"
				},
				{
					"indexed": false,
					"internalType": "uint256",
					"name": "newTolerance",
					"type": "uint256"
				},
				{
					"indexed": false,
					"internalType": "address",
					"name": "caller",
					"type": "address"
				}
			],
			"name": "TwapSlippageToleranceChanged",
			"type": "event"
		},
		{
			"anonymous": false,
			"inputs": [
				{
					"indexed": true,
					"internalType": "uint256",
					"name": "projectId",
					"type": "uint256"
				},
				{
					"indexed": false,
					"internalType": "uint256",
					"name": "oldWindow",
					"type": "uint256"
				},
				{
					"indexed": false,
					"internalType": "uint256",
					"name": "newWindow",
					"type": "uint256"
				},
				{
					"indexed": false,
					"internalType": "address",
					"name": "caller",
					"type": "address"
				}
			],
			"name": "TwapWindowChanged",
			"type": "event"
		},
		{
			"inputs": [
				{
					"internalType": "address",
					"name": "caller",
					"type": "address"
				}
			],
			"name": "JBBuybackHook_CallerNotPool",
			"type": "error"
		},
		{
			"inputs": [
				{
					"internalType": "uint256",
					"name": "swapAmount",
					"type": "uint256"
				},
				{
					"internalType": "uint256",
					"name": "totalPaid",
					"type": "uint256"
				}
			],
			"name": "JBBuybackHook_InsufficientPayAmount",
			"type": "error"
		},
		{
			"inputs": [
				{
					"internalType": "uint256",
					"name": "value",
					"type": "uint256"
				},
				{
					"internalType": "uint256",
					"name": "min",
					"type": "uint256"
				},
				{
					"internalType": "uint256",
					"name": "max",
					"type": "uint256"
				}
			],
			"name": "JBBuybackHook_InvalidTwapSlippageTolerance",
			"type": "error"
		},
		{
			"inputs": [
				{
					"internalType": "uint256",
					"name": "value",
					"type": "uint256"
				},
				{
					"internalType": "uint256",
					"name": "min",
					"type": "uint256"
				},
				{
					"internalType": "uint256",
					"name": "max",
					"type": "uint256"
				}
			],
			"name": "JBBuybackHook_InvalidTwapWindow",
			"type": "error"
		},
		{
			"inputs": [
				{
					"internalType": "contract IUniswapV3Pool",
					"name": "pool",
					"type": "address"
				}
			],
			"name": "JBBuybackHook_PoolAlreadySet",
			"type": "error"
		},
		{
			"inputs": [
				{
					"internalType": "uint256",
					"name": "amount",
					"type": "uint256"
				},
				{
					"internalType": "uint256",
					"name": "minimum",
					"type": "uint256"
				}
			],
			"name": "JBBuybackHook_SpecifiedSlippageExceeded",
			"type": "error"
		},
		{
			"inputs": [
				{
					"internalType": "address",
					"name": "terminalToken",
					"type": "address"
				},
				{
					"internalType": "address",
					"name": "projectToken",
					"type": "address"
				}
			],
			"name": "JBBuybackHook_TerminalTokenIsProjectToken",
			"type": "error"
		},
		{
			"inputs": [
				{
					"internalType": "address",
					"name": "caller",
					"type": "address"
				}
			],
			"name": "JBBuybackHook_Unauthorized",
			"type": "error"
		},
		{
			"inputs": [],
			"name": "JBBuybackHook_ZeroProjectToken",
			"type": "error"
		},
		{
			"inputs": [],
			"name": "JBBuybackHook_ZeroTerminalToken",
			"type": "error"
		},
		{
			"inputs": [
				{
					"internalType": "address",
					"name": "account",
					"type": "address"
				},
				{
					"internalType": "address",
					"name": "sender",
					"type": "address"
				},
				{
					"internalType": "uint256",
					"name": "projectId",
					"type": "uint256"
				},
				{
					"internalType": "uint256",
					"name": "permissionId",
					"type": "uint256"
				}
			],
			"name": "JBPermissioned_Unauthorized",
			"type": "error"
		},
		{
			"inputs": [
				{
					"internalType": "uint256",
					"name": "x",
					"type": "uint256"
				},
				{
					"internalType": "uint256",
					"name": "y",
					"type": "uint256"
				},
				{
					"internalType": "uint256",
					"name": "denominator",
					"type": "uint256"
				}
			],
			"name": "PRBMath_MulDiv_Overflow",
			"type": "error"
		},
		{
			"inputs": [
				{
					"internalType": "address",
					"name": "token",
					"type": "address"
				}
			],
			"name": "SafeERC20FailedOperation",
			"type": "error"
		},
		{
			"inputs": [],
			"name": "T",
			"type": "error"
		}
	],
	"args": [],
	"solcInputHash": "670c7f458ebec3f444d5368d2585cba0",
	"bytecode": "0x61016060405234801562000011575f80fd5b5060405162004b2e38038062004b2e833981016040819052620000349162000153565b836001600160a01b031663f434c9146040518163ffffffff1660e01b8152600401602060405180830381865afa15801562000071573d5f803e3d5ffd5b505050506040513d601f19601f82011682018060405250810190620000979190620001cf565b6001600160a01b0390811660805285811660c052841660a08190526040805163293c499960e01b8152905163293c4999916004808201926020929091908290030181865afa158015620000ec573d5f803e3d5ffd5b505050506040513d601f19601f82011682018060405250810190620001129190620001cf565b6001600160a01b039081166101005292831660e052821661012052166101405250620001f49050565b6001600160a01b038116811462000150575f80fd5b50565b5f805f805f60a0868803121562000168575f80fd5b855162000175816200013b565b602087015190955062000188816200013b565b60408701519094506200019b816200013b565b6060870151909350620001ae816200013b565b6080870151909250620001c1816200013b565b809150509295509295909350565b5f60208284031215620001e0575f80fd5b8151620001ed816200013b565b9392505050565b60805160a05160c05160e05161010051610120516101405161486a620002c45f395f8181610484015281816115be01528181611d0801528181611e7d01528181611f5a015261223a01525f818161055c01526115fe01525f81816102c60152818161078d015281816110c8015261122101525f818161022d01528181610cc80152611b7f01525f81816103f6015261095c01525f81816104f601528181610c1301528181610f95015281816113a701528181611ab5015261247e01525f8181610529015261208c015261486a5ff3fe60806040526004361061018e575f3560e01c8063889eedb4116100dc578063b88a92b411610087578063f434c91411610062578063f434c91414610518578063f73e5aab1461054b578063fa461e331461057e578063fb82b1b01461059d575f80fd5b8063b88a92b4146104ba578063db312fae146104d0578063ee0fc121146104e5575f80fd5b80639c9d4361116100b75780639c9d436114610445578063ad5c464814610473578063af471880146104a6575f80fd5b8063889eedb41461039c57806388bc2ef3146103e55780638cc3584614610418575f80fd5b8063293c49991161013c578063677ce08811610117578063677ce08814610347578063754baf96146103685780637b621d3a1461037d575f80fd5b8063293c4999146102b55780633717fba7146102e857806355135de014610328575f80fd5b80631a65893b1161016c5780631a65893b146101fa5780631eabcd341461021c57806327e5141114610274575f80fd5b806301ffc9a714610192578063132893eb146101c65780631337f986146101e7575b5f80fd5b34801561019d575f80fd5b506101b16101ac36600461373f565b6105de565b60405190151581526020015b60405180910390f35b3480156101d1575f80fd5b506101e56101e0366004613792565b61075a565b005b6101e56101f53660046137c0565b610924565b348015610205575f80fd5b5061020e607881565b6040519081526020016101bd565b348015610227575f80fd5b5061024f7f000000000000000000000000000000000000000000000000000000000000000081565b60405173ffffffffffffffffffffffffffffffffffffffff90911681526020016101bd565b34801561027f575f80fd5b5061024f61028e3660046137f8565b60016020525f908152604090205473ffffffffffffffffffffffffffffffffffffffff1681565b3480156102c0575f80fd5b5061024f7f000000000000000000000000000000000000000000000000000000000000000081565b3480156102f3575f80fd5b506103136103023660046137f8565b5f9081526002602052604090205490565b60405163ffffffff90911681526020016101bd565b348015610333575f80fd5b506101e561034236600461380f565b611095565b348015610352575f80fd5b506101b1610361366004613850565b5f92915050565b348015610373575f80fd5b5061020e61232881565b348015610388575f80fd5b5061024f610397366004613873565b6111d7565b3480156103a7575f80fd5b5061024f6103b6366004613850565b5f60208181529281526040808220909352908152205473ffffffffffffffffffffffffffffffffffffffff1681565b3480156103f0575f80fd5b5061024f7f000000000000000000000000000000000000000000000000000000000000000081565b348015610423575f80fd5b506104376104323660046138d5565b61196b565b6040516101bd92919061396e565b348015610450575f80fd5b5061020e61045f3660046137f8565b5f9081526002602052604090205460801c90565b34801561047e575f80fd5b5061024f7f000000000000000000000000000000000000000000000000000000000000000081565b3480156104b1575f80fd5b5061020e606481565b3480156104c5575f80fd5b5061020e6202a30081565b3480156104db575f80fd5b5061020e61271081565b3480156104f0575f80fd5b5061024f7f000000000000000000000000000000000000000000000000000000000000000081565b348015610523575f80fd5b5061024f7f000000000000000000000000000000000000000000000000000000000000000081565b348015610556575f80fd5b5061024f7f000000000000000000000000000000000000000000000000000000000000000081565b348015610589575f80fd5b506101e5610598366004613a28565b611e42565b3480156105a8575f80fd5b506105ce6105b7366004613aa1565b6101608101359160808201359160a0013590606090565b6040516101bd9493929190613ad9565b5f7fffffffff0000000000000000000000000000000000000000000000000000000082167f103d097e00000000000000000000000000000000000000000000000000000000148061067057507fffffffff0000000000000000000000000000000000000000000000000000000082167f1337f98600000000000000000000000000000000000000000000000000000000145b806106bc57507fffffffff0000000000000000000000000000000000000000000000000000000082167f913c66f900000000000000000000000000000000000000000000000000000000145b8061070857507fffffffff0000000000000000000000000000000000000000000000000000000082167ff434c91400000000000000000000000000000000000000000000000000000000145b8061075457507fffffffff0000000000000000000000000000000000000000000000000000000082167f01ffc9a700000000000000000000000000000000000000000000000000000000145b92915050565b6040517f6352211e00000000000000000000000000000000000000000000000000000000815260048101839052610814907f000000000000000000000000000000000000000000000000000000000000000073ffffffffffffffffffffffffffffffffffffffff1690636352211e906024015b602060405180830381865afa1580156107e8573d5f803e3d5ffd5b505050506040513d601f19601f8201168201806040525081019061080c9190613bb2565b836018612001565b60788163ffffffff16108061083157506202a3008163ffffffff16115b15610885576040517f904c370000000000000000000000000000000000000000000000000000000000815263ffffffff82166004820152607860248201526202a30060448201526064015b60405180910390fd5b5f82815260026020908152604091829020805463ffffffff85167fffffffffffffffffffffffffffffffff000000000000000000000000000000008216811790925583516fffffffffffffffffffffffffffffffff821680825293810192909252339382019390935284907fa8d6b20cd05f07d50e9855ce0fc6de3517f3df2e890a5ec6357892b3808a53ce906060015b60405180910390a250505050565b6040517f6e49181f000000000000000000000000000000000000000000000000000000008152602082013560048201523360248201527f000000000000000000000000000000000000000000000000000000000000000073ffffffffffffffffffffffffffffffffffffffff1690636e49181f90604401602060405180830381865afa1580156109b6573d5f803e3d5ffd5b505050506040513d601f19601f820116820180604052508101906109da9190613be5565b610a12576040517f4758af1b00000000000000000000000000000000000000000000000000000000815233600482015260240161087c565b5f8080610a236101c0850185613c00565b810190610a309190613c61565b9194509250905061eeee610a4b610100860160e08701613c93565b73ffffffffffffffffffffffffffffffffffffffff1614610aa057610aa03330610140870135610a82610100890160e08a01613c93565b73ffffffffffffffffffffffffffffffffffffffff16929190612162565b5f610aab85856121eb565b905081811015610af1576040517fe2d708a9000000000000000000000000000000000000000000000000000000008152600481018290526024810183905260440161087c565b5f61eeee610b06610100880160e08901613c93565b73ffffffffffffffffffffffffffffffffffffffff1614610bc557610b32610100870160e08801613c93565b6040517f70a0823100000000000000000000000000000000000000000000000000000000815230600482015273ffffffffffffffffffffffffffffffffffffffff91909116906370a0823190602401602060405180830381865afa158015610b9c573d5f803e3d5ffd5b505050506040513d601f19601f82011682018060405250810190610bc09190613cae565b610bc7565b475b6040517f41929626000000000000000000000000000000000000000000000000000000008152602088013560048201529091505f9073ffffffffffffffffffffffffffffffffffffffff7f0000000000000000000000000000000000000000000000000000000000000000169063419296269060240161038060405180830381865afa158015610c59573d5f803e3d5ffd5b505050506040513d601f19601f82011682018060405250810190610c7d9190613f46565b5090505f610c9082610100015160241c90565b63ffffffff16610ca660c08a0160a08b0161401a565b63ffffffff1614610db25773ffffffffffffffffffffffffffffffffffffffff7f000000000000000000000000000000000000000000000000000000000000000016633be273fa60208a0135610d0260c08c0160a08d0161401a565b61010086015160241c610d1b60a08e0160808f01614043565b6040517fffffffff0000000000000000000000000000000000000000000000000000000060e087901b168152600481019490945263ffffffff92831660248501529116604483015260ff166064820152608401602060405180830381865afa158015610d89573d5f803e3d5ffd5b505050506040513d601f19601f82011682018060405250810190610dad9190613cae565b610dcd565b610dc260a0890160808a01614043565b610dcd90600a6141a9565b90505f8315610f6257610de6848a6101600135846124f4565b905061eeee610dfc6101008b0160e08c01613c93565b73ffffffffffffffffffffffffffffffffffffffff1614610e4a57610e4a3385610e2d6101008d0160e08e01613c93565b73ffffffffffffffffffffffffffffffffffffffff169190612601565b5f61eeee610e5f6101008c0160e08d01613c93565b73ffffffffffffffffffffffffffffffffffffffff1614610e80575f610e82565b845b60408051878152602080820186905233828401529151929350908c0135917faacef1bbb194eac329f8f247fbe8cce3eca2ed1f2e0a45a0488c2dd8afe6e5169181900360600190a23373ffffffffffffffffffffffffffffffffffffffff16639e6eec05828c602001358d60e0015f016020810190610f019190613c93565b895f60405180602001604052805f8152506040518763ffffffff1660e01b8152600401610f329594939291906141b7565b5f604051808303818588803b158015610f49575f80fd5b505af1158015610f5b573d5f803e3d5ffd5b5050505050505b610f72878a6101600135846124f4565b610f7c9082614211565b905073ffffffffffffffffffffffffffffffffffffffff7f00000000000000000000000000000000000000000000000000000000000000001663c7fb92de60208b0135610fc98489614211565b610fdb6101c08e016101a08f01613c93565b6040517fffffffff0000000000000000000000000000000000000000000000000000000060e086901b1681526004810193909352602483019190915273ffffffffffffffffffffffffffffffffffffffff16604482015260a060648201525f60a48201526001608482015260c4016020604051808303815f875af1158015611065573d5f803e3d5ffd5b505050506040513d601f19601f820116820180604052508101906110899190613cae565b50505050505050505050565b6040517f6352211e0000000000000000000000000000000000000000000000000000000081526004810183905261110c907f000000000000000000000000000000000000000000000000000000000000000073ffffffffffffffffffffffffffffffffffffffff1690636352211e906024016107cd565b606481108061111c575061232881115b15611165576040517f8b9cb5530000000000000000000000000000000000000000000000000000000081526004810182905260646024820181905261232860448301520161087c565b5f828152600260209081526040918290208054608085811b6fffffffffffffffffffffffffffffffff83161790925583519181901c808352928201859052339382019390935284907faafe2470cbfb11a09f9b45d6a795226e93cc251e30fdcabddbabb157a1db535390606001610916565b6040517f6352211e000000000000000000000000000000000000000000000000000000008152600481018690525f906112929073ffffffffffffffffffffffffffffffffffffffff7f00000000000000000000000000000000000000000000000000000000000000001690636352211e90602401602060405180830381865afa158015611266573d5f803e3d5ffd5b505050506040513d601f19601f8201168201806040525081019061128a9190613bb2565b876019612001565b60648310806112a2575061232883115b156112eb576040517f8b9cb5530000000000000000000000000000000000000000000000000000000081526004810184905260646024820181905261232860448301520161087c565b60788463ffffffff16108061130857506202a3008463ffffffff16115b15611357576040517f904c370000000000000000000000000000000000000000000000000000000000815263ffffffff85166004820152607860248201526202a300604482015260640161087c565b73ffffffffffffffffffffffffffffffffffffffff82166113a4576040517fd8bba7f600000000000000000000000000000000000000000000000000000000815260040160405180910390fd5b5f7f000000000000000000000000000000000000000000000000000000000000000073ffffffffffffffffffffffffffffffffffffffff16631d831d5c6040518163ffffffff1660e01b8152600401602060405180830381865afa15801561140e573d5f803e3d5ffd5b505050506040513d601f19601f820116820180604052508101906114329190613bb2565b73ffffffffffffffffffffffffffffffffffffffff1663ea78803f886040518263ffffffff1660e01b815260040161146c91815260200190565b602060405180830381865afa158015611487573d5f803e3d5ffd5b505050506040513d601f19601f820116820180604052508101906114ab9190613bb2565b905073ffffffffffffffffffffffffffffffffffffffff81166114fa576040517f8637f5b700000000000000000000000000000000000000000000000000000000815260040160405180910390fd5b8073ffffffffffffffffffffffffffffffffffffffff168373ffffffffffffffffffffffffffffffffffffffff160361157f576040517f2ec7c58700000000000000000000000000000000000000000000000000000000815273ffffffffffffffffffffffffffffffffffffffff80851660048301528216602482015260440161087c565b7fffffffffffffffffffffffffffffffffffffffffffffffffffffffffffff111273ffffffffffffffffffffffffffffffffffffffff8416016115e0577f000000000000000000000000000000000000000000000000000000000000000092505b73ffffffffffffffffffffffffffffffffffffffff808416908216107f000000000000000000000000000000000000000000000000000000000000000081611628578461162a565b825b826116355783611637565b855b6040805173ffffffffffffffffffffffffffffffffffffffff9384166020820152929091169082015262ffffff89166060820152608001604080517fffffffffffffffffffffffffffffffffffffffffffffffffffffffffffffffe0818403018152908290528051602091820120611732939290917fe34f199b19b2b4f47f68442619d555527d244f78a3297ea89325f843f87b8b5491017fff00000000000000000000000000000000000000000000000000000000000000815260609390931b7fffffffffffffffffffffffffffffffffffffffff0000000000000000000000001660018401526015830191909152603582015260550190565b604080517fffffffffffffffffffffffffffffffffffffffffffffffffffffffffffffffe081840301815291815281516020928301205f8b815280845282812073ffffffffffffffffffffffffffffffffffffffff89811683529452919091205490945016156117ff575f8881526020818152604080832073ffffffffffffffffffffffffffffffffffffffff88811685529252918290205491517f14f04e470000000000000000000000000000000000000000000000000000000081529116600482015260240161087c565b5f8881526020818152604080832073ffffffffffffffffffffffffffffffffffffffff888116855290835281842080547fffffffffffffffffffffffff0000000000000000000000000000000000000000908116898416179091558c85526002845282852063ffffffff8c1660808c901b8117909155600185528386208054909216928816929092179055815193845291830191909152339082015288907fa8d6b20cd05f07d50e9855ce0fc6de3517f3df2e890a5ec6357892b3808a53ce9060600160405180910390a2604080515f8152602081018790523381830152905189917faafe2470cbfb11a09f9b45d6a795226e93cc251e30fdcabddbabb157a1db5353919081900360600190a26040805173ffffffffffffffffffffffffffffffffffffffff85811682523360208301528616918a917fe694de883385e30d535f625d68df4b2b5e866e8e86fe9d15554480c8d1812e60910160405180910390a3505095945050505050565b60408051808201909152600581527f71756f746500000000000000000000000000000000000000000000000000000060208201526101208201359060609060a0840135905f90819081906119be906126d8565b90505f80611a0d836119d46101608c018c613c00565b8080601f0160208091040260200160405190810160405280939291908181526020018383808284375f920191909152506126eb92505050565b915091508115611a305780806020019051810190611a2b9190614224565b955093505b50505082811115611a77576040517fcc8704dd000000000000000000000000000000000000000000000000000000008152600481018290526024810184905260440161087c565b805f03611a815750815b6040517f4192962600000000000000000000000000000000000000000000000000000000815260c087013560048201525f907f000000000000000000000000000000000000000000000000000000000000000073ffffffffffffffffffffffffffffffffffffffff169063419296269060240161038060405180830381865afa158015611b10573d5f803e3d5ffd5b505050506040513d601f19601f82011682018060405250810190611b349190613f46565b5090505f611b4782610100015160241c90565b63ffffffff16611b5d60a08a0160808b0161401a565b63ffffffff1614611c695773ffffffffffffffffffffffffffffffffffffffff7f000000000000000000000000000000000000000000000000000000000000000016633be273fa60c08a0135611bb960a08c0160808d0161401a565b61010086015160241c611bd260808e0160608f01614043565b6040517fffffffff0000000000000000000000000000000000000000000000000000000060e087901b168152600481019490945263ffffffff92831660248501529116604483015260ff166064820152608401602060405180830381865afa158015611c40573d5f803e3d5ffd5b505050506040513d601f19601f82011682018060405250810190611c649190613cae565b611c84565b611c796080890160608a01614043565b611c8490600a6141a9565b90505f611c928489846124f4565b60c08a01355f908152600160205260408082205492935073ffffffffffffffffffffffffffffffffffffffff9092169161eeee90611cd69060608e01908e01613c93565b73ffffffffffffffffffffffffffffffffffffffff1614611d0657611d0160608c0160408d01613c93565b611d28565b7f00000000000000000000000000000000000000000000000000000000000000005b9050865f03611d4457611d418b60c001358388846128d3565b96505b86831015611e355760408051600180825281830190925273ffffffffffffffffffffffffffffffffffffffff8381169085161091816020015b60408051606080820183525f808352602083015291810191909152815260200190600190039081611d7d57505060408051606081018252308152602081018a9052919b508101828b8a14611dda57611dd58a8d614246565b611ddc565b5f5b604080519215156020840152820152606081018b90526080016040516020818303038152906040528152508a5f81518110611e1957611e19614259565b60200260200101819052505f9a50505050505050505050915091565b5050505050505050915091565b5f80611e5083850185613850565b90925090505f73ffffffffffffffffffffffffffffffffffffffff821661eeee14611e7b5781611e9d565b7f00000000000000000000000000000000000000000000000000000000000000005b5f8481526020818152604080832073ffffffffffffffffffffffffffffffffffffffff8581168552925290912054919250163314611f09576040517f7da0526e00000000000000000000000000000000000000000000000000000000815233600482015260240161087c565b5f808812611f175787611f19565b865b90507fffffffffffffffffffffffffffffffffffffffffffffffffffffffffffff111273ffffffffffffffffffffffffffffffffffffffff841601611fd6577f000000000000000000000000000000000000000000000000000000000000000073ffffffffffffffffffffffffffffffffffffffff1663d0e30db0826040518263ffffffff1660e01b81526004015f604051808303818588803b158015611fbe575f80fd5b505af1158015611fd0573d5f803e3d5ffd5b50505050505b611ff773ffffffffffffffffffffffffffffffffffffffff83163383612ad2565b5050505050505050565b3373ffffffffffffffffffffffffffffffffffffffff841681148015906120f757506040517f348b684e00000000000000000000000000000000000000000000000000000000815273ffffffffffffffffffffffffffffffffffffffff82811660048301528581166024830152604482018590526064820184905260016084830181905260a48301527f0000000000000000000000000000000000000000000000000000000000000000169063348b684e9060c401602060405180830381865afa1580156120d1573d5f803e3d5ffd5b505050506040513d601f19601f820116820180604052508101906120f59190613be5565b155b1561215c576040517f264deeaa00000000000000000000000000000000000000000000000000000000815273ffffffffffffffffffffffffffffffffffffffff808616600483015282166024820152604481018490526064810183905260840161087c565b50505050565b60405173ffffffffffffffffffffffffffffffffffffffff848116602483015283811660448301526064820183905261215c9186918216906323b872dd906084015b604051602081830303815290604052915060e01b6020820180517bffffffffffffffffffffffffffffffffffffffffffffffffffffffff8381831617835250505050612b15565b5f6101408301358161eeee612207610100870160e08801613c93565b73ffffffffffffffffffffffffffffffffffffffff161461223857612233610100860160e08701613c93565b61225a565b7f00000000000000000000000000000000000000000000000000000000000000005b6020808701355f908152808252604080822073ffffffffffffffffffffffffffffffffffffffff80861684529352902054919250168063128acb0830871586896122b3576122ae6401000276a36001614286565b6122d2565b6122d2600173fffd8963efd1fc6a506488495d951d5263988d266142ba565b60208c01356122e86101008e0160e08f01613c93565b60405160200161231892919091825273ffffffffffffffffffffffffffffffffffffffff16602082015260400190565b6040516020818303038152906040526040518663ffffffff1660e01b81526004016123479594939291906142e7565b60408051808303815f875af192505050801561239e575060408051601f3d9081017fffffffffffffffffffffffffffffffffffffffffffffffffffffffffffffffe016820190925261239b91810190614224565b60015b6123ad575f9350505050610754565b866123b857806123ba565b815b6123c39061432d565b6040805187815273ffffffffffffffffffffffffffffffffffffffff861660208281019190915291810183905233606082015291975089013592507f6a212efdcd471836edcfe424121fc9048d3a7cd0458b1218a71aa915300e0e57915060800160405180910390a283156124eb576040517fa2d532e60000000000000000000000000000000000000000000000000000000081523060048201526020870135602482015260448101859052608060648201525f60848201527f000000000000000000000000000000000000000000000000000000000000000073ffffffffffffffffffffffffffffffffffffffff169063a2d532e69060a4015f604051808303815f87803b1580156124d4575f80fd5b505af11580156124e6573d5f803e3d5ffd5b505050505b50505092915050565b5f80807fffffffffffffffffffffffffffffffffffffffffffffffffffffffffffffffff858709858702925082811083820303915050805f0361254a5783828161254057612540614363565b04925050506125fa565b838110612594576040517f63a0577800000000000000000000000000000000000000000000000000000000815260048101879052602481018690526044810185905260640161087c565b5f848688098519600190810187169687900496828603819004959092119093035f82900391909104909201919091029190911760038402600290811880860282030280860282030280860282030280860282030280860282030280860290910302029150505b9392505050565b6040805173ffffffffffffffffffffffffffffffffffffffff8416602482015260448082018490528251808303909101815260649091019091526020810180517bffffffffffffffffffffffffffffffffffffffffffffffffffffffff167f095ea7b30000000000000000000000000000000000000000000000000000000017905261268d8482612bb4565b61215c5760405173ffffffffffffffffffffffffffffffffffffffff84811660248301525f60448301526126ce91869182169063095ea7b3906064016121a4565b61215c8482612b15565b805160208201205f903060601b18610754565b5f6060602583511161270e57505060408051602081019091525f808252906128cc565b5f8361271c60046020614211565b8151811061272c5761272c614259565b0160209081015160f81c91505b5f85612746600484614211565b8151811061275657612756614259565b01602001517fff0000000000000000000000000000000000000000000000000000000000000016148015906127945750612791602083614390565b81105b156128c9575f856127a6600484614211565b815181106127b6576127b6614259565b016020908101518784019091015160f89190911c91507fffffffff00000000000000000000000000000000000000000000000000000000808916908216036128bf575f612804602086614390565b61280f600986614211565b10158061285c575087612823600986614211565b8151811061283357612833614259565b01602001517fff0000000000000000000000000000000000000000000000000000000000000016155b6128955760208861286e600987614211565b8151811061287e5761287e614259565b0160200151612890919060f81c614390565b612898565b87515b905060016128b1896128ab602087614390565b84612c0a565b9650965050505050506128cc565b5050600501612739565b50505b9250929050565b5f8481526020818152604080832073ffffffffffffffffffffffffffffffffffffffff8086168552925282205416803b8203612912575f915050612aca565b8073ffffffffffffffffffffffffffffffffffffffff16633850c7bd6040518163ffffffff1660e01b815260040160e060405180830381865afa925050508015612997575060408051601f3d9081017fffffffffffffffffffffffffffffffffffffffffffffffffffffffffffffffe0168201909252612994918101906143a7565b60015b6129a4575f915050612aca565b806129b9575f98505050505050505050612aca565b505050505050505f86815260026020526040812054908190608082901c906129e085612c4f565b90508263ffffffff168163ffffffff1610156129fa578092505b5f8163ffffffff165f03612a84578573ffffffffffffffffffffffffffffffffffffffff16633850c7bd6040518163ffffffff1660e01b815260040160e060405180830381865afa158015612a51573d5f803e3d5ffd5b505050506040513d601f19601f82011682018060405250810190612a7591906143a7565b50939550612a92945050505050565b612a8e8685612e8b565b5090505b612a9e818a8a8d61313f565b9650612710612aad8489614390565b612ab7919061443a565b612ac19088614246565b96505050505050505b949350505050565b60405173ffffffffffffffffffffffffffffffffffffffff838116602483015260448201839052612b1091859182169063a9059cbb906064016121a4565b505050565b5f8060205f8451602086015f885af180612b34576040513d5f823e3d81fd5b50505f513d91508115612b4b578060011415612b65565b73ffffffffffffffffffffffffffffffffffffffff84163b155b1561215c576040517f5274afe700000000000000000000000000000000000000000000000000000000815273ffffffffffffffffffffffffffffffffffffffff8516600482015260240161087c565b5f805f8060205f8651602088015f8a5af192503d91505f519050828015612c0057508115612be55780600114612c00565b5f8673ffffffffffffffffffffffffffffffffffffffff163b115b9695505050505050565b6060828203604051915060208183010160405280825250826020850101602082015f5b84811015612c45578281015182820152602001612c2d565b5050509392505050565b5f805f8373ffffffffffffffffffffffffffffffffffffffff16633850c7bd6040518163ffffffff1660e01b815260040160e060405180830381865afa158015612c9b573d5f803e3d5ffd5b505050506040513d601f19601f82011682018060405250810190612cbf91906143a7565b5050509350935050505f8161ffff1611612d35576040517f08c379a000000000000000000000000000000000000000000000000000000000815260206004820152600260248201527f4e49000000000000000000000000000000000000000000000000000000000000604482015260640161087c565b5f8073ffffffffffffffffffffffffffffffffffffffff861663252c09d784612d5f87600161444d565b612d699190614468565b6040517fffffffff0000000000000000000000000000000000000000000000000000000060e084901b16815261ffff9091166004820152602401608060405180830381865afa158015612dbe573d5f803e3d5ffd5b505050506040513d601f19601f82011682018060405250810190612de29190614499565b93505050915080612e80576040517f252c09d70000000000000000000000000000000000000000000000000000000081525f600482015273ffffffffffffffffffffffffffffffffffffffff87169063252c09d790602401608060405180830381865afa158015612e55573d5f803e3d5ffd5b505050506040513d601f19601f82011682018060405250810190612e799190614499565b5091935050505b504203949350505050565b5f808263ffffffff165f03612efc576040517f08c379a000000000000000000000000000000000000000000000000000000000815260206004820152600260248201527f4250000000000000000000000000000000000000000000000000000000000000604482015260640161087c565b6040805160028082526060820183525f9260208301908036833701905050905083815f81518110612f2f57612f2f614259565b602002602001019063ffffffff16908163ffffffff16815250505f81600181518110612f5d57612f5d614259565b602002602001019063ffffffff16908163ffffffff16815250505f808673ffffffffffffffffffffffffffffffffffffffff1663883bdbfd846040518263ffffffff1660e01b8152600401612fb291906144f1565b5f60405180830381865afa158015612fcc573d5f803e3d5ffd5b505050506040513d5f823e601f3d9081017fffffffffffffffffffffffffffffffffffffffffffffffffffffffffffffffe016820160405261301191908101906145d2565b915091505f825f8151811061302857613028614259565b60200260200101518360018151811061304357613043614259565b6020026020010151613055919061468f565b90505f825f8151811061306a5761306a614259565b60200260200101518360018151811061308557613085614259565b602002602001015161309791906142ba565b90506130a963ffffffff8916836146d4565b96505f8260060b1280156130ce57506130c863ffffffff891683614747565b60060b15155b156130e157866130dd81614768565b9750505b5f61310673ffffffffffffffffffffffffffffffffffffffff63ffffffff8b166147c4565b905061313077ffffffffffffffffffffffffffffffffffffffff00000000602084901b16826147fe565b96505050505050509250929050565b5f8061314a86613316565b90506fffffffffffffffffffffffffffffffff73ffffffffffffffffffffffffffffffffffffffff821611613248575f61319a73ffffffffffffffffffffffffffffffffffffffff831680614390565b90508373ffffffffffffffffffffffffffffffffffffffff168573ffffffffffffffffffffffffffffffffffffffff161061320a576132057801000000000000000000000000000000000000000000000000876fffffffffffffffffffffffffffffffff1683613676565b613240565b61324081876fffffffffffffffffffffffffffffffff167801000000000000000000000000000000000000000000000000613676565b92505061330d565b5f61327373ffffffffffffffffffffffffffffffffffffffff83168068010000000000000000613676565b90508373ffffffffffffffffffffffffffffffffffffffff168573ffffffffffffffffffffffffffffffffffffffff16106132db576132d6700100000000000000000000000000000000876fffffffffffffffffffffffffffffffff1683613676565b613309565b61330981876fffffffffffffffffffffffffffffffff16700100000000000000000000000000000000613676565b9250505b50949350505050565b5f805f8360020b1261332b578260020b613332565b8260020b5f035b9050620d89e8811115613371576040517f2bc80f3a00000000000000000000000000000000000000000000000000000000815260040160405180910390fd5b5f816001165f03613393577001000000000000000000000000000000006133a5565b6ffffcb933bd6fad37aa2d162d1a5940015b70ffffffffffffffffffffffffffffffffff16905060028216156133d9576ffff97272373d413259a46990580e213a0260801c5b60048216156133f8576ffff2e50f5f656932ef12357cf3c7fdcc0260801c5b6008821615613417576fffe5caca7e10e4e61c3624eaa0941cd00260801c5b6010821615613436576fffcb9843d60f6159c9db58835c9266440260801c5b6020821615613455576fff973b41fa98c081472e6896dfb254c00260801c5b6040821615613474576fff2ea16466c96a3843ec78b326b528610260801c5b6080821615613493576ffe5dee046a99a2a811c461f1969c30530260801c5b6101008216156134b3576ffcbe86c7900a88aedcffc83b479aa3a40260801c5b6102008216156134d3576ff987a7253ac413176f2b074cf7815e540260801c5b6104008216156134f3576ff3392b0822b70005940c7a398e4b70f30260801c5b610800821615613513576fe7159475a2c29b7443b29c7fa6e889d90260801c5b611000821615613533576fd097f3bdfd2022b8845ad8f792aa58250260801c5b612000821615613553576fa9f746462d870fdf8a65dc1f90e061e50260801c5b614000821615613573576f70d869a156d2a1b890bb3df62baf32f70260801c5b618000821615613593576f31be135f97d08fd981231505542fcfa60260801c5b620100008216156135b4576f09aa508b5b7a84e1c677de54f3e99bc90260801c5b620200008216156135d4576e5d6af8dedb81196699c329225ee6040260801c5b620400008216156135f3576d2216e584f5fa1ea926041bedfe980260801c5b62080000821615613610576b048a170391f7dc42444e8fa20260801c5b5f8460020b131561364e57807fffffffffffffffffffffffffffffffffffffffffffffffffffffffffffffffff8161364a5761364a614363565b0490505b640100000000810615613662576001613664565b5f5b60ff16602082901c0192505050919050565b5f80807fffffffffffffffffffffffffffffffffffffffffffffffffffffffffffffffff858709858702925082811083820303915050805f036136c9575f84116136be575f80fd5b5082900490506125fa565b8084116136d4575f80fd5b5f848688095f868103871696879004966002600389028118808a02820302808a02820302808a02820302808a02820302808a02820302808a02909103029181900381900460010186841190950394909402919094039290920491909117919091029150509392505050565b5f6020828403121561374f575f80fd5b81357fffffffff00000000000000000000000000000000000000000000000000000000811681146125fa575f80fd5b63ffffffff8116811461378f575f80fd5b50565b5f80604083850312156137a3575f80fd5b8235915060208301356137b58161377e565b809150509250929050565b5f602082840312156137d0575f80fd5b813567ffffffffffffffff8111156137e6575f80fd5b820161020081850312156125fa575f80fd5b5f60208284031215613808575f80fd5b5035919050565b5f8060408385031215613820575f80fd5b50508035926020909101359150565b73ffffffffffffffffffffffffffffffffffffffff8116811461378f575f80fd5b5f8060408385031215613861575f80fd5b8235915060208301356137b58161382f565b5f805f805f60a08688031215613887575f80fd5b85359450602086013562ffffff811681146138a0575f80fd5b935060408601356138b08161377e565b92506060860135915060808601356138c78161382f565b809150509295509295909350565b5f602082840312156138e5575f80fd5b813567ffffffffffffffff8111156138fb575f80fd5b820161018081850312156125fa575f80fd5b5f81518084525f5b8181101561393157602081850181015186830182015201613915565b505f6020828601015260207fffffffffffffffffffffffffffffffffffffffffffffffffffffffffffffffe0601f83011685010191505092915050565b5f604080830185845260206040818601528186518084526060935060608701915060608160051b8801018389015f5b83811015613a18578983037fffffffffffffffffffffffffffffffffffffffffffffffffffffffffffffffa00185528151805173ffffffffffffffffffffffffffffffffffffffff1684528681015187850152880151888401889052613a058885018261390d565b958701959350509085019060010161399d565b50909a9950505050505050505050565b5f805f8060608587031215613a3b575f80fd5b8435935060208501359250604085013567ffffffffffffffff80821115613a60575f80fd5b818701915087601f830112613a73575f80fd5b813581811115613a81575f80fd5b886020828501011115613a92575f80fd5b95989497505060200194505050565b5f60208284031215613ab1575f80fd5b813567ffffffffffffffff811115613ac7575f80fd5b82016101a081850312156125fa575f80fd5b5f6080820186835260208681850152604086604086015260606080606087015283875180865260a08801915060a08160051b89010195508489015f5b82811015613b90578988037fffffffffffffffffffffffffffffffffffffffffffffffffffffffffffffff600184528151805173ffffffffffffffffffffffffffffffffffffffff16895287810151888a0152860151868901869052613b7d868a018261390d565b9850509286019290860190600101613b15565b50959c9b505050505050505050505050565b8051613bad8161382f565b919050565b5f60208284031215613bc2575f80fd5b81516125fa8161382f565b801515811461378f575f80fd5b8051613bad81613bcd565b5f60208284031215613bf5575f80fd5b81516125fa81613bcd565b5f8083357fffffffffffffffffffffffffffffffffffffffffffffffffffffffffffffffe1843603018112613c33575f80fd5b83018035915067ffffffffffffffff821115613c4d575f80fd5b6020019150368190038213156128cc575f80fd5b5f805f60608486031215613c73575f80fd5b8335613c7e81613bcd565b95602085013595506040909401359392505050565b5f60208284031215613ca3575f80fd5b81356125fa8161382f565b5f60208284031215613cbe575f80fd5b5051919050565b7f4e487b71000000000000000000000000000000000000000000000000000000005f52604160045260245ffd5b604051610260810167ffffffffffffffff81118282101715613d1657613d16613cc5565b60405290565b604051610120810167ffffffffffffffff81118282101715613d1657613d16613cc5565b604051601f82017fffffffffffffffffffffffffffffffffffffffffffffffffffffffffffffffe016810167ffffffffffffffff81118282101715613d8757613d87613cc5565b604052919050565b805165ffffffffffff81168114613bad575f80fd5b8051613bad8161377e565b80516dffffffffffffffffffffffffffff81168114613bad575f80fd5b805161ffff81168114613bad575f80fd5b5f6102608284031215613dee575f80fd5b613df6613cf2565b9050613e0182613dcc565b8152613e0f60208301613dcc565b6020820152613e2060408301613da4565b6040820152613e3160608301613bda565b6060820152613e4260808301613bda565b6080820152613e5360a08301613bda565b60a0820152613e6460c08301613bda565b60c0820152613e7560e08301613bda565b60e0820152610100613e88818401613bda565b90820152610120613e9a838201613bda565b90820152610140613eac838201613bda565b90820152610160613ebe838201613bda565b90820152610180613ed0838201613bda565b908201526101a0613ee2838201613bda565b908201526101c0613ef4838201613bda565b908201526101e0613f06838201613bda565b90820152610200613f18838201613bda565b90820152610220613f2a838201613ba2565b90820152610240613f3c838201613dcc565b9082015292915050565b5f80828403610380811215613f59575f80fd5b61012080821215613f68575f80fd5b613f70613d1c565b9150613f7b85613d8f565b8252613f8960208601613d8f565b6020830152613f9a60408601613d8f565b6040830152613fab60608601613d8f565b6060830152613fbc60808601613da4565b6080830152613fcd60a08601613daf565b60a0830152613fde60c08601613da4565b60c0830152613fef60e08601613ba2565b60e083015261010080860151818401525081935061400f86828701613ddd565b925050509250929050565b5f6020828403121561402a575f80fd5b81356125fa8161377e565b60ff8116811461378f575f80fd5b5f60208284031215614053575f80fd5b81356125fa81614035565b7f4e487b71000000000000000000000000000000000000000000000000000000005f52601160045260245ffd5b600181815b808511156140e457817fffffffffffffffffffffffffffffffffffffffffffffffffffffffffffffffff048211156140ca576140ca61405e565b808516156140d757918102915b93841c9390800290614090565b509250929050565b5f826140fa57506001610754565b8161410657505f610754565b816001811461411c576002811461412657614142565b6001915050610754565b60ff8411156141375761413761405e565b50506001821b610754565b5060208310610133831016604e8410600b8410161715614165575081810a610754565b61416f838361408b565b807fffffffffffffffffffffffffffffffffffffffffffffffffffffffffffffffff048211156141a1576141a161405e565b029392505050565b5f6125fa60ff8416836140ec565b85815273ffffffffffffffffffffffffffffffffffffffff85166020820152836040820152821515606082015260c060808201525f60c082015260e060a08201525f61420660e083018461390d565b979650505050505050565b808201808211156107545761075461405e565b5f8060408385031215614235575f80fd5b505080516020909101519092909150565b818103818111156107545761075461405e565b7f4e487b71000000000000000000000000000000000000000000000000000000005f52603260045260245ffd5b73ffffffffffffffffffffffffffffffffffffffff8181168382160190808211156142b3576142b361405e565b5092915050565b73ffffffffffffffffffffffffffffffffffffffff8281168282160390808211156142b3576142b361405e565b5f73ffffffffffffffffffffffffffffffffffffffff8088168352861515602084015285604084015280851660608401525060a0608083015261420660a083018461390d565b5f7f8000000000000000000000000000000000000000000000000000000000000000820361435d5761435d61405e565b505f0390565b7f4e487b71000000000000000000000000000000000000000000000000000000005f52601260045260245ffd5b80820281158282048414176107545761075461405e565b5f805f805f805f60e0888a0312156143bd575f80fd5b87516143c88161382f565b8097505060208801518060020b81146143df575f80fd5b95506143ed60408901613dcc565b94506143fb60608901613dcc565b935061440960808901613dcc565b925060a088015161441981614035565b60c089015190925061442a81613bcd565b8091505092959891949750929550565b5f8261444857614448614363565b500490565b61ffff8181168382160190808211156142b3576142b361405e565b5f61ffff8084168061447c5761447c614363565b92169190910692915050565b8051600681900b8114613bad575f80fd5b5f805f80608085870312156144ac575f80fd5b84516144b78161377e565b93506144c560208601614488565b925060408501516144d58161382f565b60608601519092506144e681613bcd565b939692955090935050565b602080825282518282018190525f9190848201906040850190845b8181101561452e57835163ffffffff168352928401929184019160010161450c565b50909695505050505050565b5f67ffffffffffffffff82111561455357614553613cc5565b5060051b60200190565b5f82601f83011261456c575f80fd5b8151602061458161457c8361453a565b613d40565b8083825260208201915060208460051b8701019350868411156145a2575f80fd5b602086015b848110156145c75780516145ba8161382f565b83529183019183016145a7565b509695505050505050565b5f80604083850312156145e3575f80fd5b825167ffffffffffffffff808211156145fa575f80fd5b818501915085601f83011261460d575f80fd5b8151602061461d61457c8361453a565b82815260059290921b8401810191818101908984111561463b575f80fd5b948201945b838610156146605761465186614488565b82529482019490820190614640565b91880151919650909350505080821115614678575f80fd5b506146858582860161455d565b9150509250929050565b600682810b9082900b037fffffffffffffffffffffffffffffffffffffffffffffffffff800000000000008112667fffffffffffff821317156107545761075461405e565b5f8160060b8360060b806146ea576146ea614363565b7fffffffffffffffffffffffffffffffffffffffffffffffffffffffffffffffff81147fffffffffffffffffffffffffffffffffffffffffffffffffff800000000000008314161561473e5761473e61405e565b90059392505050565b5f8260060b8061475957614759614363565b808360060b0791505092915050565b5f8160020b7fffffffffffffffffffffffffffffffffffffffffffffffffffffffffff800000810361479c5761479c61405e565b7fffffffffffffffffffffffffffffffffffffffffffffffffffffffffffffffff0192915050565b77ffffffffffffffffffffffffffffffffffffffffffffffff8281168282168181028316929181158285048214176124eb576124eb61405e565b5f77ffffffffffffffffffffffffffffffffffffffffffffffff8084168061482857614828614363565b9216919091049291505056fea2646970667358221220767b584233e8ad16d4f6a51557a536c96b2a1565e143b41b5545775dfde1464f64736f6c63430008170033",
	"deployedBytecode": "0x60806040526004361061018e575f3560e01c8063889eedb4116100dc578063b88a92b411610087578063f434c91411610062578063f434c91414610518578063f73e5aab1461054b578063fa461e331461057e578063fb82b1b01461059d575f80fd5b8063b88a92b4146104ba578063db312fae146104d0578063ee0fc121146104e5575f80fd5b80639c9d4361116100b75780639c9d436114610445578063ad5c464814610473578063af471880146104a6575f80fd5b8063889eedb41461039c57806388bc2ef3146103e55780638cc3584614610418575f80fd5b8063293c49991161013c578063677ce08811610117578063677ce08814610347578063754baf96146103685780637b621d3a1461037d575f80fd5b8063293c4999146102b55780633717fba7146102e857806355135de014610328575f80fd5b80631a65893b1161016c5780631a65893b146101fa5780631eabcd341461021c57806327e5141114610274575f80fd5b806301ffc9a714610192578063132893eb146101c65780631337f986146101e7575b5f80fd5b34801561019d575f80fd5b506101b16101ac36600461373f565b6105de565b60405190151581526020015b60405180910390f35b3480156101d1575f80fd5b506101e56101e0366004613792565b61075a565b005b6101e56101f53660046137c0565b610924565b348015610205575f80fd5b5061020e607881565b6040519081526020016101bd565b348015610227575f80fd5b5061024f7f000000000000000000000000e712d14b04f1a1fe464be930e3ea72b9b0a141d781565b60405173ffffffffffffffffffffffffffffffffffffffff90911681526020016101bd565b34801561027f575f80fd5b5061024f61028e3660046137f8565b60016020525f908152604090205473ffffffffffffffffffffffffffffffffffffffff1681565b3480156102c0575f80fd5b5061024f7f0000000000000000000000000b538a02610d7d3cc91ce2870f423e0a34d646ad81565b3480156102f3575f80fd5b506103136103023660046137f8565b5f9081526002602052604090205490565b60405163ffffffff90911681526020016101bd565b348015610333575f80fd5b506101e561034236600461380f565b611095565b348015610352575f80fd5b506101b1610361366004613850565b5f92915050565b348015610373575f80fd5b5061020e61232881565b348015610388575f80fd5b5061024f610397366004613873565b6111d7565b3480156103a7575f80fd5b5061024f6103b6366004613850565b5f60208181529281526040808220909352908152205473ffffffffffffffffffffffffffffffffffffffff1681565b3480156103f0575f80fd5b5061024f7f0000000000000000000000000bc9f153dee4d3d474ce0903775b9b2aaae9aa4181565b348015610423575f80fd5b506104376104323660046138d5565b61196b565b6040516101bd92919061396e565b348015610450575f80fd5b5061020e61045f3660046137f8565b5f9081526002602052604090205460801c90565b34801561047e575f80fd5b5061024f7f000000000000000000000000420000000000000000000000000000000000000681565b3480156104b1575f80fd5b5061020e606481565b3480156104c5575f80fd5b5061020e6202a30081565b3480156104db575f80fd5b5061020e61271081565b3480156104f0575f80fd5b5061024f7f000000000000000000000000b291844f213047eb9e1621ae555b1eae6700d55381565b348015610523575f80fd5b5061024f7f000000000000000000000000f5ca295dc286a176e35ebb7833031fd95550eb1481565b348015610556575f80fd5b5061024f7f0000000000000000000000001f98431c8ad98523631ae4a59f267346ea31f98481565b348015610589575f80fd5b506101e5610598366004613a28565b611e42565b3480156105a8575f80fd5b506105ce6105b7366004613aa1565b6101608101359160808201359160a0013590606090565b6040516101bd9493929190613ad9565b5f7fffffffff0000000000000000000000000000000000000000000000000000000082167f103d097e00000000000000000000000000000000000000000000000000000000148061067057507fffffffff0000000000000000000000000000000000000000000000000000000082167f1337f98600000000000000000000000000000000000000000000000000000000145b806106bc57507fffffffff0000000000000000000000000000000000000000000000000000000082167f913c66f900000000000000000000000000000000000000000000000000000000145b8061070857507fffffffff0000000000000000000000000000000000000000000000000000000082167ff434c91400000000000000000000000000000000000000000000000000000000145b8061075457507fffffffff0000000000000000000000000000000000000000000000000000000082167f01ffc9a700000000000000000000000000000000000000000000000000000000145b92915050565b6040517f6352211e00000000000000000000000000000000000000000000000000000000815260048101839052610814907f0000000000000000000000000b538a02610d7d3cc91ce2870f423e0a34d646ad73ffffffffffffffffffffffffffffffffffffffff1690636352211e906024015b602060405180830381865afa1580156107e8573d5f803e3d5ffd5b505050506040513d601f19601f8201168201806040525081019061080c9190613bb2565b836018612001565b60788163ffffffff16108061083157506202a3008163ffffffff16115b15610885576040517f904c370000000000000000000000000000000000000000000000000000000000815263ffffffff82166004820152607860248201526202a30060448201526064015b60405180910390fd5b5f82815260026020908152604091829020805463ffffffff85167fffffffffffffffffffffffffffffffff000000000000000000000000000000008216811790925583516fffffffffffffffffffffffffffffffff821680825293810192909252339382019390935284907fa8d6b20cd05f07d50e9855ce0fc6de3517f3df2e890a5ec6357892b3808a53ce906060015b60405180910390a250505050565b6040517f6e49181f000000000000000000000000000000000000000000000000000000008152602082013560048201523360248201527f0000000000000000000000000bc9f153dee4d3d474ce0903775b9b2aaae9aa4173ffffffffffffffffffffffffffffffffffffffff1690636e49181f90604401602060405180830381865afa1580156109b6573d5f803e3d5ffd5b505050506040513d601f19601f820116820180604052508101906109da9190613be5565b610a12576040517f4758af1b00000000000000000000000000000000000000000000000000000000815233600482015260240161087c565b5f8080610a236101c0850185613c00565b810190610a309190613c61565b9194509250905061eeee610a4b610100860160e08701613c93565b73ffffffffffffffffffffffffffffffffffffffff1614610aa057610aa03330610140870135610a82610100890160e08a01613c93565b73ffffffffffffffffffffffffffffffffffffffff16929190612162565b5f610aab85856121eb565b905081811015610af1576040517fe2d708a9000000000000000000000000000000000000000000000000000000008152600481018290526024810183905260440161087c565b5f61eeee610b06610100880160e08901613c93565b73ffffffffffffffffffffffffffffffffffffffff1614610bc557610b32610100870160e08801613c93565b6040517f70a0823100000000000000000000000000000000000000000000000000000000815230600482015273ffffffffffffffffffffffffffffffffffffffff91909116906370a0823190602401602060405180830381865afa158015610b9c573d5f803e3d5ffd5b505050506040513d601f19601f82011682018060405250810190610bc09190613cae565b610bc7565b475b6040517f41929626000000000000000000000000000000000000000000000000000000008152602088013560048201529091505f9073ffffffffffffffffffffffffffffffffffffffff7f000000000000000000000000b291844f213047eb9e1621ae555b1eae6700d553169063419296269060240161038060405180830381865afa158015610c59573d5f803e3d5ffd5b505050506040513d601f19601f82011682018060405250810190610c7d9190613f46565b5090505f610c9082610100015160241c90565b63ffffffff16610ca660c08a0160a08b0161401a565b63ffffffff1614610db25773ffffffffffffffffffffffffffffffffffffffff7f000000000000000000000000e712d14b04f1a1fe464be930e3ea72b9b0a141d716633be273fa60208a0135610d0260c08c0160a08d0161401a565b61010086015160241c610d1b60a08e0160808f01614043565b6040517fffffffff0000000000000000000000000000000000000000000000000000000060e087901b168152600481019490945263ffffffff92831660248501529116604483015260ff166064820152608401602060405180830381865afa158015610d89573d5f803e3d5ffd5b505050506040513d601f19601f82011682018060405250810190610dad9190613cae565b610dcd565b610dc260a0890160808a01614043565b610dcd90600a6141a9565b90505f8315610f6257610de6848a6101600135846124f4565b905061eeee610dfc6101008b0160e08c01613c93565b73ffffffffffffffffffffffffffffffffffffffff1614610e4a57610e4a3385610e2d6101008d0160e08e01613c93565b73ffffffffffffffffffffffffffffffffffffffff169190612601565b5f61eeee610e5f6101008c0160e08d01613c93565b73ffffffffffffffffffffffffffffffffffffffff1614610e80575f610e82565b845b60408051878152602080820186905233828401529151929350908c0135917faacef1bbb194eac329f8f247fbe8cce3eca2ed1f2e0a45a0488c2dd8afe6e5169181900360600190a23373ffffffffffffffffffffffffffffffffffffffff16639e6eec05828c602001358d60e0015f016020810190610f019190613c93565b895f60405180602001604052805f8152506040518763ffffffff1660e01b8152600401610f329594939291906141b7565b5f604051808303818588803b158015610f49575f80fd5b505af1158015610f5b573d5f803e3d5ffd5b5050505050505b610f72878a6101600135846124f4565b610f7c9082614211565b905073ffffffffffffffffffffffffffffffffffffffff7f000000000000000000000000b291844f213047eb9e1621ae555b1eae6700d5531663c7fb92de60208b0135610fc98489614211565b610fdb6101c08e016101a08f01613c93565b6040517fffffffff0000000000000000000000000000000000000000000000000000000060e086901b1681526004810193909352602483019190915273ffffffffffffffffffffffffffffffffffffffff16604482015260a060648201525f60a48201526001608482015260c4016020604051808303815f875af1158015611065573d5f803e3d5ffd5b505050506040513d601f19601f820116820180604052508101906110899190613cae565b50505050505050505050565b6040517f6352211e0000000000000000000000000000000000000000000000000000000081526004810183905261110c907f0000000000000000000000000b538a02610d7d3cc91ce2870f423e0a34d646ad73ffffffffffffffffffffffffffffffffffffffff1690636352211e906024016107cd565b606481108061111c575061232881115b15611165576040517f8b9cb5530000000000000000000000000000000000000000000000000000000081526004810182905260646024820181905261232860448301520161087c565b5f828152600260209081526040918290208054608085811b6fffffffffffffffffffffffffffffffff83161790925583519181901c808352928201859052339382019390935284907faafe2470cbfb11a09f9b45d6a795226e93cc251e30fdcabddbabb157a1db535390606001610916565b6040517f6352211e000000000000000000000000000000000000000000000000000000008152600481018690525f906112929073ffffffffffffffffffffffffffffffffffffffff7f0000000000000000000000000b538a02610d7d3cc91ce2870f423e0a34d646ad1690636352211e90602401602060405180830381865afa158015611266573d5f803e3d5ffd5b505050506040513d601f19601f8201168201806040525081019061128a9190613bb2565b876019612001565b60648310806112a2575061232883115b156112eb576040517f8b9cb5530000000000000000000000000000000000000000000000000000000081526004810184905260646024820181905261232860448301520161087c565b60788463ffffffff16108061130857506202a3008463ffffffff16115b15611357576040517f904c370000000000000000000000000000000000000000000000000000000000815263ffffffff85166004820152607860248201526202a300604482015260640161087c565b73ffffffffffffffffffffffffffffffffffffffff82166113a4576040517fd8bba7f600000000000000000000000000000000000000000000000000000000815260040160405180910390fd5b5f7f000000000000000000000000b291844f213047eb9e1621ae555b1eae6700d55373ffffffffffffffffffffffffffffffffffffffff16631d831d5c6040518163ffffffff1660e01b8152600401602060405180830381865afa15801561140e573d5f803e3d5ffd5b505050506040513d601f19601f820116820180604052508101906114329190613bb2565b73ffffffffffffffffffffffffffffffffffffffff1663ea78803f886040518263ffffffff1660e01b815260040161146c91815260200190565b602060405180830381865afa158015611487573d5f803e3d5ffd5b505050506040513d601f19601f820116820180604052508101906114ab9190613bb2565b905073ffffffffffffffffffffffffffffffffffffffff81166114fa576040517f8637f5b700000000000000000000000000000000000000000000000000000000815260040160405180910390fd5b8073ffffffffffffffffffffffffffffffffffffffff168373ffffffffffffffffffffffffffffffffffffffff160361157f576040517f2ec7c58700000000000000000000000000000000000000000000000000000000815273ffffffffffffffffffffffffffffffffffffffff80851660048301528216602482015260440161087c565b7fffffffffffffffffffffffffffffffffffffffffffffffffffffffffffff111273ffffffffffffffffffffffffffffffffffffffff8416016115e0577f000000000000000000000000420000000000000000000000000000000000000692505b73ffffffffffffffffffffffffffffffffffffffff808416908216107f0000000000000000000000001f98431c8ad98523631ae4a59f267346ea31f98481611628578461162a565b825b826116355783611637565b855b6040805173ffffffffffffffffffffffffffffffffffffffff9384166020820152929091169082015262ffffff89166060820152608001604080517fffffffffffffffffffffffffffffffffffffffffffffffffffffffffffffffe0818403018152908290528051602091820120611732939290917fe34f199b19b2b4f47f68442619d555527d244f78a3297ea89325f843f87b8b5491017fff00000000000000000000000000000000000000000000000000000000000000815260609390931b7fffffffffffffffffffffffffffffffffffffffff0000000000000000000000001660018401526015830191909152603582015260550190565b604080517fffffffffffffffffffffffffffffffffffffffffffffffffffffffffffffffe081840301815291815281516020928301205f8b815280845282812073ffffffffffffffffffffffffffffffffffffffff89811683529452919091205490945016156117ff575f8881526020818152604080832073ffffffffffffffffffffffffffffffffffffffff88811685529252918290205491517f14f04e470000000000000000000000000000000000000000000000000000000081529116600482015260240161087c565b5f8881526020818152604080832073ffffffffffffffffffffffffffffffffffffffff888116855290835281842080547fffffffffffffffffffffffff0000000000000000000000000000000000000000908116898416179091558c85526002845282852063ffffffff8c1660808c901b8117909155600185528386208054909216928816929092179055815193845291830191909152339082015288907fa8d6b20cd05f07d50e9855ce0fc6de3517f3df2e890a5ec6357892b3808a53ce9060600160405180910390a2604080515f8152602081018790523381830152905189917faafe2470cbfb11a09f9b45d6a795226e93cc251e30fdcabddbabb157a1db5353919081900360600190a26040805173ffffffffffffffffffffffffffffffffffffffff85811682523360208301528616918a917fe694de883385e30d535f625d68df4b2b5e866e8e86fe9d15554480c8d1812e60910160405180910390a3505095945050505050565b60408051808201909152600581527f71756f746500000000000000000000000000000000000000000000000000000060208201526101208201359060609060a0840135905f90819081906119be906126d8565b90505f80611a0d836119d46101608c018c613c00565b8080601f0160208091040260200160405190810160405280939291908181526020018383808284375f920191909152506126eb92505050565b915091508115611a305780806020019051810190611a2b9190614224565b955093505b50505082811115611a77576040517fcc8704dd000000000000000000000000000000000000000000000000000000008152600481018290526024810184905260440161087c565b805f03611a815750815b6040517f4192962600000000000000000000000000000000000000000000000000000000815260c087013560048201525f907f000000000000000000000000b291844f213047eb9e1621ae555b1eae6700d55373ffffffffffffffffffffffffffffffffffffffff169063419296269060240161038060405180830381865afa158015611b10573d5f803e3d5ffd5b505050506040513d601f19601f82011682018060405250810190611b349190613f46565b5090505f611b4782610100015160241c90565b63ffffffff16611b5d60a08a0160808b0161401a565b63ffffffff1614611c695773ffffffffffffffffffffffffffffffffffffffff7f000000000000000000000000e712d14b04f1a1fe464be930e3ea72b9b0a141d716633be273fa60c08a0135611bb960a08c0160808d0161401a565b61010086015160241c611bd260808e0160608f01614043565b6040517fffffffff0000000000000000000000000000000000000000000000000000000060e087901b168152600481019490945263ffffffff92831660248501529116604483015260ff166064820152608401602060405180830381865afa158015611c40573d5f803e3d5ffd5b505050506040513d601f19601f82011682018060405250810190611c649190613cae565b611c84565b611c796080890160608a01614043565b611c8490600a6141a9565b90505f611c928489846124f4565b60c08a01355f908152600160205260408082205492935073ffffffffffffffffffffffffffffffffffffffff9092169161eeee90611cd69060608e01908e01613c93565b73ffffffffffffffffffffffffffffffffffffffff1614611d0657611d0160608c0160408d01613c93565b611d28565b7f00000000000000000000000042000000000000000000000000000000000000065b9050865f03611d4457611d418b60c001358388846128d3565b96505b86831015611e355760408051600180825281830190925273ffffffffffffffffffffffffffffffffffffffff8381169085161091816020015b60408051606080820183525f808352602083015291810191909152815260200190600190039081611d7d57505060408051606081018252308152602081018a9052919b508101828b8a14611dda57611dd58a8d614246565b611ddc565b5f5b604080519215156020840152820152606081018b90526080016040516020818303038152906040528152508a5f81518110611e1957611e19614259565b60200260200101819052505f9a50505050505050505050915091565b5050505050505050915091565b5f80611e5083850185613850565b90925090505f73ffffffffffffffffffffffffffffffffffffffff821661eeee14611e7b5781611e9d565b7f00000000000000000000000042000000000000000000000000000000000000065b5f8481526020818152604080832073ffffffffffffffffffffffffffffffffffffffff8581168552925290912054919250163314611f09576040517f7da0526e00000000000000000000000000000000000000000000000000000000815233600482015260240161087c565b5f808812611f175787611f19565b865b90507fffffffffffffffffffffffffffffffffffffffffffffffffffffffffffff111273ffffffffffffffffffffffffffffffffffffffff841601611fd6577f000000000000000000000000420000000000000000000000000000000000000673ffffffffffffffffffffffffffffffffffffffff1663d0e30db0826040518263ffffffff1660e01b81526004015f604051808303818588803b158015611fbe575f80fd5b505af1158015611fd0573d5f803e3d5ffd5b50505050505b611ff773ffffffffffffffffffffffffffffffffffffffff83163383612ad2565b5050505050505050565b3373ffffffffffffffffffffffffffffffffffffffff841681148015906120f757506040517f348b684e00000000000000000000000000000000000000000000000000000000815273ffffffffffffffffffffffffffffffffffffffff82811660048301528581166024830152604482018590526064820184905260016084830181905260a48301527f000000000000000000000000f5ca295dc286a176e35ebb7833031fd95550eb14169063348b684e9060c401602060405180830381865afa1580156120d1573d5f803e3d5ffd5b505050506040513d601f19601f820116820180604052508101906120f59190613be5565b155b1561215c576040517f264deeaa00000000000000000000000000000000000000000000000000000000815273ffffffffffffffffffffffffffffffffffffffff808616600483015282166024820152604481018490526064810183905260840161087c565b50505050565b60405173ffffffffffffffffffffffffffffffffffffffff848116602483015283811660448301526064820183905261215c9186918216906323b872dd906084015b604051602081830303815290604052915060e01b6020820180517bffffffffffffffffffffffffffffffffffffffffffffffffffffffff8381831617835250505050612b15565b5f6101408301358161eeee612207610100870160e08801613c93565b73ffffffffffffffffffffffffffffffffffffffff161461223857612233610100860160e08701613c93565b61225a565b7f00000000000000000000000042000000000000000000000000000000000000065b6020808701355f908152808252604080822073ffffffffffffffffffffffffffffffffffffffff80861684529352902054919250168063128acb0830871586896122b3576122ae6401000276a36001614286565b6122d2565b6122d2600173fffd8963efd1fc6a506488495d951d5263988d266142ba565b60208c01356122e86101008e0160e08f01613c93565b60405160200161231892919091825273ffffffffffffffffffffffffffffffffffffffff16602082015260400190565b6040516020818303038152906040526040518663ffffffff1660e01b81526004016123479594939291906142e7565b60408051808303815f875af192505050801561239e575060408051601f3d9081017fffffffffffffffffffffffffffffffffffffffffffffffffffffffffffffffe016820190925261239b91810190614224565b60015b6123ad575f9350505050610754565b866123b857806123ba565b815b6123c39061432d565b6040805187815273ffffffffffffffffffffffffffffffffffffffff861660208281019190915291810183905233606082015291975089013592507f6a212efdcd471836edcfe424121fc9048d3a7cd0458b1218a71aa915300e0e57915060800160405180910390a283156124eb576040517fa2d532e60000000000000000000000000000000000000000000000000000000081523060048201526020870135602482015260448101859052608060648201525f60848201527f000000000000000000000000b291844f213047eb9e1621ae555b1eae6700d55373ffffffffffffffffffffffffffffffffffffffff169063a2d532e69060a4015f604051808303815f87803b1580156124d4575f80fd5b505af11580156124e6573d5f803e3d5ffd5b505050505b50505092915050565b5f80807fffffffffffffffffffffffffffffffffffffffffffffffffffffffffffffffff858709858702925082811083820303915050805f0361254a5783828161254057612540614363565b04925050506125fa565b838110612594576040517f63a0577800000000000000000000000000000000000000000000000000000000815260048101879052602481018690526044810185905260640161087c565b5f848688098519600190810187169687900496828603819004959092119093035f82900391909104909201919091029190911760038402600290811880860282030280860282030280860282030280860282030280860282030280860290910302029150505b9392505050565b6040805173ffffffffffffffffffffffffffffffffffffffff8416602482015260448082018490528251808303909101815260649091019091526020810180517bffffffffffffffffffffffffffffffffffffffffffffffffffffffff167f095ea7b30000000000000000000000000000000000000000000000000000000017905261268d8482612bb4565b61215c5760405173ffffffffffffffffffffffffffffffffffffffff84811660248301525f60448301526126ce91869182169063095ea7b3906064016121a4565b61215c8482612b15565b805160208201205f903060601b18610754565b5f6060602583511161270e57505060408051602081019091525f808252906128cc565b5f8361271c60046020614211565b8151811061272c5761272c614259565b0160209081015160f81c91505b5f85612746600484614211565b8151811061275657612756614259565b01602001517fff0000000000000000000000000000000000000000000000000000000000000016148015906127945750612791602083614390565b81105b156128c9575f856127a6600484614211565b815181106127b6576127b6614259565b016020908101518784019091015160f89190911c91507fffffffff00000000000000000000000000000000000000000000000000000000808916908216036128bf575f612804602086614390565b61280f600986614211565b10158061285c575087612823600986614211565b8151811061283357612833614259565b01602001517fff0000000000000000000000000000000000000000000000000000000000000016155b6128955760208861286e600987614211565b8151811061287e5761287e614259565b0160200151612890919060f81c614390565b612898565b87515b905060016128b1896128ab602087614390565b84612c0a565b9650965050505050506128cc565b5050600501612739565b50505b9250929050565b5f8481526020818152604080832073ffffffffffffffffffffffffffffffffffffffff8086168552925282205416803b8203612912575f915050612aca565b8073ffffffffffffffffffffffffffffffffffffffff16633850c7bd6040518163ffffffff1660e01b815260040160e060405180830381865afa925050508015612997575060408051601f3d9081017fffffffffffffffffffffffffffffffffffffffffffffffffffffffffffffffe0168201909252612994918101906143a7565b60015b6129a4575f915050612aca565b806129b9575f98505050505050505050612aca565b505050505050505f86815260026020526040812054908190608082901c906129e085612c4f565b90508263ffffffff168163ffffffff1610156129fa578092505b5f8163ffffffff165f03612a84578573ffffffffffffffffffffffffffffffffffffffff16633850c7bd6040518163ffffffff1660e01b815260040160e060405180830381865afa158015612a51573d5f803e3d5ffd5b505050506040513d601f19601f82011682018060405250810190612a7591906143a7565b50939550612a92945050505050565b612a8e8685612e8b565b5090505b612a9e818a8a8d61313f565b9650612710612aad8489614390565b612ab7919061443a565b612ac19088614246565b96505050505050505b949350505050565b60405173ffffffffffffffffffffffffffffffffffffffff838116602483015260448201839052612b1091859182169063a9059cbb906064016121a4565b505050565b5f8060205f8451602086015f885af180612b34576040513d5f823e3d81fd5b50505f513d91508115612b4b578060011415612b65565b73ffffffffffffffffffffffffffffffffffffffff84163b155b1561215c576040517f5274afe700000000000000000000000000000000000000000000000000000000815273ffffffffffffffffffffffffffffffffffffffff8516600482015260240161087c565b5f805f8060205f8651602088015f8a5af192503d91505f519050828015612c0057508115612be55780600114612c00565b5f8673ffffffffffffffffffffffffffffffffffffffff163b115b9695505050505050565b6060828203604051915060208183010160405280825250826020850101602082015f5b84811015612c45578281015182820152602001612c2d565b5050509392505050565b5f805f8373ffffffffffffffffffffffffffffffffffffffff16633850c7bd6040518163ffffffff1660e01b815260040160e060405180830381865afa158015612c9b573d5f803e3d5ffd5b505050506040513d601f19601f82011682018060405250810190612cbf91906143a7565b5050509350935050505f8161ffff1611612d35576040517f08c379a000000000000000000000000000000000000000000000000000000000815260206004820152600260248201527f4e49000000000000000000000000000000000000000000000000000000000000604482015260640161087c565b5f8073ffffffffffffffffffffffffffffffffffffffff861663252c09d784612d5f87600161444d565b612d699190614468565b6040517fffffffff0000000000000000000000000000000000000000000000000000000060e084901b16815261ffff9091166004820152602401608060405180830381865afa158015612dbe573d5f803e3d5ffd5b505050506040513d601f19601f82011682018060405250810190612de29190614499565b93505050915080612e80576040517f252c09d70000000000000000000000000000000000000000000000000000000081525f600482015273ffffffffffffffffffffffffffffffffffffffff87169063252c09d790602401608060405180830381865afa158015612e55573d5f803e3d5ffd5b505050506040513d601f19601f82011682018060405250810190612e799190614499565b5091935050505b504203949350505050565b5f808263ffffffff165f03612efc576040517f08c379a000000000000000000000000000000000000000000000000000000000815260206004820152600260248201527f4250000000000000000000000000000000000000000000000000000000000000604482015260640161087c565b6040805160028082526060820183525f9260208301908036833701905050905083815f81518110612f2f57612f2f614259565b602002602001019063ffffffff16908163ffffffff16815250505f81600181518110612f5d57612f5d614259565b602002602001019063ffffffff16908163ffffffff16815250505f808673ffffffffffffffffffffffffffffffffffffffff1663883bdbfd846040518263ffffffff1660e01b8152600401612fb291906144f1565b5f60405180830381865afa158015612fcc573d5f803e3d5ffd5b505050506040513d5f823e601f3d9081017fffffffffffffffffffffffffffffffffffffffffffffffffffffffffffffffe016820160405261301191908101906145d2565b915091505f825f8151811061302857613028614259565b60200260200101518360018151811061304357613043614259565b6020026020010151613055919061468f565b90505f825f8151811061306a5761306a614259565b60200260200101518360018151811061308557613085614259565b602002602001015161309791906142ba565b90506130a963ffffffff8916836146d4565b96505f8260060b1280156130ce57506130c863ffffffff891683614747565b60060b15155b156130e157866130dd81614768565b9750505b5f61310673ffffffffffffffffffffffffffffffffffffffff63ffffffff8b166147c4565b905061313077ffffffffffffffffffffffffffffffffffffffff00000000602084901b16826147fe565b96505050505050509250929050565b5f8061314a86613316565b90506fffffffffffffffffffffffffffffffff73ffffffffffffffffffffffffffffffffffffffff821611613248575f61319a73ffffffffffffffffffffffffffffffffffffffff831680614390565b90508373ffffffffffffffffffffffffffffffffffffffff168573ffffffffffffffffffffffffffffffffffffffff161061320a576132057801000000000000000000000000000000000000000000000000876fffffffffffffffffffffffffffffffff1683613676565b613240565b61324081876fffffffffffffffffffffffffffffffff167801000000000000000000000000000000000000000000000000613676565b92505061330d565b5f61327373ffffffffffffffffffffffffffffffffffffffff83168068010000000000000000613676565b90508373ffffffffffffffffffffffffffffffffffffffff168573ffffffffffffffffffffffffffffffffffffffff16106132db576132d6700100000000000000000000000000000000876fffffffffffffffffffffffffffffffff1683613676565b613309565b61330981876fffffffffffffffffffffffffffffffff16700100000000000000000000000000000000613676565b9250505b50949350505050565b5f805f8360020b1261332b578260020b613332565b8260020b5f035b9050620d89e8811115613371576040517f2bc80f3a00000000000000000000000000000000000000000000000000000000815260040160405180910390fd5b5f816001165f03613393577001000000000000000000000000000000006133a5565b6ffffcb933bd6fad37aa2d162d1a5940015b70ffffffffffffffffffffffffffffffffff16905060028216156133d9576ffff97272373d413259a46990580e213a0260801c5b60048216156133f8576ffff2e50f5f656932ef12357cf3c7fdcc0260801c5b6008821615613417576fffe5caca7e10e4e61c3624eaa0941cd00260801c5b6010821615613436576fffcb9843d60f6159c9db58835c9266440260801c5b6020821615613455576fff973b41fa98c081472e6896dfb254c00260801c5b6040821615613474576fff2ea16466c96a3843ec78b326b528610260801c5b6080821615613493576ffe5dee046a99a2a811c461f1969c30530260801c5b6101008216156134b3576ffcbe86c7900a88aedcffc83b479aa3a40260801c5b6102008216156134d3576ff987a7253ac413176f2b074cf7815e540260801c5b6104008216156134f3576ff3392b0822b70005940c7a398e4b70f30260801c5b610800821615613513576fe7159475a2c29b7443b29c7fa6e889d90260801c5b611000821615613533576fd097f3bdfd2022b8845ad8f792aa58250260801c5b612000821615613553576fa9f746462d870fdf8a65dc1f90e061e50260801c5b614000821615613573576f70d869a156d2a1b890bb3df62baf32f70260801c5b618000821615613593576f31be135f97d08fd981231505542fcfa60260801c5b620100008216156135b4576f09aa508b5b7a84e1c677de54f3e99bc90260801c5b620200008216156135d4576e5d6af8dedb81196699c329225ee6040260801c5b620400008216156135f3576d2216e584f5fa1ea926041bedfe980260801c5b62080000821615613610576b048a170391f7dc42444e8fa20260801c5b5f8460020b131561364e57807fffffffffffffffffffffffffffffffffffffffffffffffffffffffffffffffff8161364a5761364a614363565b0490505b640100000000810615613662576001613664565b5f5b60ff16602082901c0192505050919050565b5f80807fffffffffffffffffffffffffffffffffffffffffffffffffffffffffffffffff858709858702925082811083820303915050805f036136c9575f84116136be575f80fd5b5082900490506125fa565b8084116136d4575f80fd5b5f848688095f868103871696879004966002600389028118808a02820302808a02820302808a02820302808a02820302808a02820302808a02909103029181900381900460010186841190950394909402919094039290920491909117919091029150509392505050565b5f6020828403121561374f575f80fd5b81357fffffffff00000000000000000000000000000000000000000000000000000000811681146125fa575f80fd5b63ffffffff8116811461378f575f80fd5b50565b5f80604083850312156137a3575f80fd5b8235915060208301356137b58161377e565b809150509250929050565b5f602082840312156137d0575f80fd5b813567ffffffffffffffff8111156137e6575f80fd5b820161020081850312156125fa575f80fd5b5f60208284031215613808575f80fd5b5035919050565b5f8060408385031215613820575f80fd5b50508035926020909101359150565b73ffffffffffffffffffffffffffffffffffffffff8116811461378f575f80fd5b5f8060408385031215613861575f80fd5b8235915060208301356137b58161382f565b5f805f805f60a08688031215613887575f80fd5b85359450602086013562ffffff811681146138a0575f80fd5b935060408601356138b08161377e565b92506060860135915060808601356138c78161382f565b809150509295509295909350565b5f602082840312156138e5575f80fd5b813567ffffffffffffffff8111156138fb575f80fd5b820161018081850312156125fa575f80fd5b5f81518084525f5b8181101561393157602081850181015186830182015201613915565b505f6020828601015260207fffffffffffffffffffffffffffffffffffffffffffffffffffffffffffffffe0601f83011685010191505092915050565b5f604080830185845260206040818601528186518084526060935060608701915060608160051b8801018389015f5b83811015613a18578983037fffffffffffffffffffffffffffffffffffffffffffffffffffffffffffffffa00185528151805173ffffffffffffffffffffffffffffffffffffffff1684528681015187850152880151888401889052613a058885018261390d565b958701959350509085019060010161399d565b50909a9950505050505050505050565b5f805f8060608587031215613a3b575f80fd5b8435935060208501359250604085013567ffffffffffffffff80821115613a60575f80fd5b818701915087601f830112613a73575f80fd5b813581811115613a81575f80fd5b886020828501011115613a92575f80fd5b95989497505060200194505050565b5f60208284031215613ab1575f80fd5b813567ffffffffffffffff811115613ac7575f80fd5b82016101a081850312156125fa575f80fd5b5f6080820186835260208681850152604086604086015260606080606087015283875180865260a08801915060a08160051b89010195508489015f5b82811015613b90578988037fffffffffffffffffffffffffffffffffffffffffffffffffffffffffffffff600184528151805173ffffffffffffffffffffffffffffffffffffffff16895287810151888a0152860151868901869052613b7d868a018261390d565b9850509286019290860190600101613b15565b50959c9b505050505050505050505050565b8051613bad8161382f565b919050565b5f60208284031215613bc2575f80fd5b81516125fa8161382f565b801515811461378f575f80fd5b8051613bad81613bcd565b5f60208284031215613bf5575f80fd5b81516125fa81613bcd565b5f8083357fffffffffffffffffffffffffffffffffffffffffffffffffffffffffffffffe1843603018112613c33575f80fd5b83018035915067ffffffffffffffff821115613c4d575f80fd5b6020019150368190038213156128cc575f80fd5b5f805f60608486031215613c73575f80fd5b8335613c7e81613bcd565b95602085013595506040909401359392505050565b5f60208284031215613ca3575f80fd5b81356125fa8161382f565b5f60208284031215613cbe575f80fd5b5051919050565b7f4e487b71000000000000000000000000000000000000000000000000000000005f52604160045260245ffd5b604051610260810167ffffffffffffffff81118282101715613d1657613d16613cc5565b60405290565b604051610120810167ffffffffffffffff81118282101715613d1657613d16613cc5565b604051601f82017fffffffffffffffffffffffffffffffffffffffffffffffffffffffffffffffe016810167ffffffffffffffff81118282101715613d8757613d87613cc5565b604052919050565b805165ffffffffffff81168114613bad575f80fd5b8051613bad8161377e565b80516dffffffffffffffffffffffffffff81168114613bad575f80fd5b805161ffff81168114613bad575f80fd5b5f6102608284031215613dee575f80fd5b613df6613cf2565b9050613e0182613dcc565b8152613e0f60208301613dcc565b6020820152613e2060408301613da4565b6040820152613e3160608301613bda565b6060820152613e4260808301613bda565b6080820152613e5360a08301613bda565b60a0820152613e6460c08301613bda565b60c0820152613e7560e08301613bda565b60e0820152610100613e88818401613bda565b90820152610120613e9a838201613bda565b90820152610140613eac838201613bda565b90820152610160613ebe838201613bda565b90820152610180613ed0838201613bda565b908201526101a0613ee2838201613bda565b908201526101c0613ef4838201613bda565b908201526101e0613f06838201613bda565b90820152610200613f18838201613bda565b90820152610220613f2a838201613ba2565b90820152610240613f3c838201613dcc565b9082015292915050565b5f80828403610380811215613f59575f80fd5b61012080821215613f68575f80fd5b613f70613d1c565b9150613f7b85613d8f565b8252613f8960208601613d8f565b6020830152613f9a60408601613d8f565b6040830152613fab60608601613d8f565b6060830152613fbc60808601613da4565b6080830152613fcd60a08601613daf565b60a0830152613fde60c08601613da4565b60c0830152613fef60e08601613ba2565b60e083015261010080860151818401525081935061400f86828701613ddd565b925050509250929050565b5f6020828403121561402a575f80fd5b81356125fa8161377e565b60ff8116811461378f575f80fd5b5f60208284031215614053575f80fd5b81356125fa81614035565b7f4e487b71000000000000000000000000000000000000000000000000000000005f52601160045260245ffd5b600181815b808511156140e457817fffffffffffffffffffffffffffffffffffffffffffffffffffffffffffffffff048211156140ca576140ca61405e565b808516156140d757918102915b93841c9390800290614090565b509250929050565b5f826140fa57506001610754565b8161410657505f610754565b816001811461411c576002811461412657614142565b6001915050610754565b60ff8411156141375761413761405e565b50506001821b610754565b5060208310610133831016604e8410600b8410161715614165575081810a610754565b61416f838361408b565b807fffffffffffffffffffffffffffffffffffffffffffffffffffffffffffffffff048211156141a1576141a161405e565b029392505050565b5f6125fa60ff8416836140ec565b85815273ffffffffffffffffffffffffffffffffffffffff85166020820152836040820152821515606082015260c060808201525f60c082015260e060a08201525f61420660e083018461390d565b979650505050505050565b808201808211156107545761075461405e565b5f8060408385031215614235575f80fd5b505080516020909101519092909150565b818103818111156107545761075461405e565b7f4e487b71000000000000000000000000000000000000000000000000000000005f52603260045260245ffd5b73ffffffffffffffffffffffffffffffffffffffff8181168382160190808211156142b3576142b361405e565b5092915050565b73ffffffffffffffffffffffffffffffffffffffff8281168282160390808211156142b3576142b361405e565b5f73ffffffffffffffffffffffffffffffffffffffff8088168352861515602084015285604084015280851660608401525060a0608083015261420660a083018461390d565b5f7f8000000000000000000000000000000000000000000000000000000000000000820361435d5761435d61405e565b505f0390565b7f4e487b71000000000000000000000000000000000000000000000000000000005f52601260045260245ffd5b80820281158282048414176107545761075461405e565b5f805f805f805f60e0888a0312156143bd575f80fd5b87516143c88161382f565b8097505060208801518060020b81146143df575f80fd5b95506143ed60408901613dcc565b94506143fb60608901613dcc565b935061440960808901613dcc565b925060a088015161441981614035565b60c089015190925061442a81613bcd565b8091505092959891949750929550565b5f8261444857614448614363565b500490565b61ffff8181168382160190808211156142b3576142b361405e565b5f61ffff8084168061447c5761447c614363565b92169190910692915050565b8051600681900b8114613bad575f80fd5b5f805f80608085870312156144ac575f80fd5b84516144b78161377e565b93506144c560208601614488565b925060408501516144d58161382f565b60608601519092506144e681613bcd565b939692955090935050565b602080825282518282018190525f9190848201906040850190845b8181101561452e57835163ffffffff168352928401929184019160010161450c565b50909695505050505050565b5f67ffffffffffffffff82111561455357614553613cc5565b5060051b60200190565b5f82601f83011261456c575f80fd5b8151602061458161457c8361453a565b613d40565b8083825260208201915060208460051b8701019350868411156145a2575f80fd5b602086015b848110156145c75780516145ba8161382f565b83529183019183016145a7565b509695505050505050565b5f80604083850312156145e3575f80fd5b825167ffffffffffffffff808211156145fa575f80fd5b818501915085601f83011261460d575f80fd5b8151602061461d61457c8361453a565b82815260059290921b8401810191818101908984111561463b575f80fd5b948201945b838610156146605761465186614488565b82529482019490820190614640565b91880151919650909350505080821115614678575f80fd5b506146858582860161455d565b9150509250929050565b600682810b9082900b037fffffffffffffffffffffffffffffffffffffffffffffffffff800000000000008112667fffffffffffff821317156107545761075461405e565b5f8160060b8360060b806146ea576146ea614363565b7fffffffffffffffffffffffffffffffffffffffffffffffffffffffffffffffff81147fffffffffffffffffffffffffffffffffffffffffffffffffff800000000000008314161561473e5761473e61405e565b90059392505050565b5f8260060b8061475957614759614363565b808360060b0791505092915050565b5f8160020b7fffffffffffffffffffffffffffffffffffffffffffffffffffffffffff800000810361479c5761479c61405e565b7fffffffffffffffffffffffffffffffffffffffffffffffffffffffffffffffff0192915050565b77ffffffffffffffffffffffffffffffffffffffffffffffff8281168282168181028316929181158285048214176124eb576124eb61405e565b5f77ffffffffffffffffffffffffffffffffffffffffffffffff8084168061482857614828614363565b9216919091049291505056fea2646970667358221220767b584233e8ad16d4f6a51557a536c96b2a1565e143b41b5545775dfde1464f64736f6c63430008170033",
	"gitCommit": "9137c87bcd7400fb4252d57a5052a3c2a4978154"
}