{
	"_format": "sphinx-sol-ct-artifact-1",
	"merkleRoot": "0x44e13352f637cca054490dbef0ab55e30facc988cc0cbbd469fc3bbe536e95cc",
	"contractName": "JBBuybackHook",
	"address": "0x21E5b48b8c6985f664569e8bFAf738F90bc81C11",
	"abi": [
		{
			"type": "constructor",
			"inputs": [
				{
					"name": "weth",
					"type": "address",
					"internalType": "contract IWETH9"
				},
				{
					"name": "factory",
					"type": "address",
					"internalType": "address"
				},
				{
					"name": "directory",
					"type": "address",
					"internalType": "contract IJBDirectory"
				},
				{
					"name": "controller",
					"type": "address",
					"internalType": "contract IJBController"
				}
			],
			"stateMutability": "nonpayable"
		},
		{
			"type": "function",
			"name": "CONTROLLER",
			"inputs": [],
			"outputs": [
				{
					"name": "",
					"type": "address",
					"internalType": "contract IJBController"
				}
			],
			"stateMutability": "view"
		},
		{
			"type": "function",
			"name": "DIRECTORY",
			"inputs": [],
			"outputs": [
				{
					"name": "",
					"type": "address",
					"internalType": "contract IJBDirectory"
				}
			],
			"stateMutability": "view"
		},
		{
			"type": "function",
			"name": "MAX_TWAP_SLIPPAGE_TOLERANCE",
			"inputs": [],
			"outputs": [
				{
					"name": "",
					"type": "uint256",
					"internalType": "uint256"
				}
			],
			"stateMutability": "view"
		},
		{
			"type": "function",
			"name": "MAX_TWAP_WINDOW",
			"inputs": [],
			"outputs": [
				{
					"name": "",
					"type": "uint256",
					"internalType": "uint256"
				}
			],
			"stateMutability": "view"
		},
		{
			"type": "function",
			"name": "MIN_TWAP_SLIPPAGE_TOLERANCE",
			"inputs": [],
			"outputs": [
				{
					"name": "",
					"type": "uint256",
					"internalType": "uint256"
				}
			],
			"stateMutability": "view"
		},
		{
			"type": "function",
			"name": "MIN_TWAP_WINDOW",
			"inputs": [],
			"outputs": [
				{
					"name": "",
					"type": "uint256",
					"internalType": "uint256"
				}
			],
			"stateMutability": "view"
		},
		{
			"type": "function",
			"name": "PERMISSIONS",
			"inputs": [],
			"outputs": [
				{
					"name": "",
					"type": "address",
					"internalType": "contract IJBPermissions"
				}
			],
			"stateMutability": "view"
		},
		{
			"type": "function",
			"name": "PROJECTS",
			"inputs": [],
			"outputs": [
				{
					"name": "",
					"type": "address",
					"internalType": "contract IJBProjects"
				}
			],
			"stateMutability": "view"
		},
		{
			"type": "function",
			"name": "TWAP_SLIPPAGE_DENOMINATOR",
			"inputs": [],
			"outputs": [
				{
					"name": "",
					"type": "uint256",
					"internalType": "uint256"
				}
			],
			"stateMutability": "view"
		},
		{
			"type": "function",
			"name": "UNISWAP_V3_FACTORY",
			"inputs": [],
			"outputs": [
				{
					"name": "",
					"type": "address",
					"internalType": "address"
				}
			],
			"stateMutability": "view"
		},
		{
			"type": "function",
			"name": "WETH",
			"inputs": [],
			"outputs": [
				{
					"name": "",
					"type": "address",
					"internalType": "contract IWETH9"
				}
			],
			"stateMutability": "view"
		},
		{
			"type": "function",
			"name": "afterPayRecordedWith",
			"inputs": [
				{
					"name": "context",
					"type": "tuple",
					"internalType": "struct JBAfterPayRecordedContext",
					"components": [
						{
							"name": "payer",
							"type": "address",
							"internalType": "address"
						},
						{
							"name": "projectId",
							"type": "uint256",
							"internalType": "uint256"
						},
						{
							"name": "rulesetId",
							"type": "uint256",
							"internalType": "uint256"
						},
						{
							"name": "amount",
							"type": "tuple",
							"internalType": "struct JBTokenAmount",
							"components": [
								{
									"name": "token",
									"type": "address",
									"internalType": "address"
								},
								{
									"name": "value",
									"type": "uint256",
									"internalType": "uint256"
								},
								{
									"name": "decimals",
									"type": "uint256",
									"internalType": "uint256"
								},
								{
									"name": "currency",
									"type": "uint256",
									"internalType": "uint256"
								}
							]
						},
						{
							"name": "forwardedAmount",
							"type": "tuple",
							"internalType": "struct JBTokenAmount",
							"components": [
								{
									"name": "token",
									"type": "address",
									"internalType": "address"
								},
								{
									"name": "value",
									"type": "uint256",
									"internalType": "uint256"
								},
								{
									"name": "decimals",
									"type": "uint256",
									"internalType": "uint256"
								},
								{
									"name": "currency",
									"type": "uint256",
									"internalType": "uint256"
								}
							]
						},
						{
							"name": "weight",
							"type": "uint256",
							"internalType": "uint256"
						},
						{
							"name": "projectTokenCount",
							"type": "uint256",
							"internalType": "uint256"
						},
						{
							"name": "beneficiary",
							"type": "address",
							"internalType": "address"
						},
						{
							"name": "hookMetadata",
							"type": "bytes",
							"internalType": "bytes"
						},
						{
							"name": "payerMetadata",
							"type": "bytes",
							"internalType": "bytes"
						}
					]
				}
			],
			"outputs": [],
			"stateMutability": "payable"
		},
		{
			"type": "function",
			"name": "beforePayRecordedWith",
			"inputs": [
				{
					"name": "context",
					"type": "tuple",
					"internalType": "struct JBBeforePayRecordedContext",
					"components": [
						{
							"name": "terminal",
							"type": "address",
							"internalType": "address"
						},
						{
							"name": "payer",
							"type": "address",
							"internalType": "address"
						},
						{
							"name": "amount",
							"type": "tuple",
							"internalType": "struct JBTokenAmount",
							"components": [
								{
									"name": "token",
									"type": "address",
									"internalType": "address"
								},
								{
									"name": "value",
									"type": "uint256",
									"internalType": "uint256"
								},
								{
									"name": "decimals",
									"type": "uint256",
									"internalType": "uint256"
								},
								{
									"name": "currency",
									"type": "uint256",
									"internalType": "uint256"
								}
							]
						},
						{
							"name": "projectId",
							"type": "uint256",
							"internalType": "uint256"
						},
						{
							"name": "rulesetId",
							"type": "uint256",
							"internalType": "uint256"
						},
						{
							"name": "beneficiary",
							"type": "address",
							"internalType": "address"
						},
						{
							"name": "weight",
							"type": "uint256",
							"internalType": "uint256"
						},
						{
							"name": "reservedRate",
							"type": "uint256",
							"internalType": "uint256"
						},
						{
							"name": "metadata",
							"type": "bytes",
							"internalType": "bytes"
						}
					]
				}
			],
			"outputs": [
				{
					"name": "weight",
					"type": "uint256",
					"internalType": "uint256"
				},
				{
					"name": "hookSpecifications",
					"type": "tuple[]",
					"internalType": "struct JBPayHookSpecification[]",
					"components": [
						{
							"name": "hook",
							"type": "address",
							"internalType": "contract IJBPayHook"
						},
						{
							"name": "amount",
							"type": "uint256",
							"internalType": "uint256"
						},
						{
							"name": "metadata",
							"type": "bytes",
							"internalType": "bytes"
						}
					]
				}
			],
			"stateMutability": "view"
		},
		{
			"type": "function",
			"name": "beforeRedeemRecordedWith",
			"inputs": [
				{
					"name": "context",
					"type": "tuple",
					"internalType": "struct JBBeforeRedeemRecordedContext",
					"components": [
						{
							"name": "terminal",
							"type": "address",
							"internalType": "address"
						},
						{
							"name": "holder",
							"type": "address",
							"internalType": "address"
						},
						{
							"name": "projectId",
							"type": "uint256",
							"internalType": "uint256"
						},
						{
							"name": "rulesetId",
							"type": "uint256",
							"internalType": "uint256"
						},
						{
							"name": "redeemCount",
							"type": "uint256",
							"internalType": "uint256"
						},
						{
							"name": "totalSupply",
							"type": "uint256",
							"internalType": "uint256"
						},
						{
							"name": "surplus",
							"type": "tuple",
							"internalType": "struct JBTokenAmount",
							"components": [
								{
									"name": "token",
									"type": "address",
									"internalType": "address"
								},
								{
									"name": "value",
									"type": "uint256",
									"internalType": "uint256"
								},
								{
									"name": "decimals",
									"type": "uint256",
									"internalType": "uint256"
								},
								{
									"name": "currency",
									"type": "uint256",
									"internalType": "uint256"
								}
							]
						},
						{
							"name": "useTotalSurplus",
							"type": "bool",
							"internalType": "bool"
						},
						{
							"name": "redemptionRate",
							"type": "uint256",
							"internalType": "uint256"
						},
						{
							"name": "metadata",
							"type": "bytes",
							"internalType": "bytes"
						}
					]
				}
			],
			"outputs": [
				{
					"name": "",
					"type": "uint256",
					"internalType": "uint256"
				},
				{
					"name": "",
					"type": "uint256",
					"internalType": "uint256"
				},
				{
					"name": "",
					"type": "uint256",
					"internalType": "uint256"
				},
				{
					"name": "hookSpecifications",
					"type": "tuple[]",
					"internalType": "struct JBRedeemHookSpecification[]",
					"components": [
						{
							"name": "hook",
							"type": "address",
							"internalType": "contract IJBRedeemHook"
						},
						{
							"name": "amount",
							"type": "uint256",
							"internalType": "uint256"
						},
						{
							"name": "metadata",
							"type": "bytes",
							"internalType": "bytes"
						}
					]
				}
			],
			"stateMutability": "pure"
		},
		{
			"type": "function",
			"name": "hasMintPermissionFor",
			"inputs": [
				{
					"name": "",
					"type": "uint256",
					"internalType": "uint256"
				},
				{
					"name": "",
					"type": "address",
					"internalType": "address"
				}
			],
			"outputs": [
				{
					"name": "",
					"type": "bool",
					"internalType": "bool"
				}
			],
			"stateMutability": "pure"
		},
		{
			"type": "function",
			"name": "poolOf",
			"inputs": [
				{
					"name": "projectId",
					"type": "uint256",
					"internalType": "uint256"
				},
				{
					"name": "terminalToken",
					"type": "address",
					"internalType": "address"
				}
			],
			"outputs": [
				{
					"name": "",
					"type": "address",
					"internalType": "contract IUniswapV3Pool"
				}
			],
			"stateMutability": "view"
		},
		{
			"type": "function",
			"name": "projectTokenOf",
			"inputs": [
				{
					"name": "projectId",
					"type": "uint256",
					"internalType": "uint256"
				}
			],
			"outputs": [
				{
					"name": "",
					"type": "address",
					"internalType": "address"
				}
			],
			"stateMutability": "view"
		},
		{
			"type": "function",
			"name": "setPoolFor",
			"inputs": [
				{
					"name": "projectId",
					"type": "uint256",
					"internalType": "uint256"
				},
				{
					"name": "fee",
					"type": "uint24",
					"internalType": "uint24"
				},
				{
					"name": "twapWindow",
					"type": "uint32",
					"internalType": "uint32"
				},
				{
					"name": "twapSlippageTolerance",
					"type": "uint256",
					"internalType": "uint256"
				},
				{
					"name": "terminalToken",
					"type": "address",
					"internalType": "address"
				}
			],
			"outputs": [
				{
					"name": "newPool",
					"type": "address",
					"internalType": "contract IUniswapV3Pool"
				}
			],
			"stateMutability": "nonpayable"
		},
		{
			"type": "function",
			"name": "setTwapSlippageToleranceOf",
			"inputs": [
				{
					"name": "projectId",
					"type": "uint256",
					"internalType": "uint256"
				},
				{
					"name": "newSlippageTolerance",
					"type": "uint256",
					"internalType": "uint256"
				}
			],
			"outputs": [],
			"stateMutability": "nonpayable"
		},
		{
			"type": "function",
			"name": "setTwapWindowOf",
			"inputs": [
				{
					"name": "projectId",
					"type": "uint256",
					"internalType": "uint256"
				},
				{
					"name": "newWindow",
					"type": "uint32",
					"internalType": "uint32"
				}
			],
			"outputs": [],
			"stateMutability": "nonpayable"
		},
		{
			"type": "function",
			"name": "supportsInterface",
			"inputs": [
				{
					"name": "interfaceId",
					"type": "bytes4",
					"internalType": "bytes4"
				}
			],
			"outputs": [
				{
					"name": "",
					"type": "bool",
					"internalType": "bool"
				}
			],
			"stateMutability": "pure"
		},
		{
			"type": "function",
			"name": "twapSlippageToleranceOf",
			"inputs": [
				{
					"name": "projectId",
					"type": "uint256",
					"internalType": "uint256"
				}
			],
			"outputs": [
				{
					"name": "",
					"type": "uint256",
					"internalType": "uint256"
				}
			],
			"stateMutability": "view"
		},
		{
			"type": "function",
			"name": "twapWindowOf",
			"inputs": [
				{
					"name": "projectId",
					"type": "uint256",
					"internalType": "uint256"
				}
			],
			"outputs": [
				{
					"name": "",
					"type": "uint32",
					"internalType": "uint32"
				}
			],
			"stateMutability": "view"
		},
		{
			"type": "function",
			"name": "uniswapV3SwapCallback",
			"inputs": [
				{
					"name": "amount0Delta",
					"type": "int256",
					"internalType": "int256"
				},
				{
					"name": "amount1Delta",
					"type": "int256",
					"internalType": "int256"
				},
				{
					"name": "data",
					"type": "bytes",
					"internalType": "bytes"
				}
			],
			"outputs": [],
			"stateMutability": "nonpayable"
		},
		{
			"type": "event",
			"name": "Mint",
			"inputs": [
				{
					"name": "projectId",
					"type": "uint256",
					"indexed": true,
					"internalType": "uint256"
				},
				{
					"name": "amountIn",
					"type": "uint256",
					"indexed": false,
					"internalType": "uint256"
				},
				{
					"name": "tokenCount",
					"type": "uint256",
					"indexed": false,
					"internalType": "uint256"
				},
				{
					"name": "caller",
					"type": "address",
					"indexed": false,
					"internalType": "address"
				}
			],
			"anonymous": false
		},
		{
			"type": "event",
			"name": "PoolAdded",
			"inputs": [
				{
					"name": "projectId",
					"type": "uint256",
					"indexed": true,
					"internalType": "uint256"
				},
				{
					"name": "terminalToken",
					"type": "address",
					"indexed": true,
					"internalType": "address"
				},
				{
					"name": "newPool",
					"type": "address",
					"indexed": false,
					"internalType": "address"
				},
				{
					"name": "caller",
					"type": "address",
					"indexed": false,
					"internalType": "address"
				}
			],
			"anonymous": false
		},
		{
			"type": "event",
			"name": "Swap",
			"inputs": [
				{
					"name": "projectId",
					"type": "uint256",
					"indexed": true,
					"internalType": "uint256"
				},
				{
					"name": "amountIn",
					"type": "uint256",
					"indexed": false,
					"internalType": "uint256"
				},
				{
					"name": "pool",
					"type": "address",
					"indexed": false,
					"internalType": "contract IUniswapV3Pool"
				},
				{
					"name": "amountOut",
					"type": "uint256",
					"indexed": false,
					"internalType": "uint256"
				},
				{
					"name": "caller",
					"type": "address",
					"indexed": false,
					"internalType": "address"
				}
			],
			"anonymous": false
		},
		{
			"type": "event",
			"name": "TwapSlippageToleranceChanged",
			"inputs": [
				{
					"name": "projectId",
					"type": "uint256",
					"indexed": true,
					"internalType": "uint256"
				},
				{
					"name": "oldTwapTolerance",
					"type": "uint256",
					"indexed": false,
					"internalType": "uint256"
				},
				{
					"name": "newTwapTolerance",
					"type": "uint256",
					"indexed": false,
					"internalType": "uint256"
				},
				{
					"name": "caller",
					"type": "address",
					"indexed": false,
					"internalType": "address"
				}
			],
			"anonymous": false
		},
		{
			"type": "event",
			"name": "TwapWindowChanged",
			"inputs": [
				{
					"name": "projectId",
					"type": "uint256",
					"indexed": true,
					"internalType": "uint256"
				},
				{
					"name": "oldSecondsAgo",
					"type": "uint256",
					"indexed": false,
					"internalType": "uint256"
				},
				{
					"name": "newSecondsAgo",
					"type": "uint256",
					"indexed": false,
					"internalType": "uint256"
				},
				{
					"name": "caller",
					"type": "address",
					"indexed": false,
					"internalType": "address"
				}
			],
			"anonymous": false
		},
		{
			"type": "error",
			"name": "InsufficientPayAmount",
			"inputs": []
		},
		{
			"type": "error",
			"name": "InvalidTwapSlippageTolerance",
			"inputs": []
		},
		{
			"type": "error",
			"name": "InvalidTwapWindow",
			"inputs": []
		},
		{
			"type": "error",
			"name": "NoProjectToken",
			"inputs": []
		},
		{
			"type": "error",
			"name": "PRBMath_MulDiv_Overflow",
			"inputs": [
				{
					"name": "x",
					"type": "uint256",
					"internalType": "uint256"
				},
				{
					"name": "y",
					"type": "uint256",
					"internalType": "uint256"
				},
				{
					"name": "denominator",
					"type": "uint256",
					"internalType": "uint256"
				}
			]
		},
		{
			"type": "error",
			"name": "PoolAlreadySet",
			"inputs": []
		},
		{
			"type": "error",
			"name": "SpecifiedSlippageExceeded",
			"inputs": []
		},
		{
			"type": "error",
			"name": "T",
			"inputs": []
		},
		{
			"type": "error",
			"name": "UNAUTHORIZED",
			"inputs": []
		},
		{
			"type": "error",
			"name": "Unauthorized",
			"inputs": []
		}
	],
	"solcInputHash": "c8c27b4590ae938775e7139d8ad0ae64",
	"args": [
		"0x4200000000000000000000000000000000000006",
		"0x4752ba5DBc23f44D87826276BF6Fd6b1C372aD24",
		"0xCd7112aE7c3b2505F0795c1ba965e5694c25d696",
		"0xFF7e1C600b8af88De885A7c68C3e737401082423"
	],
	"bytecode": "0x6101406040523480156200001257600080fd5b5060405162003e1d38038062003e1d833981016040819052620000359162000156565b806001600160a01b031663f434c9146040518163ffffffff1660e01b8152600401602060405180830381865afa15801562000074573d6000803e3d6000fd5b505050506040513d601f19601f820116820180604052508101906200009a9190620001be565b6001600160a01b039081166080528481166101205282811660c05281811660e081905290841660a0526040805163293c499960e01b8152905163293c4999916004808201926020929091908290030181865afa158015620000ff573d6000803e3d6000fd5b505050506040513d601f19601f82011682018060405250810190620001259190620001be565b6001600160a01b03166101005250620001e592505050565b6001600160a01b03811681146200015357600080fd5b50565b600080600080608085870312156200016d57600080fd5b84516200017a816200013d565b60208601519094506200018d816200013d565b6040860151909350620001a0816200013d565b6060860151909250620001b3816200013d565b939692955090935050565b600060208284031215620001d157600080fd5b8151620001de816200013d565b9392505050565b60805160a05160c05160e0516101005161012051613b7f6200029e6000396000818161049501528181610a1801528181610fbe01528181611904015281816119e301526121af0152600081816102840152818161072c01528181610bcf0152610d1601526000818161050b01528181610e28015281816117c4015261238c0152600081816103ef015261137b0152600081816105860152610ffe01526000818161055201528181611b770152611c460152613b7f6000f3fe60806040526004361061018b5760003560e01c806388bc2ef3116100d6578063db312fae1161007f578063f434c91411610059578063f434c91414610540578063f73e5aab14610574578063fa461e33146105a857600080fd5b8063db312fae146104e3578063ee0fc121146104f9578063f3c578811461052d57600080fd5b8063ad5c4648116100b0578063ad5c464814610483578063af471880146104b7578063b88a92b4146104cc57600080fd5b806388bc2ef3146103dd5780639c9d436114610411578063aaf320d71461044157600080fd5b80634c4ffc7111610138578063754baf9611610112578063754baf96146103595780637b621d3a1461036f578063889eedb41461038f57600080fd5b80634c4ffc71146102e857806355135de014610316578063677ce0881461033657600080fd5b806327e514111161016957806327e514111461020a578063293c4999146102725780633717fba7146102a657600080fd5b806301ffc9a714610190578063132893eb146101c55780631a65893b146101e7575b600080fd5b34801561019c57600080fd5b506101b06101ab366004612d88565b6105c8565b60405190151581526020015b60405180910390f35b3480156101d157600080fd5b506101e56101e0366004612de3565b6106f9565b005b3480156101f357600080fd5b506101fc607881565b6040519081526020016101bc565b34801561021657600080fd5b5061024d610225366004612e0f565b60026020526000908152604090205473ffffffffffffffffffffffffffffffffffffffff1681565b60405173ffffffffffffffffffffffffffffffffffffffff90911681526020016101bc565b34801561027e57600080fd5b5061024d7f000000000000000000000000000000000000000000000000000000000000000081565b3480156102b257600080fd5b506102d36102c1366004612e0f565b60009081526020819052604090205490565b60405163ffffffff90911681526020016101bc565b3480156102f457600080fd5b50610308610303366004612e28565b6108a7565b6040516101bc929190612ec8565b34801561032257600080fd5b506101e5610331366004612f84565b610b9c565b34801561034257600080fd5b506101b0610351366004612fcb565b600092915050565b34801561036557600080fd5b506101fc61232881565b34801561037b57600080fd5b5061024d61038a366004612ffb565b610ccb565b34801561039b57600080fd5b5061024d6103aa366004612fcb565b600160209081526000928352604080842090915290825290205473ffffffffffffffffffffffffffffffffffffffff1681565b3480156103e957600080fd5b5061024d7f000000000000000000000000000000000000000000000000000000000000000081565b34801561041d57600080fd5b506101fc61042c366004612e0f565b60009081526020819052604090205460801c90565b34801561044d57600080fd5b5061047361045c366004613060565b6101608101359160808201359160a0013590606090565b6040516101bc949392919061309c565b34801561048f57600080fd5b5061024d7f000000000000000000000000000000000000000000000000000000000000000081565b3480156104c357600080fd5b506101fc606481565b3480156104d857600080fd5b506101fc6202a30081565b3480156104ef57600080fd5b506101fc61271081565b34801561050557600080fd5b5061024d7f000000000000000000000000000000000000000000000000000000000000000081565b6101e561053b366004613167565b611343565b34801561054c57600080fd5b5061024d7f000000000000000000000000000000000000000000000000000000000000000081565b34801561058057600080fd5b5061024d7f000000000000000000000000000000000000000000000000000000000000000081565b3480156105b457600080fd5b506101e56105c33660046131a3565b6118c7565b60007fffffffff0000000000000000000000000000000000000000000000000000000082167f81c03c2e00000000000000000000000000000000000000000000000000000000148061065b57507fffffffff0000000000000000000000000000000000000000000000000000000082167ff3c5788100000000000000000000000000000000000000000000000000000000145b806106a757507fffffffff0000000000000000000000000000000000000000000000000000000082167f8f97abcd00000000000000000000000000000000000000000000000000000000145b806106f357507fffffffff0000000000000000000000000000000000000000000000000000000082167f01ffc9a700000000000000000000000000000000000000000000000000000000145b92915050565b6040517f6352211e000000000000000000000000000000000000000000000000000000008152600481018390526107b5907f000000000000000000000000000000000000000000000000000000000000000073ffffffffffffffffffffffffffffffffffffffff1690636352211e906024015b602060405180830381865afa158015610789573d6000803e3d6000fd5b505050506040513d601f19601f820116820180604052508101906107ad9190613223565b836018611afa565b60788163ffffffff1610806107d257506202a3008163ffffffff16115b15610809576040517fbbedb50a00000000000000000000000000000000000000000000000000000000815260040160405180910390fd5b60008281526020818152604091829020805463ffffffff85167fffffffffffffffffffffffffffffffff000000000000000000000000000000008216811790925583516fffffffffffffffffffffffffffffffff821680825293810192909252339382019390935284907fa8d6b20cd05f07d50e9855ce0fc6de3517f3df2e890a5ec6357892b3808a53ce906060015b60405180910390a250505050565b6000606060008360400160200135905083610120013592506000806000606060006109066040518060400160405280600581526020017f71756f7465000000000000000000000000000000000000000000000000000000815250611cf0565b90506109548161091a6101608c018c613240565b8080601f016020809104026020016040519081016040528093929190818152602001838380828437600092019190915250611d0492505050565b90935091508215610978578180602001905181019061097391906132a5565b955093505b505081600003610986578391505b60006109a1838861099c60808c0135600a613418565b611ef2565b60c08901356000908152600260205260408082205492935073ffffffffffffffffffffffffffffffffffffffff9092169161eeee906109e69060608d01908d01613424565b73ffffffffffffffffffffffffffffffffffffffff1614610a1657610a1160608b0160408c01613424565b610a38565b7f00000000000000000000000000000000000000000000000000000000000000005b905085600003610a5557610a528a60c00135838784612008565b95505b85831015610b905786851115610a97576040517f1f89071e00000000000000000000000000000000000000000000000000000000815260040160405180910390fd5b60408051600180825281830190925273ffffffffffffffffffffffffffffffffffffffff8381169085161091816020015b60408051606080820183526000808352602083015291810191909152815260200190600190039081610ac85750506040805160608101825230815260208101899052919a50810186838b8a14610b2757610b228a8d613470565b610b2a565b60005b604080519315156020850152911515918301919091526060820152608081018a905260a00160405160208183030381529060405281525089600081518110610b7457610b74613483565b6020026020010181905250600099505050505050505050915091565b50505050505050915091565b6040517f6352211e00000000000000000000000000000000000000000000000000000000815260048101839052610c13907f000000000000000000000000000000000000000000000000000000000000000073ffffffffffffffffffffffffffffffffffffffff1690636352211e9060240161076c565b6064811080610c23575061232881115b15610c5a576040517fa7149b6a00000000000000000000000000000000000000000000000000000000815260040160405180910390fd5b600082815260208181526040918290208054608085811b6fffffffffffffffffffffffffffffffff83161790925583519181901c808352928201859052339382019390935284907faafe2470cbfb11a09f9b45d6a795226e93cc251e30fdcabddbabb157a1db535390606001610899565b6040517f6352211e00000000000000000000000000000000000000000000000000000000815260048101869052600090610d899073ffffffffffffffffffffffffffffffffffffffff7f00000000000000000000000000000000000000000000000000000000000000001690636352211e90602401602060405180830381865afa158015610d5d573d6000803e3d6000fd5b505050506040513d601f19601f82011682018060405250810190610d819190613223565b876019611afa565b6064831080610d99575061232883115b15610dd0576040517fa7149b6a00000000000000000000000000000000000000000000000000000000815260040160405180910390fd5b60788463ffffffff161080610ded57506202a3008463ffffffff16115b15610e24576040517fbbedb50a00000000000000000000000000000000000000000000000000000000815260040160405180910390fd5b60007f000000000000000000000000000000000000000000000000000000000000000073ffffffffffffffffffffffffffffffffffffffff16631d831d5c6040518163ffffffff1660e01b8152600401602060405180830381865afa158015610e91573d6000803e3d6000fd5b505050506040513d601f19601f82011682018060405250810190610eb59190613223565b73ffffffffffffffffffffffffffffffffffffffff1663ea78803f886040518263ffffffff1660e01b8152600401610eef91815260200190565b602060405180830381865afa158015610f0c573d6000803e3d6000fd5b505050506040513d601f19601f82011682018060405250810190610f309190613223565b905073ffffffffffffffffffffffffffffffffffffffff8116610f7f576040517fc0a8a55b00000000000000000000000000000000000000000000000000000000815260040160405180910390fd5b7fffffffffffffffffffffffffffffffffffffffffffffffffffffffffffff111273ffffffffffffffffffffffffffffffffffffffff841601610fe0577f000000000000000000000000000000000000000000000000000000000000000092505b73ffffffffffffffffffffffffffffffffffffffff808416908216107f000000000000000000000000000000000000000000000000000000000000000081611028578461102a565b825b826110355783611037565b855b6040805173ffffffffffffffffffffffffffffffffffffffff9384166020820152929091169082015262ffffff89166060820152608001604080517fffffffffffffffffffffffffffffffffffffffffffffffffffffffffffffffe0818403018152908290528051602091820120611132939290917fe34f199b19b2b4f47f68442619d555527d244f78a3297ea89325f843f87b8b5491017fff00000000000000000000000000000000000000000000000000000000000000815260609390931b7fffffffffffffffffffffffffffffffffffffffff0000000000000000000000001660018401526015830191909152603582015260550190565b604080517fffffffffffffffffffffffffffffffffffffffffffffffffffffffffffffffe0818403018152918152815160209283012060008b81526001845282812073ffffffffffffffffffffffffffffffffffffffff8981168352945291909120549094508185169116036111d4576040517f5f801a3e00000000000000000000000000000000000000000000000000000000815260040160405180910390fd5b600088815260016020908152604080832073ffffffffffffffffffffffffffffffffffffffff888116855290835281842080547fffffffffffffffffffffffff0000000000000000000000000000000000000000908116898416179091558c855284845282852063ffffffff8c1660808c901b8117909155600285528386208054909216928816929092179055815193845291830191909152339082015288907fa8d6b20cd05f07d50e9855ce0fc6de3517f3df2e890a5ec6357892b3808a53ce9060600160405180910390a26040805160008152602081018790523381830152905189917faafe2470cbfb11a09f9b45d6a795226e93cc251e30fdcabddbabb157a1db5353919081900360600190a26040805173ffffffffffffffffffffffffffffffffffffffff85811682523360208301528616918a917fe694de883385e30d535f625d68df4b2b5e866e8e86fe9d15554480c8d1812e60910160405180910390a3505095945050505050565b6040517f6e49181f000000000000000000000000000000000000000000000000000000008152602082013560048201523360248201527f000000000000000000000000000000000000000000000000000000000000000073ffffffffffffffffffffffffffffffffffffffff1690636e49181f90604401602060405180830381865afa1580156113d7573d6000803e3d6000fd5b505050506040513d601f19601f820116820180604052508101906113fb91906134c0565b611431576040517f82b4290000000000000000000000000000000000000000000000000000000000815260040160405180910390fd5b60008080806114446101c0860186613240565b81019061145191906134dd565b93509350935093506000611465868561215f565b905084801561147357508181105b156114aa576040517f1d9e022400000000000000000000000000000000000000000000000000000000815260040160405180910390fd5b600061eeee6114c0610100890160e08a01613424565b73ffffffffffffffffffffffffffffffffffffffff1614611581576114ec610100880160e08901613424565b6040517f70a0823100000000000000000000000000000000000000000000000000000000815230600482015273ffffffffffffffffffffffffffffffffffffffff91909116906370a0823190602401602060405180830381865afa158015611558573d6000803e3d6000fd5b505050506040513d601f19601f8201168201806040525081019061157c9190613523565b611583565b475b905060008115611788576115a6826101608a013561099c60a08c0135600a613418565b905061eeee6115bc6101008a0160e08b01613424565b73ffffffffffffffffffffffffffffffffffffffff1614611683576115e8610100890160e08a01613424565b6040517f095ea7b30000000000000000000000000000000000000000000000000000000081523360048201526024810184905273ffffffffffffffffffffffffffffffffffffffff919091169063095ea7b3906044016020604051808303816000875af115801561165d573d6000803e3d6000fd5b505050506040513d601f19601f8201168201806040525081019061168191906134c0565b505b600061eeee6116996101008b0160e08c01613424565b73ffffffffffffffffffffffffffffffffffffffff16146116bb5760006116bd565b825b905033639e6eec058260208c01356116dc6101008e0160e08f01613424565b876000604051806020016040528060008152506040518763ffffffff1660e01b815260040161170f95949392919061353c565b6000604051808303818588803b15801561172857600080fd5b505af115801561173c573d6000803e3d6000fd5b505060408051878152602080820188905233828401529151918e013594507faacef1bbb194eac329f8f247fbe8cce3eca2ed1f2e0a45a0488c2dd8afe6e51693508190036060019150a2505b6117a1856101608a013561099c60a08c0135600a613418565b6117ab9082613598565b905073ffffffffffffffffffffffffffffffffffffffff7f00000000000000000000000000000000000000000000000000000000000000001663c7fb92de60208a01356117f88487613598565b61180a6101c08d016101a08e01613424565b6040517fffffffff0000000000000000000000000000000000000000000000000000000060e086901b1681526004810193909352602483019190915273ffffffffffffffffffffffffffffffffffffffff16604482015260a06064820152600060a48201526001608482015260c4016020604051808303816000875af1158015611898573d6000803e3d6000fd5b505050506040513d601f19601f820116820180604052508101906118bc9190613523565b505050505050505050565b6000806118d683850185612fcb565b9092509050600073ffffffffffffffffffffffffffffffffffffffff821661eeee146119025781611924565b7f00000000000000000000000000000000000000000000000000000000000000005b600084815260016020908152604080832073ffffffffffffffffffffffffffffffffffffffff8581168552925290912054919250163314611991576040517f82b4290000000000000000000000000000000000000000000000000000000000815260040160405180910390fd5b60008088126119a057876119a2565b865b90507fffffffffffffffffffffffffffffffffffffffffffffffffffffffffffff111273ffffffffffffffffffffffffffffffffffffffff841601611a63577f000000000000000000000000000000000000000000000000000000000000000073ffffffffffffffffffffffffffffffffffffffff1663d0e30db0826040518263ffffffff1660e01b81526004016000604051808303818588803b158015611a4957600080fd5b505af1158015611a5d573d6000803e3d6000fd5b50505050505b6040517fa9059cbb0000000000000000000000000000000000000000000000000000000081523360048201526024810182905273ffffffffffffffffffffffffffffffffffffffff83169063a9059cbb906044016020604051808303816000875af1158015611ad6573d6000803e3d6000fd5b505050506040513d601f19601f820116820180604052508101906118bc91906134c0565b3373ffffffffffffffffffffffffffffffffffffffff84168114801590611be457506040517fc161c93f00000000000000000000000000000000000000000000000000000000815273ffffffffffffffffffffffffffffffffffffffff8281166004830152858116602483015260448201859052606482018490527f0000000000000000000000000000000000000000000000000000000000000000169063c161c93f90608401602060405180830381865afa158015611bbe573d6000803e3d6000fd5b505050506040513d601f19601f82011682018060405250810190611be291906134c0565b155b8015611cb357506040517fc161c93f00000000000000000000000000000000000000000000000000000000815273ffffffffffffffffffffffffffffffffffffffff8281166004830152858116602483015260006044830152606482018490527f0000000000000000000000000000000000000000000000000000000000000000169063c161c93f90608401602060405180830381865afa158015611c8d573d6000803e3d6000fd5b505050506040513d601f19601f82011682018060405250810190611cb191906134c0565b155b15611cea576040517f075fd2b100000000000000000000000000000000000000000000000000000000815260040160405180910390fd5b50505050565b805160208201206000903060601b186106f3565b600060606025835111611d295750506040805160208101909152600080825290611eeb565b600083611d3860046020613598565b81518110611d4857611d48613483565b0160209081015160f81c91505b600085611d63600484613598565b81518110611d7357611d73613483565b01602001517fff000000000000000000000000000000000000000000000000000000000000001614801590611db15750611dae6020836135ab565b81105b15611ee857600085611dc4600484613598565b81518110611dd457611dd4613483565b016020908101518784019091015160f89190911c91507fffffffff0000000000000000000000000000000000000000000000000000000080891690821603611ede576000611e236020866135ab565b611e2e600986613598565b101580611e7b575087611e42600986613598565b81518110611e5257611e52613483565b01602001517fff0000000000000000000000000000000000000000000000000000000000000016155b611eb457602088611e8d600987613598565b81518110611e9d57611e9d613483565b0160200151611eaf919060f81c6135ab565b611eb7565b87515b90506001611ed089611eca6020876135ab565b8461246d565b965096505050505050611eeb565b5050600501611d55565b50505b9250929050565b600080807fffffffffffffffffffffffffffffffffffffffffffffffffffffffffffffffff85870985870292508281108382030391505080600003611f4a57838281611f4057611f406135c2565b0492505050612001565b838110611f99576040517f63a057780000000000000000000000000000000000000000000000000000000081526004810187905260248101869052604481018590526064015b60405180910390fd5b600084868809851960019081018716968790049682860381900495909211909303600082900391909104909201919091029190911760038402600290811880860282030280860282030280860282030280860282030280860282030280860290910302029150505b9392505050565b600084815260016020908152604080832073ffffffffffffffffffffffffffffffffffffffff8086168552925282205416803b820361204b576000915050612157565b8073ffffffffffffffffffffffffffffffffffffffff16633850c7bd6040518163ffffffff1660e01b815260040160e060405180830381865afa9250505080156120d0575060408051601f3d9081017fffffffffffffffffffffffffffffffffffffffffffffffffffffffffffffffe01682019092526120cd91810190613603565b60015b6120de576000915050612157565b806120f457600098505050505050505050612157565b50505050505050600086815260208190526040812054908190608082901c9061211d85846124b3565b50905061212c8189898c612777565b955061271061213b83886135ab565b61214591906136a2565b61214f9087613470565b955050505050505b949350505050565b60006101008301803590829061eeee9061217c9060e08801613424565b73ffffffffffffffffffffffffffffffffffffffff16146121ad576121a8610100860160e08701613424565b6121cf565b7f00000000000000000000000000000000000000000000000000000000000000005b602080870135600090815260018252604080822073ffffffffffffffffffffffffffffffffffffffff80861684529352902054919250168063128acb08308715868961222a576122256401000276a360016136b6565b612249565b612249600173fffd8963efd1fc6a506488495d951d5263988d266136ea565b60208c013561225f6101008e0160e08f01613424565b60405160200161228f92919091825273ffffffffffffffffffffffffffffffffffffffff16602082015260400190565b6040516020818303038152906040526040518663ffffffff1660e01b81526004016122be959493929190613717565b60408051808303816000875af1925050508015612316575060408051601f3d9081017fffffffffffffffffffffffffffffffffffffffffffffffffffffffffffffffe0168201909252612313918101906132a5565b60015b61232657600093505050506106f3565b866123315780612333565b815b61233c9061375e565b6040517fa2d532e600000000000000000000000000000000000000000000000000000000815230600482015260208a013560248201526044810182905260806064820152600060848201529096507f000000000000000000000000000000000000000000000000000000000000000073ffffffffffffffffffffffffffffffffffffffff16925063a2d532e6915060a401600060405180830381600087803b1580156123e757600080fd5b505af11580156123fb573d6000803e3d6000fd5b50506040805186815273ffffffffffffffffffffffffffffffffffffffff85166020828101919091529181018890523360608201529089013592507f6a212efdcd471836edcfe424121fc9048d3a7cd0458b1218a71aa915300e0e57915060800160405180910390a250505092915050565b60608282036040519150602081830101604052808252508260208501016020820160005b848110156124a9578281015182820152602001612491565b5050509392505050565b6000808263ffffffff16600003612526576040517f08c379a000000000000000000000000000000000000000000000000000000000815260206004820152600260248201527f42500000000000000000000000000000000000000000000000000000000000006044820152606401611f90565b604080516002808252606082018352600092602083019080368337019050509050838160008151811061255b5761255b613483565b602002602001019063ffffffff16908163ffffffff168152505060008160018151811061258a5761258a613483565b602002602001019063ffffffff16908163ffffffff16815250506000808673ffffffffffffffffffffffffffffffffffffffff1663883bdbfd846040518263ffffffff1660e01b81526004016125e09190613796565b600060405180830381865afa1580156125fd573d6000803e3d6000fd5b505050506040513d6000823e601f3d9081017fffffffffffffffffffffffffffffffffffffffffffffffffffffffffffffffe016820160405261264391908101906138cb565b9150915060008260008151811061265c5761265c613483565b60200260200101518360018151811061267757612677613483565b60200260200101516126899190613997565b90506000826000815181106126a0576126a0613483565b6020026020010151836001815181106126bb576126bb613483565b60200260200101516126cd91906136ea565b90506126df63ffffffff8916836139dc565b965060008260060b12801561270557506126ff63ffffffff891683613a50565b60060b15155b15612718578661271481613a72565b9750505b600061273e73ffffffffffffffffffffffffffffffffffffffff63ffffffff8b16613acf565b905061276877ffffffffffffffffffffffffffffffffffffffff00000000602084901b1682613b12565b96505050505050509250929050565b60008061278386612951565b90506fffffffffffffffffffffffffffffffff73ffffffffffffffffffffffffffffffffffffffff8216116128825760006127d473ffffffffffffffffffffffffffffffffffffffff8316806135ab565b90508373ffffffffffffffffffffffffffffffffffffffff168573ffffffffffffffffffffffffffffffffffffffff16106128445761283f7801000000000000000000000000000000000000000000000000876fffffffffffffffffffffffffffffffff1683612cb8565b61287a565b61287a81876fffffffffffffffffffffffffffffffff167801000000000000000000000000000000000000000000000000612cb8565b925050612948565b60006128ae73ffffffffffffffffffffffffffffffffffffffff83168068010000000000000000612cb8565b90508373ffffffffffffffffffffffffffffffffffffffff168573ffffffffffffffffffffffffffffffffffffffff161061291657612911700100000000000000000000000000000000876fffffffffffffffffffffffffffffffff1683612cb8565b612944565b61294481876fffffffffffffffffffffffffffffffff16700100000000000000000000000000000000612cb8565b9250505b50949350505050565b60008060008360020b12612968578260020b612970565b8260020b6000035b9050620d89e88111156129af576040517f2bc80f3a00000000000000000000000000000000000000000000000000000000815260040160405180910390fd5b6000816001166000036129d3577001000000000000000000000000000000006129e5565b6ffffcb933bd6fad37aa2d162d1a5940015b70ffffffffffffffffffffffffffffffffff1690506002821615612a19576ffff97272373d413259a46990580e213a0260801c5b6004821615612a38576ffff2e50f5f656932ef12357cf3c7fdcc0260801c5b6008821615612a57576fffe5caca7e10e4e61c3624eaa0941cd00260801c5b6010821615612a76576fffcb9843d60f6159c9db58835c9266440260801c5b6020821615612a95576fff973b41fa98c081472e6896dfb254c00260801c5b6040821615612ab4576fff2ea16466c96a3843ec78b326b528610260801c5b6080821615612ad3576ffe5dee046a99a2a811c461f1969c30530260801c5b610100821615612af3576ffcbe86c7900a88aedcffc83b479aa3a40260801c5b610200821615612b13576ff987a7253ac413176f2b074cf7815e540260801c5b610400821615612b33576ff3392b0822b70005940c7a398e4b70f30260801c5b610800821615612b53576fe7159475a2c29b7443b29c7fa6e889d90260801c5b611000821615612b73576fd097f3bdfd2022b8845ad8f792aa58250260801c5b612000821615612b93576fa9f746462d870fdf8a65dc1f90e061e50260801c5b614000821615612bb3576f70d869a156d2a1b890bb3df62baf32f70260801c5b618000821615612bd3576f31be135f97d08fd981231505542fcfa60260801c5b62010000821615612bf4576f09aa508b5b7a84e1c677de54f3e99bc90260801c5b62020000821615612c14576e5d6af8dedb81196699c329225ee6040260801c5b62040000821615612c33576d2216e584f5fa1ea926041bedfe980260801c5b62080000821615612c50576b048a170391f7dc42444e8fa20260801c5b60008460020b1315612c8f57807fffffffffffffffffffffffffffffffffffffffffffffffffffffffffffffffff81612c8b57612c8b6135c2565b0490505b640100000000810615612ca3576001612ca6565b60005b60ff16602082901c0192505050919050565b600080807fffffffffffffffffffffffffffffffffffffffffffffffffffffffffffffffff85870985870292508281108382030391505080600003612d0f5760008411612d0457600080fd5b508290049050612001565b808411612d1b57600080fd5b6000848688096000868103871696879004966002600389028118808a02820302808a02820302808a02820302808a02820302808a02820302808a02909103029181900381900460010186841190950394909402919094039290920491909117919091029150509392505050565b600060208284031215612d9a57600080fd5b81357fffffffff000000000000000000000000000000000000000000000000000000008116811461200157600080fd5b803563ffffffff81168114612dde57600080fd5b919050565b60008060408385031215612df657600080fd5b82359150612e0660208401612dca565b90509250929050565b600060208284031215612e2157600080fd5b5035919050565b600060208284031215612e3a57600080fd5b813567ffffffffffffffff811115612e5157600080fd5b8201610180818503121561200157600080fd5b6000815180845260005b81811015612e8a57602081850181015186830182015201612e6e565b5060006020828601015260207fffffffffffffffffffffffffffffffffffffffffffffffffffffffffffffffe0601f83011685010191505092915050565b6000604080830185845260206040818601528186518084526060935060608701915060608160051b88010183890160005b83811015612f74578983037fffffffffffffffffffffffffffffffffffffffffffffffffffffffffffffffa00185528151805173ffffffffffffffffffffffffffffffffffffffff1684528681015187850152880151888401889052612f6188850182612e64565b9587019593505090850190600101612ef9565b50909a9950505050505050505050565b60008060408385031215612f9757600080fd5b50508035926020909101359150565b73ffffffffffffffffffffffffffffffffffffffff81168114612fc857600080fd5b50565b60008060408385031215612fde57600080fd5b823591506020830135612ff081612fa6565b809150509250929050565b600080600080600060a0868803121561301357600080fd5b85359450602086013562ffffff8116811461302d57600080fd5b935061303b60408701612dca565b925060608601359150608086013561305281612fa6565b809150509295509295909350565b60006020828403121561307257600080fd5b813567ffffffffffffffff81111561308957600080fd5b82016101a0818503121561200157600080fd5b60006080820186835260208681850152604086604086015260606080606087015283875180865260a08801915060a08160051b890101955084890160005b82811015613155578988037fffffffffffffffffffffffffffffffffffffffffffffffffffffffffffffff600184528151805173ffffffffffffffffffffffffffffffffffffffff16895287810151888a0152860151868901869052613142868a0182612e64565b98505092860192908601906001016130da565b50959c9b505050505050505050505050565b60006020828403121561317957600080fd5b813567ffffffffffffffff81111561319057600080fd5b8201610200818503121561200157600080fd5b600080600080606085870312156131b957600080fd5b8435935060208501359250604085013567ffffffffffffffff808211156131df57600080fd5b818701915087601f8301126131f357600080fd5b81358181111561320257600080fd5b88602082850101111561321457600080fd5b95989497505060200194505050565b60006020828403121561323557600080fd5b815161200181612fa6565b60008083357fffffffffffffffffffffffffffffffffffffffffffffffffffffffffffffffe184360301811261327557600080fd5b83018035915067ffffffffffffffff82111561329057600080fd5b602001915036819003821315611eeb57600080fd5b600080604083850312156132b857600080fd5b505080516020909101519092909150565b7f4e487b7100000000000000000000000000000000000000000000000000000000600052601160045260246000fd5b600181815b8085111561335157817fffffffffffffffffffffffffffffffffffffffffffffffffffffffffffffffff04821115613337576133376132c9565b8085161561334457918102915b93841c93908002906132fd565b509250929050565b600082613368575060016106f3565b81613375575060006106f3565b816001811461338b5760028114613395576133b1565b60019150506106f3565b60ff8411156133a6576133a66132c9565b50506001821b6106f3565b5060208310610133831016604e8410600b84101617156133d4575081810a6106f3565b6133de83836132f8565b807fffffffffffffffffffffffffffffffffffffffffffffffffffffffffffffffff04821115613410576134106132c9565b029392505050565b60006120018383613359565b60006020828403121561343657600080fd5b813561200181612fa6565b7f4e487b7100000000000000000000000000000000000000000000000000000000600052604160045260246000fd5b818103818111156106f3576106f36132c9565b7f4e487b7100000000000000000000000000000000000000000000000000000000600052603260045260246000fd5b8015158114612fc857600080fd5b6000602082840312156134d257600080fd5b8151612001816134b2565b600080600080608085870312156134f357600080fd5b84356134fe816134b2565b9350602085013561350e816134b2565b93969395505050506040820135916060013590565b60006020828403121561353557600080fd5b5051919050565b85815273ffffffffffffffffffffffffffffffffffffffff85166020820152836040820152821515606082015260c06080820152600060c082015260e060a0820152600061358d60e0830184612e64565b979650505050505050565b808201808211156106f3576106f36132c9565b80820281158282048414176106f3576106f36132c9565b7f4e487b7100000000000000000000000000000000000000000000000000000000600052601260045260246000fd5b805161ffff81168114612dde57600080fd5b600080600080600080600060e0888a03121561361e57600080fd5b875161362981612fa6565b8097505060208801518060020b811461364157600080fd5b955061364f604089016135f1565b945061365d606089016135f1565b935061366b608089016135f1565b925060a088015160ff8116811461368157600080fd5b60c0890151909250613692816134b2565b8091505092959891949750929550565b6000826136b1576136b16135c2565b500490565b73ffffffffffffffffffffffffffffffffffffffff8181168382160190808211156136e3576136e36132c9565b5092915050565b73ffffffffffffffffffffffffffffffffffffffff8281168282160390808211156136e3576136e36132c9565b600073ffffffffffffffffffffffffffffffffffffffff8088168352861515602084015285604084015280851660608401525060a0608083015261358d60a0830184612e64565b60007f8000000000000000000000000000000000000000000000000000000000000000820361378f5761378f6132c9565b5060000390565b6020808252825182820181905260009190848201906040850190845b818110156137d457835163ffffffff16835292840192918401916001016137b2565b50909695505050505050565b604051601f82017fffffffffffffffffffffffffffffffffffffffffffffffffffffffffffffffe016810167ffffffffffffffff8111828210171561382757613827613441565b604052919050565b600067ffffffffffffffff82111561384957613849613441565b5060051b60200190565b600082601f83011261386457600080fd5b815160206138796138748361382f565b6137e0565b8083825260208201915060208460051b87010193508684111561389b57600080fd5b602086015b848110156138c05780516138b381612fa6565b83529183019183016138a0565b509695505050505050565b600080604083850312156138de57600080fd5b825167ffffffffffffffff808211156138f657600080fd5b818501915085601f83011261390a57600080fd5b8151602061391a6138748361382f565b82815260059290921b8401810191818101908984111561393957600080fd5b948201945b838610156139675785518060060b81146139585760008081fd5b8252948201949082019061393e565b9188015191965090935050508082111561398057600080fd5b5061398d85828601613853565b9150509250929050565b600682810b9082900b037fffffffffffffffffffffffffffffffffffffffffffffffffff800000000000008112667fffffffffffff821317156106f3576106f36132c9565b60008160060b8360060b806139f3576139f36135c2565b7fffffffffffffffffffffffffffffffffffffffffffffffffffffffffffffffff81147fffffffffffffffffffffffffffffffffffffffffffffffffff8000000000000083141615613a4757613a476132c9565b90059392505050565b60008260060b80613a6357613a636135c2565b808360060b0791505092915050565b60008160020b7fffffffffffffffffffffffffffffffffffffffffffffffffffffffffff8000008103613aa757613aa76132c9565b7fffffffffffffffffffffffffffffffffffffffffffffffffffffffffffffffff0192915050565b77ffffffffffffffffffffffffffffffffffffffffffffffff828116828216818102831692918115828504821417613b0957613b096132c9565b50505092915050565b600077ffffffffffffffffffffffffffffffffffffffffffffffff80841680613b3d57613b3d6135c2565b9216919091049291505056fea2646970667358221220b20297c93e9d3fe396ebc3c770c9b5978368a59041505471e1d63abd1d97ca2e64736f6c63430008170033",
	"deployedBytecode": "0x60806040526004361061018b5760003560e01c806388bc2ef3116100d6578063db312fae1161007f578063f434c91411610059578063f434c91414610540578063f73e5aab14610574578063fa461e33146105a857600080fd5b8063db312fae146104e3578063ee0fc121146104f9578063f3c578811461052d57600080fd5b8063ad5c4648116100b0578063ad5c464814610483578063af471880146104b7578063b88a92b4146104cc57600080fd5b806388bc2ef3146103dd5780639c9d436114610411578063aaf320d71461044157600080fd5b80634c4ffc7111610138578063754baf9611610112578063754baf96146103595780637b621d3a1461036f578063889eedb41461038f57600080fd5b80634c4ffc71146102e857806355135de014610316578063677ce0881461033657600080fd5b806327e514111161016957806327e514111461020a578063293c4999146102725780633717fba7146102a657600080fd5b806301ffc9a714610190578063132893eb146101c55780631a65893b146101e7575b600080fd5b34801561019c57600080fd5b506101b06101ab366004612d88565b6105c8565b60405190151581526020015b60405180910390f35b3480156101d157600080fd5b506101e56101e0366004612de3565b6106f9565b005b3480156101f357600080fd5b506101fc607881565b6040519081526020016101bc565b34801561021657600080fd5b5061024d610225366004612e0f565b60026020526000908152604090205473ffffffffffffffffffffffffffffffffffffffff1681565b60405173ffffffffffffffffffffffffffffffffffffffff90911681526020016101bc565b34801561027e57600080fd5b5061024d7f0000000000000000000000002ca466eb84dd69a99e25d10bbbda6e1b3c562c4981565b3480156102b257600080fd5b506102d36102c1366004612e0f565b60009081526020819052604090205490565b60405163ffffffff90911681526020016101bc565b3480156102f457600080fd5b50610308610303366004612e28565b6108a7565b6040516101bc929190612ec8565b34801561032257600080fd5b506101e5610331366004612f84565b610b9c565b34801561034257600080fd5b506101b0610351366004612fcb565b600092915050565b34801561036557600080fd5b506101fc61232881565b34801561037b57600080fd5b5061024d61038a366004612ffb565b610ccb565b34801561039b57600080fd5b5061024d6103aa366004612fcb565b600160209081526000928352604080842090915290825290205473ffffffffffffffffffffffffffffffffffffffff1681565b3480156103e957600080fd5b5061024d7f000000000000000000000000cd7112ae7c3b2505f0795c1ba965e5694c25d69681565b34801561041d57600080fd5b506101fc61042c366004612e0f565b60009081526020819052604090205460801c90565b34801561044d57600080fd5b5061047361045c366004613060565b6101608101359160808201359160a0013590606090565b6040516101bc949392919061309c565b34801561048f57600080fd5b5061024d7f000000000000000000000000420000000000000000000000000000000000000681565b3480156104c357600080fd5b506101fc606481565b3480156104d857600080fd5b506101fc6202a30081565b3480156104ef57600080fd5b506101fc61271081565b34801561050557600080fd5b5061024d7f000000000000000000000000ff7e1c600b8af88de885a7c68c3e73740108242381565b6101e561053b366004613167565b611343565b34801561054c57600080fd5b5061024d7f0000000000000000000000006b8340b759d72e08b3fb674b48547e80631007cb81565b34801561058057600080fd5b5061024d7f0000000000000000000000004752ba5dbc23f44d87826276bf6fd6b1c372ad2481565b3480156105b457600080fd5b506101e56105c33660046131a3565b6118c7565b60007fffffffff0000000000000000000000000000000000000000000000000000000082167f81c03c2e00000000000000000000000000000000000000000000000000000000148061065b57507fffffffff0000000000000000000000000000000000000000000000000000000082167ff3c5788100000000000000000000000000000000000000000000000000000000145b806106a757507fffffffff0000000000000000000000000000000000000000000000000000000082167f8f97abcd00000000000000000000000000000000000000000000000000000000145b806106f357507fffffffff0000000000000000000000000000000000000000000000000000000082167f01ffc9a700000000000000000000000000000000000000000000000000000000145b92915050565b6040517f6352211e000000000000000000000000000000000000000000000000000000008152600481018390526107b5907f0000000000000000000000002ca466eb84dd69a99e25d10bbbda6e1b3c562c4973ffffffffffffffffffffffffffffffffffffffff1690636352211e906024015b602060405180830381865afa158015610789573d6000803e3d6000fd5b505050506040513d601f19601f820116820180604052508101906107ad9190613223565b836018611afa565b60788163ffffffff1610806107d257506202a3008163ffffffff16115b15610809576040517fbbedb50a00000000000000000000000000000000000000000000000000000000815260040160405180910390fd5b60008281526020818152604091829020805463ffffffff85167fffffffffffffffffffffffffffffffff000000000000000000000000000000008216811790925583516fffffffffffffffffffffffffffffffff821680825293810192909252339382019390935284907fa8d6b20cd05f07d50e9855ce0fc6de3517f3df2e890a5ec6357892b3808a53ce906060015b60405180910390a250505050565b6000606060008360400160200135905083610120013592506000806000606060006109066040518060400160405280600581526020017f71756f7465000000000000000000000000000000000000000000000000000000815250611cf0565b90506109548161091a6101608c018c613240565b8080601f016020809104026020016040519081016040528093929190818152602001838380828437600092019190915250611d0492505050565b90935091508215610978578180602001905181019061097391906132a5565b955093505b505081600003610986578391505b60006109a1838861099c60808c0135600a613418565b611ef2565b60c08901356000908152600260205260408082205492935073ffffffffffffffffffffffffffffffffffffffff9092169161eeee906109e69060608d01908d01613424565b73ffffffffffffffffffffffffffffffffffffffff1614610a1657610a1160608b0160408c01613424565b610a38565b7f00000000000000000000000042000000000000000000000000000000000000065b905085600003610a5557610a528a60c00135838784612008565b95505b85831015610b905786851115610a97576040517f1f89071e00000000000000000000000000000000000000000000000000000000815260040160405180910390fd5b60408051600180825281830190925273ffffffffffffffffffffffffffffffffffffffff8381169085161091816020015b60408051606080820183526000808352602083015291810191909152815260200190600190039081610ac85750506040805160608101825230815260208101899052919a50810186838b8a14610b2757610b228a8d613470565b610b2a565b60005b604080519315156020850152911515918301919091526060820152608081018a905260a00160405160208183030381529060405281525089600081518110610b7457610b74613483565b6020026020010181905250600099505050505050505050915091565b50505050505050915091565b6040517f6352211e00000000000000000000000000000000000000000000000000000000815260048101839052610c13907f0000000000000000000000002ca466eb84dd69a99e25d10bbbda6e1b3c562c4973ffffffffffffffffffffffffffffffffffffffff1690636352211e9060240161076c565b6064811080610c23575061232881115b15610c5a576040517fa7149b6a00000000000000000000000000000000000000000000000000000000815260040160405180910390fd5b600082815260208181526040918290208054608085811b6fffffffffffffffffffffffffffffffff83161790925583519181901c808352928201859052339382019390935284907faafe2470cbfb11a09f9b45d6a795226e93cc251e30fdcabddbabb157a1db535390606001610899565b6040517f6352211e00000000000000000000000000000000000000000000000000000000815260048101869052600090610d899073ffffffffffffffffffffffffffffffffffffffff7f0000000000000000000000002ca466eb84dd69a99e25d10bbbda6e1b3c562c491690636352211e90602401602060405180830381865afa158015610d5d573d6000803e3d6000fd5b505050506040513d601f19601f82011682018060405250810190610d819190613223565b876019611afa565b6064831080610d99575061232883115b15610dd0576040517fa7149b6a00000000000000000000000000000000000000000000000000000000815260040160405180910390fd5b60788463ffffffff161080610ded57506202a3008463ffffffff16115b15610e24576040517fbbedb50a00000000000000000000000000000000000000000000000000000000815260040160405180910390fd5b60007f000000000000000000000000ff7e1c600b8af88de885a7c68c3e73740108242373ffffffffffffffffffffffffffffffffffffffff16631d831d5c6040518163ffffffff1660e01b8152600401602060405180830381865afa158015610e91573d6000803e3d6000fd5b505050506040513d601f19601f82011682018060405250810190610eb59190613223565b73ffffffffffffffffffffffffffffffffffffffff1663ea78803f886040518263ffffffff1660e01b8152600401610eef91815260200190565b602060405180830381865afa158015610f0c573d6000803e3d6000fd5b505050506040513d601f19601f82011682018060405250810190610f309190613223565b905073ffffffffffffffffffffffffffffffffffffffff8116610f7f576040517fc0a8a55b00000000000000000000000000000000000000000000000000000000815260040160405180910390fd5b7fffffffffffffffffffffffffffffffffffffffffffffffffffffffffffff111273ffffffffffffffffffffffffffffffffffffffff841601610fe0577f000000000000000000000000420000000000000000000000000000000000000692505b73ffffffffffffffffffffffffffffffffffffffff808416908216107f0000000000000000000000004752ba5dbc23f44d87826276bf6fd6b1c372ad2481611028578461102a565b825b826110355783611037565b855b6040805173ffffffffffffffffffffffffffffffffffffffff9384166020820152929091169082015262ffffff89166060820152608001604080517fffffffffffffffffffffffffffffffffffffffffffffffffffffffffffffffe0818403018152908290528051602091820120611132939290917fe34f199b19b2b4f47f68442619d555527d244f78a3297ea89325f843f87b8b5491017fff00000000000000000000000000000000000000000000000000000000000000815260609390931b7fffffffffffffffffffffffffffffffffffffffff0000000000000000000000001660018401526015830191909152603582015260550190565b604080517fffffffffffffffffffffffffffffffffffffffffffffffffffffffffffffffe0818403018152918152815160209283012060008b81526001845282812073ffffffffffffffffffffffffffffffffffffffff8981168352945291909120549094508185169116036111d4576040517f5f801a3e00000000000000000000000000000000000000000000000000000000815260040160405180910390fd5b600088815260016020908152604080832073ffffffffffffffffffffffffffffffffffffffff888116855290835281842080547fffffffffffffffffffffffff0000000000000000000000000000000000000000908116898416179091558c855284845282852063ffffffff8c1660808c901b8117909155600285528386208054909216928816929092179055815193845291830191909152339082015288907fa8d6b20cd05f07d50e9855ce0fc6de3517f3df2e890a5ec6357892b3808a53ce9060600160405180910390a26040805160008152602081018790523381830152905189917faafe2470cbfb11a09f9b45d6a795226e93cc251e30fdcabddbabb157a1db5353919081900360600190a26040805173ffffffffffffffffffffffffffffffffffffffff85811682523360208301528616918a917fe694de883385e30d535f625d68df4b2b5e866e8e86fe9d15554480c8d1812e60910160405180910390a3505095945050505050565b6040517f6e49181f000000000000000000000000000000000000000000000000000000008152602082013560048201523360248201527f000000000000000000000000cd7112ae7c3b2505f0795c1ba965e5694c25d69673ffffffffffffffffffffffffffffffffffffffff1690636e49181f90604401602060405180830381865afa1580156113d7573d6000803e3d6000fd5b505050506040513d601f19601f820116820180604052508101906113fb91906134c0565b611431576040517f82b4290000000000000000000000000000000000000000000000000000000000815260040160405180910390fd5b60008080806114446101c0860186613240565b81019061145191906134dd565b93509350935093506000611465868561215f565b905084801561147357508181105b156114aa576040517f1d9e022400000000000000000000000000000000000000000000000000000000815260040160405180910390fd5b600061eeee6114c0610100890160e08a01613424565b73ffffffffffffffffffffffffffffffffffffffff1614611581576114ec610100880160e08901613424565b6040517f70a0823100000000000000000000000000000000000000000000000000000000815230600482015273ffffffffffffffffffffffffffffffffffffffff91909116906370a0823190602401602060405180830381865afa158015611558573d6000803e3d6000fd5b505050506040513d601f19601f8201168201806040525081019061157c9190613523565b611583565b475b905060008115611788576115a6826101608a013561099c60a08c0135600a613418565b905061eeee6115bc6101008a0160e08b01613424565b73ffffffffffffffffffffffffffffffffffffffff1614611683576115e8610100890160e08a01613424565b6040517f095ea7b30000000000000000000000000000000000000000000000000000000081523360048201526024810184905273ffffffffffffffffffffffffffffffffffffffff919091169063095ea7b3906044016020604051808303816000875af115801561165d573d6000803e3d6000fd5b505050506040513d601f19601f8201168201806040525081019061168191906134c0565b505b600061eeee6116996101008b0160e08c01613424565b73ffffffffffffffffffffffffffffffffffffffff16146116bb5760006116bd565b825b905033639e6eec058260208c01356116dc6101008e0160e08f01613424565b876000604051806020016040528060008152506040518763ffffffff1660e01b815260040161170f95949392919061353c565b6000604051808303818588803b15801561172857600080fd5b505af115801561173c573d6000803e3d6000fd5b505060408051878152602080820188905233828401529151918e013594507faacef1bbb194eac329f8f247fbe8cce3eca2ed1f2e0a45a0488c2dd8afe6e51693508190036060019150a2505b6117a1856101608a013561099c60a08c0135600a613418565b6117ab9082613598565b905073ffffffffffffffffffffffffffffffffffffffff7f000000000000000000000000ff7e1c600b8af88de885a7c68c3e7374010824231663c7fb92de60208a01356117f88487613598565b61180a6101c08d016101a08e01613424565b6040517fffffffff0000000000000000000000000000000000000000000000000000000060e086901b1681526004810193909352602483019190915273ffffffffffffffffffffffffffffffffffffffff16604482015260a06064820152600060a48201526001608482015260c4016020604051808303816000875af1158015611898573d6000803e3d6000fd5b505050506040513d601f19601f820116820180604052508101906118bc9190613523565b505050505050505050565b6000806118d683850185612fcb565b9092509050600073ffffffffffffffffffffffffffffffffffffffff821661eeee146119025781611924565b7f00000000000000000000000042000000000000000000000000000000000000065b600084815260016020908152604080832073ffffffffffffffffffffffffffffffffffffffff8581168552925290912054919250163314611991576040517f82b4290000000000000000000000000000000000000000000000000000000000815260040160405180910390fd5b60008088126119a057876119a2565b865b90507fffffffffffffffffffffffffffffffffffffffffffffffffffffffffffff111273ffffffffffffffffffffffffffffffffffffffff841601611a63577f000000000000000000000000420000000000000000000000000000000000000673ffffffffffffffffffffffffffffffffffffffff1663d0e30db0826040518263ffffffff1660e01b81526004016000604051808303818588803b158015611a4957600080fd5b505af1158015611a5d573d6000803e3d6000fd5b50505050505b6040517fa9059cbb0000000000000000000000000000000000000000000000000000000081523360048201526024810182905273ffffffffffffffffffffffffffffffffffffffff83169063a9059cbb906044016020604051808303816000875af1158015611ad6573d6000803e3d6000fd5b505050506040513d601f19601f820116820180604052508101906118bc91906134c0565b3373ffffffffffffffffffffffffffffffffffffffff84168114801590611be457506040517fc161c93f00000000000000000000000000000000000000000000000000000000815273ffffffffffffffffffffffffffffffffffffffff8281166004830152858116602483015260448201859052606482018490527f0000000000000000000000006b8340b759d72e08b3fb674b48547e80631007cb169063c161c93f90608401602060405180830381865afa158015611bbe573d6000803e3d6000fd5b505050506040513d601f19601f82011682018060405250810190611be291906134c0565b155b8015611cb357506040517fc161c93f00000000000000000000000000000000000000000000000000000000815273ffffffffffffffffffffffffffffffffffffffff8281166004830152858116602483015260006044830152606482018490527f0000000000000000000000006b8340b759d72e08b3fb674b48547e80631007cb169063c161c93f90608401602060405180830381865afa158015611c8d573d6000803e3d6000fd5b505050506040513d601f19601f82011682018060405250810190611cb191906134c0565b155b15611cea576040517f075fd2b100000000000000000000000000000000000000000000000000000000815260040160405180910390fd5b50505050565b805160208201206000903060601b186106f3565b600060606025835111611d295750506040805160208101909152600080825290611eeb565b600083611d3860046020613598565b81518110611d4857611d48613483565b0160209081015160f81c91505b600085611d63600484613598565b81518110611d7357611d73613483565b01602001517fff000000000000000000000000000000000000000000000000000000000000001614801590611db15750611dae6020836135ab565b81105b15611ee857600085611dc4600484613598565b81518110611dd457611dd4613483565b016020908101518784019091015160f89190911c91507fffffffff0000000000000000000000000000000000000000000000000000000080891690821603611ede576000611e236020866135ab565b611e2e600986613598565b101580611e7b575087611e42600986613598565b81518110611e5257611e52613483565b01602001517fff0000000000000000000000000000000000000000000000000000000000000016155b611eb457602088611e8d600987613598565b81518110611e9d57611e9d613483565b0160200151611eaf919060f81c6135ab565b611eb7565b87515b90506001611ed089611eca6020876135ab565b8461246d565b965096505050505050611eeb565b5050600501611d55565b50505b9250929050565b600080807fffffffffffffffffffffffffffffffffffffffffffffffffffffffffffffffff85870985870292508281108382030391505080600003611f4a57838281611f4057611f406135c2565b0492505050612001565b838110611f99576040517f63a057780000000000000000000000000000000000000000000000000000000081526004810187905260248101869052604481018590526064015b60405180910390fd5b600084868809851960019081018716968790049682860381900495909211909303600082900391909104909201919091029190911760038402600290811880860282030280860282030280860282030280860282030280860282030280860290910302029150505b9392505050565b600084815260016020908152604080832073ffffffffffffffffffffffffffffffffffffffff8086168552925282205416803b820361204b576000915050612157565b8073ffffffffffffffffffffffffffffffffffffffff16633850c7bd6040518163ffffffff1660e01b815260040160e060405180830381865afa9250505080156120d0575060408051601f3d9081017fffffffffffffffffffffffffffffffffffffffffffffffffffffffffffffffe01682019092526120cd91810190613603565b60015b6120de576000915050612157565b806120f457600098505050505050505050612157565b50505050505050600086815260208190526040812054908190608082901c9061211d85846124b3565b50905061212c8189898c612777565b955061271061213b83886135ab565b61214591906136a2565b61214f9087613470565b955050505050505b949350505050565b60006101008301803590829061eeee9061217c9060e08801613424565b73ffffffffffffffffffffffffffffffffffffffff16146121ad576121a8610100860160e08701613424565b6121cf565b7f00000000000000000000000042000000000000000000000000000000000000065b602080870135600090815260018252604080822073ffffffffffffffffffffffffffffffffffffffff80861684529352902054919250168063128acb08308715868961222a576122256401000276a360016136b6565b612249565b612249600173fffd8963efd1fc6a506488495d951d5263988d266136ea565b60208c013561225f6101008e0160e08f01613424565b60405160200161228f92919091825273ffffffffffffffffffffffffffffffffffffffff16602082015260400190565b6040516020818303038152906040526040518663ffffffff1660e01b81526004016122be959493929190613717565b60408051808303816000875af1925050508015612316575060408051601f3d9081017fffffffffffffffffffffffffffffffffffffffffffffffffffffffffffffffe0168201909252612313918101906132a5565b60015b61232657600093505050506106f3565b866123315780612333565b815b61233c9061375e565b6040517fa2d532e600000000000000000000000000000000000000000000000000000000815230600482015260208a013560248201526044810182905260806064820152600060848201529096507f000000000000000000000000ff7e1c600b8af88de885a7c68c3e73740108242373ffffffffffffffffffffffffffffffffffffffff16925063a2d532e6915060a401600060405180830381600087803b1580156123e757600080fd5b505af11580156123fb573d6000803e3d6000fd5b50506040805186815273ffffffffffffffffffffffffffffffffffffffff85166020828101919091529181018890523360608201529089013592507f6a212efdcd471836edcfe424121fc9048d3a7cd0458b1218a71aa915300e0e57915060800160405180910390a250505092915050565b60608282036040519150602081830101604052808252508260208501016020820160005b848110156124a9578281015182820152602001612491565b5050509392505050565b6000808263ffffffff16600003612526576040517f08c379a000000000000000000000000000000000000000000000000000000000815260206004820152600260248201527f42500000000000000000000000000000000000000000000000000000000000006044820152606401611f90565b604080516002808252606082018352600092602083019080368337019050509050838160008151811061255b5761255b613483565b602002602001019063ffffffff16908163ffffffff168152505060008160018151811061258a5761258a613483565b602002602001019063ffffffff16908163ffffffff16815250506000808673ffffffffffffffffffffffffffffffffffffffff1663883bdbfd846040518263ffffffff1660e01b81526004016125e09190613796565b600060405180830381865afa1580156125fd573d6000803e3d6000fd5b505050506040513d6000823e601f3d9081017fffffffffffffffffffffffffffffffffffffffffffffffffffffffffffffffe016820160405261264391908101906138cb565b9150915060008260008151811061265c5761265c613483565b60200260200101518360018151811061267757612677613483565b60200260200101516126899190613997565b90506000826000815181106126a0576126a0613483565b6020026020010151836001815181106126bb576126bb613483565b60200260200101516126cd91906136ea565b90506126df63ffffffff8916836139dc565b965060008260060b12801561270557506126ff63ffffffff891683613a50565b60060b15155b15612718578661271481613a72565b9750505b600061273e73ffffffffffffffffffffffffffffffffffffffff63ffffffff8b16613acf565b905061276877ffffffffffffffffffffffffffffffffffffffff00000000602084901b1682613b12565b96505050505050509250929050565b60008061278386612951565b90506fffffffffffffffffffffffffffffffff73ffffffffffffffffffffffffffffffffffffffff8216116128825760006127d473ffffffffffffffffffffffffffffffffffffffff8316806135ab565b90508373ffffffffffffffffffffffffffffffffffffffff168573ffffffffffffffffffffffffffffffffffffffff16106128445761283f7801000000000000000000000000000000000000000000000000876fffffffffffffffffffffffffffffffff1683612cb8565b61287a565b61287a81876fffffffffffffffffffffffffffffffff167801000000000000000000000000000000000000000000000000612cb8565b925050612948565b60006128ae73ffffffffffffffffffffffffffffffffffffffff83168068010000000000000000612cb8565b90508373ffffffffffffffffffffffffffffffffffffffff168573ffffffffffffffffffffffffffffffffffffffff161061291657612911700100000000000000000000000000000000876fffffffffffffffffffffffffffffffff1683612cb8565b612944565b61294481876fffffffffffffffffffffffffffffffff16700100000000000000000000000000000000612cb8565b9250505b50949350505050565b60008060008360020b12612968578260020b612970565b8260020b6000035b9050620d89e88111156129af576040517f2bc80f3a00000000000000000000000000000000000000000000000000000000815260040160405180910390fd5b6000816001166000036129d3577001000000000000000000000000000000006129e5565b6ffffcb933bd6fad37aa2d162d1a5940015b70ffffffffffffffffffffffffffffffffff1690506002821615612a19576ffff97272373d413259a46990580e213a0260801c5b6004821615612a38576ffff2e50f5f656932ef12357cf3c7fdcc0260801c5b6008821615612a57576fffe5caca7e10e4e61c3624eaa0941cd00260801c5b6010821615612a76576fffcb9843d60f6159c9db58835c9266440260801c5b6020821615612a95576fff973b41fa98c081472e6896dfb254c00260801c5b6040821615612ab4576fff2ea16466c96a3843ec78b326b528610260801c5b6080821615612ad3576ffe5dee046a99a2a811c461f1969c30530260801c5b610100821615612af3576ffcbe86c7900a88aedcffc83b479aa3a40260801c5b610200821615612b13576ff987a7253ac413176f2b074cf7815e540260801c5b610400821615612b33576ff3392b0822b70005940c7a398e4b70f30260801c5b610800821615612b53576fe7159475a2c29b7443b29c7fa6e889d90260801c5b611000821615612b73576fd097f3bdfd2022b8845ad8f792aa58250260801c5b612000821615612b93576fa9f746462d870fdf8a65dc1f90e061e50260801c5b614000821615612bb3576f70d869a156d2a1b890bb3df62baf32f70260801c5b618000821615612bd3576f31be135f97d08fd981231505542fcfa60260801c5b62010000821615612bf4576f09aa508b5b7a84e1c677de54f3e99bc90260801c5b62020000821615612c14576e5d6af8dedb81196699c329225ee6040260801c5b62040000821615612c33576d2216e584f5fa1ea926041bedfe980260801c5b62080000821615612c50576b048a170391f7dc42444e8fa20260801c5b60008460020b1315612c8f57807fffffffffffffffffffffffffffffffffffffffffffffffffffffffffffffffff81612c8b57612c8b6135c2565b0490505b640100000000810615612ca3576001612ca6565b60005b60ff16602082901c0192505050919050565b600080807fffffffffffffffffffffffffffffffffffffffffffffffffffffffffffffffff85870985870292508281108382030391505080600003612d0f5760008411612d0457600080fd5b508290049050612001565b808411612d1b57600080fd5b6000848688096000868103871696879004966002600389028118808a02820302808a02820302808a02820302808a02820302808a02820302808a02909103029181900381900460010186841190950394909402919094039290920491909117919091029150509392505050565b600060208284031215612d9a57600080fd5b81357fffffffff000000000000000000000000000000000000000000000000000000008116811461200157600080fd5b803563ffffffff81168114612dde57600080fd5b919050565b60008060408385031215612df657600080fd5b82359150612e0660208401612dca565b90509250929050565b600060208284031215612e2157600080fd5b5035919050565b600060208284031215612e3a57600080fd5b813567ffffffffffffffff811115612e5157600080fd5b8201610180818503121561200157600080fd5b6000815180845260005b81811015612e8a57602081850181015186830182015201612e6e565b5060006020828601015260207fffffffffffffffffffffffffffffffffffffffffffffffffffffffffffffffe0601f83011685010191505092915050565b6000604080830185845260206040818601528186518084526060935060608701915060608160051b88010183890160005b83811015612f74578983037fffffffffffffffffffffffffffffffffffffffffffffffffffffffffffffffa00185528151805173ffffffffffffffffffffffffffffffffffffffff1684528681015187850152880151888401889052612f6188850182612e64565b9587019593505090850190600101612ef9565b50909a9950505050505050505050565b60008060408385031215612f9757600080fd5b50508035926020909101359150565b73ffffffffffffffffffffffffffffffffffffffff81168114612fc857600080fd5b50565b60008060408385031215612fde57600080fd5b823591506020830135612ff081612fa6565b809150509250929050565b600080600080600060a0868803121561301357600080fd5b85359450602086013562ffffff8116811461302d57600080fd5b935061303b60408701612dca565b925060608601359150608086013561305281612fa6565b809150509295509295909350565b60006020828403121561307257600080fd5b813567ffffffffffffffff81111561308957600080fd5b82016101a0818503121561200157600080fd5b60006080820186835260208681850152604086604086015260606080606087015283875180865260a08801915060a08160051b890101955084890160005b82811015613155578988037fffffffffffffffffffffffffffffffffffffffffffffffffffffffffffffff600184528151805173ffffffffffffffffffffffffffffffffffffffff16895287810151888a0152860151868901869052613142868a0182612e64565b98505092860192908601906001016130da565b50959c9b505050505050505050505050565b60006020828403121561317957600080fd5b813567ffffffffffffffff81111561319057600080fd5b8201610200818503121561200157600080fd5b600080600080606085870312156131b957600080fd5b8435935060208501359250604085013567ffffffffffffffff808211156131df57600080fd5b818701915087601f8301126131f357600080fd5b81358181111561320257600080fd5b88602082850101111561321457600080fd5b95989497505060200194505050565b60006020828403121561323557600080fd5b815161200181612fa6565b60008083357fffffffffffffffffffffffffffffffffffffffffffffffffffffffffffffffe184360301811261327557600080fd5b83018035915067ffffffffffffffff82111561329057600080fd5b602001915036819003821315611eeb57600080fd5b600080604083850312156132b857600080fd5b505080516020909101519092909150565b7f4e487b7100000000000000000000000000000000000000000000000000000000600052601160045260246000fd5b600181815b8085111561335157817fffffffffffffffffffffffffffffffffffffffffffffffffffffffffffffffff04821115613337576133376132c9565b8085161561334457918102915b93841c93908002906132fd565b509250929050565b600082613368575060016106f3565b81613375575060006106f3565b816001811461338b5760028114613395576133b1565b60019150506106f3565b60ff8411156133a6576133a66132c9565b50506001821b6106f3565b5060208310610133831016604e8410600b84101617156133d4575081810a6106f3565b6133de83836132f8565b807fffffffffffffffffffffffffffffffffffffffffffffffffffffffffffffffff04821115613410576134106132c9565b029392505050565b60006120018383613359565b60006020828403121561343657600080fd5b813561200181612fa6565b7f4e487b7100000000000000000000000000000000000000000000000000000000600052604160045260246000fd5b818103818111156106f3576106f36132c9565b7f4e487b7100000000000000000000000000000000000000000000000000000000600052603260045260246000fd5b8015158114612fc857600080fd5b6000602082840312156134d257600080fd5b8151612001816134b2565b600080600080608085870312156134f357600080fd5b84356134fe816134b2565b9350602085013561350e816134b2565b93969395505050506040820135916060013590565b60006020828403121561353557600080fd5b5051919050565b85815273ffffffffffffffffffffffffffffffffffffffff85166020820152836040820152821515606082015260c06080820152600060c082015260e060a0820152600061358d60e0830184612e64565b979650505050505050565b808201808211156106f3576106f36132c9565b80820281158282048414176106f3576106f36132c9565b7f4e487b7100000000000000000000000000000000000000000000000000000000600052601260045260246000fd5b805161ffff81168114612dde57600080fd5b600080600080600080600060e0888a03121561361e57600080fd5b875161362981612fa6565b8097505060208801518060020b811461364157600080fd5b955061364f604089016135f1565b945061365d606089016135f1565b935061366b608089016135f1565b925060a088015160ff8116811461368157600080fd5b60c0890151909250613692816134b2565b8091505092959891949750929550565b6000826136b1576136b16135c2565b500490565b73ffffffffffffffffffffffffffffffffffffffff8181168382160190808211156136e3576136e36132c9565b5092915050565b73ffffffffffffffffffffffffffffffffffffffff8281168282160390808211156136e3576136e36132c9565b600073ffffffffffffffffffffffffffffffffffffffff8088168352861515602084015285604084015280851660608401525060a0608083015261358d60a0830184612e64565b60007f8000000000000000000000000000000000000000000000000000000000000000820361378f5761378f6132c9565b5060000390565b6020808252825182820181905260009190848201906040850190845b818110156137d457835163ffffffff16835292840192918401916001016137b2565b50909695505050505050565b604051601f82017fffffffffffffffffffffffffffffffffffffffffffffffffffffffffffffffe016810167ffffffffffffffff8111828210171561382757613827613441565b604052919050565b600067ffffffffffffffff82111561384957613849613441565b5060051b60200190565b600082601f83011261386457600080fd5b815160206138796138748361382f565b6137e0565b8083825260208201915060208460051b87010193508684111561389b57600080fd5b602086015b848110156138c05780516138b381612fa6565b83529183019183016138a0565b509695505050505050565b600080604083850312156138de57600080fd5b825167ffffffffffffffff808211156138f657600080fd5b818501915085601f83011261390a57600080fd5b8151602061391a6138748361382f565b82815260059290921b8401810191818101908984111561393957600080fd5b948201945b838610156139675785518060060b81146139585760008081fd5b8252948201949082019061393e565b9188015191965090935050508082111561398057600080fd5b5061398d85828601613853565b9150509250929050565b600682810b9082900b037fffffffffffffffffffffffffffffffffffffffffffffffffff800000000000008112667fffffffffffff821317156106f3576106f36132c9565b60008160060b8360060b806139f3576139f36135c2565b7fffffffffffffffffffffffffffffffffffffffffffffffffffffffffffffffff81147fffffffffffffffffffffffffffffffffffffffffffffffffff8000000000000083141615613a4757613a476132c9565b90059392505050565b60008260060b80613a6357613a636135c2565b808360060b0791505092915050565b60008160020b7fffffffffffffffffffffffffffffffffffffffffffffffffffffffffff8000008103613aa757613aa76132c9565b7fffffffffffffffffffffffffffffffffffffffffffffffffffffffffffffffff0192915050565b77ffffffffffffffffffffffffffffffffffffffffffffffff828116828216818102831692918115828504821417613b0957613b096132c9565b50505092915050565b600077ffffffffffffffffffffffffffffffffffffffffffffffff80841680613b3d57613b3d6135c2565b9216919091049291505056fea2646970667358221220b20297c93e9d3fe396ebc3c770c9b5978368a59041505471e1d63abd1d97ca2e64736f6c63430008170033",
	"devdoc": {
		"kind": "dev",
		"methods": {
			"afterPayRecordedWith((address,uint256,uint256,(address,uint256,uint256,uint256),(address,uint256,uint256,uint256),uint256,uint256,address,bytes,bytes))": {
				"details": "This function is only called if the minimum return from the swap exceeds the return from minting by paying the project. If the swap reverts (due to slippage, insufficient liquidity, or something else), then the hook mints the number of tokens which a payment to the project would have minted.",
				"params": {
					"context": "The pay context passed in by the terminal."
				}
			},
			"beforePayRecordedWith((address,address,(address,uint256,uint256,uint256),uint256,uint256,address,uint256,uint256,bytes))": {
				"params": {
					"context": "Payment context passed to the data hook by `terminalStore.recordPaymentFrom(...)`. `context.metadata` can specify a Uniswap quote and specify how much of the payment should be used to swap. If `context.metadata` does not specify a quote, one will be calculated based on the TWAP. If `context.metadata` does not specify how much of the payment should be used, the hook uses the full amount paid in."
				},
				"returns": {
					"hookSpecifications": "Specifications containing pay hooks, as well as the amount and metadata to send to them. Fulfilled by the terminal. If tokens are only being minted, `hookSpecifications` will be empty.",
					"weight": "The weight to use. If tokens are being minted from the project, this is the original weight. If tokens are being bought from the pool, the weight is 0. If tokens are being minted AND bought from the pool, this weight is adjusted to take both into account."
				}
			},
			"beforeRedeemRecordedWith((address,address,uint256,uint256,uint256,uint256,(address,uint256,uint256,uint256),bool,uint256,bytes))": {
				"details": "Pass redeem context back to the terminal without changes.",
				"params": {
					"context": "The redeem context passed in by the terminal."
				}
			},
			"constructor": {
				"params": {
					"controller": "The controller used to mint and burn tokens.",
					"directory": "The directory of terminals and controllers.",
					"factory": "The address of the Uniswap v3 factory. Used to calculate pool addresses.",
					"weth": "The WETH contract."
				}
			},
			"setPoolFor(uint256,uint24,uint32,uint256,address)": {
				"details": "Uses create2 for callback auth and to allow adding pools which haven't been deployed yet. This can be called by the project's owner or an address which has the `JBPermissionIds.CHANGE_BUYBACK_POOL` permission from the owner.",
				"params": {
					"fee": "The fee used in the pool being set, as a fixed-point number of basis points with 2 decimals. A 0.01% fee is `100`, a 0.05% fee is `500`, a 0.3% fee is `3000`, and a 1% fee is `10000`.",
					"projectId": "The ID of the project to set the pool for.",
					"terminalToken": "The address of the terminal token that payments to the project are made in.",
					"twapSlippageTolerance": "The maximum spread allowed between the amount received and the TWAP.",
					"twapWindow": "The period of time over which the TWAP is computed."
				},
				"returns": {
					"newPool": "The pool that was set for the project and terminal token."
				}
			},
			"setTwapSlippageToleranceOf(uint256,uint256)": {
				"details": "This can be called by the project's owner or an address with `JBPermissionIds.SET_BUYBACK_TWAP` permission from the owner.",
				"params": {
					"newSlippageTolerance": "The new TWAP slippage tolerance, out of `TWAP_SLIPPAGE_DENOMINATOR`.",
					"projectId": "The ID of the project to set the TWAP slippage tolerance of."
				}
			},
			"setTwapWindowOf(uint256,uint32)": {
				"details": "This can be called by the project's owner or an address with `JBPermissionIds.SET_BUYBACK_TWAP` permission from the owner.",
				"params": {
					"newWindow": "The new TWAP window.",
					"projectId": "The ID of the project to set the TWAP window of."
				}
			},
			"supportsInterface(bytes4)": {
				"details": "Returns true if this contract implements the interface defined by `interfaceId`. See the corresponding https://eips.ethereum.org/EIPS/eip-165#how-interfaces-are-identified[EIP section] to learn more about how these ids are created. This function call must use less than 30 000 gas."
			},
			"twapSlippageToleranceOf(uint256)": {
				"details": "The \"TWAP slippage tolerance\" is the maximum negative spread between the TWAP and the expected return from a swap. If the expected return unfavourably exceeds the TWAP slippage tolerance, the swap will revert.",
				"params": {
					"projectId": "The ID of the project which the TWAP slippage tolerance applies to."
				},
				"returns": {
					"_0": "tolerance The maximum slippage allowed relative to the TWAP, as a percent out of `TWAP_SLIPPAGE_DENOMINATOR`."
				}
			},
			"twapWindowOf(uint256)": {
				"details": "The \"TWAP window\" is the period over which the TWAP is computed.",
				"params": {
					"projectId": "The ID of the project which the TWAP window applies to."
				},
				"returns": {
					"_0": "secondsAgo The TWAP window in seconds."
				}
			},
			"uniswapV3SwapCallback(int256,int256,bytes)": {
				"params": {
					"amount0Delta": "The amount of token 0 being used for the swap.",
					"amount1Delta": "The amount of token 1 being used for the swap.",
					"data": "Data passed in by the swap operation."
				}
			}
		},
		"version": 1
	},
	"userdoc": {
		"kind": "user",
		"methods": {
			"CONTROLLER()": {
				"notice": "The controller used to mint and burn tokens."
			},
			"DIRECTORY()": {
				"notice": "The directory of terminals and controllers."
			},
			"MAX_TWAP_SLIPPAGE_TOLERANCE()": {
				"notice": "Projects cannot specify a TWAP slippage tolerance larger than this constant (out of `MAX_SLIPPAGE`)."
			},
			"MAX_TWAP_WINDOW()": {
				"notice": "Projects cannot specify a TWAP window longer than this constant."
			},
			"MIN_TWAP_SLIPPAGE_TOLERANCE()": {
				"notice": "Projects cannot specify a TWAP slippage tolerance smaller than this constant (out of `MAX_SLIPPAGE`)."
			},
			"MIN_TWAP_WINDOW()": {
				"notice": "Projects cannot specify a TWAP window shorter than this constant."
			},
			"PERMISSIONS()": {
				"notice": "A contract storing permissions."
			},
			"PROJECTS()": {
				"notice": "The project registry."
			},
			"TWAP_SLIPPAGE_DENOMINATOR()": {
				"notice": "The denominator used when calculating TWAP slippage percent values."
			},
			"UNISWAP_V3_FACTORY()": {
				"notice": "The address of the Uniswap v3 factory. Used to calculate pool addresses."
			},
			"WETH()": {
				"notice": "The wETH contract."
			},
			"afterPayRecordedWith((address,uint256,uint256,(address,uint256,uint256,uint256),(address,uint256,uint256,uint256),uint256,uint256,address,bytes,bytes))": {
				"notice": "Swap the specified amount of terminal tokens for project tokens, using any leftover terminal tokens to mint from the project."
			},
			"beforePayRecordedWith((address,address,(address,uint256,uint256,uint256),uint256,uint256,address,uint256,uint256,bytes))": {
				"notice": "The `IJBRulesetDataHook` implementation which determines whether tokens should be minted from the project or bought from the pool."
			},
			"beforeRedeemRecordedWith((address,address,uint256,uint256,uint256,uint256,(address,uint256,uint256,uint256),bool,uint256,bytes))": {
				"notice": "To fulfill the `IJBRulesetDataHook` interface."
			},
			"hasMintPermissionFor(uint256,address)": {
				"notice": "Required by the `IJBRulesetDataHook` interfaces. Return false to not leak any permissions."
			},
			"poolOf(uint256,address)": {
				"notice": "The Uniswap pool where a given project's token and terminal token pair are traded."
			},
			"projectTokenOf(uint256)": {
				"notice": "The address of each project's token."
			},
			"setPoolFor(uint256,uint24,uint32,uint256,address)": {
				"notice": "Set the pool to use for a given project and terminal token (the default for the project's token <-> terminal token pair)."
			},
			"setTwapSlippageToleranceOf(uint256,uint256)": {
				"notice": "Set the TWAP slippage tolerance for a project. The TWAP slippage tolerance is the maximum spread allowed between the amount received and the TWAP."
			},
			"setTwapWindowOf(uint256,uint32)": {
				"notice": "Change the TWAP window for a project. The TWAP window is the period of time over which the TWAP is computed."
			},
			"twapSlippageToleranceOf(uint256)": {
				"notice": "Get the TWAP slippage tolerance for a given project ID."
			},
			"twapWindowOf(uint256)": {
				"notice": "Get the TWAP window for a given project ID."
			},
			"uniswapV3SwapCallback(int256,int256,bytes)": {
				"notice": "The Uniswap v3 pool callback where the token transfer is expected to happen."
			}
		},
		"version": 1
	},
	"gitCommit": "1f4b1b6daf23c931b1a66c91cd91d0a21d78c20e",
	"sourceName": "src/JBBuybackHook.sol",
	"chainId": "84532",
	"linkReferences": {},
	"deployedLinkReferences": {},
	"history": [
		{
			"_format": "sphinx-sol-ct-artifact-1",
			"merkleRoot": "0x13c7f8224a201fca88f92179e198e678f46f1925ad89091a5b7f682aacd9334a",
			"contractName": "JBBuybackHook",
			"address": "0x26FeC21A65ccCDb877A4b355bb9eBc0360C3D84E",
			"abi": [
				{
					"type": "constructor",
					"inputs": [
						{
							"name": "weth",
							"type": "address",
							"internalType": "contract IWETH9"
						},
						{
							"name": "factory",
							"type": "address",
							"internalType": "address"
						},
						{
							"name": "directory",
							"type": "address",
							"internalType": "contract IJBDirectory"
						},
						{
							"name": "controller",
							"type": "address",
							"internalType": "contract IJBController"
						}
					],
					"stateMutability": "nonpayable"
				},
				{
					"type": "function",
					"name": "CONTROLLER",
					"inputs": [],
					"outputs": [
						{
							"name": "",
							"type": "address",
							"internalType": "contract IJBController"
						}
					],
					"stateMutability": "view"
				},
				{
					"type": "function",
					"name": "DIRECTORY",
					"inputs": [],
					"outputs": [
						{
							"name": "",
							"type": "address",
							"internalType": "contract IJBDirectory"
						}
					],
					"stateMutability": "view"
				},
				{
					"type": "function",
					"name": "MAX_TWAP_SLIPPAGE_TOLERANCE",
					"inputs": [],
					"outputs": [
						{
							"name": "",
							"type": "uint256",
							"internalType": "uint256"
						}
					],
					"stateMutability": "view"
				},
				{
					"type": "function",
					"name": "MAX_TWAP_WINDOW",
					"inputs": [],
					"outputs": [
						{
							"name": "",
							"type": "uint256",
							"internalType": "uint256"
						}
					],
					"stateMutability": "view"
				},
				{
					"type": "function",
					"name": "MIN_TWAP_SLIPPAGE_TOLERANCE",
					"inputs": [],
					"outputs": [
						{
							"name": "",
							"type": "uint256",
							"internalType": "uint256"
						}
					],
					"stateMutability": "view"
				},
				{
					"type": "function",
					"name": "MIN_TWAP_WINDOW",
					"inputs": [],
					"outputs": [
						{
							"name": "",
							"type": "uint256",
							"internalType": "uint256"
						}
					],
					"stateMutability": "view"
				},
				{
					"type": "function",
					"name": "PERMISSIONS",
					"inputs": [],
					"outputs": [
						{
							"name": "",
							"type": "address",
							"internalType": "contract IJBPermissions"
						}
					],
					"stateMutability": "view"
				},
				{
					"type": "function",
					"name": "PROJECTS",
					"inputs": [],
					"outputs": [
						{
							"name": "",
							"type": "address",
							"internalType": "contract IJBProjects"
						}
					],
					"stateMutability": "view"
				},
				{
					"type": "function",
					"name": "TWAP_SLIPPAGE_DENOMINATOR",
					"inputs": [],
					"outputs": [
						{
							"name": "",
							"type": "uint256",
							"internalType": "uint256"
						}
					],
					"stateMutability": "view"
				},
				{
					"type": "function",
					"name": "UNISWAP_V3_FACTORY",
					"inputs": [],
					"outputs": [
						{
							"name": "",
							"type": "address",
							"internalType": "address"
						}
					],
					"stateMutability": "view"
				},
				{
					"type": "function",
					"name": "WETH",
					"inputs": [],
					"outputs": [
						{
							"name": "",
							"type": "address",
							"internalType": "contract IWETH9"
						}
					],
					"stateMutability": "view"
				},
				{
					"type": "function",
					"name": "afterPayRecordedWith",
					"inputs": [
						{
							"name": "context",
							"type": "tuple",
							"internalType": "struct JBAfterPayRecordedContext",
							"components": [
								{
									"name": "payer",
									"type": "address",
									"internalType": "address"
								},
								{
									"name": "projectId",
									"type": "uint256",
									"internalType": "uint256"
								},
								{
									"name": "rulesetId",
									"type": "uint256",
									"internalType": "uint256"
								},
								{
									"name": "amount",
									"type": "tuple",
									"internalType": "struct JBTokenAmount",
									"components": [
										{
											"name": "token",
											"type": "address",
											"internalType": "address"
										},
										{
											"name": "value",
											"type": "uint256",
											"internalType": "uint256"
										},
										{
											"name": "decimals",
											"type": "uint256",
											"internalType": "uint256"
										},
										{
											"name": "currency",
											"type": "uint256",
											"internalType": "uint256"
										}
									]
								},
								{
									"name": "forwardedAmount",
									"type": "tuple",
									"internalType": "struct JBTokenAmount",
									"components": [
										{
											"name": "token",
											"type": "address",
											"internalType": "address"
										},
										{
											"name": "value",
											"type": "uint256",
											"internalType": "uint256"
										},
										{
											"name": "decimals",
											"type": "uint256",
											"internalType": "uint256"
										},
										{
											"name": "currency",
											"type": "uint256",
											"internalType": "uint256"
										}
									]
								},
								{
									"name": "weight",
									"type": "uint256",
									"internalType": "uint256"
								},
								{
									"name": "projectTokenCount",
									"type": "uint256",
									"internalType": "uint256"
								},
								{
									"name": "beneficiary",
									"type": "address",
									"internalType": "address"
								},
								{
									"name": "hookMetadata",
									"type": "bytes",
									"internalType": "bytes"
								},
								{
									"name": "payerMetadata",
									"type": "bytes",
									"internalType": "bytes"
								}
							]
						}
					],
					"outputs": [],
					"stateMutability": "payable"
				},
				{
					"type": "function",
					"name": "beforePayRecordedWith",
					"inputs": [
						{
							"name": "context",
							"type": "tuple",
							"internalType": "struct JBBeforePayRecordedContext",
							"components": [
								{
									"name": "terminal",
									"type": "address",
									"internalType": "address"
								},
								{
									"name": "payer",
									"type": "address",
									"internalType": "address"
								},
								{
									"name": "amount",
									"type": "tuple",
									"internalType": "struct JBTokenAmount",
									"components": [
										{
											"name": "token",
											"type": "address",
											"internalType": "address"
										},
										{
											"name": "value",
											"type": "uint256",
											"internalType": "uint256"
										},
										{
											"name": "decimals",
											"type": "uint256",
											"internalType": "uint256"
										},
										{
											"name": "currency",
											"type": "uint256",
											"internalType": "uint256"
										}
									]
								},
								{
									"name": "projectId",
									"type": "uint256",
									"internalType": "uint256"
								},
								{
									"name": "rulesetId",
									"type": "uint256",
									"internalType": "uint256"
								},
								{
									"name": "beneficiary",
									"type": "address",
									"internalType": "address"
								},
								{
									"name": "weight",
									"type": "uint256",
									"internalType": "uint256"
								},
								{
									"name": "reservedRate",
									"type": "uint256",
									"internalType": "uint256"
								},
								{
									"name": "metadata",
									"type": "bytes",
									"internalType": "bytes"
								}
							]
						}
					],
					"outputs": [
						{
							"name": "weight",
							"type": "uint256",
							"internalType": "uint256"
						},
						{
							"name": "hookSpecifications",
							"type": "tuple[]",
							"internalType": "struct JBPayHookSpecification[]",
							"components": [
								{
									"name": "hook",
									"type": "address",
									"internalType": "contract IJBPayHook"
								},
								{
									"name": "amount",
									"type": "uint256",
									"internalType": "uint256"
								},
								{
									"name": "metadata",
									"type": "bytes",
									"internalType": "bytes"
								}
							]
						}
					],
					"stateMutability": "view"
				},
				{
					"type": "function",
					"name": "beforeRedeemRecordedWith",
					"inputs": [
						{
							"name": "context",
							"type": "tuple",
							"internalType": "struct JBBeforeRedeemRecordedContext",
							"components": [
								{
									"name": "terminal",
									"type": "address",
									"internalType": "address"
								},
								{
									"name": "holder",
									"type": "address",
									"internalType": "address"
								},
								{
									"name": "projectId",
									"type": "uint256",
									"internalType": "uint256"
								},
								{
									"name": "rulesetId",
									"type": "uint256",
									"internalType": "uint256"
								},
								{
									"name": "redeemCount",
									"type": "uint256",
									"internalType": "uint256"
								},
								{
									"name": "totalSupply",
									"type": "uint256",
									"internalType": "uint256"
								},
								{
									"name": "surplus",
									"type": "tuple",
									"internalType": "struct JBTokenAmount",
									"components": [
										{
											"name": "token",
											"type": "address",
											"internalType": "address"
										},
										{
											"name": "value",
											"type": "uint256",
											"internalType": "uint256"
										},
										{
											"name": "decimals",
											"type": "uint256",
											"internalType": "uint256"
										},
										{
											"name": "currency",
											"type": "uint256",
											"internalType": "uint256"
										}
									]
								},
								{
									"name": "useTotalSurplus",
									"type": "bool",
									"internalType": "bool"
								},
								{
									"name": "redemptionRate",
									"type": "uint256",
									"internalType": "uint256"
								},
								{
									"name": "metadata",
									"type": "bytes",
									"internalType": "bytes"
								}
							]
						}
					],
					"outputs": [
						{
							"name": "",
							"type": "uint256",
							"internalType": "uint256"
						},
						{
							"name": "",
							"type": "uint256",
							"internalType": "uint256"
						},
						{
							"name": "",
							"type": "uint256",
							"internalType": "uint256"
						},
						{
							"name": "hookSpecifications",
							"type": "tuple[]",
							"internalType": "struct JBRedeemHookSpecification[]",
							"components": [
								{
									"name": "hook",
									"type": "address",
									"internalType": "contract IJBRedeemHook"
								},
								{
									"name": "amount",
									"type": "uint256",
									"internalType": "uint256"
								},
								{
									"name": "metadata",
									"type": "bytes",
									"internalType": "bytes"
								}
							]
						}
					],
					"stateMutability": "pure"
				},
				{
					"type": "function",
					"name": "hasMintPermissionFor",
					"inputs": [
						{
							"name": "",
							"type": "uint256",
							"internalType": "uint256"
						},
						{
							"name": "",
							"type": "address",
							"internalType": "address"
						}
					],
					"outputs": [
						{
							"name": "",
							"type": "bool",
							"internalType": "bool"
						}
					],
					"stateMutability": "pure"
				},
				{
					"type": "function",
					"name": "poolOf",
					"inputs": [
						{
							"name": "projectId",
							"type": "uint256",
							"internalType": "uint256"
						},
						{
							"name": "terminalToken",
							"type": "address",
							"internalType": "address"
						}
					],
					"outputs": [
						{
							"name": "",
							"type": "address",
							"internalType": "contract IUniswapV3Pool"
						}
					],
					"stateMutability": "view"
				},
				{
					"type": "function",
					"name": "projectTokenOf",
					"inputs": [
						{
							"name": "projectId",
							"type": "uint256",
							"internalType": "uint256"
						}
					],
					"outputs": [
						{
							"name": "",
							"type": "address",
							"internalType": "address"
						}
					],
					"stateMutability": "view"
				},
				{
					"type": "function",
					"name": "setPoolFor",
					"inputs": [
						{
							"name": "projectId",
							"type": "uint256",
							"internalType": "uint256"
						},
						{
							"name": "fee",
							"type": "uint24",
							"internalType": "uint24"
						},
						{
							"name": "twapWindow",
							"type": "uint32",
							"internalType": "uint32"
						},
						{
							"name": "twapSlippageTolerance",
							"type": "uint256",
							"internalType": "uint256"
						},
						{
							"name": "terminalToken",
							"type": "address",
							"internalType": "address"
						}
					],
					"outputs": [
						{
							"name": "newPool",
							"type": "address",
							"internalType": "contract IUniswapV3Pool"
						}
					],
					"stateMutability": "nonpayable"
				},
				{
					"type": "function",
					"name": "setTwapSlippageToleranceOf",
					"inputs": [
						{
							"name": "projectId",
							"type": "uint256",
							"internalType": "uint256"
						},
						{
							"name": "newSlippageTolerance",
							"type": "uint256",
							"internalType": "uint256"
						}
					],
					"outputs": [],
					"stateMutability": "nonpayable"
				},
				{
					"type": "function",
					"name": "setTwapWindowOf",
					"inputs": [
						{
							"name": "projectId",
							"type": "uint256",
							"internalType": "uint256"
						},
						{
							"name": "newWindow",
							"type": "uint32",
							"internalType": "uint32"
						}
					],
					"outputs": [],
					"stateMutability": "nonpayable"
				},
				{
					"type": "function",
					"name": "supportsInterface",
					"inputs": [
						{
							"name": "interfaceId",
							"type": "bytes4",
							"internalType": "bytes4"
						}
					],
					"outputs": [
						{
							"name": "",
							"type": "bool",
							"internalType": "bool"
						}
					],
					"stateMutability": "pure"
				},
				{
					"type": "function",
					"name": "twapSlippageToleranceOf",
					"inputs": [
						{
							"name": "projectId",
							"type": "uint256",
							"internalType": "uint256"
						}
					],
					"outputs": [
						{
							"name": "",
							"type": "uint256",
							"internalType": "uint256"
						}
					],
					"stateMutability": "view"
				},
				{
					"type": "function",
					"name": "twapWindowOf",
					"inputs": [
						{
							"name": "projectId",
							"type": "uint256",
							"internalType": "uint256"
						}
					],
					"outputs": [
						{
							"name": "",
							"type": "uint32",
							"internalType": "uint32"
						}
					],
					"stateMutability": "view"
				},
				{
					"type": "function",
					"name": "uniswapV3SwapCallback",
					"inputs": [
						{
							"name": "amount0Delta",
							"type": "int256",
							"internalType": "int256"
						},
						{
							"name": "amount1Delta",
							"type": "int256",
							"internalType": "int256"
						},
						{
							"name": "data",
							"type": "bytes",
							"internalType": "bytes"
						}
					],
					"outputs": [],
					"stateMutability": "nonpayable"
				},
				{
					"type": "event",
					"name": "Mint",
					"inputs": [
						{
							"name": "projectId",
							"type": "uint256",
							"indexed": true,
							"internalType": "uint256"
						},
						{
							"name": "amountIn",
							"type": "uint256",
							"indexed": false,
							"internalType": "uint256"
						},
						{
							"name": "tokenCount",
							"type": "uint256",
							"indexed": false,
							"internalType": "uint256"
						},
						{
							"name": "caller",
							"type": "address",
							"indexed": false,
							"internalType": "address"
						}
					],
					"anonymous": false
				},
				{
					"type": "event",
					"name": "PoolAdded",
					"inputs": [
						{
							"name": "projectId",
							"type": "uint256",
							"indexed": true,
							"internalType": "uint256"
						},
						{
							"name": "terminalToken",
							"type": "address",
							"indexed": true,
							"internalType": "address"
						},
						{
							"name": "newPool",
							"type": "address",
							"indexed": false,
							"internalType": "address"
						},
						{
							"name": "caller",
							"type": "address",
							"indexed": false,
							"internalType": "address"
						}
					],
					"anonymous": false
				},
				{
					"type": "event",
					"name": "Swap",
					"inputs": [
						{
							"name": "projectId",
							"type": "uint256",
							"indexed": true,
							"internalType": "uint256"
						},
						{
							"name": "amountIn",
							"type": "uint256",
							"indexed": false,
							"internalType": "uint256"
						},
						{
							"name": "pool",
							"type": "address",
							"indexed": false,
							"internalType": "contract IUniswapV3Pool"
						},
						{
							"name": "amountOut",
							"type": "uint256",
							"indexed": false,
							"internalType": "uint256"
						},
						{
							"name": "caller",
							"type": "address",
							"indexed": false,
							"internalType": "address"
						}
					],
					"anonymous": false
				},
				{
					"type": "event",
					"name": "TwapSlippageToleranceChanged",
					"inputs": [
						{
							"name": "projectId",
							"type": "uint256",
							"indexed": true,
							"internalType": "uint256"
						},
						{
							"name": "oldTwapTolerance",
							"type": "uint256",
							"indexed": false,
							"internalType": "uint256"
						},
						{
							"name": "newTwapTolerance",
							"type": "uint256",
							"indexed": false,
							"internalType": "uint256"
						},
						{
							"name": "caller",
							"type": "address",
							"indexed": false,
							"internalType": "address"
						}
					],
					"anonymous": false
				},
				{
					"type": "event",
					"name": "TwapWindowChanged",
					"inputs": [
						{
							"name": "projectId",
							"type": "uint256",
							"indexed": true,
							"internalType": "uint256"
						},
						{
							"name": "oldSecondsAgo",
							"type": "uint256",
							"indexed": false,
							"internalType": "uint256"
						},
						{
							"name": "newSecondsAgo",
							"type": "uint256",
							"indexed": false,
							"internalType": "uint256"
						},
						{
							"name": "caller",
							"type": "address",
							"indexed": false,
							"internalType": "address"
						}
					],
					"anonymous": false
				},
				{
					"type": "error",
					"name": "InsufficientPayAmount",
					"inputs": []
				},
				{
					"type": "error",
					"name": "InvalidTwapSlippageTolerance",
					"inputs": []
				},
				{
					"type": "error",
					"name": "InvalidTwapWindow",
					"inputs": []
				},
				{
					"type": "error",
					"name": "NoProjectToken",
					"inputs": []
				},
				{
					"type": "error",
					"name": "PRBMath_MulDiv_Overflow",
					"inputs": [
						{
							"name": "x",
							"type": "uint256",
							"internalType": "uint256"
						},
						{
							"name": "y",
							"type": "uint256",
							"internalType": "uint256"
						},
						{
							"name": "denominator",
							"type": "uint256",
							"internalType": "uint256"
						}
					]
				},
				{
					"type": "error",
					"name": "PoolAlreadySet",
					"inputs": []
				},
				{
					"type": "error",
					"name": "SpecifiedSlippageExceeded",
					"inputs": []
				},
				{
					"type": "error",
					"name": "T",
					"inputs": []
				},
				{
					"type": "error",
					"name": "UNAUTHORIZED",
					"inputs": []
				},
				{
					"type": "error",
					"name": "Unauthorized",
					"inputs": []
				}
			],
			"solcInputHash": "7914b380c586b8a4fe50355cd6727dde",
			"receipt": {
				"blockHash": "0xe73b22c4c04adb9c0e1aceb2da68c3eca2b2ccc4a5a5ec0f21029c92985e3952",
				"blockNumber": 8986480,
				"contractAddress": null,
				"cumulativeGasUsed": "4930646",
				"from": "0xC034550B542b83BA1De312b21d1C94a9a52B1595",
				"gasPrice": "1000283",
				"gasUsed": "3559639",
				"hash": "0x791ea067dc229661b40805ce508e80168e36bb0c8d4d7f2298358a3151f9d5dc",
				"index": 8,
				"logs": [
					{
						"address": "0xB5E96127D417b1B3ef8438496a38A143167209c7",
						"blockHash": "0xe73b22c4c04adb9c0e1aceb2da68c3eca2b2ccc4a5a5ec0f21029c92985e3952",
						"blockNumber": 8986480,
						"data": "0x0000000000000000000000000000000000000000000000000000000000000000",
						"index": 2,
						"topics": [
							"0x572f161235911da04685a68c06adf558fc7e4a36909dca394650e0adc19cc93d",
							"0x000000000000000000000000c034550b542b83ba1de312b21d1c94a9a52b1595",
							"0x0000000000000000000000006fa5395f5144a88bb485a026dbac70b5766135b1",
							"0x3a71f1172b4f9a17f4bceed0ee97ac7eab8031501a6544e2af7ec3773fe91ea0"
						],
						"transactionHash": "0x791ea067dc229661b40805ce508e80168e36bb0c8d4d7f2298358a3151f9d5dc",
						"transactionIndex": 8
					},
					{
						"address": "0xF0d0808406567F2b2F26Ef5eD83E40f28116f228",
						"blockHash": "0xe73b22c4c04adb9c0e1aceb2da68c3eca2b2ccc4a5a5ec0f21029c92985e3952",
						"blockNumber": 8986480,
						"data": "0x",
						"index": 3,
						"topics": [
							"0x6895c13664aa4f67288b25d7a21d7aaa34916e355fb9b6fae0a139a9085becb8",
							"0x0000000000000000000000006fa5395f5144a88bb485a026dbac70b5766135b1"
						],
						"transactionHash": "0x791ea067dc229661b40805ce508e80168e36bb0c8d4d7f2298358a3151f9d5dc",
						"transactionIndex": 8
					},
					{
						"address": "0x6Fa5395f5144A88BB485A026dBac70B5766135b1",
						"blockHash": "0xe73b22c4c04adb9c0e1aceb2da68c3eca2b2ccc4a5a5ec0f21029c92985e3952",
						"blockNumber": 8986480,
						"data": "0x0000000000000000000000000000000000000000000000000000000000000001",
						"index": 4,
						"topics": [
							"0xa65fb05c5808f5f389d72edeaf719ce38f4cc55c1f69ca3cbfb31c21501caa07",
							"0x13c7f8224a201fca88f92179e198e678f46f1925ad89091a5b7f682aacd9334a"
						],
						"transactionHash": "0x791ea067dc229661b40805ce508e80168e36bb0c8d4d7f2298358a3151f9d5dc",
						"transactionIndex": 8
					},
					{
						"address": "0x6Fa5395f5144A88BB485A026dBac70B5766135b1",
						"blockHash": "0xe73b22c4c04adb9c0e1aceb2da68c3eca2b2ccc4a5a5ec0f21029c92985e3952",
						"blockNumber": 8986480,
						"data": "0x",
						"index": 5,
						"topics": [
							"0x4383d976757d67ca920616be0b6430a681ea9d3dcce8d6d61d4603ca4a9bff63",
							"0x13c7f8224a201fca88f92179e198e678f46f1925ad89091a5b7f682aacd9334a"
						],
						"transactionHash": "0x791ea067dc229661b40805ce508e80168e36bb0c8d4d7f2298358a3151f9d5dc",
						"transactionIndex": 8
					}
				],
				"logsBloom": "0x0000000008001000000000000008000000000000000a000000000000004000000000080000000000000000000040800000000000000000000000000080000000000000020000200000000000000000000000000000000000000000000000000000000000000000000000000000000000000000000000000000000000000000000000000000000000000110000000000000000800010000000000000000000000004000800010008000000000000000020200000800000000000000020044000000400000000000000000000008000000000000000000008000001000000000000000000000000008000000000000000200000000000000000000000008000000",
				"status": 1,
				"to": "0xB5E96127D417b1B3ef8438496a38A143167209c7"
			},
			"metadata": "{\"compiler\":{\"version\":\"0.8.23+commit.f704f362\"},\"language\":\"Solidity\",\"output\":{\"abi\":[{\"inputs\":[{\"internalType\":\"contract IWETH9\",\"name\":\"weth\",\"type\":\"address\"},{\"internalType\":\"address\",\"name\":\"factory\",\"type\":\"address\"},{\"internalType\":\"contract IJBDirectory\",\"name\":\"directory\",\"type\":\"address\"},{\"internalType\":\"contract IJBController\",\"name\":\"controller\",\"type\":\"address\"}],\"stateMutability\":\"nonpayable\",\"type\":\"constructor\"},{\"inputs\":[],\"type\":\"error\",\"name\":\"InsufficientPayAmount\"},{\"inputs\":[],\"type\":\"error\",\"name\":\"InvalidTwapSlippageTolerance\"},{\"inputs\":[],\"type\":\"error\",\"name\":\"InvalidTwapWindow\"},{\"inputs\":[],\"type\":\"error\",\"name\":\"NoProjectToken\"},{\"inputs\":[{\"internalType\":\"uint256\",\"name\":\"x\",\"type\":\"uint256\"},{\"internalType\":\"uint256\",\"name\":\"y\",\"type\":\"uint256\"},{\"internalType\":\"uint256\",\"name\":\"denominator\",\"type\":\"uint256\"}],\"type\":\"error\",\"name\":\"PRBMath_MulDiv_Overflow\"},{\"inputs\":[],\"type\":\"error\",\"name\":\"PoolAlreadySet\"},{\"inputs\":[],\"type\":\"error\",\"name\":\"SpecifiedSlippageExceeded\"},{\"inputs\":[],\"type\":\"error\",\"name\":\"T\"},{\"inputs\":[],\"type\":\"error\",\"name\":\"UNAUTHORIZED\"},{\"inputs\":[],\"type\":\"error\",\"name\":\"Unauthorized\"},{\"inputs\":[{\"internalType\":\"uint256\",\"name\":\"projectId\",\"type\":\"uint256\",\"indexed\":true},{\"internalType\":\"uint256\",\"name\":\"amountIn\",\"type\":\"uint256\",\"indexed\":false},{\"internalType\":\"uint256\",\"name\":\"tokenCount\",\"type\":\"uint256\",\"indexed\":false},{\"internalType\":\"address\",\"name\":\"caller\",\"type\":\"address\",\"indexed\":false}],\"type\":\"event\",\"name\":\"Mint\",\"anonymous\":false},{\"inputs\":[{\"internalType\":\"uint256\",\"name\":\"projectId\",\"type\":\"uint256\",\"indexed\":true},{\"internalType\":\"address\",\"name\":\"terminalToken\",\"type\":\"address\",\"indexed\":true},{\"internalType\":\"address\",\"name\":\"newPool\",\"type\":\"address\",\"indexed\":false},{\"internalType\":\"address\",\"name\":\"caller\",\"type\":\"address\",\"indexed\":false}],\"type\":\"event\",\"name\":\"PoolAdded\",\"anonymous\":false},{\"inputs\":[{\"internalType\":\"uint256\",\"name\":\"projectId\",\"type\":\"uint256\",\"indexed\":true},{\"internalType\":\"uint256\",\"name\":\"amountIn\",\"type\":\"uint256\",\"indexed\":false},{\"internalType\":\"contract IUniswapV3Pool\",\"name\":\"pool\",\"type\":\"address\",\"indexed\":false},{\"internalType\":\"uint256\",\"name\":\"amountOut\",\"type\":\"uint256\",\"indexed\":false},{\"internalType\":\"address\",\"name\":\"caller\",\"type\":\"address\",\"indexed\":false}],\"type\":\"event\",\"name\":\"Swap\",\"anonymous\":false},{\"inputs\":[{\"internalType\":\"uint256\",\"name\":\"projectId\",\"type\":\"uint256\",\"indexed\":true},{\"internalType\":\"uint256\",\"name\":\"oldTwapTolerance\",\"type\":\"uint256\",\"indexed\":false},{\"internalType\":\"uint256\",\"name\":\"newTwapTolerance\",\"type\":\"uint256\",\"indexed\":false},{\"internalType\":\"address\",\"name\":\"caller\",\"type\":\"address\",\"indexed\":false}],\"type\":\"event\",\"name\":\"TwapSlippageToleranceChanged\",\"anonymous\":false},{\"inputs\":[{\"internalType\":\"uint256\",\"name\":\"projectId\",\"type\":\"uint256\",\"indexed\":true},{\"internalType\":\"uint256\",\"name\":\"oldSecondsAgo\",\"type\":\"uint256\",\"indexed\":false},{\"internalType\":\"uint256\",\"name\":\"newSecondsAgo\",\"type\":\"uint256\",\"indexed\":false},{\"internalType\":\"address\",\"name\":\"caller\",\"type\":\"address\",\"indexed\":false}],\"type\":\"event\",\"name\":\"TwapWindowChanged\",\"anonymous\":false},{\"inputs\":[],\"stateMutability\":\"view\",\"type\":\"function\",\"name\":\"CONTROLLER\",\"outputs\":[{\"internalType\":\"contract IJBController\",\"name\":\"\",\"type\":\"address\"}]},{\"inputs\":[],\"stateMutability\":\"view\",\"type\":\"function\",\"name\":\"DIRECTORY\",\"outputs\":[{\"internalType\":\"contract IJBDirectory\",\"name\":\"\",\"type\":\"address\"}]},{\"inputs\":[],\"stateMutability\":\"view\",\"type\":\"function\",\"name\":\"MAX_TWAP_SLIPPAGE_TOLERANCE\",\"outputs\":[{\"internalType\":\"uint256\",\"name\":\"\",\"type\":\"uint256\"}]},{\"inputs\":[],\"stateMutability\":\"view\",\"type\":\"function\",\"name\":\"MAX_TWAP_WINDOW\",\"outputs\":[{\"internalType\":\"uint256\",\"name\":\"\",\"type\":\"uint256\"}]},{\"inputs\":[],\"stateMutability\":\"view\",\"type\":\"function\",\"name\":\"MIN_TWAP_SLIPPAGE_TOLERANCE\",\"outputs\":[{\"internalType\":\"uint256\",\"name\":\"\",\"type\":\"uint256\"}]},{\"inputs\":[],\"stateMutability\":\"view\",\"type\":\"function\",\"name\":\"MIN_TWAP_WINDOW\",\"outputs\":[{\"internalType\":\"uint256\",\"name\":\"\",\"type\":\"uint256\"}]},{\"inputs\":[],\"stateMutability\":\"view\",\"type\":\"function\",\"name\":\"PERMISSIONS\",\"outputs\":[{\"internalType\":\"contract IJBPermissions\",\"name\":\"\",\"type\":\"address\"}]},{\"inputs\":[],\"stateMutability\":\"view\",\"type\":\"function\",\"name\":\"PROJECTS\",\"outputs\":[{\"internalType\":\"contract IJBProjects\",\"name\":\"\",\"type\":\"address\"}]},{\"inputs\":[],\"stateMutability\":\"view\",\"type\":\"function\",\"name\":\"TWAP_SLIPPAGE_DENOMINATOR\",\"outputs\":[{\"internalType\":\"uint256\",\"name\":\"\",\"type\":\"uint256\"}]},{\"inputs\":[],\"stateMutability\":\"view\",\"type\":\"function\",\"name\":\"UNISWAP_V3_FACTORY\",\"outputs\":[{\"internalType\":\"address\",\"name\":\"\",\"type\":\"address\"}]},{\"inputs\":[],\"stateMutability\":\"view\",\"type\":\"function\",\"name\":\"WETH\",\"outputs\":[{\"internalType\":\"contract IWETH9\",\"name\":\"\",\"type\":\"address\"}]},{\"inputs\":[{\"internalType\":\"struct JBAfterPayRecordedContext\",\"name\":\"context\",\"type\":\"tuple\",\"components\":[{\"internalType\":\"address\",\"name\":\"payer\",\"type\":\"address\"},{\"internalType\":\"uint256\",\"name\":\"projectId\",\"type\":\"uint256\"},{\"internalType\":\"uint256\",\"name\":\"rulesetId\",\"type\":\"uint256\"},{\"internalType\":\"struct JBTokenAmount\",\"name\":\"amount\",\"type\":\"tuple\",\"components\":[{\"internalType\":\"address\",\"name\":\"token\",\"type\":\"address\"},{\"internalType\":\"uint256\",\"name\":\"value\",\"type\":\"uint256\"},{\"internalType\":\"uint256\",\"name\":\"decimals\",\"type\":\"uint256\"},{\"internalType\":\"uint256\",\"name\":\"currency\",\"type\":\"uint256\"}]},{\"internalType\":\"struct JBTokenAmount\",\"name\":\"forwardedAmount\",\"type\":\"tuple\",\"components\":[{\"internalType\":\"address\",\"name\":\"token\",\"type\":\"address\"},{\"internalType\":\"uint256\",\"name\":\"value\",\"type\":\"uint256\"},{\"internalType\":\"uint256\",\"name\":\"decimals\",\"type\":\"uint256\"},{\"internalType\":\"uint256\",\"name\":\"currency\",\"type\":\"uint256\"}]},{\"internalType\":\"uint256\",\"name\":\"weight\",\"type\":\"uint256\"},{\"internalType\":\"uint256\",\"name\":\"projectTokenCount\",\"type\":\"uint256\"},{\"internalType\":\"address\",\"name\":\"beneficiary\",\"type\":\"address\"},{\"internalType\":\"bytes\",\"name\":\"hookMetadata\",\"type\":\"bytes\"},{\"internalType\":\"bytes\",\"name\":\"payerMetadata\",\"type\":\"bytes\"}]}],\"stateMutability\":\"payable\",\"type\":\"function\",\"name\":\"afterPayRecordedWith\"},{\"inputs\":[{\"internalType\":\"struct JBBeforePayRecordedContext\",\"name\":\"context\",\"type\":\"tuple\",\"components\":[{\"internalType\":\"address\",\"name\":\"terminal\",\"type\":\"address\"},{\"internalType\":\"address\",\"name\":\"payer\",\"type\":\"address\"},{\"internalType\":\"struct JBTokenAmount\",\"name\":\"amount\",\"type\":\"tuple\",\"components\":[{\"internalType\":\"address\",\"name\":\"token\",\"type\":\"address\"},{\"internalType\":\"uint256\",\"name\":\"value\",\"type\":\"uint256\"},{\"internalType\":\"uint256\",\"name\":\"decimals\",\"type\":\"uint256\"},{\"internalType\":\"uint256\",\"name\":\"currency\",\"type\":\"uint256\"}]},{\"internalType\":\"uint256\",\"name\":\"projectId\",\"type\":\"uint256\"},{\"internalType\":\"uint256\",\"name\":\"rulesetId\",\"type\":\"uint256\"},{\"internalType\":\"address\",\"name\":\"beneficiary\",\"type\":\"address\"},{\"internalType\":\"uint256\",\"name\":\"weight\",\"type\":\"uint256\"},{\"internalType\":\"uint256\",\"name\":\"reservedRate\",\"type\":\"uint256\"},{\"internalType\":\"bytes\",\"name\":\"metadata\",\"type\":\"bytes\"}]}],\"stateMutability\":\"view\",\"type\":\"function\",\"name\":\"beforePayRecordedWith\",\"outputs\":[{\"internalType\":\"uint256\",\"name\":\"weight\",\"type\":\"uint256\"},{\"internalType\":\"struct JBPayHookSpecification[]\",\"name\":\"hookSpecifications\",\"type\":\"tuple[]\",\"components\":[{\"internalType\":\"contract IJBPayHook\",\"name\":\"hook\",\"type\":\"address\"},{\"internalType\":\"uint256\",\"name\":\"amount\",\"type\":\"uint256\"},{\"internalType\":\"bytes\",\"name\":\"metadata\",\"type\":\"bytes\"}]}]},{\"inputs\":[{\"internalType\":\"struct JBBeforeRedeemRecordedContext\",\"name\":\"context\",\"type\":\"tuple\",\"components\":[{\"internalType\":\"address\",\"name\":\"terminal\",\"type\":\"address\"},{\"internalType\":\"address\",\"name\":\"holder\",\"type\":\"address\"},{\"internalType\":\"uint256\",\"name\":\"projectId\",\"type\":\"uint256\"},{\"internalType\":\"uint256\",\"name\":\"rulesetId\",\"type\":\"uint256\"},{\"internalType\":\"uint256\",\"name\":\"redeemCount\",\"type\":\"uint256\"},{\"internalType\":\"uint256\",\"name\":\"totalSupply\",\"type\":\"uint256\"},{\"internalType\":\"struct JBTokenAmount\",\"name\":\"surplus\",\"type\":\"tuple\",\"components\":[{\"internalType\":\"address\",\"name\":\"token\",\"type\":\"address\"},{\"internalType\":\"uint256\",\"name\":\"value\",\"type\":\"uint256\"},{\"internalType\":\"uint256\",\"name\":\"decimals\",\"type\":\"uint256\"},{\"internalType\":\"uint256\",\"name\":\"currency\",\"type\":\"uint256\"}]},{\"internalType\":\"bool\",\"name\":\"useTotalSurplus\",\"type\":\"bool\"},{\"internalType\":\"uint256\",\"name\":\"redemptionRate\",\"type\":\"uint256\"},{\"internalType\":\"bytes\",\"name\":\"metadata\",\"type\":\"bytes\"}]}],\"stateMutability\":\"pure\",\"type\":\"function\",\"name\":\"beforeRedeemRecordedWith\",\"outputs\":[{\"internalType\":\"uint256\",\"name\":\"\",\"type\":\"uint256\"},{\"internalType\":\"uint256\",\"name\":\"\",\"type\":\"uint256\"},{\"internalType\":\"uint256\",\"name\":\"\",\"type\":\"uint256\"},{\"internalType\":\"struct JBRedeemHookSpecification[]\",\"name\":\"hookSpecifications\",\"type\":\"tuple[]\",\"components\":[{\"internalType\":\"contract IJBRedeemHook\",\"name\":\"hook\",\"type\":\"address\"},{\"internalType\":\"uint256\",\"name\":\"amount\",\"type\":\"uint256\"},{\"internalType\":\"bytes\",\"name\":\"metadata\",\"type\":\"bytes\"}]}]},{\"inputs\":[{\"internalType\":\"uint256\",\"name\":\"\",\"type\":\"uint256\"},{\"internalType\":\"address\",\"name\":\"\",\"type\":\"address\"}],\"stateMutability\":\"pure\",\"type\":\"function\",\"name\":\"hasMintPermissionFor\",\"outputs\":[{\"internalType\":\"bool\",\"name\":\"\",\"type\":\"bool\"}]},{\"inputs\":[{\"internalType\":\"uint256\",\"name\":\"projectId\",\"type\":\"uint256\"},{\"internalType\":\"address\",\"name\":\"terminalToken\",\"type\":\"address\"}],\"stateMutability\":\"view\",\"type\":\"function\",\"name\":\"poolOf\",\"outputs\":[{\"internalType\":\"contract IUniswapV3Pool\",\"name\":\"\",\"type\":\"address\"}]},{\"inputs\":[{\"internalType\":\"uint256\",\"name\":\"projectId\",\"type\":\"uint256\"}],\"stateMutability\":\"view\",\"type\":\"function\",\"name\":\"projectTokenOf\",\"outputs\":[{\"internalType\":\"address\",\"name\":\"\",\"type\":\"address\"}]},{\"inputs\":[{\"internalType\":\"uint256\",\"name\":\"projectId\",\"type\":\"uint256\"},{\"internalType\":\"uint24\",\"name\":\"fee\",\"type\":\"uint24\"},{\"internalType\":\"uint32\",\"name\":\"twapWindow\",\"type\":\"uint32\"},{\"internalType\":\"uint256\",\"name\":\"twapSlippageTolerance\",\"type\":\"uint256\"},{\"internalType\":\"address\",\"name\":\"terminalToken\",\"type\":\"address\"}],\"stateMutability\":\"nonpayable\",\"type\":\"function\",\"name\":\"setPoolFor\",\"outputs\":[{\"internalType\":\"contract IUniswapV3Pool\",\"name\":\"newPool\",\"type\":\"address\"}]},{\"inputs\":[{\"internalType\":\"uint256\",\"name\":\"projectId\",\"type\":\"uint256\"},{\"internalType\":\"uint256\",\"name\":\"newSlippageTolerance\",\"type\":\"uint256\"}],\"stateMutability\":\"nonpayable\",\"type\":\"function\",\"name\":\"setTwapSlippageToleranceOf\"},{\"inputs\":[{\"internalType\":\"uint256\",\"name\":\"projectId\",\"type\":\"uint256\"},{\"internalType\":\"uint32\",\"name\":\"newWindow\",\"type\":\"uint32\"}],\"stateMutability\":\"nonpayable\",\"type\":\"function\",\"name\":\"setTwapWindowOf\"},{\"inputs\":[{\"internalType\":\"bytes4\",\"name\":\"interfaceId\",\"type\":\"bytes4\"}],\"stateMutability\":\"pure\",\"type\":\"function\",\"name\":\"supportsInterface\",\"outputs\":[{\"internalType\":\"bool\",\"name\":\"\",\"type\":\"bool\"}]},{\"inputs\":[{\"internalType\":\"uint256\",\"name\":\"projectId\",\"type\":\"uint256\"}],\"stateMutability\":\"view\",\"type\":\"function\",\"name\":\"twapSlippageToleranceOf\",\"outputs\":[{\"internalType\":\"uint256\",\"name\":\"\",\"type\":\"uint256\"}]},{\"inputs\":[{\"internalType\":\"uint256\",\"name\":\"projectId\",\"type\":\"uint256\"}],\"stateMutability\":\"view\",\"type\":\"function\",\"name\":\"twapWindowOf\",\"outputs\":[{\"internalType\":\"uint32\",\"name\":\"\",\"type\":\"uint32\"}]},{\"inputs\":[{\"internalType\":\"int256\",\"name\":\"amount0Delta\",\"type\":\"int256\"},{\"internalType\":\"int256\",\"name\":\"amount1Delta\",\"type\":\"int256\"},{\"internalType\":\"bytes\",\"name\":\"data\",\"type\":\"bytes\"}],\"stateMutability\":\"nonpayable\",\"type\":\"function\",\"name\":\"uniswapV3SwapCallback\"}],\"devdoc\":{\"kind\":\"dev\",\"methods\":{\"afterPayRecordedWith((address,uint256,uint256,(address,uint256,uint256,uint256),(address,uint256,uint256,uint256),uint256,uint256,address,bytes,bytes))\":{\"details\":\"This function is only called if the minimum return from the swap exceeds the return from minting by paying the project. If the swap reverts (due to slippage, insufficient liquidity, or something else), then the hook mints the number of tokens which a payment to the project would have minted.\",\"params\":{\"context\":\"The pay context passed in by the terminal.\"}},\"beforePayRecordedWith((address,address,(address,uint256,uint256,uint256),uint256,uint256,address,uint256,uint256,bytes))\":{\"params\":{\"context\":\"Payment context passed to the data hook by `terminalStore.recordPaymentFrom(...)`. `context.metadata` can specify a Uniswap quote and specify how much of the payment should be used to swap. If `context.metadata` does not specify a quote, one will be calculated based on the TWAP. If `context.metadata` does not specify how much of the payment should be used, the hook uses the full amount paid in.\"},\"returns\":{\"hookSpecifications\":\"Specifications containing pay hooks, as well as the amount and metadata to send to them. Fulfilled by the terminal. If tokens are only being minted, `hookSpecifications` will be empty.\",\"weight\":\"The weight to use. If tokens are being minted from the project, this is the original weight. If tokens are being bought from the pool, the weight is 0. If tokens are being minted AND bought from the pool, this weight is adjusted to take both into account.\"}},\"beforeRedeemRecordedWith((address,address,uint256,uint256,uint256,uint256,(address,uint256,uint256,uint256),bool,uint256,bytes))\":{\"details\":\"Pass redeem context back to the terminal without changes.\",\"params\":{\"context\":\"The redeem context passed in by the terminal.\"}},\"constructor\":{\"params\":{\"controller\":\"The controller used to mint and burn tokens.\",\"directory\":\"The directory of terminals and controllers.\",\"factory\":\"The address of the Uniswap v3 factory. Used to calculate pool addresses.\",\"weth\":\"The WETH contract.\"}},\"setPoolFor(uint256,uint24,uint32,uint256,address)\":{\"details\":\"Uses create2 for callback auth and to allow adding pools which haven't been deployed yet. This can be called by the project's owner or an address which has the `JBPermissionIds.CHANGE_BUYBACK_POOL` permission from the owner.\",\"params\":{\"fee\":\"The fee used in the pool being set, as a fixed-point number of basis points with 2 decimals. A 0.01% fee is `100`, a 0.05% fee is `500`, a 0.3% fee is `3000`, and a 1% fee is `10000`.\",\"projectId\":\"The ID of the project to set the pool for.\",\"terminalToken\":\"The address of the terminal token that payments to the project are made in.\",\"twapSlippageTolerance\":\"The maximum spread allowed between the amount received and the TWAP.\",\"twapWindow\":\"The period of time over which the TWAP is computed.\"},\"returns\":{\"newPool\":\"The pool that was set for the project and terminal token.\"}},\"setTwapSlippageToleranceOf(uint256,uint256)\":{\"details\":\"This can be called by the project's owner or an address with `JBPermissionIds.SET_BUYBACK_TWAP` permission from the owner.\",\"params\":{\"newSlippageTolerance\":\"The new TWAP slippage tolerance, out of `TWAP_SLIPPAGE_DENOMINATOR`.\",\"projectId\":\"The ID of the project to set the TWAP slippage tolerance of.\"}},\"setTwapWindowOf(uint256,uint32)\":{\"details\":\"This can be called by the project's owner or an address with `JBPermissionIds.SET_BUYBACK_TWAP` permission from the owner.\",\"params\":{\"newWindow\":\"The new TWAP window.\",\"projectId\":\"The ID of the project to set the TWAP window of.\"}},\"supportsInterface(bytes4)\":{\"details\":\"Returns true if this contract implements the interface defined by `interfaceId`. See the corresponding https://eips.ethereum.org/EIPS/eip-165#how-interfaces-are-identified[EIP section] to learn more about how these ids are created. This function call must use less than 30 000 gas.\"},\"twapSlippageToleranceOf(uint256)\":{\"details\":\"The \\\"TWAP slippage tolerance\\\" is the maximum negative spread between the TWAP and the expected return from a swap. If the expected return unfavourably exceeds the TWAP slippage tolerance, the swap will revert.\",\"params\":{\"projectId\":\"The ID of the project which the TWAP slippage tolerance applies to.\"},\"returns\":{\"_0\":\"tolerance The maximum slippage allowed relative to the TWAP, as a percent out of `TWAP_SLIPPAGE_DENOMINATOR`.\"}},\"twapWindowOf(uint256)\":{\"details\":\"The \\\"TWAP window\\\" is the period over which the TWAP is computed.\",\"params\":{\"projectId\":\"The ID of the project which the TWAP window applies to.\"},\"returns\":{\"_0\":\"secondsAgo The TWAP window in seconds.\"}},\"uniswapV3SwapCallback(int256,int256,bytes)\":{\"params\":{\"amount0Delta\":\"The amount of token 0 being used for the swap.\",\"amount1Delta\":\"The amount of token 1 being used for the swap.\",\"data\":\"Data passed in by the swap operation.\"}}},\"version\":1},\"userdoc\":{\"kind\":\"user\",\"methods\":{\"CONTROLLER()\":{\"notice\":\"The controller used to mint and burn tokens.\"},\"DIRECTORY()\":{\"notice\":\"The directory of terminals and controllers.\"},\"MAX_TWAP_SLIPPAGE_TOLERANCE()\":{\"notice\":\"Projects cannot specify a TWAP slippage tolerance larger than this constant (out of `MAX_SLIPPAGE`).\"},\"MAX_TWAP_WINDOW()\":{\"notice\":\"Projects cannot specify a TWAP window longer than this constant.\"},\"MIN_TWAP_SLIPPAGE_TOLERANCE()\":{\"notice\":\"Projects cannot specify a TWAP slippage tolerance smaller than this constant (out of `MAX_SLIPPAGE`).\"},\"MIN_TWAP_WINDOW()\":{\"notice\":\"Projects cannot specify a TWAP window shorter than this constant.\"},\"PERMISSIONS()\":{\"notice\":\"A contract storing permissions.\"},\"PROJECTS()\":{\"notice\":\"The project registry.\"},\"TWAP_SLIPPAGE_DENOMINATOR()\":{\"notice\":\"The denominator used when calculating TWAP slippage percent values.\"},\"UNISWAP_V3_FACTORY()\":{\"notice\":\"The address of the Uniswap v3 factory. Used to calculate pool addresses.\"},\"WETH()\":{\"notice\":\"The wETH contract.\"},\"afterPayRecordedWith((address,uint256,uint256,(address,uint256,uint256,uint256),(address,uint256,uint256,uint256),uint256,uint256,address,bytes,bytes))\":{\"notice\":\"Swap the specified amount of terminal tokens for project tokens, using any leftover terminal tokens to mint from the project.\"},\"beforePayRecordedWith((address,address,(address,uint256,uint256,uint256),uint256,uint256,address,uint256,uint256,bytes))\":{\"notice\":\"The `IJBRulesetDataHook` implementation which determines whether tokens should be minted from the project or bought from the pool.\"},\"beforeRedeemRecordedWith((address,address,uint256,uint256,uint256,uint256,(address,uint256,uint256,uint256),bool,uint256,bytes))\":{\"notice\":\"To fulfill the `IJBRulesetDataHook` interface.\"},\"hasMintPermissionFor(uint256,address)\":{\"notice\":\"Required by the `IJBRulesetDataHook` interfaces. Return false to not leak any permissions.\"},\"poolOf(uint256,address)\":{\"notice\":\"The Uniswap pool where a given project's token and terminal token pair are traded.\"},\"projectTokenOf(uint256)\":{\"notice\":\"The address of each project's token.\"},\"setPoolFor(uint256,uint24,uint32,uint256,address)\":{\"notice\":\"Set the pool to use for a given project and terminal token (the default for the project's token <-> terminal token pair).\"},\"setTwapSlippageToleranceOf(uint256,uint256)\":{\"notice\":\"Set the TWAP slippage tolerance for a project. The TWAP slippage tolerance is the maximum spread allowed between the amount received and the TWAP.\"},\"setTwapWindowOf(uint256,uint32)\":{\"notice\":\"Change the TWAP window for a project. The TWAP window is the period of time over which the TWAP is computed.\"},\"twapSlippageToleranceOf(uint256)\":{\"notice\":\"Get the TWAP slippage tolerance for a given project ID.\"},\"twapWindowOf(uint256)\":{\"notice\":\"Get the TWAP window for a given project ID.\"},\"uniswapV3SwapCallback(int256,int256,bytes)\":{\"notice\":\"The Uniswap v3 pool callback where the token transfer is expected to happen.\"}},\"version\":1}},\"settings\":{\"remappings\":[\"@bananapus/=node_modules/@bananapus/\",\"@chainlink/=node_modules/@chainlink/\",\"@eth-optimism/=node_modules/@eth-optimism/\",\"@exhausted-pigeon/=node_modules/@exhausted-pigeon/\",\"@openzeppelin/=node_modules/@openzeppelin/\",\"@prb/=node_modules/@prb/\",\"@scroll-tech/=node_modules/@scroll-tech/\",\"@sphinx-labs/contracts/=node_modules/@sphinx-labs/contracts/contracts/foundry/\",\"@uniswap/=node_modules/@uniswap/\",\"base64-sol/=node_modules/base64-sol/\",\"ds-test/=lib/forge-std/lib/ds-test/src/\",\"forge-std/=lib/forge-std/src/\",\"hardhat/=node_modules/hardhat/\",\"solmate/=node_modules/solmate/\",\"sphinx/=lib/sphinx/packages/contracts/contracts/forge-std/src/\"],\"optimizer\":{\"enabled\":true,\"runs\":100000000},\"metadata\":{\"bytecodeHash\":\"ipfs\"},\"compilationTarget\":{\"src/JBBuybackHook.sol\":\"JBBuybackHook\"},\"evmVersion\":\"paris\",\"libraries\":{}},\"sources\":{\"node_modules/@bananapus/core/src/abstract/JBPermissioned.sol\":{\"keccak256\":\"0xe08c8a7eeac9d1c7c2e0db6d5b98d1af09889300835a3d47d9f29319fecce703\",\"urls\":[\"bzz-raw://42645cf52bcc45053ef650790916faed5d0a74cecef336b217433fdd2c5c4166\",\"dweb:/ipfs/QmdMmxG1tSGucQwz4LYbVnuj7HU23YvqLH6xfrNWv5Bmus\"],\"license\":\"MIT\"},\"node_modules/@bananapus/core/src/enums/JBApprovalStatus.sol\":{\"keccak256\":\"0x61c69b6bac7d24b566d87cda23a77e4ca9cdb87200b106aba8534cb9a0973e33\",\"urls\":[\"bzz-raw://6a9ca7249de76f77a8252eefe6bd1b63d47952f25a2acfa2c8db967cdff4470c\",\"dweb:/ipfs/QmaxSxptRQNj8bNy96EreENmrnRWdKmhyihBcxyWzBX5BN\"],\"license\":\"MIT\"},\"node_modules/@bananapus/core/src/interfaces/IJBController.sol\":{\"keccak256\":\"0xe0b84058192f89e461c4b604388aa11a2f92f0f9969fb70fb3c18706d6f3e16b\",\"urls\":[\"bzz-raw://984fdcff63a17ccab65ff7723a628967e40965fcb4d47909cf8e314e8f044576\",\"dweb:/ipfs/QmaaHZWuaaH3oYxCDrip1rr4u4H1XtR3RcwwKAE73GAqkd\"],\"license\":\"MIT\"},\"node_modules/@bananapus/core/src/interfaces/IJBDirectory.sol\":{\"keccak256\":\"0x9cc380844aef60078ee47a61861e55a29c4a8c947efd556ebd36e6909f7b9d62\",\"urls\":[\"bzz-raw://9f5190ec8b6683d9781ee6e9eedcc91294753242748875d4a06349077e4cbaaf\",\"dweb:/ipfs/QmTQrPuXT9TCA4txwrperMeXSGvGxP8iokUK47f62F388i\"],\"license\":\"MIT\"},\"node_modules/@bananapus/core/src/interfaces/IJBDirectoryAccessControl.sol\":{\"keccak256\":\"0x1e67f56849320a46f834aaa9bd62b170ff8ada7b224b4a81136193740fa0be4d\",\"urls\":[\"bzz-raw://ea8fbcec44abfe49d137bcae129b67e5479d6b17879301f88534c8a7fab00be4\",\"dweb:/ipfs/QmT6wrtYX4GRpffHUzupNwYebJ1dqkkKZLEewWsoyunsqw\"],\"license\":\"MIT\"},\"node_modules/@bananapus/core/src/interfaces/IJBFeeTerminal.sol\":{\"keccak256\":\"0xdb6f3349cbe2078faa8421dec892136693748d8a60b70a1dee3bce2cfc5274fc\",\"urls\":[\"bzz-raw://ccc6a67fc72726c6180c41523cc2a43562864347770a86ff54532fb6ca09e7c3\",\"dweb:/ipfs/QmZinV1LoRsmTq713YGvNShaPtGaxLqwJ6u2EwwGKEKCgu\"],\"license\":\"MIT\"},\"node_modules/@bananapus/core/src/interfaces/IJBFeelessAddresses.sol\":{\"keccak256\":\"0xe5df42cfa71c5fa41b905c122de5825df13c2aab2f9cc4cf4bafa331dd69c27e\",\"urls\":[\"bzz-raw://3773bf3b42cc57d1e4086147e52135ff1dbff4309c45ca0398f821dfaa071563\",\"dweb:/ipfs/QmXUEJssHaxYKfV33tMZGf81JTR5a5yxEVshzNus84xLuT\"],\"license\":\"MIT\"},\"node_modules/@bananapus/core/src/interfaces/IJBFundAccessLimits.sol\":{\"keccak256\":\"0xf5fd6bdd723b60d490ccbe22cdf1cfe43663d23e6ee48badcd1b71e3282cb16b\",\"urls\":[\"bzz-raw://fe692f0b843ea5fccdfcb68f4ec16e1c0add945bb74b303c9866342be0e31fbf\",\"dweb:/ipfs/QmSRmzpgp3DhNEhNDiLsSu7yEiTeywbzEFbwyGyDazjgKt\"],\"license\":\"MIT\"},\"node_modules/@bananapus/core/src/interfaces/IJBMigratable.sol\":{\"keccak256\":\"0xd69bd5aba01a68d82c303ef3adde47532abcace030a94296c3ea6988b401789c\",\"urls\":[\"bzz-raw://88f11a1c89899327746beba4fc830abf3ac2eb9c152c778e884a6eed6564971f\",\"dweb:/ipfs/QmTpKhSTVewpz7VyKcz6BJwH2LFKMwT7Qi5HNWmjEjwsdK\"],\"license\":\"MIT\"},\"node_modules/@bananapus/core/src/interfaces/IJBMultiTerminal.sol\":{\"keccak256\":\"0xefd98d88f6d1a091e77edd76163d6950e0b0dcde9dc39a1fd1112ff3981fc767\",\"urls\":[\"bzz-raw://fe2ca9467481f2f9f3a36a658b4e8da9305a43a142016f4ba7f90f596ff84cd2\",\"dweb:/ipfs/QmeGdDmTzsg9E2XjPDpBQWxvMqw5JHiC9hutEvfhH6M8Ap\"],\"license\":\"MIT\"},\"node_modules/@bananapus/core/src/interfaces/IJBPayHook.sol\":{\"keccak256\":\"0x9438866782c652c2942f4d114e35f393cd3c8b0334abce8387eed90bca35e8b2\",\"urls\":[\"bzz-raw://cfd99daf57213f92325aad7d7d16e98476d38e870470e95ba01e3ae3cdecc95d\",\"dweb:/ipfs/QmUKKAVGf7ki8BHksr99tFcRW8APveeB5tNH63ctTbbCW8\"],\"license\":\"MIT\"},\"node_modules/@bananapus/core/src/interfaces/IJBPayoutTerminal.sol\":{\"keccak256\":\"0xd0f9374470591c4afb2525c9c7b1bdad577765857c404b22ee5d8d2997a18fad\",\"urls\":[\"bzz-raw://4529c066b2014ee64b8fb16981a9fd5badf64dea7ac6c07dd1b1e7ab5cdc1d8a\",\"dweb:/ipfs/QmYxTdPjRAZ8iThUoNmJuivEaRaB3xXpyHdhCU7my1UHZy\"],\"license\":\"MIT\"},\"node_modules/@bananapus/core/src/interfaces/IJBPermissioned.sol\":{\"keccak256\":\"0x5b038d4dee116584e88b230920e56d48e135053e3f7e5642eaea14a775c1dad7\",\"urls\":[\"bzz-raw://19e43102f349fd4a1da1c0943ffb8f2950007fe4bb4bb7e8f74fc142575d091b\",\"dweb:/ipfs/QmXHAt4KzDTdDZgDDefEXH2WKi7NcfkJb9R7nxW5uDqsNp\"],\"license\":\"MIT\"},\"node_modules/@bananapus/core/src/interfaces/IJBPermissions.sol\":{\"keccak256\":\"0x18870e500edf0fbadc353e273a5574701fb80466376b908c65e7cc3f11044d4d\",\"urls\":[\"bzz-raw://352a47c45853aec80e7acf0d286ade3106eb4cb456776b28a3c2f3f1091bed90\",\"dweb:/ipfs/QmQeYd3YbudYZy2hfbfht9kwhxhw4tuuLKMEYy9UY6dcSy\"],\"license\":\"MIT\"},\"node_modules/@bananapus/core/src/interfaces/IJBPermitTerminal.sol\":{\"keccak256\":\"0xd6bd30842273f5b794f82219fefdd4953f5343328d2cfdb684b7d826cc0c769c\",\"urls\":[\"bzz-raw://ca1195fd5572060b36fc7e45f46d59f974e3a908248edcfadeb8cb06247075f0\",\"dweb:/ipfs/QmYTpDXKTXqi8GQFsNqB8LiGFTZjSPY3PA8vKqZBraVdqD\"],\"license\":\"MIT\"},\"node_modules/@bananapus/core/src/interfaces/IJBPriceFeed.sol\":{\"keccak256\":\"0x4bd84c0f1a5d4729ed709bcddd43f4c50ec4a165ece79780af8dce482ed07d4a\",\"urls\":[\"bzz-raw://62bac4bfb6982fb002f620c77e5c445e62d50241a5aa64a07e51d929f5a42180\",\"dweb:/ipfs/QmWgJUDreVY2BuMX38a1iUUR5kNbMwGnKG3VvurB7oZtuM\"],\"license\":\"MIT\"},\"node_modules/@bananapus/core/src/interfaces/IJBPrices.sol\":{\"keccak256\":\"0x99525f31440b955742dce84ba57de9fc1221139b5367c1f834723bef9e13e6e1\",\"urls\":[\"bzz-raw://6fa03f0cd4ad87dd7cbae7bf7f54463450874291773c8f70f2c31ef2cae62bb0\",\"dweb:/ipfs/QmSPajPV5ismteJuB6Spzm9VmhTj2iS3eVrfpJC1Zuzg8n\"],\"license\":\"MIT\"},\"node_modules/@bananapus/core/src/interfaces/IJBProjectUriRegistry.sol\":{\"keccak256\":\"0x2799475228987e4f8334ac33d3935f759c9b8133db7383b4f622dde7a5dc0502\",\"urls\":[\"bzz-raw://d751731740f45df74eea48c9667e847ee2cddb2980ab4939c86bd17e6c6ed89b\",\"dweb:/ipfs/QmXW8SLTuhdUpfn7pRpdsYdcyuim8RTyagU37ULcj5UZhT\"],\"license\":\"MIT\"},\"node_modules/@bananapus/core/src/interfaces/IJBProjects.sol\":{\"keccak256\":\"0x735c2fb8f1fa827f054ee77f7a0ae4b312656217acb75b624d2c8fd9dc40151b\",\"urls\":[\"bzz-raw://ee7fc92299a8633a80693ae63ab494dcd125f1789487a54a39dc0e5696e5996f\",\"dweb:/ipfs/QmX7YJD4pS2XhgQb7p3JbBAXynT7YGPXcZe92BiWWRrsCL\"],\"license\":\"MIT\"},\"node_modules/@bananapus/core/src/interfaces/IJBRedeemHook.sol\":{\"keccak256\":\"0x8ab46fcd7d0e739661eb76056ad93ff99106f38420ef0b4eb97fa9f4bb71a68a\",\"urls\":[\"bzz-raw://0ef96fcb7ad26281d444d8e0c677b25114fdd63b1c172d477e030dce8ba53b62\",\"dweb:/ipfs/Qmcx1jRQuwU4pZFuLxsSsx4oMbRaDfktHrPnXextgbWc5m\"],\"license\":\"MIT\"},\"node_modules/@bananapus/core/src/interfaces/IJBRedeemTerminal.sol\":{\"keccak256\":\"0xd1b4aa38154e08f1474745ea6bc8f8823fe8aa68c124d596742597f2296ea16d\",\"urls\":[\"bzz-raw://9bd254e833702dfe5e28db5fee76478947ab45b501c966501f719e73bbf0397a\",\"dweb:/ipfs/QmZ3Ng7TmVxL6ozSUhx4kYdQdZhoYi4t43cYZVAMz7Fn5M\"],\"license\":\"MIT\"},\"node_modules/@bananapus/core/src/interfaces/IJBRulesetApprovalHook.sol\":{\"keccak256\":\"0x592e95d159494421c6b1bcb362d0cee1df0132921697351304e9cd7af4fbd386\",\"urls\":[\"bzz-raw://5bebfd5fa67c1b6ea16fa2e76e9520e9dfe52a579f48dd94d0c2ec45f78ad178\",\"dweb:/ipfs/QmRUawEGtfYoYSHmHELGhvJoWuMsxLPKtqAXgsrb7fJboP\"],\"license\":\"MIT\"},\"node_modules/@bananapus/core/src/interfaces/IJBRulesetDataHook.sol\":{\"keccak256\":\"0x13b4b9f4b847f62442da1c1a59b399f8f201b31a28edb96aa5a8a78ad57c24d0\",\"urls\":[\"bzz-raw://4fcd00b77d0f40cf6d5ee6590b6ef4ee1f606e89ae4c4faed3710fb462108f8e\",\"dweb:/ipfs/QmeoE54DQ3eGw9EDXfN7aTMmEjubAtirahmytDijo6GSeE\"],\"license\":\"MIT\"},\"node_modules/@bananapus/core/src/interfaces/IJBRulesets.sol\":{\"keccak256\":\"0xd3f817d22ecbe24da63c552c069bf0c4fbbf3bcd5c3b5633002afd24aacf6882\",\"urls\":[\"bzz-raw://c1185aec0f6b6f0f4d93ffeeed0972ccf38420b00fe570b5e1838ed2b1f5db49\",\"dweb:/ipfs/QmWz36azGTFnjFXpFSh6BHt4nactgjtF64L3PeTqs4ZqSR\"],\"license\":\"MIT\"},\"node_modules/@bananapus/core/src/interfaces/IJBSplitHook.sol\":{\"keccak256\":\"0xeb8dfac7a4b81897a1c3b5d0d853a406bcff33720fb187d5ca5bb3dcc0ba3a12\",\"urls\":[\"bzz-raw://36aaeef6107cfe5b0127e063ea215aac7200f8af02e28a48e61111abd3254688\",\"dweb:/ipfs/QmQ8yQANXnhQCAWBGKsKCDsJ3A8hnTKNg5tyo79GfWXTcV\"],\"license\":\"MIT\"},\"node_modules/@bananapus/core/src/interfaces/IJBSplits.sol\":{\"keccak256\":\"0x92deeb9e22ce2aaafc608b85e9250b8ea2deed1ebf64b7442038b157b2bfe0e6\",\"urls\":[\"bzz-raw://08bf29f0c13c2e8be46065277f67e44ecaea960cb5474f13775eece0672566c2\",\"dweb:/ipfs/QmeGu9C6tuBjfmeizmpzptxgGmch6Mbtm34NFwZxzMvqc4\"],\"license\":\"MIT\"},\"node_modules/@bananapus/core/src/interfaces/IJBTerminal.sol\":{\"keccak256\":\"0x19dc9bf8cbdc8f13ee5da9dc3a87047eacb94a3fc19740a286c1f0bad2cc39ca\",\"urls\":[\"bzz-raw://0b05ae6fda9a85672508232fd992b8a5f5ffd8096622eeb12c8a7b3317eb3867\",\"dweb:/ipfs/QmNh9Quj37BXYGdTdcCD1Q58PchRsE5TLbEZep56qS3MpV\"],\"license\":\"MIT\"},\"node_modules/@bananapus/core/src/interfaces/IJBTerminalStore.sol\":{\"keccak256\":\"0x140159d66d729f6aeed0fe1f7c655619985146ec00e8c68cbd9b5d30d4dc7d23\",\"urls\":[\"bzz-raw://f972ecb52bcfcd2852c9e7264b1ecc504ce94bd6e12c034b93c1768cd372954e\",\"dweb:/ipfs/QmRu7in5iJSWHLTcFPbJmiK1rCHFbwNY7qzY4cG6kgfYcr\"],\"license\":\"MIT\"},\"node_modules/@bananapus/core/src/interfaces/IJBToken.sol\":{\"keccak256\":\"0x71b1f9c3a0edd41910f77396e0be2c65596571176d53eb87e887c3c0da56c0fb\",\"urls\":[\"bzz-raw://6e956f0582f4525e83d845ee9b4a89959abc4f821414f6accbbee5b38960482d\",\"dweb:/ipfs/QmbSvjgmCgnfVmcCTGu8XwrV1Rufsf3M8hB8unFq6fTMdH\"],\"license\":\"MIT\"},\"node_modules/@bananapus/core/src/interfaces/IJBTokenUriResolver.sol\":{\"keccak256\":\"0xfa5cb00dcd6085d1ef912d071fe73c63f9478a2cd0f9d8bddaf659b6af2d0967\",\"urls\":[\"bzz-raw://282e4e7c342d65f77cde0e9a08fcaf20ef5cf379c7a48b639842c0ffd0b2afb8\",\"dweb:/ipfs/QmbnN3PEQeZaXdPLT75V1J79kMg7KqSMru37RHrL3z8Yf2\"],\"license\":\"MIT\"},\"node_modules/@bananapus/core/src/interfaces/IJBTokens.sol\":{\"keccak256\":\"0x6fd67af915dd541d9547c8297aa9ae269690e4ee23531db43f021bcacec6076f\",\"urls\":[\"bzz-raw://2e5e11954e9ab2319fffccb6563f3db400b8f7760d4ffe2165048a02c9c37fa6\",\"dweb:/ipfs/QmbDXtV83dK8EfiTjsTRf55R2XqPZzDKcjtYbW8sxQ5CFm\"],\"license\":\"MIT\"},\"node_modules/@bananapus/core/src/libraries/JBConstants.sol\":{\"keccak256\":\"0x9d3a9a953f859d8ec79a599577f8972de6da7199cc1bfa7fdad017d4d722bcb4\",\"urls\":[\"bzz-raw://f151fcb53a8d2684eff8b9e56ac790bcbcadd8199a4fd4d17c5b224b22936722\",\"dweb:/ipfs/QmdAz1ZtCE8nTiC4AxQNLfJhnY3ndGum2Lbef7seKdvTdR\"],\"license\":\"MIT\"},\"node_modules/@bananapus/core/src/libraries/JBMetadataResolver.sol\":{\"keccak256\":\"0x900731084917f812806a35dab2c7ae65a6f07506d6c953ae0cd6d993fe85560f\",\"urls\":[\"bzz-raw://2002892aef205b5192fa5c2d1cf1698ba0836bed7eaba839444cd0f93b4fb050\",\"dweb:/ipfs/QmPRGSNRdpST1xt2brhGWSDsEYD29j5QwaJ3SA518UUXWs\"],\"license\":\"MIT\"},\"node_modules/@bananapus/core/src/structs/JBAccountingContext.sol\":{\"keccak256\":\"0x2907ff54d1e903cc7e0390dd88c3975884702dc2673642aacbe22b66560b56de\",\"urls\":[\"bzz-raw://a66a5381ce877b32f0e0058ceeaf843e9b6b2bc8af666c0c9f4a9d01091da004\",\"dweb:/ipfs/QmQynCetUr37dBkS1YwDS8evxuXGiqanW6THmeUxXtim8w\"],\"license\":\"MIT\"},\"node_modules/@bananapus/core/src/structs/JBAfterPayRecordedContext.sol\":{\"keccak256\":\"0xd26c3a774ff38be79064085970454fe2603a23a638c76270d5b1b3829206c3e8\",\"urls\":[\"bzz-raw://3b55dbe3bf1ef625b7ca04efab3de35406e6041d5b3d82c7265469c500e2b702\",\"dweb:/ipfs/QmUdBDo4Lt3mcsFcsXT2mqq3czFwZjQJFPLM89YA2VtD7k\"],\"license\":\"MIT\"},\"node_modules/@bananapus/core/src/structs/JBAfterRedeemRecordedContext.sol\":{\"keccak256\":\"0x521f5d23a36f0da72362cd84890cc867bd83baa8dc836ba6c5066d51dba2f163\",\"urls\":[\"bzz-raw://6cc461313286dde62d045d6288e87bae5032e035796326f5b1ed6218e58aa9da\",\"dweb:/ipfs/QmQS2AkQwf2ANQieDuaUnpJEdXChoLv4CCbZqHkfywYPSR\"],\"license\":\"MIT\"},\"node_modules/@bananapus/core/src/structs/JBBeforePayRecordedContext.sol\":{\"keccak256\":\"0x5b04e814da83c7e83ff892ab07eaad6abce6f7b85a75f8da9380e9fc3470bc81\",\"urls\":[\"bzz-raw://11c889aab993fce3e3cc2dedc15fc30dd367e7fef9b7b1bfd6a6a9f248781731\",\"dweb:/ipfs/QmVVtydCD1azeWhGLxA1hthxfLyKzMHZ1eVzCz3a3R5dLy\"],\"license\":\"MIT\"},\"node_modules/@bananapus/core/src/structs/JBBeforeRedeemRecordedContext.sol\":{\"keccak256\":\"0x73eadaf6827e82f6ccbe3a1e2b2b7fc6c59cef471f73335041b30ddcc000989d\",\"urls\":[\"bzz-raw://2f3ee84662eed565dbdaed406ef836fffaf55cccd417575578152e5085d0b1f2\",\"dweb:/ipfs/QmaJGFS7hxJsiUdKvbv5BKhSwceDEzKBnt7t5YeNWvYgMK\"],\"license\":\"MIT\"},\"node_modules/@bananapus/core/src/structs/JBCurrencyAmount.sol\":{\"keccak256\":\"0x12fe4b43f4824994624d4fe0abbd88c3fe7867fd637edb65c7f456dab27e2d6e\",\"urls\":[\"bzz-raw://8003a3e8f932cf891e86b827e67c9d31b0d34c2712e18c2bc333cfe5284ba6d5\",\"dweb:/ipfs/QmSoA6RsDcSnNzk6CB7KZtALkHmeSDAi2g6fg3TDmLDkWX\"],\"license\":\"MIT\"},\"node_modules/@bananapus/core/src/structs/JBFee.sol\":{\"keccak256\":\"0x90531b42853517d6e1d1955966ee6ffef38db901cb96770cfcbb6955f760aab0\",\"urls\":[\"bzz-raw://0fc1971f6fba2ec6092544d3eeea0121a078d9c7967a006029d1ef9d87bda805\",\"dweb:/ipfs/QmYyhRHKGCbSETczF848BHJfqMMGTQw5TeFeTu2nbbHX33\"],\"license\":\"MIT\"},\"node_modules/@bananapus/core/src/structs/JBFundAccessLimitGroup.sol\":{\"keccak256\":\"0x9fdaa8d017b72da25f583700a444a86849df053f7fb8eac874ec5139bcf651e5\",\"urls\":[\"bzz-raw://c8e44c49ee444a98424a0dbeb6897a76a0bf00d88a613f62ac2012afdac754ee\",\"dweb:/ipfs/QmdYkAiRi5bXM1YYNkc7BiqimHSFodMGn1cjHR5hcpm4xH\"],\"license\":\"MIT\"},\"node_modules/@bananapus/core/src/structs/JBPayHookSpecification.sol\":{\"keccak256\":\"0x955f0bfca97300b9e5927dc181753830ee362f83fa9ca32a90daade32aa0cfd5\",\"urls\":[\"bzz-raw://f517af1597c7c40f8d3da53f7a6684a3e162950a16559d6bf6ea3b727bb11546\",\"dweb:/ipfs/QmRWo2ZTYXmVZTzNJDYhsJNsEaHphjpUfx9eNz2cciyz86\"],\"license\":\"MIT\"},\"node_modules/@bananapus/core/src/structs/JBPermissionsData.sol\":{\"keccak256\":\"0x8f0f69a6ebf5f3704e3dfcb3712fb9d3f94ae7c1ab89bf3e37bad42a3e7a0487\",\"urls\":[\"bzz-raw://57b0c5e52843e2217082889ed47b4da3943e0da4590d5768dcebfe3edad4a6b8\",\"dweb:/ipfs/QmRz48vuWLw81kUP836rh1qzqWiJFGbksgRUA9xGEDNKTY\"],\"license\":\"MIT\"},\"node_modules/@bananapus/core/src/structs/JBRedeemHookSpecification.sol\":{\"keccak256\":\"0x673d16ee1a91bf8de3b37e57284e60451b70a9c2d748c9cdc7a151f5624af18f\",\"urls\":[\"bzz-raw://ceeb5e81effa0f076c5630c756dfcf1548d09f822b255a0a6ee01e54de8c8ae2\",\"dweb:/ipfs/QmSMoMNPRhPMnuJNvWa6S59XRfycGz9o2ApNp63bUW6TdX\"],\"license\":\"MIT\"},\"node_modules/@bananapus/core/src/structs/JBRuleset.sol\":{\"keccak256\":\"0x15b2bf3174d84846a91ccbf5a344dfb125b55ed9cf50102db8d6868844225189\",\"urls\":[\"bzz-raw://647416b025dbd941094db89cbc69f755c155bd6c87be3f322394ccc4a8e0442d\",\"dweb:/ipfs/QmTCL9xcHnxQ4t5AmCPoZvXDUPW5xhzhyyXYbkMdyg44au\"],\"license\":\"MIT\"},\"node_modules/@bananapus/core/src/structs/JBRulesetConfig.sol\":{\"keccak256\":\"0x0be470df286939259a6b98bc71459e661e81d56a58226d6a574ae1484f8f8e6c\",\"urls\":[\"bzz-raw://64592c279ba7518ac180c835a539897163f299a439065f2cc8aa54086a2c9ad7\",\"dweb:/ipfs/QmaEepVvFJdXcDBMMr7SQYjZSDJXPtCca95kQY5rZbra6U\"],\"license\":\"MIT\"},\"node_modules/@bananapus/core/src/structs/JBRulesetMetadata.sol\":{\"keccak256\":\"0xfea54c9f98416d2aa05309e7ff76967d6968a614850a1e33e48fde793ea8b514\",\"urls\":[\"bzz-raw://bf55386cbab90dbc1296b2b0cbfdc217a4500d67702e4a093a4c78bd127ecd5c\",\"dweb:/ipfs/QmTRq9mZrNSXu7oCZwti4JbBFrbY6A5msRqi9RbtL49NAj\"],\"license\":\"MIT\"},\"node_modules/@bananapus/core/src/structs/JBRulesetWithMetadata.sol\":{\"keccak256\":\"0x1bcfadf20488f6df65227f8d4d0fbf9b7539456a2389567f7fe3900d23289bc3\",\"urls\":[\"bzz-raw://0a15c399a71e5373f8c0484c6d6b83521eda31e063a2c53e4c5cec4e74550343\",\"dweb:/ipfs/QmQwi8zkjoTVXbK89NeETYimWCacTrNsesJdpLSvGdqMPX\"],\"license\":\"MIT\"},\"node_modules/@bananapus/core/src/structs/JBSplit.sol\":{\"keccak256\":\"0x1d40fa4f1c911a53b9139f3d44d27cb58fa5c5d2cd793c7a21ccf52b9e61f848\",\"urls\":[\"bzz-raw://9897d2c29fc65fe16e4eac0b7b8b6fd8ef0b0cc501986f7f0c3a78c4ec1dbb60\",\"dweb:/ipfs/QmXcHoVjCYWWCz4hm2KZ6JxtB4YNq7jmXa2evLkga59Xwq\"],\"license\":\"MIT\"},\"node_modules/@bananapus/core/src/structs/JBSplitGroup.sol\":{\"keccak256\":\"0xda7da6e88aac2906c7ea4027660088daf217edc632bebca4d72795aae8921564\",\"urls\":[\"bzz-raw://ae1939d17e94cb51484f31ce64cf0df990445a338fb9b38d39a7baf28275ae4a\",\"dweb:/ipfs/QmUhPnJiWnYhFdtLvZnrPopAdbYXxETpGjvxjPDignpTGY\"],\"license\":\"MIT\"},\"node_modules/@bananapus/core/src/structs/JBSplitHookContext.sol\":{\"keccak256\":\"0xfe34e6860b00ca93d71f44e72882281b2c57c31303151af05795c74cfdd2e51d\",\"urls\":[\"bzz-raw://08acab094888e9c929b6f6f972d89ddbb31e5867675e7e7c602d25fcb2c0f402\",\"dweb:/ipfs/QmPNdXM185cTyXQSodVr4JMviHx88jrWu7dipgkp9xTNgJ\"],\"license\":\"MIT\"},\"node_modules/@bananapus/core/src/structs/JBTerminalConfig.sol\":{\"keccak256\":\"0xd162f3821a1ccafbc8d7d108369e39ac3048445a8c7fe7a3fa97a6343f9eefaa\",\"urls\":[\"bzz-raw://82172ea0407b6d9edc45e408c7e8edb8e129adf49a94349fe3a5862da9bc044e\",\"dweb:/ipfs/QmWheF5Tjq2hcabnSzfYqdFHUA1YxYEdAPZaRw9N166V1d\"],\"license\":\"MIT\"},\"node_modules/@bananapus/core/src/structs/JBTokenAmount.sol\":{\"keccak256\":\"0x5cf0626b73a596c1e2da17c89ae039a7c0374310b060d48568d3b6c11fbe6180\",\"urls\":[\"bzz-raw://63348b50be95e2995409394a17caffc563a646f0972650a1230bf864fbd3219b\",\"dweb:/ipfs/QmZXZpS3SbFD5nWaCauf6AqbEhLURv5qsKHpThBvQgDU6u\"],\"license\":\"MIT\"},\"node_modules/@bananapus/permission-ids/src/JBPermissionIds.sol\":{\"keccak256\":\"0xf61109f6b217a80d5e5391f548fb6f2e451f7dbee3fabfc04cf17e88722203bc\",\"urls\":[\"bzz-raw://ac776ab1cd621c22bd7973471acdfa187f3abc659ad9a3ef6ed10b6447dfcf9c\",\"dweb:/ipfs/QmYLbaHt68qcuMzkiKpe96jMjiWUq1F3u8yMhxmZ3pnnWu\"],\"license\":\"MIT\"},\"node_modules/@openzeppelin/contracts/interfaces/IERC20.sol\":{\"keccak256\":\"0xce41876e78d1badc0512229b4d14e4daf83bc1003d7f83978d18e0e56f965b9c\",\"urls\":[\"bzz-raw://a2608291cb038b388d80b79a06b6118a42f7894ff67b7da10ec0dbbf5b2973ba\",\"dweb:/ipfs/QmWohqcBLbcxmA4eGPhZDXe5RYMMEEpFq22nfkaUMvTfw1\"],\"license\":\"MIT\"},\"node_modules/@openzeppelin/contracts/token/ERC20/IERC20.sol\":{\"keccak256\":\"0xc6a8ff0ea489379b61faa647490411b80102578440ab9d84e9a957cc12164e70\",\"urls\":[\"bzz-raw://0ea104e577e63faea3b69c415637e99e755dcbf64c5833d7140c35a714d6d90c\",\"dweb:/ipfs/Qmau6x4Ns9XdyynRCNNp3RhLqijJjFm7z5fyZazfYFGYdq\"],\"license\":\"MIT\"},\"node_modules/@openzeppelin/contracts/token/ERC721/IERC721.sol\":{\"keccak256\":\"0x5ef46daa3b58ef2702279d514780316efaa952915ee1aa3396f041ee2982b0b4\",\"urls\":[\"bzz-raw://2f8f2a76e23b02fc69e8cd24c3cb47da6c7af3a2d6c3a382f8ac25c6e094ade7\",\"dweb:/ipfs/QmPV4ZS4tPVv4mTCf9ejyZ1ai57EEibDRj7mN2ARDCLV5n\"],\"license\":\"MIT\"},\"node_modules/@openzeppelin/contracts/utils/Context.sol\":{\"keccak256\":\"0x493033a8d1b176a037b2cc6a04dad01a5c157722049bbecf632ca876224dd4b2\",\"urls\":[\"bzz-raw://6a708e8a5bdb1011c2c381c9a5cfd8a9a956d7d0a9dc1bd8bcdaf52f76ef2f12\",\"dweb:/ipfs/Qmax9WHBnVsZP46ZxEMNRQpLQnrdE4dK8LehML1Py8FowF\"],\"license\":\"MIT\"},\"node_modules/@openzeppelin/contracts/utils/introspection/ERC165.sol\":{\"keccak256\":\"0x9e8778b14317ba9e256c30a76fd6c32b960af621987f56069e1e819c77c6a133\",\"urls\":[\"bzz-raw://1777404f1dcd0fac188e55a288724ec3c67b45288e49cc64723e95e702b49ab8\",\"dweb:/ipfs/QmZFdC626GButBApwDUvvTnUzdinevC3B24d7yyh57XkiA\"],\"license\":\"MIT\"},\"node_modules/@openzeppelin/contracts/utils/introspection/IERC165.sol\":{\"keccak256\":\"0x4296879f55019b23e135000eb36896057e7101fb7fb859c5ef690cf14643757b\",\"urls\":[\"bzz-raw://87b3541437c8c443ccd36795e56a338ed12855eec17f8da624511b8d1a7e14df\",\"dweb:/ipfs/QmeJQCtZrQjtJLr6u7ZHWeH3pBnjtLWzvRrKViAi7UZqxL\"],\"license\":\"MIT\"},\"node_modules/@prb/math/src/Common.sol\":{\"keccak256\":\"0xaa374e2c26cc93e8c22a6953804ee05f811597ef5fa82f76824378b22944778b\",\"urls\":[\"bzz-raw://279c732e161d623cf4d8a9519ca4c42c0c2db99842d0eb2a20c10fde3fa722c9\",\"dweb:/ipfs/QmVViuUXbinQGqtG5M21SgVzKihiCbFUChd4tDhtvwRmxH\"],\"license\":\"MIT\"},\"node_modules/@uniswap/permit2/src/interfaces/IAllowanceTransfer.sol\":{\"keccak256\":\"0x37f0ac203b6ef605c9533e1a739477e8e9dcea90710b40e645a367f8a21ace29\",\"urls\":[\"bzz-raw://e0104d72aeaec1cd66cc232e7de7b7ead08608efcc179491b8a66387614670b0\",\"dweb:/ipfs/QmfAZDyuNC9FXXbnJUwqHNwmAK6uRrXxtWEytLsxjskPsN\"],\"license\":\"MIT\"},\"node_modules/@uniswap/permit2/src/interfaces/IEIP712.sol\":{\"keccak256\":\"0xfdccf2b9639070803cd0e4198427fb0df3cc452ca59bd3b8a0d957a9a4254138\",\"urls\":[\"bzz-raw://f7c936ac42ce89e827db905a1544397f8bdf46db34cdb6aa1b90dea42fdb4c72\",\"dweb:/ipfs/QmVgurxo1N31qZqkPBirw9Z7S9tLYmv6jSwQp8R8ur2cBk\"],\"license\":\"MIT\"},\"node_modules/@uniswap/permit2/src/interfaces/IPermit2.sol\":{\"keccak256\":\"0xaa631cc9f53e699301d94233007110a345e6779011def484e8dd97b8fe0af771\",\"urls\":[\"bzz-raw://fc0502cf19c9c18f320a3001201e89e350393b75837f6b7971de18b2de06f30d\",\"dweb:/ipfs/QmT9SfhdJ7VJNNrf94g4H5usyi7ShqWGx7Cqsz9jZTjX96\"],\"license\":\"MIT\"},\"node_modules/@uniswap/permit2/src/interfaces/ISignatureTransfer.sol\":{\"keccak256\":\"0xe6df9966f8841dc3958ee86169c89de97e7f614c81c28b9dc947b12d732df64e\",\"urls\":[\"bzz-raw://3d4eafdee7f48c3be8350a94eb6edd0bfb2af2c105df65787a77174f356c0317\",\"dweb:/ipfs/QmY1j2adeeAhNpn6cUuthemxGCdLXHTfyMh9yTKsY4mZ2d\"],\"license\":\"MIT\"},\"node_modules/@uniswap/v3-core/contracts/interfaces/IUniswapV3Pool.sol\":{\"keccak256\":\"0x4e64844c56061cd90e0a80de73534a9166704c43eed579eb83f90bc2780ce968\",\"urls\":[\"bzz-raw://cba4fab5cebdddf644b901994a7f0f52b98885d4c56012f4dc51d52c2bf9de0e\",\"dweb:/ipfs/QmVyyrRmqXrAiapewWunRVgiPVFJHpH2hKiE1py1svMSNV\"],\"license\":\"GPL-2.0-or-later\"},\"node_modules/@uniswap/v3-core/contracts/interfaces/callback/IUniswapV3SwapCallback.sol\":{\"keccak256\":\"0x3f485fb1a44e8fbeadefb5da07d66edab3cfe809f0ac4074b1e54e3eb3c4cf69\",\"urls\":[\"bzz-raw://095ce0626b41318c772b3ebf19d548282607f6a8f3d6c41c13edfbd5370c8652\",\"dweb:/ipfs/QmVDZfJJ89UUCE1hMyzqpkZAtQ8jUsBgZNE5AMRG7RzRFS\"],\"license\":\"GPL-2.0-or-later\"},\"node_modules/@uniswap/v3-core/contracts/interfaces/pool/IUniswapV3PoolActions.sol\":{\"keccak256\":\"0x9453dd0e7442188667d01d9b65de3f1e14e9511ff3e303179a15f6fc267f7634\",\"urls\":[\"bzz-raw://982f4328f956c3e60e67501e759eb292ac487f76460c774c50e9ae4fcc92aae5\",\"dweb:/ipfs/QmRnzEDsaqtd9PJEVcgQi7p5aV5pMSvRUoGZJAdwFUJxgZ\"],\"license\":\"GPL-2.0-or-later\"},\"node_modules/@uniswap/v3-core/contracts/interfaces/pool/IUniswapV3PoolDerivedState.sol\":{\"keccak256\":\"0xe603ac5b17ecdee73ba2b27efdf386c257a19c14206e87eee77e2017b742d9e5\",\"urls\":[\"bzz-raw://8febc9bdb399a4d94bb89f5377732652e2400e4a8dee808201ade6848f9004e7\",\"dweb:/ipfs/QmaKDqYYFU4d2W2iN77aDHptfbFmYZRrMYXHeGpJmM8C1c\"],\"license\":\"GPL-2.0-or-later\"},\"node_modules/@uniswap/v3-core/contracts/interfaces/pool/IUniswapV3PoolErrors.sol\":{\"keccak256\":\"0xf80abf13fb1fafc127ba4e792f240dd8ea7c8c893978cdfd8439c27fae9a037b\",\"urls\":[\"bzz-raw://b04fc72a656bbf3631e9c2e67b9870a2d9d235185e833fe050e9606e6816a9aa\",\"dweb:/ipfs/QmUcz4bkEkJ9pwzFu1C3n97hBQ3st9U6qTAqCdyFwddKco\"],\"license\":\"GPL-2.0-or-later\"},\"node_modules/@uniswap/v3-core/contracts/interfaces/pool/IUniswapV3PoolEvents.sol\":{\"keccak256\":\"0x8071514d0fe5d17d6fbd31c191cdfb703031c24e0ece3621d88ab10e871375cd\",\"urls\":[\"bzz-raw://d0b571930cc7488b1d546a7e9cea7c52d8b3c4e207da657ed0e0db7343b8cd03\",\"dweb:/ipfs/QmaGK6vVwB95QSTR1XMYvrh7ivYAYZxi3fD7v6VMA4jZ39\"],\"license\":\"GPL-2.0-or-later\"},\"node_modules/@uniswap/v3-core/contracts/interfaces/pool/IUniswapV3PoolImmutables.sol\":{\"keccak256\":\"0xf6e5d2cd1139c4c276bdbc8e1d2b256e456c866a91f1b868da265c6d2685c3f7\",\"urls\":[\"bzz-raw://b99c8c9ae8e27ee6559e5866bea82cbc9ffc8247f8d15b7422a4deb287d4d047\",\"dweb:/ipfs/QmfL8gaqt3ffAnm6nVj5ksuNpLygXuL3xq5VBqrkwC2JJ3\"],\"license\":\"GPL-2.0-or-later\"},\"node_modules/@uniswap/v3-core/contracts/interfaces/pool/IUniswapV3PoolOwnerActions.sol\":{\"keccak256\":\"0x759b78a2918af9e99e246dc3af084f654e48ef32bb4e4cb8a966aa3dcaece235\",\"urls\":[\"bzz-raw://64144fb96e1c7fdba87305acadb98a198d26a3d46c097cb3a666e567f6f29735\",\"dweb:/ipfs/QmUnWVwN9FKB9uV5Pr8YfLpWZnYM2DENnRMaadZ492JS9u\"],\"license\":\"GPL-2.0-or-later\"},\"node_modules/@uniswap/v3-core/contracts/interfaces/pool/IUniswapV3PoolState.sol\":{\"keccak256\":\"0x44fa2ce1182f6c2f6bead3d1737804bf7e112252ae86e0f2e92f9b8249603f43\",\"urls\":[\"bzz-raw://54154e8665b98d65f5dc91b256551852cb47882180b501b260657122d207c0ea\",\"dweb:/ipfs/QmcfemK1A2PXYrWB5SBFGERpMCderbFRb8BtTzQDj1sUBp\"],\"license\":\"GPL-2.0-or-later\"},\"node_modules/@uniswap/v3-core/contracts/libraries/FullMath.sol\":{\"keccak256\":\"0x7825565a4bb2a34a1dc96bbfead755785dfb0df8ef81bd934c43023689685645\",\"urls\":[\"bzz-raw://8f44f4614d31e3d4864c7eb13620555253b84f6a69180f8745b7c6e246a9d125\",\"dweb:/ipfs/QmfNQUcXj3KL8h9u5PqbtEC6yRtwDbKNb48uMPjdwxsKnd\"],\"license\":\"MIT\"},\"node_modules/@uniswap/v3-core/contracts/libraries/TickMath.sol\":{\"keccak256\":\"0x5c57de03a91cc2ec8939865dbbcb0197bb6c353b711075eefd8e0fca5e102129\",\"urls\":[\"bzz-raw://1e994c24fd891ef8a3f5dbf5eba42b34feaf05e0376a29f91322faa18054449c\",\"dweb:/ipfs/QmNdUJGUQxd1dPkMbnA5f5UNqakxRkQE5r7bTZJAuHeapS\"],\"license\":\"GPL-2.0-or-later\"},\"node_modules/@uniswap/v3-periphery/contracts/libraries/OracleLibrary.sol\":{\"keccak256\":\"0xe313f89c69c0f1c91f0722868313b4ceb14479b3e7a0abf52a1b9bbd9c18e81b\",\"urls\":[\"bzz-raw://8ad09b061f3f533c116618c20cf01510108eebebb7ff8847b0f245b8ba368d53\",\"dweb:/ipfs/QmU6vdi5JjJfjK2KqonWvRg9NeuQWarj4B1YFN22Dh9VJM\"],\"license\":\"GPL-2.0-or-later\"},\"src/JBBuybackHook.sol\":{\"keccak256\":\"0x4b5cc3355d13d91b938fe298480cb45719bcbb6c9cdf139f62df5c73f1406401\",\"urls\":[\"bzz-raw://6581925c7ed49385af79a13c8cf48e9a8e5a683029593c711753a9b9734bb418\",\"dweb:/ipfs/QmSaDFCTr7KZ7sc66j7yzzWSgxzHYJZDdiGUH9hKiNHnFR\"],\"license\":\"MIT\"},\"src/interfaces/IJBBuybackHook.sol\":{\"keccak256\":\"0xbe5d7f3bf2e18b569676ba9194e248e6b1ed50022f5247b4f1fa124c91bfd418\",\"urls\":[\"bzz-raw://eb221d1570e8aad409c419b6a2f84351e818c3527f3f44b806cd64c84d7a8c86\",\"dweb:/ipfs/QmUPZstaKjPN7VTywg3Mt6bF75E53mQbmXhf3TxCggJbRR\"],\"license\":\"MIT\"},\"src/interfaces/external/IWETH9.sol\":{\"keccak256\":\"0x50083bcaca6c1a8d12c79116fab4f6d8cd452a510cb3f00c4a8bc3a54678efb7\",\"urls\":[\"bzz-raw://726f187112d0953c14bff8099a8c9ce1ead47eb25e90839f77b100feaaf16127\",\"dweb:/ipfs/QmTEnMENpLjcTQLMwz4kEUiQHfiTkaZT3TL37nQ8JiRYh5\"],\"license\":\"GPL-2.0-or-later\"}},\"version\":1}",
			"args": [
				"0x4200000000000000000000000000000000000006",
				"0x4752ba5DBc23f44D87826276BF6Fd6b1C372aD24",
				"0xCD8c4da77dfb15C05486D3F71Ee4C2C0dfdbc94e",
				"0x799D42391ed21894b105590300EEd66255d72225"
			],
			"bytecode": "0x6101406040523480156200001257600080fd5b5060405162003e1d38038062003e1d833981016040819052620000359162000156565b806001600160a01b031663f434c9146040518163ffffffff1660e01b8152600401602060405180830381865afa15801562000074573d6000803e3d6000fd5b505050506040513d601f19601f820116820180604052508101906200009a9190620001be565b6001600160a01b039081166080528481166101205282811660c05281811660e081905290841660a0526040805163293c499960e01b8152905163293c4999916004808201926020929091908290030181865afa158015620000ff573d6000803e3d6000fd5b505050506040513d601f19601f82011682018060405250810190620001259190620001be565b6001600160a01b03166101005250620001e592505050565b6001600160a01b03811681146200015357600080fd5b50565b600080600080608085870312156200016d57600080fd5b84516200017a816200013d565b60208601519094506200018d816200013d565b6040860151909350620001a0816200013d565b6060860151909250620001b3816200013d565b939692955090935050565b600060208284031215620001d157600080fd5b8151620001de816200013d565b9392505050565b60805160a05160c05160e0516101005161012051613b7f6200029e6000396000818161049501528181610a1801528181610fbe01528181611904015281816119e301526121af0152600081816102840152818161072c01528181610bcf0152610d1601526000818161050b01528181610e28015281816117c4015261238c0152600081816103ef015261137b0152600081816105860152610ffe01526000818161055201528181611b770152611c460152613b7f6000f3fe60806040526004361061018b5760003560e01c806388bc2ef3116100d6578063db312fae1161007f578063f434c91411610059578063f434c91414610540578063f73e5aab14610574578063fa461e33146105a857600080fd5b8063db312fae146104e3578063ee0fc121146104f9578063f3c578811461052d57600080fd5b8063ad5c4648116100b0578063ad5c464814610483578063af471880146104b7578063b88a92b4146104cc57600080fd5b806388bc2ef3146103dd5780639c9d436114610411578063aaf320d71461044157600080fd5b80634c4ffc7111610138578063754baf9611610112578063754baf96146103595780637b621d3a1461036f578063889eedb41461038f57600080fd5b80634c4ffc71146102e857806355135de014610316578063677ce0881461033657600080fd5b806327e514111161016957806327e514111461020a578063293c4999146102725780633717fba7146102a657600080fd5b806301ffc9a714610190578063132893eb146101c55780631a65893b146101e7575b600080fd5b34801561019c57600080fd5b506101b06101ab366004612d88565b6105c8565b60405190151581526020015b60405180910390f35b3480156101d157600080fd5b506101e56101e0366004612de3565b6106f9565b005b3480156101f357600080fd5b506101fc607881565b6040519081526020016101bc565b34801561021657600080fd5b5061024d610225366004612e0f565b60026020526000908152604090205473ffffffffffffffffffffffffffffffffffffffff1681565b60405173ffffffffffffffffffffffffffffffffffffffff90911681526020016101bc565b34801561027e57600080fd5b5061024d7f000000000000000000000000000000000000000000000000000000000000000081565b3480156102b257600080fd5b506102d36102c1366004612e0f565b60009081526020819052604090205490565b60405163ffffffff90911681526020016101bc565b3480156102f457600080fd5b50610308610303366004612e28565b6108a7565b6040516101bc929190612ec8565b34801561032257600080fd5b506101e5610331366004612f84565b610b9c565b34801561034257600080fd5b506101b0610351366004612fcb565b600092915050565b34801561036557600080fd5b506101fc61232881565b34801561037b57600080fd5b5061024d61038a366004612ffb565b610ccb565b34801561039b57600080fd5b5061024d6103aa366004612fcb565b600160209081526000928352604080842090915290825290205473ffffffffffffffffffffffffffffffffffffffff1681565b3480156103e957600080fd5b5061024d7f000000000000000000000000000000000000000000000000000000000000000081565b34801561041d57600080fd5b506101fc61042c366004612e0f565b60009081526020819052604090205460801c90565b34801561044d57600080fd5b5061047361045c366004613060565b6101608101359160808201359160a0013590606090565b6040516101bc949392919061309c565b34801561048f57600080fd5b5061024d7f000000000000000000000000000000000000000000000000000000000000000081565b3480156104c357600080fd5b506101fc606481565b3480156104d857600080fd5b506101fc6202a30081565b3480156104ef57600080fd5b506101fc61271081565b34801561050557600080fd5b5061024d7f000000000000000000000000000000000000000000000000000000000000000081565b6101e561053b366004613167565b611343565b34801561054c57600080fd5b5061024d7f000000000000000000000000000000000000000000000000000000000000000081565b34801561058057600080fd5b5061024d7f000000000000000000000000000000000000000000000000000000000000000081565b3480156105b457600080fd5b506101e56105c33660046131a3565b6118c7565b60007fffffffff0000000000000000000000000000000000000000000000000000000082167f81c03c2e00000000000000000000000000000000000000000000000000000000148061065b57507fffffffff0000000000000000000000000000000000000000000000000000000082167ff3c5788100000000000000000000000000000000000000000000000000000000145b806106a757507fffffffff0000000000000000000000000000000000000000000000000000000082167f8f97abcd00000000000000000000000000000000000000000000000000000000145b806106f357507fffffffff0000000000000000000000000000000000000000000000000000000082167f01ffc9a700000000000000000000000000000000000000000000000000000000145b92915050565b6040517f6352211e000000000000000000000000000000000000000000000000000000008152600481018390526107b5907f000000000000000000000000000000000000000000000000000000000000000073ffffffffffffffffffffffffffffffffffffffff1690636352211e906024015b602060405180830381865afa158015610789573d6000803e3d6000fd5b505050506040513d601f19601f820116820180604052508101906107ad9190613223565b836018611afa565b60788163ffffffff1610806107d257506202a3008163ffffffff16115b15610809576040517fbbedb50a00000000000000000000000000000000000000000000000000000000815260040160405180910390fd5b60008281526020818152604091829020805463ffffffff85167fffffffffffffffffffffffffffffffff000000000000000000000000000000008216811790925583516fffffffffffffffffffffffffffffffff821680825293810192909252339382019390935284907fa8d6b20cd05f07d50e9855ce0fc6de3517f3df2e890a5ec6357892b3808a53ce906060015b60405180910390a250505050565b6000606060008360400160200135905083610120013592506000806000606060006109066040518060400160405280600581526020017f71756f7465000000000000000000000000000000000000000000000000000000815250611cf0565b90506109548161091a6101608c018c613240565b8080601f016020809104026020016040519081016040528093929190818152602001838380828437600092019190915250611d0492505050565b90935091508215610978578180602001905181019061097391906132a5565b955093505b505081600003610986578391505b60006109a1838861099c60808c0135600a613418565b611ef2565b60c08901356000908152600260205260408082205492935073ffffffffffffffffffffffffffffffffffffffff9092169161eeee906109e69060608d01908d01613424565b73ffffffffffffffffffffffffffffffffffffffff1614610a1657610a1160608b0160408c01613424565b610a38565b7f00000000000000000000000000000000000000000000000000000000000000005b905085600003610a5557610a528a60c00135838784612008565b95505b85831015610b905786851115610a97576040517f1f89071e00000000000000000000000000000000000000000000000000000000815260040160405180910390fd5b60408051600180825281830190925273ffffffffffffffffffffffffffffffffffffffff8381169085161091816020015b60408051606080820183526000808352602083015291810191909152815260200190600190039081610ac85750506040805160608101825230815260208101899052919a50810186838b8a14610b2757610b228a8d613470565b610b2a565b60005b604080519315156020850152911515918301919091526060820152608081018a905260a00160405160208183030381529060405281525089600081518110610b7457610b74613483565b6020026020010181905250600099505050505050505050915091565b50505050505050915091565b6040517f6352211e00000000000000000000000000000000000000000000000000000000815260048101839052610c13907f000000000000000000000000000000000000000000000000000000000000000073ffffffffffffffffffffffffffffffffffffffff1690636352211e9060240161076c565b6064811080610c23575061232881115b15610c5a576040517fa7149b6a00000000000000000000000000000000000000000000000000000000815260040160405180910390fd5b600082815260208181526040918290208054608085811b6fffffffffffffffffffffffffffffffff83161790925583519181901c808352928201859052339382019390935284907faafe2470cbfb11a09f9b45d6a795226e93cc251e30fdcabddbabb157a1db535390606001610899565b6040517f6352211e00000000000000000000000000000000000000000000000000000000815260048101869052600090610d899073ffffffffffffffffffffffffffffffffffffffff7f00000000000000000000000000000000000000000000000000000000000000001690636352211e90602401602060405180830381865afa158015610d5d573d6000803e3d6000fd5b505050506040513d601f19601f82011682018060405250810190610d819190613223565b876019611afa565b6064831080610d99575061232883115b15610dd0576040517fa7149b6a00000000000000000000000000000000000000000000000000000000815260040160405180910390fd5b60788463ffffffff161080610ded57506202a3008463ffffffff16115b15610e24576040517fbbedb50a00000000000000000000000000000000000000000000000000000000815260040160405180910390fd5b60007f000000000000000000000000000000000000000000000000000000000000000073ffffffffffffffffffffffffffffffffffffffff16631d831d5c6040518163ffffffff1660e01b8152600401602060405180830381865afa158015610e91573d6000803e3d6000fd5b505050506040513d601f19601f82011682018060405250810190610eb59190613223565b73ffffffffffffffffffffffffffffffffffffffff1663ea78803f886040518263ffffffff1660e01b8152600401610eef91815260200190565b602060405180830381865afa158015610f0c573d6000803e3d6000fd5b505050506040513d601f19601f82011682018060405250810190610f309190613223565b905073ffffffffffffffffffffffffffffffffffffffff8116610f7f576040517fc0a8a55b00000000000000000000000000000000000000000000000000000000815260040160405180910390fd5b7fffffffffffffffffffffffffffffffffffffffffffffffffffffffffffff111273ffffffffffffffffffffffffffffffffffffffff841601610fe0577f000000000000000000000000000000000000000000000000000000000000000092505b73ffffffffffffffffffffffffffffffffffffffff808416908216107f000000000000000000000000000000000000000000000000000000000000000081611028578461102a565b825b826110355783611037565b855b6040805173ffffffffffffffffffffffffffffffffffffffff9384166020820152929091169082015262ffffff89166060820152608001604080517fffffffffffffffffffffffffffffffffffffffffffffffffffffffffffffffe0818403018152908290528051602091820120611132939290917fe34f199b19b2b4f47f68442619d555527d244f78a3297ea89325f843f87b8b5491017fff00000000000000000000000000000000000000000000000000000000000000815260609390931b7fffffffffffffffffffffffffffffffffffffffff0000000000000000000000001660018401526015830191909152603582015260550190565b604080517fffffffffffffffffffffffffffffffffffffffffffffffffffffffffffffffe0818403018152918152815160209283012060008b81526001845282812073ffffffffffffffffffffffffffffffffffffffff8981168352945291909120549094508185169116036111d4576040517f5f801a3e00000000000000000000000000000000000000000000000000000000815260040160405180910390fd5b600088815260016020908152604080832073ffffffffffffffffffffffffffffffffffffffff888116855290835281842080547fffffffffffffffffffffffff0000000000000000000000000000000000000000908116898416179091558c855284845282852063ffffffff8c1660808c901b8117909155600285528386208054909216928816929092179055815193845291830191909152339082015288907fa8d6b20cd05f07d50e9855ce0fc6de3517f3df2e890a5ec6357892b3808a53ce9060600160405180910390a26040805160008152602081018790523381830152905189917faafe2470cbfb11a09f9b45d6a795226e93cc251e30fdcabddbabb157a1db5353919081900360600190a26040805173ffffffffffffffffffffffffffffffffffffffff85811682523360208301528616918a917fe694de883385e30d535f625d68df4b2b5e866e8e86fe9d15554480c8d1812e60910160405180910390a3505095945050505050565b6040517f6e49181f000000000000000000000000000000000000000000000000000000008152602082013560048201523360248201527f000000000000000000000000000000000000000000000000000000000000000073ffffffffffffffffffffffffffffffffffffffff1690636e49181f90604401602060405180830381865afa1580156113d7573d6000803e3d6000fd5b505050506040513d601f19601f820116820180604052508101906113fb91906134c0565b611431576040517f82b4290000000000000000000000000000000000000000000000000000000000815260040160405180910390fd5b60008080806114446101c0860186613240565b81019061145191906134dd565b93509350935093506000611465868561215f565b905084801561147357508181105b156114aa576040517f1d9e022400000000000000000000000000000000000000000000000000000000815260040160405180910390fd5b600061eeee6114c0610100890160e08a01613424565b73ffffffffffffffffffffffffffffffffffffffff1614611581576114ec610100880160e08901613424565b6040517f70a0823100000000000000000000000000000000000000000000000000000000815230600482015273ffffffffffffffffffffffffffffffffffffffff91909116906370a0823190602401602060405180830381865afa158015611558573d6000803e3d6000fd5b505050506040513d601f19601f8201168201806040525081019061157c9190613523565b611583565b475b905060008115611788576115a6826101608a013561099c60a08c0135600a613418565b905061eeee6115bc6101008a0160e08b01613424565b73ffffffffffffffffffffffffffffffffffffffff1614611683576115e8610100890160e08a01613424565b6040517f095ea7b30000000000000000000000000000000000000000000000000000000081523360048201526024810184905273ffffffffffffffffffffffffffffffffffffffff919091169063095ea7b3906044016020604051808303816000875af115801561165d573d6000803e3d6000fd5b505050506040513d601f19601f8201168201806040525081019061168191906134c0565b505b600061eeee6116996101008b0160e08c01613424565b73ffffffffffffffffffffffffffffffffffffffff16146116bb5760006116bd565b825b905033639e6eec058260208c01356116dc6101008e0160e08f01613424565b876000604051806020016040528060008152506040518763ffffffff1660e01b815260040161170f95949392919061353c565b6000604051808303818588803b15801561172857600080fd5b505af115801561173c573d6000803e3d6000fd5b505060408051878152602080820188905233828401529151918e013594507faacef1bbb194eac329f8f247fbe8cce3eca2ed1f2e0a45a0488c2dd8afe6e51693508190036060019150a2505b6117a1856101608a013561099c60a08c0135600a613418565b6117ab9082613598565b905073ffffffffffffffffffffffffffffffffffffffff7f00000000000000000000000000000000000000000000000000000000000000001663c7fb92de60208a01356117f88487613598565b61180a6101c08d016101a08e01613424565b6040517fffffffff0000000000000000000000000000000000000000000000000000000060e086901b1681526004810193909352602483019190915273ffffffffffffffffffffffffffffffffffffffff16604482015260a06064820152600060a48201526001608482015260c4016020604051808303816000875af1158015611898573d6000803e3d6000fd5b505050506040513d601f19601f820116820180604052508101906118bc9190613523565b505050505050505050565b6000806118d683850185612fcb565b9092509050600073ffffffffffffffffffffffffffffffffffffffff821661eeee146119025781611924565b7f00000000000000000000000000000000000000000000000000000000000000005b600084815260016020908152604080832073ffffffffffffffffffffffffffffffffffffffff8581168552925290912054919250163314611991576040517f82b4290000000000000000000000000000000000000000000000000000000000815260040160405180910390fd5b60008088126119a057876119a2565b865b90507fffffffffffffffffffffffffffffffffffffffffffffffffffffffffffff111273ffffffffffffffffffffffffffffffffffffffff841601611a63577f000000000000000000000000000000000000000000000000000000000000000073ffffffffffffffffffffffffffffffffffffffff1663d0e30db0826040518263ffffffff1660e01b81526004016000604051808303818588803b158015611a4957600080fd5b505af1158015611a5d573d6000803e3d6000fd5b50505050505b6040517fa9059cbb0000000000000000000000000000000000000000000000000000000081523360048201526024810182905273ffffffffffffffffffffffffffffffffffffffff83169063a9059cbb906044016020604051808303816000875af1158015611ad6573d6000803e3d6000fd5b505050506040513d601f19601f820116820180604052508101906118bc91906134c0565b3373ffffffffffffffffffffffffffffffffffffffff84168114801590611be457506040517fc161c93f00000000000000000000000000000000000000000000000000000000815273ffffffffffffffffffffffffffffffffffffffff8281166004830152858116602483015260448201859052606482018490527f0000000000000000000000000000000000000000000000000000000000000000169063c161c93f90608401602060405180830381865afa158015611bbe573d6000803e3d6000fd5b505050506040513d601f19601f82011682018060405250810190611be291906134c0565b155b8015611cb357506040517fc161c93f00000000000000000000000000000000000000000000000000000000815273ffffffffffffffffffffffffffffffffffffffff8281166004830152858116602483015260006044830152606482018490527f0000000000000000000000000000000000000000000000000000000000000000169063c161c93f90608401602060405180830381865afa158015611c8d573d6000803e3d6000fd5b505050506040513d601f19601f82011682018060405250810190611cb191906134c0565b155b15611cea576040517f075fd2b100000000000000000000000000000000000000000000000000000000815260040160405180910390fd5b50505050565b805160208201206000903060601b186106f3565b600060606025835111611d295750506040805160208101909152600080825290611eeb565b600083611d3860046020613598565b81518110611d4857611d48613483565b0160209081015160f81c91505b600085611d63600484613598565b81518110611d7357611d73613483565b01602001517fff000000000000000000000000000000000000000000000000000000000000001614801590611db15750611dae6020836135ab565b81105b15611ee857600085611dc4600484613598565b81518110611dd457611dd4613483565b016020908101518784019091015160f89190911c91507fffffffff0000000000000000000000000000000000000000000000000000000080891690821603611ede576000611e236020866135ab565b611e2e600986613598565b101580611e7b575087611e42600986613598565b81518110611e5257611e52613483565b01602001517fff0000000000000000000000000000000000000000000000000000000000000016155b611eb457602088611e8d600987613598565b81518110611e9d57611e9d613483565b0160200151611eaf919060f81c6135ab565b611eb7565b87515b90506001611ed089611eca6020876135ab565b8461246d565b965096505050505050611eeb565b5050600501611d55565b50505b9250929050565b600080807fffffffffffffffffffffffffffffffffffffffffffffffffffffffffffffffff85870985870292508281108382030391505080600003611f4a57838281611f4057611f406135c2565b0492505050612001565b838110611f99576040517f63a057780000000000000000000000000000000000000000000000000000000081526004810187905260248101869052604481018590526064015b60405180910390fd5b600084868809851960019081018716968790049682860381900495909211909303600082900391909104909201919091029190911760038402600290811880860282030280860282030280860282030280860282030280860282030280860290910302029150505b9392505050565b600084815260016020908152604080832073ffffffffffffffffffffffffffffffffffffffff8086168552925282205416803b820361204b576000915050612157565b8073ffffffffffffffffffffffffffffffffffffffff16633850c7bd6040518163ffffffff1660e01b815260040160e060405180830381865afa9250505080156120d0575060408051601f3d9081017fffffffffffffffffffffffffffffffffffffffffffffffffffffffffffffffe01682019092526120cd91810190613603565b60015b6120de576000915050612157565b806120f457600098505050505050505050612157565b50505050505050600086815260208190526040812054908190608082901c9061211d85846124b3565b50905061212c8189898c612777565b955061271061213b83886135ab565b61214591906136a2565b61214f9087613470565b955050505050505b949350505050565b60006101008301803590829061eeee9061217c9060e08801613424565b73ffffffffffffffffffffffffffffffffffffffff16146121ad576121a8610100860160e08701613424565b6121cf565b7f00000000000000000000000000000000000000000000000000000000000000005b602080870135600090815260018252604080822073ffffffffffffffffffffffffffffffffffffffff80861684529352902054919250168063128acb08308715868961222a576122256401000276a360016136b6565b612249565b612249600173fffd8963efd1fc6a506488495d951d5263988d266136ea565b60208c013561225f6101008e0160e08f01613424565b60405160200161228f92919091825273ffffffffffffffffffffffffffffffffffffffff16602082015260400190565b6040516020818303038152906040526040518663ffffffff1660e01b81526004016122be959493929190613717565b60408051808303816000875af1925050508015612316575060408051601f3d9081017fffffffffffffffffffffffffffffffffffffffffffffffffffffffffffffffe0168201909252612313918101906132a5565b60015b61232657600093505050506106f3565b866123315780612333565b815b61233c9061375e565b6040517fa2d532e600000000000000000000000000000000000000000000000000000000815230600482015260208a013560248201526044810182905260806064820152600060848201529096507f000000000000000000000000000000000000000000000000000000000000000073ffffffffffffffffffffffffffffffffffffffff16925063a2d532e6915060a401600060405180830381600087803b1580156123e757600080fd5b505af11580156123fb573d6000803e3d6000fd5b50506040805186815273ffffffffffffffffffffffffffffffffffffffff85166020828101919091529181018890523360608201529089013592507f6a212efdcd471836edcfe424121fc9048d3a7cd0458b1218a71aa915300e0e57915060800160405180910390a250505092915050565b60608282036040519150602081830101604052808252508260208501016020820160005b848110156124a9578281015182820152602001612491565b5050509392505050565b6000808263ffffffff16600003612526576040517f08c379a000000000000000000000000000000000000000000000000000000000815260206004820152600260248201527f42500000000000000000000000000000000000000000000000000000000000006044820152606401611f90565b604080516002808252606082018352600092602083019080368337019050509050838160008151811061255b5761255b613483565b602002602001019063ffffffff16908163ffffffff168152505060008160018151811061258a5761258a613483565b602002602001019063ffffffff16908163ffffffff16815250506000808673ffffffffffffffffffffffffffffffffffffffff1663883bdbfd846040518263ffffffff1660e01b81526004016125e09190613796565b600060405180830381865afa1580156125fd573d6000803e3d6000fd5b505050506040513d6000823e601f3d9081017fffffffffffffffffffffffffffffffffffffffffffffffffffffffffffffffe016820160405261264391908101906138cb565b9150915060008260008151811061265c5761265c613483565b60200260200101518360018151811061267757612677613483565b60200260200101516126899190613997565b90506000826000815181106126a0576126a0613483565b6020026020010151836001815181106126bb576126bb613483565b60200260200101516126cd91906136ea565b90506126df63ffffffff8916836139dc565b965060008260060b12801561270557506126ff63ffffffff891683613a50565b60060b15155b15612718578661271481613a72565b9750505b600061273e73ffffffffffffffffffffffffffffffffffffffff63ffffffff8b16613acf565b905061276877ffffffffffffffffffffffffffffffffffffffff00000000602084901b1682613b12565b96505050505050509250929050565b60008061278386612951565b90506fffffffffffffffffffffffffffffffff73ffffffffffffffffffffffffffffffffffffffff8216116128825760006127d473ffffffffffffffffffffffffffffffffffffffff8316806135ab565b90508373ffffffffffffffffffffffffffffffffffffffff168573ffffffffffffffffffffffffffffffffffffffff16106128445761283f7801000000000000000000000000000000000000000000000000876fffffffffffffffffffffffffffffffff1683612cb8565b61287a565b61287a81876fffffffffffffffffffffffffffffffff167801000000000000000000000000000000000000000000000000612cb8565b925050612948565b60006128ae73ffffffffffffffffffffffffffffffffffffffff83168068010000000000000000612cb8565b90508373ffffffffffffffffffffffffffffffffffffffff168573ffffffffffffffffffffffffffffffffffffffff161061291657612911700100000000000000000000000000000000876fffffffffffffffffffffffffffffffff1683612cb8565b612944565b61294481876fffffffffffffffffffffffffffffffff16700100000000000000000000000000000000612cb8565b9250505b50949350505050565b60008060008360020b12612968578260020b612970565b8260020b6000035b9050620d89e88111156129af576040517f2bc80f3a00000000000000000000000000000000000000000000000000000000815260040160405180910390fd5b6000816001166000036129d3577001000000000000000000000000000000006129e5565b6ffffcb933bd6fad37aa2d162d1a5940015b70ffffffffffffffffffffffffffffffffff1690506002821615612a19576ffff97272373d413259a46990580e213a0260801c5b6004821615612a38576ffff2e50f5f656932ef12357cf3c7fdcc0260801c5b6008821615612a57576fffe5caca7e10e4e61c3624eaa0941cd00260801c5b6010821615612a76576fffcb9843d60f6159c9db58835c9266440260801c5b6020821615612a95576fff973b41fa98c081472e6896dfb254c00260801c5b6040821615612ab4576fff2ea16466c96a3843ec78b326b528610260801c5b6080821615612ad3576ffe5dee046a99a2a811c461f1969c30530260801c5b610100821615612af3576ffcbe86c7900a88aedcffc83b479aa3a40260801c5b610200821615612b13576ff987a7253ac413176f2b074cf7815e540260801c5b610400821615612b33576ff3392b0822b70005940c7a398e4b70f30260801c5b610800821615612b53576fe7159475a2c29b7443b29c7fa6e889d90260801c5b611000821615612b73576fd097f3bdfd2022b8845ad8f792aa58250260801c5b612000821615612b93576fa9f746462d870fdf8a65dc1f90e061e50260801c5b614000821615612bb3576f70d869a156d2a1b890bb3df62baf32f70260801c5b618000821615612bd3576f31be135f97d08fd981231505542fcfa60260801c5b62010000821615612bf4576f09aa508b5b7a84e1c677de54f3e99bc90260801c5b62020000821615612c14576e5d6af8dedb81196699c329225ee6040260801c5b62040000821615612c33576d2216e584f5fa1ea926041bedfe980260801c5b62080000821615612c50576b048a170391f7dc42444e8fa20260801c5b60008460020b1315612c8f57807fffffffffffffffffffffffffffffffffffffffffffffffffffffffffffffffff81612c8b57612c8b6135c2565b0490505b640100000000810615612ca3576001612ca6565b60005b60ff16602082901c0192505050919050565b600080807fffffffffffffffffffffffffffffffffffffffffffffffffffffffffffffffff85870985870292508281108382030391505080600003612d0f5760008411612d0457600080fd5b508290049050612001565b808411612d1b57600080fd5b6000848688096000868103871696879004966002600389028118808a02820302808a02820302808a02820302808a02820302808a02820302808a02909103029181900381900460010186841190950394909402919094039290920491909117919091029150509392505050565b600060208284031215612d9a57600080fd5b81357fffffffff000000000000000000000000000000000000000000000000000000008116811461200157600080fd5b803563ffffffff81168114612dde57600080fd5b919050565b60008060408385031215612df657600080fd5b82359150612e0660208401612dca565b90509250929050565b600060208284031215612e2157600080fd5b5035919050565b600060208284031215612e3a57600080fd5b813567ffffffffffffffff811115612e5157600080fd5b8201610180818503121561200157600080fd5b6000815180845260005b81811015612e8a57602081850181015186830182015201612e6e565b5060006020828601015260207fffffffffffffffffffffffffffffffffffffffffffffffffffffffffffffffe0601f83011685010191505092915050565b6000604080830185845260206040818601528186518084526060935060608701915060608160051b88010183890160005b83811015612f74578983037fffffffffffffffffffffffffffffffffffffffffffffffffffffffffffffffa00185528151805173ffffffffffffffffffffffffffffffffffffffff1684528681015187850152880151888401889052612f6188850182612e64565b9587019593505090850190600101612ef9565b50909a9950505050505050505050565b60008060408385031215612f9757600080fd5b50508035926020909101359150565b73ffffffffffffffffffffffffffffffffffffffff81168114612fc857600080fd5b50565b60008060408385031215612fde57600080fd5b823591506020830135612ff081612fa6565b809150509250929050565b600080600080600060a0868803121561301357600080fd5b85359450602086013562ffffff8116811461302d57600080fd5b935061303b60408701612dca565b925060608601359150608086013561305281612fa6565b809150509295509295909350565b60006020828403121561307257600080fd5b813567ffffffffffffffff81111561308957600080fd5b82016101a0818503121561200157600080fd5b60006080820186835260208681850152604086604086015260606080606087015283875180865260a08801915060a08160051b890101955084890160005b82811015613155578988037fffffffffffffffffffffffffffffffffffffffffffffffffffffffffffffff600184528151805173ffffffffffffffffffffffffffffffffffffffff16895287810151888a0152860151868901869052613142868a0182612e64565b98505092860192908601906001016130da565b50959c9b505050505050505050505050565b60006020828403121561317957600080fd5b813567ffffffffffffffff81111561319057600080fd5b8201610200818503121561200157600080fd5b600080600080606085870312156131b957600080fd5b8435935060208501359250604085013567ffffffffffffffff808211156131df57600080fd5b818701915087601f8301126131f357600080fd5b81358181111561320257600080fd5b88602082850101111561321457600080fd5b95989497505060200194505050565b60006020828403121561323557600080fd5b815161200181612fa6565b60008083357fffffffffffffffffffffffffffffffffffffffffffffffffffffffffffffffe184360301811261327557600080fd5b83018035915067ffffffffffffffff82111561329057600080fd5b602001915036819003821315611eeb57600080fd5b600080604083850312156132b857600080fd5b505080516020909101519092909150565b7f4e487b7100000000000000000000000000000000000000000000000000000000600052601160045260246000fd5b600181815b8085111561335157817fffffffffffffffffffffffffffffffffffffffffffffffffffffffffffffffff04821115613337576133376132c9565b8085161561334457918102915b93841c93908002906132fd565b509250929050565b600082613368575060016106f3565b81613375575060006106f3565b816001811461338b5760028114613395576133b1565b60019150506106f3565b60ff8411156133a6576133a66132c9565b50506001821b6106f3565b5060208310610133831016604e8410600b84101617156133d4575081810a6106f3565b6133de83836132f8565b807fffffffffffffffffffffffffffffffffffffffffffffffffffffffffffffffff04821115613410576134106132c9565b029392505050565b60006120018383613359565b60006020828403121561343657600080fd5b813561200181612fa6565b7f4e487b7100000000000000000000000000000000000000000000000000000000600052604160045260246000fd5b818103818111156106f3576106f36132c9565b7f4e487b7100000000000000000000000000000000000000000000000000000000600052603260045260246000fd5b8015158114612fc857600080fd5b6000602082840312156134d257600080fd5b8151612001816134b2565b600080600080608085870312156134f357600080fd5b84356134fe816134b2565b9350602085013561350e816134b2565b93969395505050506040820135916060013590565b60006020828403121561353557600080fd5b5051919050565b85815273ffffffffffffffffffffffffffffffffffffffff85166020820152836040820152821515606082015260c06080820152600060c082015260e060a0820152600061358d60e0830184612e64565b979650505050505050565b808201808211156106f3576106f36132c9565b80820281158282048414176106f3576106f36132c9565b7f4e487b7100000000000000000000000000000000000000000000000000000000600052601260045260246000fd5b805161ffff81168114612dde57600080fd5b600080600080600080600060e0888a03121561361e57600080fd5b875161362981612fa6565b8097505060208801518060020b811461364157600080fd5b955061364f604089016135f1565b945061365d606089016135f1565b935061366b608089016135f1565b925060a088015160ff8116811461368157600080fd5b60c0890151909250613692816134b2565b8091505092959891949750929550565b6000826136b1576136b16135c2565b500490565b73ffffffffffffffffffffffffffffffffffffffff8181168382160190808211156136e3576136e36132c9565b5092915050565b73ffffffffffffffffffffffffffffffffffffffff8281168282160390808211156136e3576136e36132c9565b600073ffffffffffffffffffffffffffffffffffffffff8088168352861515602084015285604084015280851660608401525060a0608083015261358d60a0830184612e64565b60007f8000000000000000000000000000000000000000000000000000000000000000820361378f5761378f6132c9565b5060000390565b6020808252825182820181905260009190848201906040850190845b818110156137d457835163ffffffff16835292840192918401916001016137b2565b50909695505050505050565b604051601f82017fffffffffffffffffffffffffffffffffffffffffffffffffffffffffffffffe016810167ffffffffffffffff8111828210171561382757613827613441565b604052919050565b600067ffffffffffffffff82111561384957613849613441565b5060051b60200190565b600082601f83011261386457600080fd5b815160206138796138748361382f565b6137e0565b8083825260208201915060208460051b87010193508684111561389b57600080fd5b602086015b848110156138c05780516138b381612fa6565b83529183019183016138a0565b509695505050505050565b600080604083850312156138de57600080fd5b825167ffffffffffffffff808211156138f657600080fd5b818501915085601f83011261390a57600080fd5b8151602061391a6138748361382f565b82815260059290921b8401810191818101908984111561393957600080fd5b948201945b838610156139675785518060060b81146139585760008081fd5b8252948201949082019061393e565b9188015191965090935050508082111561398057600080fd5b5061398d85828601613853565b9150509250929050565b600682810b9082900b037fffffffffffffffffffffffffffffffffffffffffffffffffff800000000000008112667fffffffffffff821317156106f3576106f36132c9565b60008160060b8360060b806139f3576139f36135c2565b7fffffffffffffffffffffffffffffffffffffffffffffffffffffffffffffffff81147fffffffffffffffffffffffffffffffffffffffffffffffffff8000000000000083141615613a4757613a476132c9565b90059392505050565b60008260060b80613a6357613a636135c2565b808360060b0791505092915050565b60008160020b7fffffffffffffffffffffffffffffffffffffffffffffffffffffffffff8000008103613aa757613aa76132c9565b7fffffffffffffffffffffffffffffffffffffffffffffffffffffffffffffffff0192915050565b77ffffffffffffffffffffffffffffffffffffffffffffffff828116828216818102831692918115828504821417613b0957613b096132c9565b50505092915050565b600077ffffffffffffffffffffffffffffffffffffffffffffffff80841680613b3d57613b3d6135c2565b9216919091049291505056fea2646970667358221220d34f9f731c204c063670610327c6a8f09cfa9ce971eb4d16745ca13d94a0085e64736f6c63430008170033",
			"deployedBytecode": "0x60806040526004361061018b5760003560e01c806388bc2ef3116100d6578063db312fae1161007f578063f434c91411610059578063f434c91414610540578063f73e5aab14610574578063fa461e33146105a857600080fd5b8063db312fae146104e3578063ee0fc121146104f9578063f3c578811461052d57600080fd5b8063ad5c4648116100b0578063ad5c464814610483578063af471880146104b7578063b88a92b4146104cc57600080fd5b806388bc2ef3146103dd5780639c9d436114610411578063aaf320d71461044157600080fd5b80634c4ffc7111610138578063754baf9611610112578063754baf96146103595780637b621d3a1461036f578063889eedb41461038f57600080fd5b80634c4ffc71146102e857806355135de014610316578063677ce0881461033657600080fd5b806327e514111161016957806327e514111461020a578063293c4999146102725780633717fba7146102a657600080fd5b806301ffc9a714610190578063132893eb146101c55780631a65893b146101e7575b600080fd5b34801561019c57600080fd5b506101b06101ab366004612d88565b6105c8565b60405190151581526020015b60405180910390f35b3480156101d157600080fd5b506101e56101e0366004612de3565b6106f9565b005b3480156101f357600080fd5b506101fc607881565b6040519081526020016101bc565b34801561021657600080fd5b5061024d610225366004612e0f565b60026020526000908152604090205473ffffffffffffffffffffffffffffffffffffffff1681565b60405173ffffffffffffffffffffffffffffffffffffffff90911681526020016101bc565b34801561027e57600080fd5b5061024d7f000000000000000000000000f9dada4628eb3992202cf253625d4ecebbc1592f81565b3480156102b257600080fd5b506102d36102c1366004612e0f565b60009081526020819052604090205490565b60405163ffffffff90911681526020016101bc565b3480156102f457600080fd5b50610308610303366004612e28565b6108a7565b6040516101bc929190612ec8565b34801561032257600080fd5b506101e5610331366004612f84565b610b9c565b34801561034257600080fd5b506101b0610351366004612fcb565b600092915050565b34801561036557600080fd5b506101fc61232881565b34801561037b57600080fd5b5061024d61038a366004612ffb565b610ccb565b34801561039b57600080fd5b5061024d6103aa366004612fcb565b600160209081526000928352604080842090915290825290205473ffffffffffffffffffffffffffffffffffffffff1681565b3480156103e957600080fd5b5061024d7f000000000000000000000000cd8c4da77dfb15c05486d3f71ee4c2c0dfdbc94e81565b34801561041d57600080fd5b506101fc61042c366004612e0f565b60009081526020819052604090205460801c90565b34801561044d57600080fd5b5061047361045c366004613060565b6101608101359160808201359160a0013590606090565b6040516101bc949392919061309c565b34801561048f57600080fd5b5061024d7f000000000000000000000000420000000000000000000000000000000000000681565b3480156104c357600080fd5b506101fc606481565b3480156104d857600080fd5b506101fc6202a30081565b3480156104ef57600080fd5b506101fc61271081565b34801561050557600080fd5b5061024d7f000000000000000000000000799d42391ed21894b105590300eed66255d7222581565b6101e561053b366004613167565b611343565b34801561054c57600080fd5b5061024d7f0000000000000000000000001e2e8562b635fe19978640c784e47865a83d660581565b34801561058057600080fd5b5061024d7f0000000000000000000000004752ba5dbc23f44d87826276bf6fd6b1c372ad2481565b3480156105b457600080fd5b506101e56105c33660046131a3565b6118c7565b60007fffffffff0000000000000000000000000000000000000000000000000000000082167f81c03c2e00000000000000000000000000000000000000000000000000000000148061065b57507fffffffff0000000000000000000000000000000000000000000000000000000082167ff3c5788100000000000000000000000000000000000000000000000000000000145b806106a757507fffffffff0000000000000000000000000000000000000000000000000000000082167f8f97abcd00000000000000000000000000000000000000000000000000000000145b806106f357507fffffffff0000000000000000000000000000000000000000000000000000000082167f01ffc9a700000000000000000000000000000000000000000000000000000000145b92915050565b6040517f6352211e000000000000000000000000000000000000000000000000000000008152600481018390526107b5907f000000000000000000000000f9dada4628eb3992202cf253625d4ecebbc1592f73ffffffffffffffffffffffffffffffffffffffff1690636352211e906024015b602060405180830381865afa158015610789573d6000803e3d6000fd5b505050506040513d601f19601f820116820180604052508101906107ad9190613223565b836018611afa565b60788163ffffffff1610806107d257506202a3008163ffffffff16115b15610809576040517fbbedb50a00000000000000000000000000000000000000000000000000000000815260040160405180910390fd5b60008281526020818152604091829020805463ffffffff85167fffffffffffffffffffffffffffffffff000000000000000000000000000000008216811790925583516fffffffffffffffffffffffffffffffff821680825293810192909252339382019390935284907fa8d6b20cd05f07d50e9855ce0fc6de3517f3df2e890a5ec6357892b3808a53ce906060015b60405180910390a250505050565b6000606060008360400160200135905083610120013592506000806000606060006109066040518060400160405280600581526020017f71756f7465000000000000000000000000000000000000000000000000000000815250611cf0565b90506109548161091a6101608c018c613240565b8080601f016020809104026020016040519081016040528093929190818152602001838380828437600092019190915250611d0492505050565b90935091508215610978578180602001905181019061097391906132a5565b955093505b505081600003610986578391505b60006109a1838861099c60808c0135600a613418565b611ef2565b60c08901356000908152600260205260408082205492935073ffffffffffffffffffffffffffffffffffffffff9092169161eeee906109e69060608d01908d01613424565b73ffffffffffffffffffffffffffffffffffffffff1614610a1657610a1160608b0160408c01613424565b610a38565b7f00000000000000000000000042000000000000000000000000000000000000065b905085600003610a5557610a528a60c00135838784612008565b95505b85831015610b905786851115610a97576040517f1f89071e00000000000000000000000000000000000000000000000000000000815260040160405180910390fd5b60408051600180825281830190925273ffffffffffffffffffffffffffffffffffffffff8381169085161091816020015b60408051606080820183526000808352602083015291810191909152815260200190600190039081610ac85750506040805160608101825230815260208101899052919a50810186838b8a14610b2757610b228a8d613470565b610b2a565b60005b604080519315156020850152911515918301919091526060820152608081018a905260a00160405160208183030381529060405281525089600081518110610b7457610b74613483565b6020026020010181905250600099505050505050505050915091565b50505050505050915091565b6040517f6352211e00000000000000000000000000000000000000000000000000000000815260048101839052610c13907f000000000000000000000000f9dada4628eb3992202cf253625d4ecebbc1592f73ffffffffffffffffffffffffffffffffffffffff1690636352211e9060240161076c565b6064811080610c23575061232881115b15610c5a576040517fa7149b6a00000000000000000000000000000000000000000000000000000000815260040160405180910390fd5b600082815260208181526040918290208054608085811b6fffffffffffffffffffffffffffffffff83161790925583519181901c808352928201859052339382019390935284907faafe2470cbfb11a09f9b45d6a795226e93cc251e30fdcabddbabb157a1db535390606001610899565b6040517f6352211e00000000000000000000000000000000000000000000000000000000815260048101869052600090610d899073ffffffffffffffffffffffffffffffffffffffff7f000000000000000000000000f9dada4628eb3992202cf253625d4ecebbc1592f1690636352211e90602401602060405180830381865afa158015610d5d573d6000803e3d6000fd5b505050506040513d601f19601f82011682018060405250810190610d819190613223565b876019611afa565b6064831080610d99575061232883115b15610dd0576040517fa7149b6a00000000000000000000000000000000000000000000000000000000815260040160405180910390fd5b60788463ffffffff161080610ded57506202a3008463ffffffff16115b15610e24576040517fbbedb50a00000000000000000000000000000000000000000000000000000000815260040160405180910390fd5b60007f000000000000000000000000799d42391ed21894b105590300eed66255d7222573ffffffffffffffffffffffffffffffffffffffff16631d831d5c6040518163ffffffff1660e01b8152600401602060405180830381865afa158015610e91573d6000803e3d6000fd5b505050506040513d601f19601f82011682018060405250810190610eb59190613223565b73ffffffffffffffffffffffffffffffffffffffff1663ea78803f886040518263ffffffff1660e01b8152600401610eef91815260200190565b602060405180830381865afa158015610f0c573d6000803e3d6000fd5b505050506040513d601f19601f82011682018060405250810190610f309190613223565b905073ffffffffffffffffffffffffffffffffffffffff8116610f7f576040517fc0a8a55b00000000000000000000000000000000000000000000000000000000815260040160405180910390fd5b7fffffffffffffffffffffffffffffffffffffffffffffffffffffffffffff111273ffffffffffffffffffffffffffffffffffffffff841601610fe0577f000000000000000000000000420000000000000000000000000000000000000692505b73ffffffffffffffffffffffffffffffffffffffff808416908216107f0000000000000000000000004752ba5dbc23f44d87826276bf6fd6b1c372ad2481611028578461102a565b825b826110355783611037565b855b6040805173ffffffffffffffffffffffffffffffffffffffff9384166020820152929091169082015262ffffff89166060820152608001604080517fffffffffffffffffffffffffffffffffffffffffffffffffffffffffffffffe0818403018152908290528051602091820120611132939290917fe34f199b19b2b4f47f68442619d555527d244f78a3297ea89325f843f87b8b5491017fff00000000000000000000000000000000000000000000000000000000000000815260609390931b7fffffffffffffffffffffffffffffffffffffffff0000000000000000000000001660018401526015830191909152603582015260550190565b604080517fffffffffffffffffffffffffffffffffffffffffffffffffffffffffffffffe0818403018152918152815160209283012060008b81526001845282812073ffffffffffffffffffffffffffffffffffffffff8981168352945291909120549094508185169116036111d4576040517f5f801a3e00000000000000000000000000000000000000000000000000000000815260040160405180910390fd5b600088815260016020908152604080832073ffffffffffffffffffffffffffffffffffffffff888116855290835281842080547fffffffffffffffffffffffff0000000000000000000000000000000000000000908116898416179091558c855284845282852063ffffffff8c1660808c901b8117909155600285528386208054909216928816929092179055815193845291830191909152339082015288907fa8d6b20cd05f07d50e9855ce0fc6de3517f3df2e890a5ec6357892b3808a53ce9060600160405180910390a26040805160008152602081018790523381830152905189917faafe2470cbfb11a09f9b45d6a795226e93cc251e30fdcabddbabb157a1db5353919081900360600190a26040805173ffffffffffffffffffffffffffffffffffffffff85811682523360208301528616918a917fe694de883385e30d535f625d68df4b2b5e866e8e86fe9d15554480c8d1812e60910160405180910390a3505095945050505050565b6040517f6e49181f000000000000000000000000000000000000000000000000000000008152602082013560048201523360248201527f000000000000000000000000cd8c4da77dfb15c05486d3f71ee4c2c0dfdbc94e73ffffffffffffffffffffffffffffffffffffffff1690636e49181f90604401602060405180830381865afa1580156113d7573d6000803e3d6000fd5b505050506040513d601f19601f820116820180604052508101906113fb91906134c0565b611431576040517f82b4290000000000000000000000000000000000000000000000000000000000815260040160405180910390fd5b60008080806114446101c0860186613240565b81019061145191906134dd565b93509350935093506000611465868561215f565b905084801561147357508181105b156114aa576040517f1d9e022400000000000000000000000000000000000000000000000000000000815260040160405180910390fd5b600061eeee6114c0610100890160e08a01613424565b73ffffffffffffffffffffffffffffffffffffffff1614611581576114ec610100880160e08901613424565b6040517f70a0823100000000000000000000000000000000000000000000000000000000815230600482015273ffffffffffffffffffffffffffffffffffffffff91909116906370a0823190602401602060405180830381865afa158015611558573d6000803e3d6000fd5b505050506040513d601f19601f8201168201806040525081019061157c9190613523565b611583565b475b905060008115611788576115a6826101608a013561099c60a08c0135600a613418565b905061eeee6115bc6101008a0160e08b01613424565b73ffffffffffffffffffffffffffffffffffffffff1614611683576115e8610100890160e08a01613424565b6040517f095ea7b30000000000000000000000000000000000000000000000000000000081523360048201526024810184905273ffffffffffffffffffffffffffffffffffffffff919091169063095ea7b3906044016020604051808303816000875af115801561165d573d6000803e3d6000fd5b505050506040513d601f19601f8201168201806040525081019061168191906134c0565b505b600061eeee6116996101008b0160e08c01613424565b73ffffffffffffffffffffffffffffffffffffffff16146116bb5760006116bd565b825b905033639e6eec058260208c01356116dc6101008e0160e08f01613424565b876000604051806020016040528060008152506040518763ffffffff1660e01b815260040161170f95949392919061353c565b6000604051808303818588803b15801561172857600080fd5b505af115801561173c573d6000803e3d6000fd5b505060408051878152602080820188905233828401529151918e013594507faacef1bbb194eac329f8f247fbe8cce3eca2ed1f2e0a45a0488c2dd8afe6e51693508190036060019150a2505b6117a1856101608a013561099c60a08c0135600a613418565b6117ab9082613598565b905073ffffffffffffffffffffffffffffffffffffffff7f000000000000000000000000799d42391ed21894b105590300eed66255d722251663c7fb92de60208a01356117f88487613598565b61180a6101c08d016101a08e01613424565b6040517fffffffff0000000000000000000000000000000000000000000000000000000060e086901b1681526004810193909352602483019190915273ffffffffffffffffffffffffffffffffffffffff16604482015260a06064820152600060a48201526001608482015260c4016020604051808303816000875af1158015611898573d6000803e3d6000fd5b505050506040513d601f19601f820116820180604052508101906118bc9190613523565b505050505050505050565b6000806118d683850185612fcb565b9092509050600073ffffffffffffffffffffffffffffffffffffffff821661eeee146119025781611924565b7f00000000000000000000000042000000000000000000000000000000000000065b600084815260016020908152604080832073ffffffffffffffffffffffffffffffffffffffff8581168552925290912054919250163314611991576040517f82b4290000000000000000000000000000000000000000000000000000000000815260040160405180910390fd5b60008088126119a057876119a2565b865b90507fffffffffffffffffffffffffffffffffffffffffffffffffffffffffffff111273ffffffffffffffffffffffffffffffffffffffff841601611a63577f000000000000000000000000420000000000000000000000000000000000000673ffffffffffffffffffffffffffffffffffffffff1663d0e30db0826040518263ffffffff1660e01b81526004016000604051808303818588803b158015611a4957600080fd5b505af1158015611a5d573d6000803e3d6000fd5b50505050505b6040517fa9059cbb0000000000000000000000000000000000000000000000000000000081523360048201526024810182905273ffffffffffffffffffffffffffffffffffffffff83169063a9059cbb906044016020604051808303816000875af1158015611ad6573d6000803e3d6000fd5b505050506040513d601f19601f820116820180604052508101906118bc91906134c0565b3373ffffffffffffffffffffffffffffffffffffffff84168114801590611be457506040517fc161c93f00000000000000000000000000000000000000000000000000000000815273ffffffffffffffffffffffffffffffffffffffff8281166004830152858116602483015260448201859052606482018490527f0000000000000000000000001e2e8562b635fe19978640c784e47865a83d6605169063c161c93f90608401602060405180830381865afa158015611bbe573d6000803e3d6000fd5b505050506040513d601f19601f82011682018060405250810190611be291906134c0565b155b8015611cb357506040517fc161c93f00000000000000000000000000000000000000000000000000000000815273ffffffffffffffffffffffffffffffffffffffff8281166004830152858116602483015260006044830152606482018490527f0000000000000000000000001e2e8562b635fe19978640c784e47865a83d6605169063c161c93f90608401602060405180830381865afa158015611c8d573d6000803e3d6000fd5b505050506040513d601f19601f82011682018060405250810190611cb191906134c0565b155b15611cea576040517f075fd2b100000000000000000000000000000000000000000000000000000000815260040160405180910390fd5b50505050565b805160208201206000903060601b186106f3565b600060606025835111611d295750506040805160208101909152600080825290611eeb565b600083611d3860046020613598565b81518110611d4857611d48613483565b0160209081015160f81c91505b600085611d63600484613598565b81518110611d7357611d73613483565b01602001517fff000000000000000000000000000000000000000000000000000000000000001614801590611db15750611dae6020836135ab565b81105b15611ee857600085611dc4600484613598565b81518110611dd457611dd4613483565b016020908101518784019091015160f89190911c91507fffffffff0000000000000000000000000000000000000000000000000000000080891690821603611ede576000611e236020866135ab565b611e2e600986613598565b101580611e7b575087611e42600986613598565b81518110611e5257611e52613483565b01602001517fff0000000000000000000000000000000000000000000000000000000000000016155b611eb457602088611e8d600987613598565b81518110611e9d57611e9d613483565b0160200151611eaf919060f81c6135ab565b611eb7565b87515b90506001611ed089611eca6020876135ab565b8461246d565b965096505050505050611eeb565b5050600501611d55565b50505b9250929050565b600080807fffffffffffffffffffffffffffffffffffffffffffffffffffffffffffffffff85870985870292508281108382030391505080600003611f4a57838281611f4057611f406135c2565b0492505050612001565b838110611f99576040517f63a057780000000000000000000000000000000000000000000000000000000081526004810187905260248101869052604481018590526064015b60405180910390fd5b600084868809851960019081018716968790049682860381900495909211909303600082900391909104909201919091029190911760038402600290811880860282030280860282030280860282030280860282030280860282030280860290910302029150505b9392505050565b600084815260016020908152604080832073ffffffffffffffffffffffffffffffffffffffff8086168552925282205416803b820361204b576000915050612157565b8073ffffffffffffffffffffffffffffffffffffffff16633850c7bd6040518163ffffffff1660e01b815260040160e060405180830381865afa9250505080156120d0575060408051601f3d9081017fffffffffffffffffffffffffffffffffffffffffffffffffffffffffffffffe01682019092526120cd91810190613603565b60015b6120de576000915050612157565b806120f457600098505050505050505050612157565b50505050505050600086815260208190526040812054908190608082901c9061211d85846124b3565b50905061212c8189898c612777565b955061271061213b83886135ab565b61214591906136a2565b61214f9087613470565b955050505050505b949350505050565b60006101008301803590829061eeee9061217c9060e08801613424565b73ffffffffffffffffffffffffffffffffffffffff16146121ad576121a8610100860160e08701613424565b6121cf565b7f00000000000000000000000042000000000000000000000000000000000000065b602080870135600090815260018252604080822073ffffffffffffffffffffffffffffffffffffffff80861684529352902054919250168063128acb08308715868961222a576122256401000276a360016136b6565b612249565b612249600173fffd8963efd1fc6a506488495d951d5263988d266136ea565b60208c013561225f6101008e0160e08f01613424565b60405160200161228f92919091825273ffffffffffffffffffffffffffffffffffffffff16602082015260400190565b6040516020818303038152906040526040518663ffffffff1660e01b81526004016122be959493929190613717565b60408051808303816000875af1925050508015612316575060408051601f3d9081017fffffffffffffffffffffffffffffffffffffffffffffffffffffffffffffffe0168201909252612313918101906132a5565b60015b61232657600093505050506106f3565b866123315780612333565b815b61233c9061375e565b6040517fa2d532e600000000000000000000000000000000000000000000000000000000815230600482015260208a013560248201526044810182905260806064820152600060848201529096507f000000000000000000000000799d42391ed21894b105590300eed66255d7222573ffffffffffffffffffffffffffffffffffffffff16925063a2d532e6915060a401600060405180830381600087803b1580156123e757600080fd5b505af11580156123fb573d6000803e3d6000fd5b50506040805186815273ffffffffffffffffffffffffffffffffffffffff85166020828101919091529181018890523360608201529089013592507f6a212efdcd471836edcfe424121fc9048d3a7cd0458b1218a71aa915300e0e57915060800160405180910390a250505092915050565b60608282036040519150602081830101604052808252508260208501016020820160005b848110156124a9578281015182820152602001612491565b5050509392505050565b6000808263ffffffff16600003612526576040517f08c379a000000000000000000000000000000000000000000000000000000000815260206004820152600260248201527f42500000000000000000000000000000000000000000000000000000000000006044820152606401611f90565b604080516002808252606082018352600092602083019080368337019050509050838160008151811061255b5761255b613483565b602002602001019063ffffffff16908163ffffffff168152505060008160018151811061258a5761258a613483565b602002602001019063ffffffff16908163ffffffff16815250506000808673ffffffffffffffffffffffffffffffffffffffff1663883bdbfd846040518263ffffffff1660e01b81526004016125e09190613796565b600060405180830381865afa1580156125fd573d6000803e3d6000fd5b505050506040513d6000823e601f3d9081017fffffffffffffffffffffffffffffffffffffffffffffffffffffffffffffffe016820160405261264391908101906138cb565b9150915060008260008151811061265c5761265c613483565b60200260200101518360018151811061267757612677613483565b60200260200101516126899190613997565b90506000826000815181106126a0576126a0613483565b6020026020010151836001815181106126bb576126bb613483565b60200260200101516126cd91906136ea565b90506126df63ffffffff8916836139dc565b965060008260060b12801561270557506126ff63ffffffff891683613a50565b60060b15155b15612718578661271481613a72565b9750505b600061273e73ffffffffffffffffffffffffffffffffffffffff63ffffffff8b16613acf565b905061276877ffffffffffffffffffffffffffffffffffffffff00000000602084901b1682613b12565b96505050505050509250929050565b60008061278386612951565b90506fffffffffffffffffffffffffffffffff73ffffffffffffffffffffffffffffffffffffffff8216116128825760006127d473ffffffffffffffffffffffffffffffffffffffff8316806135ab565b90508373ffffffffffffffffffffffffffffffffffffffff168573ffffffffffffffffffffffffffffffffffffffff16106128445761283f7801000000000000000000000000000000000000000000000000876fffffffffffffffffffffffffffffffff1683612cb8565b61287a565b61287a81876fffffffffffffffffffffffffffffffff167801000000000000000000000000000000000000000000000000612cb8565b925050612948565b60006128ae73ffffffffffffffffffffffffffffffffffffffff83168068010000000000000000612cb8565b90508373ffffffffffffffffffffffffffffffffffffffff168573ffffffffffffffffffffffffffffffffffffffff161061291657612911700100000000000000000000000000000000876fffffffffffffffffffffffffffffffff1683612cb8565b612944565b61294481876fffffffffffffffffffffffffffffffff16700100000000000000000000000000000000612cb8565b9250505b50949350505050565b60008060008360020b12612968578260020b612970565b8260020b6000035b9050620d89e88111156129af576040517f2bc80f3a00000000000000000000000000000000000000000000000000000000815260040160405180910390fd5b6000816001166000036129d3577001000000000000000000000000000000006129e5565b6ffffcb933bd6fad37aa2d162d1a5940015b70ffffffffffffffffffffffffffffffffff1690506002821615612a19576ffff97272373d413259a46990580e213a0260801c5b6004821615612a38576ffff2e50f5f656932ef12357cf3c7fdcc0260801c5b6008821615612a57576fffe5caca7e10e4e61c3624eaa0941cd00260801c5b6010821615612a76576fffcb9843d60f6159c9db58835c9266440260801c5b6020821615612a95576fff973b41fa98c081472e6896dfb254c00260801c5b6040821615612ab4576fff2ea16466c96a3843ec78b326b528610260801c5b6080821615612ad3576ffe5dee046a99a2a811c461f1969c30530260801c5b610100821615612af3576ffcbe86c7900a88aedcffc83b479aa3a40260801c5b610200821615612b13576ff987a7253ac413176f2b074cf7815e540260801c5b610400821615612b33576ff3392b0822b70005940c7a398e4b70f30260801c5b610800821615612b53576fe7159475a2c29b7443b29c7fa6e889d90260801c5b611000821615612b73576fd097f3bdfd2022b8845ad8f792aa58250260801c5b612000821615612b93576fa9f746462d870fdf8a65dc1f90e061e50260801c5b614000821615612bb3576f70d869a156d2a1b890bb3df62baf32f70260801c5b618000821615612bd3576f31be135f97d08fd981231505542fcfa60260801c5b62010000821615612bf4576f09aa508b5b7a84e1c677de54f3e99bc90260801c5b62020000821615612c14576e5d6af8dedb81196699c329225ee6040260801c5b62040000821615612c33576d2216e584f5fa1ea926041bedfe980260801c5b62080000821615612c50576b048a170391f7dc42444e8fa20260801c5b60008460020b1315612c8f57807fffffffffffffffffffffffffffffffffffffffffffffffffffffffffffffffff81612c8b57612c8b6135c2565b0490505b640100000000810615612ca3576001612ca6565b60005b60ff16602082901c0192505050919050565b600080807fffffffffffffffffffffffffffffffffffffffffffffffffffffffffffffffff85870985870292508281108382030391505080600003612d0f5760008411612d0457600080fd5b508290049050612001565b808411612d1b57600080fd5b6000848688096000868103871696879004966002600389028118808a02820302808a02820302808a02820302808a02820302808a02820302808a02909103029181900381900460010186841190950394909402919094039290920491909117919091029150509392505050565b600060208284031215612d9a57600080fd5b81357fffffffff000000000000000000000000000000000000000000000000000000008116811461200157600080fd5b803563ffffffff81168114612dde57600080fd5b919050565b60008060408385031215612df657600080fd5b82359150612e0660208401612dca565b90509250929050565b600060208284031215612e2157600080fd5b5035919050565b600060208284031215612e3a57600080fd5b813567ffffffffffffffff811115612e5157600080fd5b8201610180818503121561200157600080fd5b6000815180845260005b81811015612e8a57602081850181015186830182015201612e6e565b5060006020828601015260207fffffffffffffffffffffffffffffffffffffffffffffffffffffffffffffffe0601f83011685010191505092915050565b6000604080830185845260206040818601528186518084526060935060608701915060608160051b88010183890160005b83811015612f74578983037fffffffffffffffffffffffffffffffffffffffffffffffffffffffffffffffa00185528151805173ffffffffffffffffffffffffffffffffffffffff1684528681015187850152880151888401889052612f6188850182612e64565b9587019593505090850190600101612ef9565b50909a9950505050505050505050565b60008060408385031215612f9757600080fd5b50508035926020909101359150565b73ffffffffffffffffffffffffffffffffffffffff81168114612fc857600080fd5b50565b60008060408385031215612fde57600080fd5b823591506020830135612ff081612fa6565b809150509250929050565b600080600080600060a0868803121561301357600080fd5b85359450602086013562ffffff8116811461302d57600080fd5b935061303b60408701612dca565b925060608601359150608086013561305281612fa6565b809150509295509295909350565b60006020828403121561307257600080fd5b813567ffffffffffffffff81111561308957600080fd5b82016101a0818503121561200157600080fd5b60006080820186835260208681850152604086604086015260606080606087015283875180865260a08801915060a08160051b890101955084890160005b82811015613155578988037fffffffffffffffffffffffffffffffffffffffffffffffffffffffffffffff600184528151805173ffffffffffffffffffffffffffffffffffffffff16895287810151888a0152860151868901869052613142868a0182612e64565b98505092860192908601906001016130da565b50959c9b505050505050505050505050565b60006020828403121561317957600080fd5b813567ffffffffffffffff81111561319057600080fd5b8201610200818503121561200157600080fd5b600080600080606085870312156131b957600080fd5b8435935060208501359250604085013567ffffffffffffffff808211156131df57600080fd5b818701915087601f8301126131f357600080fd5b81358181111561320257600080fd5b88602082850101111561321457600080fd5b95989497505060200194505050565b60006020828403121561323557600080fd5b815161200181612fa6565b60008083357fffffffffffffffffffffffffffffffffffffffffffffffffffffffffffffffe184360301811261327557600080fd5b83018035915067ffffffffffffffff82111561329057600080fd5b602001915036819003821315611eeb57600080fd5b600080604083850312156132b857600080fd5b505080516020909101519092909150565b7f4e487b7100000000000000000000000000000000000000000000000000000000600052601160045260246000fd5b600181815b8085111561335157817fffffffffffffffffffffffffffffffffffffffffffffffffffffffffffffffff04821115613337576133376132c9565b8085161561334457918102915b93841c93908002906132fd565b509250929050565b600082613368575060016106f3565b81613375575060006106f3565b816001811461338b5760028114613395576133b1565b60019150506106f3565b60ff8411156133a6576133a66132c9565b50506001821b6106f3565b5060208310610133831016604e8410600b84101617156133d4575081810a6106f3565b6133de83836132f8565b807fffffffffffffffffffffffffffffffffffffffffffffffffffffffffffffffff04821115613410576134106132c9565b029392505050565b60006120018383613359565b60006020828403121561343657600080fd5b813561200181612fa6565b7f4e487b7100000000000000000000000000000000000000000000000000000000600052604160045260246000fd5b818103818111156106f3576106f36132c9565b7f4e487b7100000000000000000000000000000000000000000000000000000000600052603260045260246000fd5b8015158114612fc857600080fd5b6000602082840312156134d257600080fd5b8151612001816134b2565b600080600080608085870312156134f357600080fd5b84356134fe816134b2565b9350602085013561350e816134b2565b93969395505050506040820135916060013590565b60006020828403121561353557600080fd5b5051919050565b85815273ffffffffffffffffffffffffffffffffffffffff85166020820152836040820152821515606082015260c06080820152600060c082015260e060a0820152600061358d60e0830184612e64565b979650505050505050565b808201808211156106f3576106f36132c9565b80820281158282048414176106f3576106f36132c9565b7f4e487b7100000000000000000000000000000000000000000000000000000000600052601260045260246000fd5b805161ffff81168114612dde57600080fd5b600080600080600080600060e0888a03121561361e57600080fd5b875161362981612fa6565b8097505060208801518060020b811461364157600080fd5b955061364f604089016135f1565b945061365d606089016135f1565b935061366b608089016135f1565b925060a088015160ff8116811461368157600080fd5b60c0890151909250613692816134b2565b8091505092959891949750929550565b6000826136b1576136b16135c2565b500490565b73ffffffffffffffffffffffffffffffffffffffff8181168382160190808211156136e3576136e36132c9565b5092915050565b73ffffffffffffffffffffffffffffffffffffffff8281168282160390808211156136e3576136e36132c9565b600073ffffffffffffffffffffffffffffffffffffffff8088168352861515602084015285604084015280851660608401525060a0608083015261358d60a0830184612e64565b60007f8000000000000000000000000000000000000000000000000000000000000000820361378f5761378f6132c9565b5060000390565b6020808252825182820181905260009190848201906040850190845b818110156137d457835163ffffffff16835292840192918401916001016137b2565b50909695505050505050565b604051601f82017fffffffffffffffffffffffffffffffffffffffffffffffffffffffffffffffe016810167ffffffffffffffff8111828210171561382757613827613441565b604052919050565b600067ffffffffffffffff82111561384957613849613441565b5060051b60200190565b600082601f83011261386457600080fd5b815160206138796138748361382f565b6137e0565b8083825260208201915060208460051b87010193508684111561389b57600080fd5b602086015b848110156138c05780516138b381612fa6565b83529183019183016138a0565b509695505050505050565b600080604083850312156138de57600080fd5b825167ffffffffffffffff808211156138f657600080fd5b818501915085601f83011261390a57600080fd5b8151602061391a6138748361382f565b82815260059290921b8401810191818101908984111561393957600080fd5b948201945b838610156139675785518060060b81146139585760008081fd5b8252948201949082019061393e565b9188015191965090935050508082111561398057600080fd5b5061398d85828601613853565b9150509250929050565b600682810b9082900b037fffffffffffffffffffffffffffffffffffffffffffffffffff800000000000008112667fffffffffffff821317156106f3576106f36132c9565b60008160060b8360060b806139f3576139f36135c2565b7fffffffffffffffffffffffffffffffffffffffffffffffffffffffffffffffff81147fffffffffffffffffffffffffffffffffffffffffffffffffff8000000000000083141615613a4757613a476132c9565b90059392505050565b60008260060b80613a6357613a636135c2565b808360060b0791505092915050565b60008160020b7fffffffffffffffffffffffffffffffffffffffffffffffffffffffffff8000008103613aa757613aa76132c9565b7fffffffffffffffffffffffffffffffffffffffffffffffffffffffffffffffff0192915050565b77ffffffffffffffffffffffffffffffffffffffffffffffff828116828216818102831692918115828504821417613b0957613b096132c9565b50505092915050565b600077ffffffffffffffffffffffffffffffffffffffffffffffff80841680613b3d57613b3d6135c2565b9216919091049291505056fea2646970667358221220d34f9f731c204c063670610327c6a8f09cfa9ce971eb4d16745ca13d94a0085e64736f6c63430008170033",
			"devdoc": {
				"kind": "dev",
				"methods": {
					"afterPayRecordedWith((address,uint256,uint256,(address,uint256,uint256,uint256),(address,uint256,uint256,uint256),uint256,uint256,address,bytes,bytes))": {
						"details": "This function is only called if the minimum return from the swap exceeds the return from minting by paying the project. If the swap reverts (due to slippage, insufficient liquidity, or something else), then the hook mints the number of tokens which a payment to the project would have minted.",
						"params": {
							"context": "The pay context passed in by the terminal."
						}
					},
					"beforePayRecordedWith((address,address,(address,uint256,uint256,uint256),uint256,uint256,address,uint256,uint256,bytes))": {
						"params": {
							"context": "Payment context passed to the data hook by `terminalStore.recordPaymentFrom(...)`. `context.metadata` can specify a Uniswap quote and specify how much of the payment should be used to swap. If `context.metadata` does not specify a quote, one will be calculated based on the TWAP. If `context.metadata` does not specify how much of the payment should be used, the hook uses the full amount paid in."
						},
						"returns": {
							"hookSpecifications": "Specifications containing pay hooks, as well as the amount and metadata to send to them. Fulfilled by the terminal. If tokens are only being minted, `hookSpecifications` will be empty.",
							"weight": "The weight to use. If tokens are being minted from the project, this is the original weight. If tokens are being bought from the pool, the weight is 0. If tokens are being minted AND bought from the pool, this weight is adjusted to take both into account."
						}
					},
					"beforeRedeemRecordedWith((address,address,uint256,uint256,uint256,uint256,(address,uint256,uint256,uint256),bool,uint256,bytes))": {
						"details": "Pass redeem context back to the terminal without changes.",
						"params": {
							"context": "The redeem context passed in by the terminal."
						}
					},
					"constructor": {
						"params": {
							"controller": "The controller used to mint and burn tokens.",
							"directory": "The directory of terminals and controllers.",
							"factory": "The address of the Uniswap v3 factory. Used to calculate pool addresses.",
							"weth": "The WETH contract."
						}
					},
					"setPoolFor(uint256,uint24,uint32,uint256,address)": {
						"details": "Uses create2 for callback auth and to allow adding pools which haven't been deployed yet. This can be called by the project's owner or an address which has the `JBPermissionIds.CHANGE_BUYBACK_POOL` permission from the owner.",
						"params": {
							"fee": "The fee used in the pool being set, as a fixed-point number of basis points with 2 decimals. A 0.01% fee is `100`, a 0.05% fee is `500`, a 0.3% fee is `3000`, and a 1% fee is `10000`.",
							"projectId": "The ID of the project to set the pool for.",
							"terminalToken": "The address of the terminal token that payments to the project are made in.",
							"twapSlippageTolerance": "The maximum spread allowed between the amount received and the TWAP.",
							"twapWindow": "The period of time over which the TWAP is computed."
						},
						"returns": {
							"newPool": "The pool that was set for the project and terminal token."
						}
					},
					"setTwapSlippageToleranceOf(uint256,uint256)": {
						"details": "This can be called by the project's owner or an address with `JBPermissionIds.SET_BUYBACK_TWAP` permission from the owner.",
						"params": {
							"newSlippageTolerance": "The new TWAP slippage tolerance, out of `TWAP_SLIPPAGE_DENOMINATOR`.",
							"projectId": "The ID of the project to set the TWAP slippage tolerance of."
						}
					},
					"setTwapWindowOf(uint256,uint32)": {
						"details": "This can be called by the project's owner or an address with `JBPermissionIds.SET_BUYBACK_TWAP` permission from the owner.",
						"params": {
							"newWindow": "The new TWAP window.",
							"projectId": "The ID of the project to set the TWAP window of."
						}
					},
					"supportsInterface(bytes4)": {
						"details": "Returns true if this contract implements the interface defined by `interfaceId`. See the corresponding https://eips.ethereum.org/EIPS/eip-165#how-interfaces-are-identified[EIP section] to learn more about how these ids are created. This function call must use less than 30 000 gas."
					},
					"twapSlippageToleranceOf(uint256)": {
						"details": "The \"TWAP slippage tolerance\" is the maximum negative spread between the TWAP and the expected return from a swap. If the expected return unfavourably exceeds the TWAP slippage tolerance, the swap will revert.",
						"params": {
							"projectId": "The ID of the project which the TWAP slippage tolerance applies to."
						},
						"returns": {
							"_0": "tolerance The maximum slippage allowed relative to the TWAP, as a percent out of `TWAP_SLIPPAGE_DENOMINATOR`."
						}
					},
					"twapWindowOf(uint256)": {
						"details": "The \"TWAP window\" is the period over which the TWAP is computed.",
						"params": {
							"projectId": "The ID of the project which the TWAP window applies to."
						},
						"returns": {
							"_0": "secondsAgo The TWAP window in seconds."
						}
					},
					"uniswapV3SwapCallback(int256,int256,bytes)": {
						"params": {
							"amount0Delta": "The amount of token 0 being used for the swap.",
							"amount1Delta": "The amount of token 1 being used for the swap.",
							"data": "Data passed in by the swap operation."
						}
					}
				},
				"version": 1
			},
			"userdoc": {
				"kind": "user",
				"methods": {
					"CONTROLLER()": {
						"notice": "The controller used to mint and burn tokens."
					},
					"DIRECTORY()": {
						"notice": "The directory of terminals and controllers."
					},
					"MAX_TWAP_SLIPPAGE_TOLERANCE()": {
						"notice": "Projects cannot specify a TWAP slippage tolerance larger than this constant (out of `MAX_SLIPPAGE`)."
					},
					"MAX_TWAP_WINDOW()": {
						"notice": "Projects cannot specify a TWAP window longer than this constant."
					},
					"MIN_TWAP_SLIPPAGE_TOLERANCE()": {
						"notice": "Projects cannot specify a TWAP slippage tolerance smaller than this constant (out of `MAX_SLIPPAGE`)."
					},
					"MIN_TWAP_WINDOW()": {
						"notice": "Projects cannot specify a TWAP window shorter than this constant."
					},
					"PERMISSIONS()": {
						"notice": "A contract storing permissions."
					},
					"PROJECTS()": {
						"notice": "The project registry."
					},
					"TWAP_SLIPPAGE_DENOMINATOR()": {
						"notice": "The denominator used when calculating TWAP slippage percent values."
					},
					"UNISWAP_V3_FACTORY()": {
						"notice": "The address of the Uniswap v3 factory. Used to calculate pool addresses."
					},
					"WETH()": {
						"notice": "The wETH contract."
					},
					"afterPayRecordedWith((address,uint256,uint256,(address,uint256,uint256,uint256),(address,uint256,uint256,uint256),uint256,uint256,address,bytes,bytes))": {
						"notice": "Swap the specified amount of terminal tokens for project tokens, using any leftover terminal tokens to mint from the project."
					},
					"beforePayRecordedWith((address,address,(address,uint256,uint256,uint256),uint256,uint256,address,uint256,uint256,bytes))": {
						"notice": "The `IJBRulesetDataHook` implementation which determines whether tokens should be minted from the project or bought from the pool."
					},
					"beforeRedeemRecordedWith((address,address,uint256,uint256,uint256,uint256,(address,uint256,uint256,uint256),bool,uint256,bytes))": {
						"notice": "To fulfill the `IJBRulesetDataHook` interface."
					},
					"hasMintPermissionFor(uint256,address)": {
						"notice": "Required by the `IJBRulesetDataHook` interfaces. Return false to not leak any permissions."
					},
					"poolOf(uint256,address)": {
						"notice": "The Uniswap pool where a given project's token and terminal token pair are traded."
					},
					"projectTokenOf(uint256)": {
						"notice": "The address of each project's token."
					},
					"setPoolFor(uint256,uint24,uint32,uint256,address)": {
						"notice": "Set the pool to use for a given project and terminal token (the default for the project's token <-> terminal token pair)."
					},
					"setTwapSlippageToleranceOf(uint256,uint256)": {
						"notice": "Set the TWAP slippage tolerance for a project. The TWAP slippage tolerance is the maximum spread allowed between the amount received and the TWAP."
					},
					"setTwapWindowOf(uint256,uint32)": {
						"notice": "Change the TWAP window for a project. The TWAP window is the period of time over which the TWAP is computed."
					},
					"twapSlippageToleranceOf(uint256)": {
						"notice": "Get the TWAP slippage tolerance for a given project ID."
					},
					"twapWindowOf(uint256)": {
						"notice": "Get the TWAP window for a given project ID."
					},
					"uniswapV3SwapCallback(int256,int256,bytes)": {
						"notice": "The Uniswap v3 pool callback where the token transfer is expected to happen."
					}
				},
				"version": 1
			},
			"gitCommit": "aa998ff9a4200231b3cffba6790ad1c24035cf6c",
			"sourceName": "src/JBBuybackHook.sol",
			"chainId": "84532",
			"linkReferences": {},
			"deployedLinkReferences": {}
		}
	]
}